:020000040800F2
:100000000050002045F60008E5530008C9680008C4
:10001000E3530008E1530008DF530008000000002C
:10002000000000000000000000000000DD53000898
:10003000DB53000800000000D9530008B7C70008D0
:10004000E1F60008E1F60008E1F60008E1F6000834
:10005000E1F60008E1F6000815D8000829D80008E4
:1000600025D8000821D800081DD8000831970008BD
:10007000219700081197000801970008F1960008E1
:10008000DD960008CB960008E1F60008E1F60008CE
:10009000A9540008E1F60008E1F6000819D80008A4
:1000A000E1F60008E1F60008E1F60008E1F60008D4
:1000B0009DC50008E1F600088DC50008ADBB00082D
:1000C000B1BB0008A5BB0008A9BB0008E1F6000809
:1000D000E1F60008E1F60008E1F60008E1F60008A4
:1000E00011D80008E1F60008C9530008000000001C
:1000F0000000000000000000000000000000000000
:0C01000000000000000000005FF808F1A3
:1001100050282DE9F84F0C4600F0538500F2C380BB
:10012000342800F0D4834AD8222800F0AC8323D8A6
:10013000032800F02F8208D8012800F01582022839
:1001400000F022820020BDE8F88F052800F03682FA
:10015000C0F02A820A28F5D1BF480EF085FA0023A4
:10016000BE49834280F2FD815A18557B22680133D3
:10017000561C26601570F4E7282800F0788412D801
:10018000242800F071842628DCD1B44D2046B5F82F
:1001900008110BF03EFAB5F80C1120460BF039FAB5
:1001A000B5F8101106E22C2800F08284322800F005
:1001B000CA842A28C6D1A94B93F8D7215DE24228E8
:1001C00000F0C88433D83A2800F0F98420D83628C3
:1001D00000F0BE813828B5D1A04B226893F85C119D
:1001E000501C20601170226893F86011501C206030
:1001F0001170226893F85F11501C20601170226802
:1002000093F86111501C2060117093F8632134E25F
:100210003D2800F0C182402800F099843B2891D10C
:1002200001200B685A1C0A601870BDE8F88F492835
:1002300000F0EE820ED8452800F0E384462800F056
:10024000B18444287FF47EAF002A00F08A81844B79
:10025000136086E14D2800F060814F2800F0C384D0
:100260004B287FF46FAF7D4D0B6895F8DA21591C50
:1002700021601A70236895F8DB21591C21601A70DF
:10028000B5F8DC1120460BF0C4F9236895F8DE219F
:10029000591C21601A70B5F8E01120460BF0B9F92D
:1002A00095F8E221E9E16E2800F0498200F2998098
:1002B000642800F0908145D85A2800F0CE840AD8EE
:1002C000522802D054287FF43DAF23685A1C226084
:1002D00000221A7045E15E2800F0FD84602800F0DD
:1002E0004F855C287FF42EAF5C4E0B6896F8232177
:1002F0005C4D591C21601A702B682046198C0BF03C
:1003000088F92B682046598C0BF083F9B6F8261132
:1003100020460BF07EF9B6F8281120460BF079F94B
:100320002B682046998C0BF074F92B682046D98CE9
:100330000BF06FF9B6F82A1120460BF06AF9B6F8FF
:100340002C1137E1682800F0D28134D8652800F0FC
:10035000988166287FF4F6AE434E00253289B2F5C7
:10036000007F94BF012704277319196B204691FB66
:10037000F7F1043589B20BF04CF90C2DF4D10125BD
:100380003A4E3B4FB96956F825000EF0D9FF11F0EF
:100390009BF8013581B220460BF03BF9042DF1D1D9
:1003A0000025344E36F82510204601350BF031F982
:1003B000032DF7D1D5E06C2800F0AC8100F2BA81B2
:1003C00069287FF4BFAE00252B4E2C4F33789D4219
:1003D00080F2C78037F8151020460BF01AF9013566
:1003E000F4E777287FD04DD8722800F0CB821FD851
:1003F0006F2800F0108270287FF4A4AE0022194903
:100400000B68985C23685D1C256018700B681344AA
:10041000987A23685D1C256018700B681344187D5A
:10042000236801325D1C0A2A25601870E8D198E023
:10043000742800F07782C0F0FA8275287FF482AECB
:100440000F4A12F8013F002B00F08B802168481CF6
:1004500020600B70F5E700BF6120002054200020D1
:10046000A1E40008E0180020081E0020880C0020ED
:10047000A0060020941E00202C1500201616002037
:10048000D23B0108962800F0BC8016D87D2800F0E9
:10049000BE837E2800F0D1837C287FF453AEC34D09
:1004A0002046B5F800110BF0B4F8B5F8021120465B
:1004B0000BF0AFF8B5F804117CE0F02800F0CB8227
:1004C000FE2800F0BD82A0287FF43CAEB84B204649
:1004D00019680BF08AF8B74B204619680BF085F8BD
:1004E000B54B196889E000224FF00C0EB349B448AF
:1004F00001F1480791F867309A4232DA002312F886
:1005000007C00EFB03F52E182D5C654500F07B84BB
:100510000133202BF5D10132ECE70026A94DAA4F7B
:100520003B7802359E421CDA236815F8022C591CD0
:1005300021601A7015F8011C204601EB810101EBC6
:10054000810101F2EE2189B20BF063F80136E7E791
:10055000964D9E4B95F9E62193F90030934200F0B9
:100560002B840120BDE8F88F0B685A1C0A6000221A
:100570001A700B685A1C0A6018700B685A1C0A60C3
:1005800020221A70BDE8F88F0422914920460BF012
:1005900022F8E6E70B685A1C0A6018700B685A1CB0
:1005A0000A6002221A7090E604228A4920460BF063
:1005B00012F8002120460BF02CF8D2E70B228649D6
:1005C00020460BF008F80822844920460BF003F877
:1005D00007228349DAE70B685A1C0A60E7221A707F
:1005E000724B93F8D7210B68591C21601A7023684D
:1005F00004215A1C226000221A7020460AF0F5FFDE
:10060000AFE7784B2046B3F858100BF002F8002102
:1006100020460AF0FEFF744B20461968C1F3C00360
:10062000C1F380029B0043EA4203C1F3400213433B
:10063000C1F3401243EAC20301F0100119430AF06A
:10064000E8FF0DF04DFF014620460AF0CEFF574B64
:10065000204693F800232368591C21601A70634BCD
:1006600019886429A8BF64210AF0D3FF23685A1CA3
:10067000226002221A705E4B1A782368591C21608E
:1006800027E6584B2046B3F858100AF0C2FF204620
:1006900000210AF0BEFF544B20461968C1F3C00385
:1006A000C1F380029B0043EA4203C1F340021343BB
:1006B000C1F3401243EAC20301F0100119430AF0EA
:1006C000A8FF0DF00DFF014620460AF08EFF374BC4
:1006D000204693F800232368591C21601A70434B6D
:1006E00019886429A8BF64210AF093FF61E70025F7
:1006F0001426404FDFF8148106FB0573197B31B9CE
:10070000204601350AF085FF082DF5D129E738F894
:100710001510F5E7384D204629880AF07AFF6988D8
:1007200020460AF076FF0A23B5F9041091FBF3F195
:1007300089B23FE7002120460AF057FF39E72F4BE7
:100740004FF6FF751B880A68FF2BA8BFFF23511CBB
:10075000216013702A4B20461968A942A8BF294678
:1007600021EAE17189B20AF054FF264B204619882C
:100770000AF04FFF0D4B93F86921234B42B10A2138
:100780001B685943A942A8BF294621EAE171CFE776
:10079000196801F30F01CBE7044B226893F8D611D7
:1007A000501C2060117093F8D52166E7542000207A
:1007B000E8F7FF1FECF7FF1FF0F7FF1FA006002070
:1007C000703C0108F42100202C1500206824002032
:1007D000BD560108C2560108C8560108D456010882
:1007E000C562010814000020041E0020E41200204D
:1007F00090110020B4110020641E00203811002048
:100800003411002066090020B0080020B81D002027
:10081000A14B1988CEE6A14D2B681A780B68591C9C
:1008200021601A702B689A782368591C21601A700D
:1008300000232A681A44517922680133501C032B83
:1008400020601170F5D12B6820461A7A2368591C54
:1008500021601A702B68DA782368591C21601A709D
:100860002B681A792368591C21601A702B685989E2
:100870000AF0CFFE2B685A7A2368591C21601A703F
:100880002B685A78F9E60C27854A864E02F150010A
:1008900092F80133043207FB0363187A23685D1C66
:1008A00025601870236892F8FE025D1C25601870A0
:1008B000236892F8FF025D1C25601870236892F887
:1008C00000035D1C914225601870E1D149E6744B2C
:1008D00003F15A01226893F85603551C25601070E5
:1008E000226893F85103551C25601070226893F814
:1008F0005203551C25601070226893F85303551C51
:1009000025601070226893F85403551C2560107000
:10091000226893F855030633551C8B4225601070EE
:10092000D8D11EE601274FF00C0BDFF88081DFF8ED
:10093000749108F1480A002698F867309E4204DB5B
:10094000002F3FF40EAE0027F5E7002316F80A004B
:100950000BFB03F202EB090112F80920824200F0BE
:1009600049820133202BF3D10136E5E7226813F8E1
:10097000011B02F1010EC4F800E011705A1B824203
:10098000F4DBF1E7464D2046B5F88E110AF041FE42
:10099000B5F8F81020460AF03CFEB5F8FA102046EB
:1009A0000AF037FEB5F8FC1020460AF032FEB5F822
:1009B000DC1120460AF02DFE2268531C2360002320
:1009C00013702268511C216013702268511C216031
:1009D0001370226895F86911501C2060117022680C
:1009E00095F88B11501C2060117022682046511C14
:1009F000216013700A23B5F92E1191FBF3F189B22E
:100A00000AF007FE236895F85C21591C21601A70D2
:100A1000236895F86021591C21601A70236895F8A5
:100A20005F21591C21601A7095F8612125E6012388
:100A30002268511C216013700133092BF8D190E515
:100A40000025194E36F81510204601350AF0E1FD53
:100A5000042DF7D185E5124D2046B5F844110AF072
:100A6000D8FDB5F84211A5E50D4B9968C5E50C4DCB
:100A70002046B5F864110AF0CCFDB5F866112046A1
:100A80000AF0C7FD236895F86821591C21601A7087
:100A9000B5F86A118EE500BF880C00205C090020C3
:100AA00054200020703C010836190020A0060020C8
:100AB000BB4D0B6895F88021591C21601A70B5F860
:100AC000921120460AF0A5FDB5F88E1120460AF0D5
:100AD000A0FDB5F8901120460AF09BFD236895F81B
:100AE0008921591C21601A70B5F89C1120460AF022
:100AF00090FDB5F89E1120460AF08BFD236895F80D
:100B00009421591C21601A70236895F89621591C6C
:100B100021601A70B5F89A1120460AF07AFD236810
:100B200095F88221591C21601A70D5F8841120464D
:100B30000AF05BFD236895F88821591C21601A7022
:100B400095F8972199E5964B93F88B2195E5082226
:100B500094491BE5924D0B6895F8D721591C2160EB
:100B60001A70A96820460AF040FD236895F8802194
:100B7000591C21601A70B5F8081120460AF049FD89
:100B8000B5F80C1120460AF044FDB5F810112046C6
:100B90000AF03FFDB5F8641120460AF03AFDB5F8B9
:100BA000661107E500250B6820465A1C0A601D7077
:100BB00029460AF01AFD002120460AF016FD002100
:100BC0001BE50A68531C0B60002313700A68511C54
:100BD000216013702268511C216013702268511C1F
:100BE00021601370BDE400250B685A1C0A601D705B
:100BF0000B685A1C0A601D700B685A1C0A601D7035
:100C0000D9E70B22684920460AF0E5FCD3E7644B9C
:100C1000226893F87011501C20601170226893F8BC
:100C20007111501C20601170226893F87211501CD1
:100C300020601170B3F80611BCE4594B226893F898
:100C40001E11501C20601170226893F83A11501C3C
:100C50002060117093F830210FE5514D0B6895F825
:100C600021216AB35A1C0A6008221A700B685A1CA8
:100C70000A6001221A70236895F8E420591C21604B
:100C80001A70236895F8E220591C21601A70B5F893
:100C9000E01020460AF0BDFC4449D5F8F4000EF0FF
:100CA0009BFA10F011FC81B220460AF0B2FC2368D6
:100CB00095F82521591C21601A7095F8E320DCE491
:100CC00095F82021591C21601A70236895F81C2181
:100CD000591C2160CEE7364D002120460AF099FCD0
:100CE000002120460AF095FC2B682046598D0AF019
:100CF00090FC23685A1C226000221A702B6893F81B
:100D000031102368581C206019702B6893F83C1030
:100D10002368581C206019702B6893F83D102368D5
:100D2000581C206019702368591C21601A702368B0
:100D3000591C21601A702368591C21601A702B6895
:100D40001C49586C0EF048FA10F0BEFB81B22046E8
:100D50000AF05FFC2B681749186C0EF03DFA10F092
:100D6000B3FB81B220460AF054FC2B6893F8332081
:100D70002368591C21601A702B6893F834207CE496
:100D8000074B226893F83B11501C206011702268B9
:100D900093F84811501C2060117093F831216CE4D5
:100DA00054200020CC210020C85601080000C84271
:100DB000E0180020000020410B682046591C2160EB
:100DC0001A70B5F8E4110AF024FC236895F8E721BD
:100DD000591C21601A70236895F8E821591C21607C
:100DE0001A70236895F8EA21591C21601A7095F849
:100DF000E92142E44D6828460DF036FC002F7FF4CF
:100E0000B3AD2B46BAE52368357A5E1C26601D70AB
:100E1000FFF781BB2DE9F04F00F59C4387B02033ED
:100E20000193019AB84B06461A60B84BDFF824B319
:100E30001D78002D6BD0B64A1268904201D9013D51
:100E40001D70B44B1A68009312F4805F05D0B24B4A
:100E50001B68D80701D405F025FD9BF88B010028FD
:100E600000F07E81AD4A9BF88D31013832F91000D7
:100E70001BB1C0F53B60083000B2A0F57A70B0F548
:100E80007A7FA8BF4FF47A7020EAE0700EF050F934
:100E9000A3490EF0A1F90EF0A1FBA24B1880009B14
:100EA000DFF8B4821B6813F4807F00F0CF819E4B83
:100EB0009E4F9E4203D9BA780AB90122BA70BA7815
:100EC000002A00F0C381944997F821500B6898F8E4
:100ED000002003F08063012D02F0040A01930291C7
:100EE00000F0788112F0080F0CBF00260226904C0B
:100EF000DFF8289297F82020052A00F2A381DFE886
:100F000012F06B01C201CD01EE01FC01150207F0E8
:100F100011F9D8468146874CDFF82CA2A94544DC5C
:100F20004FF47A7142F20102B6FBF1F1794B009174
:100F30001B6813400293804B06D0804A12781A70C7
:100F40007F4A11787F4A117093F800A0BAF1000F20
:100F500004D07C4B93F800A08AF0010A0F230025EF
:100F6000DFF8F891DFF8B48184F8243007F0E2F874
:100F7000854246DB94F824306D4A0F2B6B4B40F0D2
:100F8000A480654909684D0100F19F801268D96805
:100F90009A60521AC82A02D9012283F8212094F8B3
:100FA000B830013384F8B8304BE7072DD8BF05EBD4
:100FB0000B03E9B26448D8BF93F87811DAF804302B
:100FC0009847032D17DCB8F8C421B8F8C63190B1A2
:100FD0004FF47A71801A48439B1A90FBF3F040F269
:100FE000EE2308449842B8BF184640F6CA03984218
:100FF000A8BF184680B224F8150008F1040801358E
:101000008CE76B00BAF1000F1BD034F91500BBF868
:101010009C2180B282424FEA850203D8BBF89E1120
:10102000814221D249498A58009991420BD238F81D
:101030000300029AF2B928F80300013509F1060904
:1010400094E75046E3E7E8B2039307F08BF8032DEB
:10105000039BEEDC012202FA05F194F8242022EA37
:10106000010284F82420E4E70099384F01F59671D5
:10107000B950DEE7032394F8B8E06900BEFBF3F350
:1010800003EB4303AEEB0303DBB24A19134404EB57
:101090004303D88494F8B9302BB9BEF1020F11D9AB
:1010A000012384F8B930B9F80030B9F802001844C7
:1010B000B9F804301844264B00B25852032390FB71
:1010C000F3F080B228F80100B7E701211C4812684C
:1010D00001701C48DA60017099680025521A59683D
:1010E000DFF838808A4284BF002283F8212007F08D
:1010F00021F88542BFF653AFE8B207F033F828F87D
:1011000015000135F3E700BF381500204016002018
:101110003C16002004150020340B00201616002079
:10112000AAF1823F66090020404B4C004416002083
:10113000D028002008070020F81400200015002007
:101140001C0200201D0200202C1500207807002022
:10115000C207002054200020380B00202E0700205A
:10116000009B1B6819047FF59AAE7A4AD2F8D430F6
:10117000F31A002BFFF693AE019B92F8F410C2F81D
:10118000D43092F8E930013102EB4303B3F8EC407C
:101190009BF88C31A4B294FBF3F4034601F00F01E9
:1011A00082F8F410114481F8F540F532995C01336E
:1011B0000844102B00B2F9D190FBF3F000B20028E4
:1011C00006DB6428A8BF64200DF0B2FF624960E628
:1011D0000020F9E700268AE6BAF1000F2AD00CF0C9
:1011E0005BFE012806D164202168BBF8E02100FBEA
:1011F00002123A61019B5BB19BF8DE2142B109F01A
:1012000065FE032287F820204FF47A72FA6171E6B6
:10121000012D17D022683969914207D209F056FE94
:10122000032287F8202040F6B832EFE7012287F842
:1012300020205FE6019B4FF480600BB30CF0F8FDBB
:1012400000223A6116B1304609F00EF80CF024FE87
:1012500005460CF049FE3F4C002800F0838098F8CA
:1012600000305B077ED53D4BB3F90620BBF89A31C1
:101270009A42C0F29382012384F80531012384E06D
:101280000CF0C6FDDCE7012D01D10522CFE79BF86C
:10129000E221012AC2D009F019FE2BE6012D04BF7C
:1012A000052287F82020BAF1000F0CD00326BBF9E5
:1012B0008E21A9F80020A9F80220A9F80420BBF883
:1012C000DC21A9F8062022687969914202D3BAF19B
:1012D000000F3BD147F23052FA610322A7E798F89A
:1012E000002042F0020288F8002005F0DBFA2168B5
:1012F000FA690A44BA61042299E7012D11D12268E2
:10130000B96991429ED2164B1A781AB9029B1A6893
:10131000D20797D498F8002022F0020288F8002023
:10132000B3E72168FA690A44BA618BE7642021684F
:10133000BBF8E02100FB02123A6100224FF480600A
:1013400087F82020FA700CF063FDD3E5012D3FF4FF
:10135000D1AD77E70807002014AE2341A408002090
:101360001C030020002384F80531002D86D10023C2
:10137000C4F80831C4F80C31C4F81031B04B1B6804
:1013800093F83230002B7FF479AF84F8143198F859
:1013900000305F0725D5009B1B68DE0621D5A94AD2
:1013A0001278D0061DD4D9041BD40CF09DFDC0B911
:1013B000A54B1B78002B00F00C829BF8D631002D3A
:1013C00040F0F581002B00F00682A04B1A68D4F89B
:1013D00018319B1A002B80F2FE8105F063FA84F825
:1013E0001C5100221346BBF89061BBF892719849DA
:1013F00031F912009B08B042C4BF63F07F03DBB237
:101400000132B842B8BF43F04003042AF0D194F847
:101410001D219A4240F0E68194F81E21F92A02D853
:10142000013284F81E21884F84F81D313B78894EA3
:1014300063B93268D20740F1D78184F81F312DB9E2
:1014400098F80030DD0701D505F0D8F994F81E3181
:10145000142B19D13B785BB194F81D315F2B07D168
:1014600098F8003013F0040500F0E08105F01AFA56
:1014700098F8003013F0040206D194F81D31572B70
:1014800040F0DA8103F03CFC009B1B685A0726D52C
:1014900094F822319BB198F800305B070FD56C4B64
:1014A000B3F90620BBF890319A4208DD336813F097
:1014B000010302BF322284F82231A4F826213368C6
:1014C000DF0340F11D8294F828312BB994F82031C4
:1014D00013B93223A4F82631012384F828310023DC
:1014E0004FF001095C4D336005F15007294615F8AE
:1014F000010C0CF0ABFC30B115F8023C326809FA73
:1015000003F3134333600435AF42EFD1534B1E78DE
:10151000002E00F017824F4E33689D0709D4009BC0
:101520001B68D90540F1E7834D4BDB78002B00F0B9
:10153000E2834C4B1B689A0740F1DD834A4B1B88C2
:1015400013F0010540F0DC8301200CF071FC3268DF
:10155000530740F1D783002D00F0D48301200CF015
:1015600057FC414B1B889F0702D402200CF060FC03
:1015700033684FF480701D0540F1C8830CF058FCAF
:101580009BF8D731082B01D00E2B02D140200CF054
:101590003FFC009B1B68590514D59BF8F831002BC4
:1015A00040F0B78398F8003013F0040F00F0CB83BD
:1015B00000222E4B2E4F1A700AF09CFC0646002E7D
:1015C00040F0AB83012384F86431214BB3F906501A
:1015D000284B1B685A89954280F2BA834FF07E539C
:1015E000C4F868319BF9743100225B429BB2184603
:1015F00040F2E639BBF88E119BF871C19BF870E19F
:101600001D4E134B570033F9123001935B1A03F24E
:10161000F31ACA4500F21F84002BB8BF5B42022AAE
:1016200000F01E84734540F3A783A3EB0E03F3532E
:10163000019B8B42C0F21F840132032AE1D11DE0DD
:10164000E0180020701E00201C030020D02800207D
:1016500016160020340B002057230020D81200203B
:1016600044160020041E00206C290020A424002021
:10167000681600205C090020A4080020009B1A685E
:1016800012F4805200F07A83B5F5FA6FA8BF4FF4D8
:10169000FA65B5F57A7FB8BF4FF47A75A5F57A7516
:1016A0004FF0640E6FF0630C95FBFEF304EB430008
:1016B0000CFB0353B0F96C71B0F96E01C01B4343CE
:1016C00093FBFEF33B449BB2F380AAB1944A1268A9
:1016D000D20011D5934AD27872B94FF47A72A3F539
:1016E0007A731BB21B0393FBF2F3C1F5FA6212B2D9
:1016F000534301EB2331F1808B4B1B885B0642D5B2
:101700008A4BB3F904000A2390FBF3F0B4F8843158
:10171000C01A00B20DF00CFD85490DF05DFD854944
:1017200005460DF051FC0CF07EFD834628460CF07A
:101730007AFD0546B6F902000DF0FAFC0746B6F947
:1017400000000DF0F5FC594681460DF045FD394687
:10175000824628460DF040FD014650460DF032FC11
:101760000DF016FF5946308038460DF035FD4946DC
:10177000074628460DF030FD014638460DF024FCA2
:101780000DF006FF708098F800305F0740F10A8383
:10179000012007B0BDE8F04F0AF086BA002D7FF4B3
:1017A0006DAD94F80531002B7FF468ADDFE53BB1FA
:1017B0004FF47A71604A126801FB0323C4F81831B0
:1017C00094F81C31002B3FF40CAE08F039FD0023D7
:1017D00005E0002DF4D1102008F046FD012384F827
:1017E0001C31FEE500221CE698F8003058077FF512
:1017F0002DAE524B1B78002B3FF428AE494BDB78C3
:10180000002B7FF423AE94F81F310133DBB2032B9E
:1018100084F81F317FF61AAE9BF8D53113B105F06D
:1018200041F813E6002D7FF411AEF8E70B2008F025
:101830001BFD84F81E511BE600990968490717D55E
:101840005A2B15D194F820312BB1012384F8202193
:1018500084F8213118E694F8223183F0010384F8EA
:1018600022311BB10C2008F0FFFC0DE60D20FAE739
:101870005D2B00F0D6825B2B00F0DA825E2B40F00D
:10188000D9820320CEE294F81D31972B04D14FF476
:10189000C873A4F82431F7E5A72B05D1284A13789B
:1018A00043F004031370EFE50022BB2B059216D121
:1018B0000223ADF81630BBF84231BDF814201344B2
:1018C000ABF84231BDF81620BBF844311344ABF8F5
:1018D000443105F089FB002384F81E31D4E5B72B91
:1018E00002D14FF6FE73E4E7BE2B03D10223ADF81D
:1018F0001430E0E7BD2B7FF4C7AD4FF6FE73F6E77B
:1019000094F82031002B3FF4EAAD98F8003013F042
:10191000040302BF84F82031012384F82131DEE57D
:10192000340B0020441600206C290020641E002087
:1019300035FA8E3CDB0FC93FD0280020F814002078
:10194000701E00204FF00C094FF0010AC54D05F143
:101950005A07294615F8010C0CF078FAE0B12979FC
:10196000AB7809FB0140C04A013B03EB430313443E
:10197000D0F8302195F803E093420DD0C0F8303113
:1019800094F85C310AFA01F123EA010180F82CE1B4
:10199000C0F8346184F85C110635AF42D9D1002516
:1019A000B24BB34ED3F800A0B24B1B680193B24BBD
:1019B0001B7802937268002A63D01778002F60D0DA
:1019C000B3680199CB1A002B0ADB01F5FA73B360F7
:1019D000012394F85C11AB4021EA030384F85C31E5
:1019E000029B002B4DD0337851780433DBB20029B1
:1019F00040F05581A14931F91310BBF88E3103F144
:101A0000C800814229DD92F8029094F85C312B41A4
:101A1000D80736D4B9F1000FCCBF0220012008F05E
:101A2000C1FC7B1E162B3ED8DFE813F031004900C5
:101A3000560065007E008600A000BA00D500E300D5
:101A4000F1003D00650071008600A000BA00920020
:101A5000AC00C700FF000C012A01C83B994204DA20
:101A600092F80290C9F10009CFE7012394F85C21B4
:101A7000AB4022EA030384F85C31019B03F5FA735F
:101A8000B3600135042D06F10C0693D143E59AF8B5
:101A900000309944B9F1FA0FA8BF4FF0FA0929EACA
:101AA000E9798AF80090D4F8600108F095FC0123E8
:101AB00094F85C21AB40134384F85C31E1E79AF879
:101AC00002309944B9F1640FA8BF4FF0640929EAC4
:101AD000E9798AF80290E6E79AF804309944B9F176
:101AE000640FA8BF4FF0640929EAE9798AF80490E5
:101AF0000CF088FDD7E79AF806304B44642BA8BF5A
:101B000064230D2F23EAE3738AF80630CBD09AF8CA
:101B100005309944B9F1640FA8BF4FF0640929EA70
:101B2000E9798AF80590BEE79AF80730994489F375
:101B300008098AF80790B6E7D4F8602153784B4437
:101B4000C82BA8BFC8230F2F23EAE3735370AAD072
:101B5000D4F8602113789944B9F1C80FA8BF4FF0A9
:101B6000C80929EAE97982F800909CE7D4F8602155
:101B7000D37A4B44C82BA8BFC823102F23EAE373A2
:101B8000D37290D0D4F86021937A9944B9F1C80FF8
:101B9000A8BF4FF0C80929EAE97982F80A9082E7DC
:101BA000D4F86021537D4B44C82BA8BFC823112F04
:101BB00023EAE37353753FF476AFD4F86021137DC5
:101BC0009944B9F1C80FA8BF4FF0C80929EAE979CB
:101BD00082F8149067E7D4F8602193789944B9F1BA
:101BE000C80FA8BF4FF0C80929EAE97982F8029026
:101BF00059E7D4F86021137B9944B9F1C80FA8BF05
:101C00004FF0C80929EAE97982F80C904BE7D4F83B
:101C10006021937D9944B9F1C80FA8BF4FF0C8095E
:101C200029EAE97982F816903DE79AF8013099445B
:101C3000B9F5967FA8BF4FF4967929EAE9798AF831
:101C4000019030E7D4F8602192F83D309944B9F121
:101C5000FE0FA8BF4FF0FE0929EAE97982F83D900E
:101C600021E700BFA6230020033C01085C090020F7
:101C700034080020D0280020F81400201616002078
:101C8000D4F8602192F83C309944B9F1640FA8BFB0
:101C90004FF0640929EAE97982F83C9003E70129C9
:101CA0007FF405AF0C2F7FF402AF77494FF49669AC
:101CB00031F9130040F633039842A8BF18469378D1
:101CC000B0F5617FB8BF4FF4617099FBF3F9A0F5EF
:101CD000617090FBF9F06D4B5FFA80F91B784B4512
:101CE0003FF4E5AE484604F015FE09F10100C0B22C
:101CF00008F058FBDBE601200CF08AF8012526E409
:101D0000002524E402200CF083F831E40CF080F884
:101D100036E4336813F4002F48E40025EB5905EB53
:101D200007099E4207D1304608F05EFACC22002116
:101D3000484611F090FECC35B5F5197FEED10AF08A
:101D4000D9F806463BE402F035FF06F063FA39E4C1
:101D5000B5F5FA6F187ABFBFAB1A5843C2F5FA62ED
:101D600090FBF2F0C0F164000DF0E2F948490DF08B
:101D700033FAC4F8680135E4002358E4BBF8900155
:101D800085420DDBB5F5FA6FA8BF4FF4FA654FF445
:101D90007A732D1A6B43C0F5FA65B3FBF5F57FE452
:101DA0000546F4E73B4A1268D60702D594F8862127
:101DB0001AB143F0010388F80030374BB4F82421FE
:101DC0001B781D075EBF98F8003023F0010388F8E8
:101DD0000030324B1AB1324A1268900706D4314AA9
:101DE00012881AB930490988642913D902221A7055
:101DF00098F8003023F0010388F800300AF082FCE4
:101E00002A4B1B68C01A00283ADB07B0BDE8F04F28
:101E100006F046BA26490978C90758BF02221A7047
:101E2000ECE701200138C0B205F0CAF8FFF72CBB7F
:101E30000220F7E7562B01D105F0D6F83B78002BAE
:101E40003FF421AD94F81D316F2B7FF41CAD04F0ED
:101E5000D5FCFFF719BB022A4FF4FA737FF4E5AB08
:101E60009C45ACBF0023A3EB0C034343B380019B11
:101E70008B42BFF603ACF35B5B42F353FFF7DCBB73
:101E800007B0BDE8F08F00BF1616002090110020AB
:101E90000AD7233C340B0020701E0020CD180020F0
:101EA000041E0020860C0020E4120020D018002020
:101EB000380B00202DE9F04F85B0814602F07AFE04
:101EC000C94B1F78002F40F04984C84E33685C0529
:101ED00040F14484C64BDFF848831B78002B00F0A8
:101EE0003181C44CD8F80020E368D31A7C2B40F22F
:101EF00029812425237CDFF82CA30133E26023749D
:101F0000AAF12C0B284602F03BFE5AF8040F0DF004
:101F10000FF90190BBF808000DF00AF9019A01468B
:101F200010460DF00DFAB4490DF056F90DF030FBE6
:101F3000013500B2EDB202F011FE272DE2D13020C2
:101F400002F01EFE002002F009FE02F011FE257CC8
:101F500015F0030523D141F28833E2689A420BD988
:101F6000102002F00DFE284602F0F8FD212002F0BC
:101F700007FE284602F0F2FD142002F001FE9F4BFE
:101F8000B3F904000A2390FBF3F002F0E7FD1C20F4
:101F900002F0F6FD002002F0E1FD02F0E9FD237CF5
:101FA000580740F0A880022002F0EAFD0A23B4F9A5
:101FB0001200052590FBF3F002F0D0FD032002F0A3
:101FC000DFFD8F4B1B7813F0040F00F054810BF0F2
:101FD00063FFB4F91A3093FBF5F39BB220B9326872
:101FE00012F0100F18BF002318B202F0B7FD3368CB
:101FF000844A1A424DD0DFF830B29BF80050002DD1
:1020000047D06422DFF810A20620BAF8003002FBA5
:1020100003536D00B3FBF5F3A58B2D01ADB245EA7B
:102020000325ADB2C3F303231D4302F0A9FD28B27B
:1020300002F094FDA38B9BF8002001339BB293FB2D
:10204000F2F102FB1133A3836F4B93F8FD119B4612
:10205000012940F01781392002F092FDBAF9000001
:1020600002F07CFD282002F08BFD0A23206A90FB01
:10207000F3F000B202F072FD042002F081FDBBF823
:102080006A31002B00F0248103F01EF800B202F048
:1020900065FD02A95D4802F037FD132002F070FDD6
:1020A000BDF9080002F05AFD1B2002F069FDBDF9E0
:1020B0000A0002F053FD232002F062FD4E2002F0E0
:1020C0004DFD02A9514802F01FFD122002F058FDFB
:1020D000BDF9080002F042FD1A2002F051FDBDF9E1
:1020E0000A0002F03BFD222002F04AFD452002F0EA
:1020F00035FD02F03DFD237C282B23D10023172042
:102100002374D8F8004002F03BFD4EF660203C25D9
:10211000B4FBF0F3B3FBF5F005FB1030000200B2A6
:1021200002F01CFD182002F02BFD4FF47A70B4FB76
:10213000F0F4B4FBF5F005FB104000B202F00EFD28
:1021400002F016FD324B1B78002B7DD0294C314A12
:10215000636AA9EB030393423FD9002384F82A3032
:1021600084F82C302C4B1B88DAB21B0A84F84620EA
:1021700084F8473084F83C2084F83D30D8F80020BB
:10218000636DD21A204B93F8FF114FF47A734B43CF
:102190009A420ED3D8F80030636502F0EDFF0138A3
:1021A000C0B201289FBF102384F82A30022384F88C
:1021B0002C300A21194B226A1B6892FBF1F293FB27
:1021C000F1F384F8442084F8483012121B1284F88A
:1021D000452084F84930C4F8249094F858B0BBF1F5
:1021E000000F00F0888421E0D812002004150020A0
:1021F000640C00209008002000007A44641E002037
:10220000380B00200200000854200020809698001F
:102210006E0C00203F0D0300381100203411002007
:10222000D0280020341E002030110020256E5DB122
:1022300094F85830002B76D040F6B732A36EA9EB55
:102240000303934200F28880D8F800300193B94B21
:102250001B78002B00F0E481B74D2B68002B00F0B9
:10226000DF81B64B1B78013B012B00F2D981DFF8EF
:10227000E892B34CC9E0B34BB3F86A01B0FBF5F098
:1022800000B2B2E66E20BAF8005093F8FE3168430F
:10229000152590FBF5F013B180B290FBF2F01FFA18
:1022A00080FA3A2002F06CFC6423BAFBF3F528B202
:1022B000019302F053FC3B2002F062FC019B03FB04
:1022C00015A00A2580B2053090FBF5F000B2C7E6F4
:1022D0009D4B186880F31000D8E62B7823B1C4F822
:1022E0005C9085F800B0A1E7E36DA9EB0303B3F5BB
:1022F0007A6F9BD30123DAF800002B700AF0C9FA39
:102300000546DAF800000AF0C4FA69068ED18E2874
:102310008CD194F85830002B88D18C4B23662D2318
:1023200084F8643082E7012384F85830884B1B68B6
:102330009B78022B874B0AD818680221043002F0E0
:10234000C1FB002384F86C30C4F868907CE702215C
:1023500018680AF09BFAF4E794F864307D48A3B952
:10236000236684F858307A4B1B689B78022B07D879
:1023700000680121043002F0A5FB02F0B5FBE3E7A1
:10238000012100680AF082FAF7E7013BDBB284F82A
:10239000643094F86C1094F86D204BB94B1C0132EA
:1023A00084F86C3084F86D2000680AF078FACBE786
:1023B0002B4613F801EB01320EEB010584F86C504B
:1023C000236684F86D207146EEE728680AF061FA0A
:1023D00083B27E2BD8F8002007D1002384F86E301A
:1023E00084F86F3089F801300FE099F8012062B964
:1023F00094F86E1059BB1B2B20D128680AF04CFAB8
:10240000002844D1012384F86F3028680AF044FA88
:1024100001460028D9D14A4C94F87330002B7AD069
:10242000637884F87300302B75D1A3785D09012D92
:102430003BD084F8740002F0FFFA6CE00D2B26D13B
:102440000122237084F86E20A4F87010DDE77D2B44
:1024500003D1012384F87230D7E794F872E0BEF11B
:10246000000F04D080F02000C3B284F872204A1C10
:10247000D2B2092A84F86E2063540AD1B4F87020CD
:10248000C2F1FF02934202D1012384F87330012389
:10249000A8E7082AB9D8B4F87000034403EB132363
:1024A00003F0FF03A4F87030AFE703F00F0013F060
:1024B000100324D094F803E0237904F18402A4F8F3
:1024C0008030A26783EA0E03724484F8C430A4F813
:1024D0008210E26784F87450631D4FF0000C94F88A
:1024E000C420DFF878E0A56FE16FA9423CD1BCF1D0
:1024F000000F46D1734549D184F8C5000BE094F82C
:10250000742042B194F8C520013202F00F028242D9
:102510003AD084F87430DFF848900025CB4694F820
:102520006FE099F8003094F8C6204FF0000ADFF809
:1025300034C09EE1750C00203C0B00207C0C002078
:10254000900800205420002034110020B8080020FA
:10255000700C00205C0C0020000000209808002077
:10256000580C0020483C010813F8011B05F1010C30
:102570007345C4F878C082EA010229704FF0010C5B
:10258000B1D384F8C420B5E7E31CA6E71A7894F821
:10259000C430B4F980109A424FF0000284F87420DD
:1025A00001D0012047E7DFF80893B74DA36FDFF8AC
:1025B00004A309F580705FFA81FB68602981E367F5
:1025C000C4F878A029465846C5F800906A81FDF7FE
:1025D0009FFDA0B9AAF10C01584600F0B9FA688134
:1025E000013004D12B685A1C2A6002221A70012281
:1025F0002B68C5F800906B60A44B1A708BE7012024
:10260000EDE7D8F800000199401A012840F2A980AE
:10261000BAF1000F01D084F8C620002384F86F308F
:102620009B4B1B78002B00F099809A4B1B68002B6A
:1026300000F09480984CD8F80050D4F8D030EB1AC1
:10264000632B40F28B800A26DFF86C82412002F077
:10265000DEF9B8F9020090FBF6F080B202F0CEF994
:10266000B8F9000090FBF6F080B202F0C7F9B8F9B3
:10267000040090FBF6F080B202F0C0F902F0A9F974
:1026800094F8D430D80745D4844B1B88D90513D48B
:10269000DA0600F126829E0600F12582580600F136
:1026A0002482190700F12382DA0700F1228213F055
:1026B000020F0CBF01270327794B1E78794BC6F315
:1026C0008006DB780BB146F00206532002F09FF93A
:1026D000754B188800EB800000EB8000800080B212
:1026E00002F08CF9002002F089F9FE20B4F8D6300F
:1026F000584340F2FF3390FBF3F0C0B202F070F9A0
:10270000002002F06DF946EA8700C0B202F068F9D5
:1027100002F05FF994F8D4309BB94F2002F077F9BA
:1027200009F00AFC09F008FC09F006FC012002F09F
:1027300057F95E4B187800F0010002F051F902F0F1
:1027400048F90A2194F8D430C4F8D0500133DBB2F0
:10275000B3FBF1F201FB123384F8D43005B0BDE8CD
:10276000F08F002B69D0BAF1000F01D084F8C62099
:1027700045494F480A68824294F8C72038D1551C11
:1027800084F8C750B1F90A5002F00F0242F010026B
:10279000002DB8BF42F020028DF808204A68121AB6
:1027A000087A8DF80920424084F8C8200DF10A0209
:1027B0000026D1F8049094F8C8000DF10E05AA4245
:1027C0002AD2D1F800E0A9EB0E0CBCF1000F19DC05
:1027D0000EB184F8C80094F8C810531C1170002280
:1027E000AB4227D302A9322002F03AF900231EE0BF
:1027F000501C02F00F028DF8082084F8C7000DF17C
:102800000902D5E70EF101060E609EF8006002F89D
:10281000016B70400126D2E70EB184F8C800AA42CD
:10282000D9D102A93220019302F01AF9019B8BF849
:102830000030F2E603F8012BD2E73CF8120010B9A1
:102840001A464FF403600132B0F5826FD2B24FF0F6
:10285000010A00F0E98079D8B0F5007F00F0B88077
:102860002CD8B0F5807F00F0C980B0F5887F00F0EB
:10287000C580BEF1000F7FF4C4AEBAF1000F3FF483
:10288000CFAE84F8C620CBE64C0B0020580C0020BD
:10289000840C0020480B0020900800206C290020A8
:1028A000380B00204416002038110020701E002034
:1028B000580B002014090020641E0020B0F5047F8E
:1028C00068D0B0F5806FD4D194F8C93042F210715D
:1028D0000133DBB2032B88BF012384F8C93094F89D
:1028E000C93084F8C62059438D4B1B78D80748BFA0
:1028F00001319A0748BF023158078A4B48BF04315B
:102900001B88DA0748BF0A31980748BF14311A06F6
:1029100048BF2831D80548BF28315A0748BF64311D
:10292000180748BFC8319A0548BF01F5C871980615
:1029300048BF01F57A71DA0648BF01F5FA61580619
:1029400048BF01F57A614FF480603AE0B0F5E26F7C
:1029500065D00FD8B0F5C06F46D0B0F5E06F88D124
:1029600084F8C620704A116B64234B43118993FB92
:10297000F1F126E0B0F5046F49D0B0F5116F00F029
:10298000A080B0F5E46F7FF474AF84F8C620664A87
:10299000916BE9E7336884F8C6209A077FF5BFADED
:1029A000624B197800293FF4BAAD614B614A93F844
:1029B000FE315BB1138893FBF1F30A214FF40470ED
:1029C000594302F067F884F86F50A8E51388F4E7DC
:1029D000336884F8C62013F0082F3FF4A0AD0A2313
:1029E000216A91FBF3F1ECE7336884F8C62013F019
:1029F000082F3FF494AD504B1968E2E74F4B84F831
:102A0000C6201B685B077FF58AAD0021D9E70A2144
:102A10004B4B84F8C620B3F904305943D1E784F80E
:102A2000C620414A516B9FE7444B84F8C6201B687F
:102A300013F0200A7FF473AD3268120605D55146B3
:102A400002F028F884F86FA069E5394B93F800325A
:102A5000002B3FF464AD94F8CA30032B2FD8DFE885
:102A600003F002192027374A1268107892F801E023
:102A70009178090401EB0E21014401EB036101335C
:102A8000DBB2042B14BF84F8CA3084F8CA504FF468
:102A9000826096E72B4A1268907A92F80BE0117BDD
:102AA000E7E7284A1268107D92F815E0917DE0E78B
:102AB000D4F8CC20507992F806E0D179D9E70021FA
:102AC000DBE7336884F8C6209B077FF528AD174BFA
:102AD000197800293FF423AD164B1A880A23534373
:102AE00045E70D27E8E50927E6E50427E4E508279B
:102AF000E2E50227E0E5DFF854A0DAF8000009F08B
:102B0000CBFEC0B201287FF691AB02280E4D3FF4F8
:102B1000E4AB01F0E9FF01232B70FFF787BB00BF97
:102B2000380B00206C290020081E002030110020E6
:102B3000542000203811002034110020041E0020F1
:102B4000641E0020E0180020000000205C0C002023
:102B50005D282DE9F04191E828000C46A5EB03051E
:102B600000F0E98200F2FA80372800F04F8460D844
:102B7000292800F0608320D8232800F0078206D897
:102B80000B2800F078844FF0FF30BDE8F081252855
:102B900000F047832728F6D1084608F00CFDBA4D0F
:102BA000C5F80801204608F006FDC5F80C012046CE
:102BB00008F001FDC5F81001BEE12D2800F0528398
:102BC00008D82B28DFD15A1C0A601A78AE4B83F83C
:102BD000D721B1E1332800F0E4833528D3D15A1C42
:102BE0000A601A780E2ACED8991C216059780329D8
:102BF000C9D80625A44805FB020282F85613D91C41
:102C00002160997882F85113191D2160D97882F8D2
:102C10005213591D2160197982F8531359192160F3
:102C2000597982F85413D91D21609B7982F8553364
:102C300082E1432800F0BC8339D83C2800F07C8135
:102C400022D839289FD15A1C0A6019468E4A11F899
:102C5000020B042D82F85C012160597882F8601122
:102C600003F103012160997882F85F1103F10401F7
:102C70002160D97882F8611140F25E81591D21608E
:102C80001B7982F8633157E13E2800F072814128B8
:102C90007FF479AF00237C482268511C21601178B1
:102CA0001A180133082B82F87811F5D144E14C2829
:102CB00000F0318306D84A287FF465AF204608F03B
:102CC0007AFC39E14E2800F049835B287FF45BAF42
:102CD0005A1C0A601A466C4D12F8021B204685F8F1
:102CE000201122605A7885F81C21DA1C22609A781B
:102CF00085F8E4201A1D2260DB78042BA8BF04238A
:102D000085F8E23008F057FC94E80C009B1A012B80
:102D1000A5F8E00009DD204608F04DFC0CF008FAAB
:102D20005A490CF059FAC5F8F400236862689A42CF
:102D300007D05A1C22601B78003318BF012385F886
:102D4000253103F00DFF236862689A4200F0F48099
:102D50005A1C22601B7885F8E330EDE0D22800F0A1
:102D6000E28000F29B80CC2800F0278176D8612891
:102D700000F0308252D85F287FF405AF084608F093
:102D80001AFC434E204608F016FC2046376808F02F
:102D900012FC7885204608F019FC23683268591C1B
:102DA0002160194611F8020B82F831002160597830
:102DB000204682F83C10D91C21609B7882F83D3077
:102DC00008F004FC204608F001FC204608F0FEFB59
:102DD0002046376808F0EFFB0CF0AAF92D490CF0FB
:102DE000FBF978642046376808F0E5FB0CF0A0F9A1
:102DF00028490CF0F1F9112D386433460CD92268BA
:102E00003068511C2160114611F8025B80F8335084
:102E10002160527880F8342018681CE0C82800F03F
:102E20008B80CA287FF4AFAE194B1868431E00F19F
:102E300009052268511C2160114611F8026B03F844
:102E4000016F216051789D42997202F10301216066
:102E500092781A75EDD107F0BFFA6DE0CE2800F038
:102E6000D581C0F0C981CF2800F0ED80D0287FF453
:102E70008AAE094B1B7858075ED404F089FA03F038
:102E800067FD03F0F5FE57E0542000200AD7233CED
:102E9000E0180020CDCCCC3D380B0020DA2800F023
:102EA0002E811AD8D42847D0FFF408AFD62800F0D6
:102EB0001B81D9287FF467AE084608F07CFBBF4D24
:102EC000A5F80001204608F076FBA5F8020120468F
:102ED00008F071FBA5F804012EE0EF283DD017D8CB
:102EE000DB2800F02381DC287FF44DAE5A1C0A60F9
:102EF0001946B24A11F8020B82F81E012160597876
:102F000082F83A11D91C21609B7882F8303113E0A5
:102F1000F22811D0FA287FF436AEA94B1B785B0754
:102F20003FF531AEABE75A1C0A60187805060CD4A1
:102F3000A34B1B785C0702D50120BDE8F081022875
:102F400028BF002004F03CF8F6E700F07F000328DB
:102F500028BF002003F0DEFCEEE7084608F02BFB5C
:102F6000964DA5F84401204608F025FBA5F842013E
:102F7000E2E75A1C0A601A46904912F8020B81F8DF
:102F8000D60122605B7881F8D531D5E75A1C0A60FA
:102F90001A78132A3FF6F7AD991C21600C270021FF
:102FA0005D78884E07FB016090F808E0AE4500F0C0
:102FB000788201312029F5D1E5E5092D7FF6E3ADD1
:102FC000814F5A1C3E680A601A4612F8020B307094
:102FD0000A6000225B78701DB370022A0CBF4FF0AC
:102FE000FF0E4FF0640E23680132591C21601978DE
:102FF0007145A8BF7146032A00F8011BEDD19A1C48
:1030000022605A782046642A28BF64223272DA1C71
:1030100022609A78F2701A1D2260DB78337108F012
:10302000CAFA0A2D70810BD023683A68591C2160B6
:1030300019780B2D51721FBF991C21605B7853705A
:103040000BF0E0FA78E7084608F0B5FA5B4DA5F812
:103050008E01204608F0AFFAA5F8F800204608F0E7
:10306000AAFAA5F8FA00204608F0A5FAA5F8FC008F
:10307000204608F0A0FAA5F8DC01204608F0A6FAE0
:10308000204608F0A3FA204608F0A0FA236820465C
:103090005A1C22601A4612F8021B85F86911226038
:1030A0005B7885F88B3108F091FA204608F083FAB6
:1030B000236800EB80005A1C4000A5F82E01226016
:1030C0001A4612F8021B85F85C1122605A7885F8BE
:1030D0006021DA1C22609A7885F85F211A1D22602F
:1030E000DB7885F8613127E70025384E204608F067
:1030F00062FA26F815000135082DF7D11CE75A1C95
:103100000A601A462D4D12F8021B204685F87011F0
:1031100022605A7885F87121DA1C22609B7885F844
:10312000723108F048FAA5F8060105E7284B18683F
:1031300009F0ACF900E75A1C0A601B78244E1F4FB7
:103140000846D6F8008087F8233108F034FAA8F84A
:1031500020002046D6F8008008F02DFA052DA8F8AA
:10316000220023D9204608F026FAA7F82601204697
:1031700008F021FAA7F828012046D6F8008008F0C8
:103180001AFAA8F824002046D6F8008008F013FAAE
:103190000D2DA8F8260009D9204608F00CFAA7F84A
:1031A0002A01204608F007FAA7F82C0103F0D8FC02
:1031B00001F0B8FD306807F099F9BDE65420002011
:1031C000380B0020703C01085C090020921100209F
:1031D000E01800205A1C0A601946BE4A11F8020B7A
:1031E00082F83B012160597882F84811D91C21608E
:1031F0009B7882F831319FE6B74B1B7859073FF532
:103200009BAE4FF4C872B54B1A8095E6B24B1B7853
:103210005A073FF591AEB24A137843F00403137096
:103220008AE60023AB4D0846AB6008F0AEF9AB6808
:103230001843A86080E6084608F0BDF9A54DA5F83A
:103240006401204608F0B7F92368A5F866015A1C06
:1032500022601B78204685F8683108F0ACF9A5F8A3
:103260006A0169E65A1C0A601B789A4E084686F87D
:10327000803108F0A0F9A6F89201204608F09BF9E9
:10328000A6F88E01204608F096F92368A6F890016A
:103290005A1C22601B78082D86F889317FF64CAEC7
:1032A000204608F088F9A6F89C01204608F083F92A
:1032B0000C2DA6F89E017FF63FAE236820465A1CCF
:1032C00022601A4612F8021B86F8941122605B787D
:1032D00086F8963108F06FF9102DA6F89A017FF65E
:1032E0002BAE236820465A1C22601B7886F8823158
:1032F00008F04BF92368C6F884015A1C22601A783A
:10330000162D86F888217FF617AE9A1C22605B780E
:1033100086F8973110E65A1C0A601A466D4D12F86D
:10332000021B204685F8DA1122605B7885F8DB31D4
:1033300008F041F92368A5F8DC015A1C22601B78CB
:10334000204685F8DE3108F036F92368A5F8E0015B
:103350005A1C22601B7885F8E231EDE55A1C0A60A0
:103360001D78112D3FF60FAC9A1C0A605B78594E00
:10337000D03506F81530084608F01DF940F6CA03A6
:103380009842A8BF184640F2EE239842B8BF1846AC
:103390001923A0F2EE2090FBF3F006EB45056870D0
:1033A000CAE55A1C0A601A784A4B83F88B21C3E598
:1033B0005A1C0A60474D1B78084685F8D731002310
:1033C000AB6008F0E2F8AB6818432368A8605A1CA9
:1033D00022601B78204685F8803108F0ECF8C5F8AB
:1033E0000801204608F0E7F8C5F80C01204608F06F
:1033F000E2F8C5F81001204608F0DDF8A5F86401F0
:10340000204608F0D8F8A5F8660195E50723B5FB36
:10341000F3F3C3EBC302AD1A7FF4B5AB2D4EDFB2AD
:10342000EBB29F423FF488AD236801355A1C2260FD
:1034300093F9003096F9E6219A427FF4A4AB204636
:1034400008F0B9F82368A6F8E4015A1C22601A466D
:1034500012F8021B86F8E71122605A7886F8E821F4
:10346000DA1C22609A7886F8EA211A1D2260DB783D
:1034700086F8E931D4E7002111221A4810F0EBFA5E
:10348000102D4FF0000328BF10251249AB42BFF4A6
:1034900053AD2268501C206010785A1850730133C5
:1034A000F4E702F1C0010B4A02EB8102017851708E
:1034B000D91C216099789170191D2160D978D1703B
:1034C000591D21601B791371074B186808F0D0FB58
:1034D00032E500BF54200020380B00202C080020CB
:1034E000701E002061200020E01800202DE9F04F20
:1034F0009F4F9DB03B78012B07D19E499E4A09689A
:10350000496A11809D49098851809D4C94F800803A
:10351000B8F1000F00F0D280072B02D109F0F2F8C9
:103520000390984B1A689A4612F4806F04D096481C
:1035300083680BB195499847954BDFF884921B78C7
:103540008BB1944BB3F90620B9F890319A420ADC5A
:1035500099F8D7310E2B06D0082B04D000228E4BC1
:103560009A800023E36099F85A516DB38B4B1B8806
:103570009E0729D08A4B8B491E6A30460BF0D4FF38
:10358000002840F0EA8030460EF016F821690BF072
:1035900023FE0DF099FFB0F5617FA8BF4FF4617075
:1035A0000BF0C6FD80490BF017FE0AF03CFE064604
:1035B00028460BF0BDFD31460BF00EFE0DF084FFEA
:1035C000754BDA881044D880784B99F895611B7850
:1035D0000236F6B2002B53D0754A4FF07E51D2F826
:1035E000F45044F620629542A8BF1546B5F57A7F9F
:1035F000B8BF4FF47A756F4AADB2D2F800B0A58269
:10360000DBF838200293104600920BF0A1FF029BDA
:10361000002835D04FF47A71B5FBF1F5642191FBA8
:10362000F5F5142DA8BF1425DAF80010A06911F4DF
:10363000805F594918BFBBF836E000F1010CB1F9C1
:10364000061004EB400014BF4FEA5E0EBBF936E0F3
:1036500065458183D8BF0020C4F818C0D8BFA061D9
:10366000A069009A04EB4000808B091A09B2002976
:10367000B8BF49427145D8BF4FF07E524E490A60EB
:1036800099F89421002A6AD1444A1288002A6BD101
:1036900000253B4BA3F84650444B1B78002B40F0D1
:1036A000D680334B1B78072B05D109F02BF8039BF1
:1036B000C01A314B98800022314B1A702C4C237861
:1036C000072B02D109F01EF806902F4E35696DBB0D
:1036D00073683046984748B386F82550B38BDFF8B7
:1036E000EC801BB2C8F80030F38B96F826101BB2A2
:1036F000C8F80430338C40461BB2C8F8083001F0DB
:10370000F5FB2E4B1F882E4B002F40F0298293F89B
:103710002431002B00F09882EFF31283F02282F321
:103720001288284ADBB2326183F31188104C237867
:10373000072B05D108F0E6FF069BC01A0E4B188038
:103740000F4A92F8C0301546002B00F04B83013B26
:1037500082F8C0301DB0BDE8F08F002030E7022AAB
:1037600036D0032A00F0EB80174A528834E000BFBD
:10377000341900204811002036190020E4120020DE
:103780006809002004150020A0060020A2080020DF
:103790001C03002016160020A40800206C2900201D
:1037A000E01D00208FC2753CD06D393A6C080020B6
:1037B00014000020E018002004000020860C0020E7
:1037C00054200020155000082C150020181100204E
:1037D000A28A02F57A7292B2002B00F0CB80724B73
:1037E00019683B78B2FBF1F1481C00B2092BA4F830
:1037F000440008D16D4D6E4BB5F800E06D88A3F81C
:1038000000E05D80DA8000236A4DB4F946A0DFF85D
:103810009CB105F1080CB342C0F29980664BA3F845
:103820004610654AB2F9460000287FF731AF002301
:103830001D461946DFF874C1B2F944E002F150099F
:103840004832B342C0F29C8000293FF425AF5B4B65
:1038500000261B78DFF88C91002B18BF0225584BEF
:10386000D3F800803B78049308F105030293AE423D
:1038700040F3BA80534B93F8970100285BD0524B2A
:103880001B689D0057D5514B1B88590653D44A4D90
:103890004F4E95F87030834211D085F870000BF0D0
:1038A00047FC4C490BF098FC4B4907460BF08CFB4E
:1038B0000AF0B9FC706038460AF0B5FC6867D6F8C3
:1038C00004806568414628460BF086FCE768666F11
:1038D0008146314638460BF07FFC014648460BF0E6
:1038E00071FB3E4981460BF01FFE08B9DFF8EC90F2
:1038F0003B4948460BF022FE08B9DFF8E490414608
:103900003846C4F804900BF067FC31460746284659
:103910000BF062FC014638460BF056FB2F4905467A
:103920000BF002FE00B92D4D2D4928460BF006FE86
:1039300000B92B4DE5600022204B1A70B1E699F8D2
:103940009621C2EB421102EB8102D20043E735F926
:1039500013203BF913900AFB02F292FBF0F23CF8C1
:1039600013E02CF81390A9EB0E0E724425F81320E7
:10397000013350E7B4F84630013BA4F8463050E735
:1039800032F9131039F81350414391FBFEF1022B29
:10399000A5EB01011D46B8BF02252CF81310EDB2AE
:1039A000013341464DE700BF301B0020A408002032
:1039B00036190020B0090020680900206C0800209A
:1039C0005C09002054200020340B00206C290020CA
:1039D0000400002035FA8E3CDB0FC93F00C0F944DB
:1039E00000C0F9C40AD7233C022E15BF98F8000086
:1039F00098F8010098F802B098F809B00BF098FB1D
:103A000049460BF0E9FB4FF0804107460BF0A0FD63
:103A100060B14FF0804138460BF0D4FA46490BF0C4
:103A2000DBFB014638460BF0CFFA074673000093E4
:103A3000424B33F916000BF07BFB41490BF0CCFBFA
:103A400020F000433F4A0093009B42F826000C32CE
:103A5000824642F82630BBF1000F20D058460BF0CA
:103A600067FB49460BF0B8FB8346514650460BF0C6
:103A7000B3FB00990BF0B0FB59460BF0ADFB594678
:103A800005904FF07E500BF09DFA059A01461046C6
:103A90000BF09AFA014650460BF09EFB82462A49EB
:103AA00038460BF099FB51460BF096FB029B0746FC
:103AB00013F8010B029300B30BF03AFB49460BF0ED
:103AC0008BFB00990BF088FB204982460BF040FDF0
:103AD00068BB002150460BF01DFD50BB51464FF016
:103AE0007E500BF06FFA01464FF07E500BF028FC31
:103AF000014638460BF070FB0746049B0C2B05D1A2
:103B000038460BF045FD124B720098521149384669
:103B10000BF00AFD00B90F4F0F4938460BF00EFDB0
:103B200000B90D4F0D4BB200D75001369FE6494604
:103B3000DAE74FF07E51D7E7D7A36841A408002009
:103B40006F12033BC009002000004843A4707D3F72
:103B50003619002000C0F94400C0F9C46C090020E7
:103B600093F81F312E4603938F4BAB461A684FF4E0
:103B70007A73B3FBF2F3C3EB431203EB8203DB0074
:103B80009BB200932378894C0793894B04F13C093D
:103B9000B3F90630CDF810800293009B5B080993BF
:103BA000009B4FEA860A9F42049B08BF49F826B053
:103BB00053F8260059F8263008BFC4F810B0034463
:103BC00049F826300BF0B4FA226902F10108B8F185
:103BD000010FC4F8108040F09C80002360602060DA
:103BE000A360049B012F4AF803B0724B4AF803B05C
:103BF00040F0BF802069012840F3AF8001380BF00E
:103C000097FA0146E0680BF09BFB0DF01DFF079B48
:103C10008046032B04D10DF057FC012503B202931B
:103C2000039B002B00F09B8018460BF081FA414665
:103C30000BF070FC002800F092801DB15C4BBDF8C9
:103C40000820DA8001F05CF8574EDFF894914FF0CD
:103C5000000B3546CA46584C564B54F82B0053F8C7
:103C60002B304FEA8B08C01A44F82B000BF060FA97
:103C7000524B99690BF0B0FA99F800300146032BCA
:103C800006D100900DF020FC494B009923F81B0051
:103C90004B4A4C4B58F802001B6898479AF8003082
:103CA0000146082B06D100900DF00EFC404B009908
:103CB00023F81B00444A454B58F802001B689847FC
:103CC000434A444B01461B6858F8020098470BF1E1
:103CD000010BBBF1030F46F8040FBDD1002F3FF4D9
:103CE00025AD364B68689E6931460BF029FB0DF017
:103CF000EBFB31462060A8680BF022FB0DF0E4FBE3
:103D000031466060E8680BF01BFB0DF0DDFBA06046
:103D10000CE522680B9011460A920BF053F90590BE
:103D200040460BF005FA014605980BF009FB0A9A8C
:103D300011460BF049F90B9B01468046606018461E
:103D40000BF040F905990BF047FAA1680BF03CF92C
:103D5000C4F80080E060A06043E7002055E7099ABE
:103D60005AF809301344009A93FBF2F3114A42F8CF
:103D70000A300136032E04F114047FF411AF1DB193
:103D80000B4BBDF80820DA80012F08D10022124B1E
:103D900038461B689A621A63DA6206F065FA0F4ABF
:103DA0001388013B13804FE7880C0020E0090020B6
:103DB000361900202411002018110020A006002030
:103DC000F80C0020980C0020881000209C0C00208B
:103DD000E8100020A00C002048110020860C0020D4
:103DE000341900209E4B93F82321002A00F03081E3
:103DF00093F81C31013BDBB285F8C0302378072BE8
:103E000002D108F07FFC0890964B4FF07E501B6863
:103E10000093954B1B680493D5F8C430194603935F
:103E20000BF0D0F8914B19680BF0D6F94FF07E519A
:103E300002900BF079FB10B94FF07E5302930025EE
:103E40004FF0000B8A4B05938A4B8B4F53F825801C
:103E500059464046AC0057F825600BF051FBD0B9ED
:103E6000C43757F82590304649460BF0ABF88246E8
:103E700020F0004140460BF04DFB58B159465046EA
:103E80000BF066FB002800F0E580494640460BF049
:103E90009BF806463E51794BB3F8009019F0030F9A
:103EA0003DD0022D3BD0009B93F834000BF040F93D
:103EB000734BE1580BF090F9009B804693F833A0C8
:103EC000CAF100000BF034F90746014640460BF0FA
:103ED00021FB40B950460BF027F9414607460BF04D
:103EE00023FB00B947465E4B03EB4503B3F94201A0
:103EF000644B33F9153018440BF01AF962490BF092
:103F00006BF9014638460BF05DF819F0010F0746D2
:103F100000F0DE805D4B19680BF05EF90646059BEC
:103F2000304653F8049F494605930BF04BF8824600
:103F3000574B0498E1580BF04FF951460BF04CF9F0
:103F4000022D804606D1534A534B01461B68106828
:103F500098478046514B4FF07E510398E7580BF03D
:103F6000D9FAB0B14E4B19684E4B18680BF034F9C2
:103F700002990BF031F94C4BE1580BF02DF95146F9
:103F80000BF02AF9014638460BF01EF80746434B62
:103F9000E050022D40F0D680394640460BF014F830
:103FA000424BC3F8DC00424B1B7813B9414B44F839
:103FB00003B00135032D7FF447AF3F4C2278072A29
:103FC00005D108F09FFB089BC01A3C4B5880237812
:103FD000364D012B40F00E8108F094FB3849D5F89E
:103FE000E830364A0968C31A93805B1A0190D3807F
:103FF000C5F8E8001B4B1A4C1B680293314B1B6839
:10400000039313F4805308932F4B00F001822F4A3F
:10401000B4F88E111278B3F9063052075CBFB4F8C9
:104020008E21A5F8EC20B4F80621881A834200F30B
:104030000981B4F89001B5F8EEB0B5F8F0A0A5F894
:10404000EC30181A0BF074F8D5F8F43006460AE193
:104050000123D1E6414648460AF0B4FF19E700BF04
:1040600054200020E018002070080020E81A0020EA
:10407000880C0020DC1A00206C0900206C2900202C
:10408000C0090020641E0020CDCCCC3DCC1A0020FD
:10409000A01A00209C1D0020981D00201008002060
:1040A00004000020D81A0020AC1A00206809002063
:1040B0001C0800203C0A002034190020361900207A
:1040C000301B002004150020A4080020380B00201D
:1040D0004C4B5946D3F8008040460BF039FA60B398
:1040E000494BD3F864A0D3F86890514648460BF08A
:1040F00025FA00B9D146414648460BF06DF84FF01D
:104100007E5180460BF024FAB8B9594640460BF070
:1041100001FAA0B941464FF07E500AF053FF8046A5
:104120003A4B384619680BF057F841460BF054F8F3
:10413000014630460AF048FFF0E6D846F0E74FF077
:104140007E58EDE7324BD3F800A0009B93F83C304B
:10415000632B13D82F4BE1582F4B18680BF03CF80A
:104160004FF07E5106900BF0DFF9069B08B94FF037
:104170007E53504619460BF02FF882465146304682
:104180000BF02AF849460AF01DFF244E8246A15939
:104190000AF018FF224B19680BF0D2F88146214B28
:1041A00044F806A0E15804980BF016F849460BF0C5
:1041B00013F81D4B06461B780B2B04D10BF0E8F9C6
:1041C0001A4B23F815001A4A1A4B31461B68A0589F
:1041D0009847194A194B01461B68A058984706464C
:1041E000394640460AF0F0FE31460AF0EDFE144B27
:1041F0001851D8E6072B7FF4FDAE08F083FA019042
:10420000F8E600BFD41A002068090020D01A002068
:10421000C41A0020CC090020C81A0020480A002037
:10422000D81A0020B81A00203419002036190020AE
:10423000F01A0020EC1A0020381B0020341B00204C
:104240003C0A00208E18B342C0F2D080A5F8EC30B2
:104250005B1A981A0AF06CFF0646B5F8F8B0B5F884
:10426000FAA0D5F8FC300093ABEB0A000AF060FF2F
:104270004FF00009029B0590DF6A07F10048924B5E
:10428000924953F829000AF0A7FF414605460BF072
:1042900041F9002840F0CC80394628460BF044F91B
:1042A00000B93D460DAB43F8295009F10109B9F1B8
:1042B000030FE4D1029B93F8313033B3039B9B0788
:1042C00023D5834B1D7805B394F85F010AF02CFFCA
:1042D000044628460AF02CFF014620460AF07CFFDF
:1042E0007C4B044618880AF01FFF014620460BF05D
:1042F00027F8794904460BF017F900B9764C4FF0CE
:104300007E5120460BF01AF908B94FF07E544FF059
:104310000009724B00251B78C84602930E9B704F14
:1043200006930D9B07936F4B93F9D80140420AF017
:10433000FFFE0F990AF050FF0490029B9D4279DB2B
:10434000494640460AF03EFE674B4FF07E51C3F8A7
:10435000C40004460BF0FCF8002800F0D78021468A
:104360004FF07E500AF0ECFF0024064610AD029B91
:10437000A34200F3A0804FF07C5600255B4B5C4FBE
:10438000DB7806935B4BB3F800905B4B1C785B4B80
:1043900004F00404B3F90680524BB3F89031009353
:1043A0000FFA89F30493039B03F010030393029B1A
:1043B0009D42C0F0D8802CB94D4B514A0299A14280
:1043C00000F20681484C94F8C4210AB106F060F965
:1043D0004C4B1B78072B05D108F094F9019BC01AB0
:1043E000494BD88001232370FFF7B4B9B5F8EC30FE
:1043F000984204DBB5F8EEB0B5F8F0A022E6D5F8A7
:10440000FC30B5F8F8B0B5F8FAA0009300262BE719
:10441000B3F90600B4F89031C01A0AF089FED5F855
:10442000003106460093B5F8F0A0B5F8F8B01BE7E8
:10443000454637E7B96806980AF0CEFE79680990D4
:1044400007980AF0C9FE099B014618460AF0BCFD10
:10445000F968099004980AF0BFFE099B01461846C6
:104460000AF0B2FD4FF07E51099020460BF070F833
:10447000099BC0B910AA42F8253010AB53F825307B
:104480004146184609930BF063F8099B38B9194661
:1044900048460BF049F808B9099B9946434601354F
:1044A0001037984649E7184621460AF095FE10ABAA
:1044B00043F82500E1E755F8240031460AF08CFE68
:1044C00045F82400013452E73C0A00206F12833A79
:1044D0003011002038110020713DAA3FB11D00208D
:1044E0006C0A002054200020680900204416002097
:1044F000B81D0020DA120020380B0020161600200C
:1045000092110020341900203619002000993046FD
:104510000AF016FF4FF07E5105460BF005F808B97A
:104520004FF07E55002128460BF008F800B9002511
:104530004FF07C5120460AF04FFE064601462846C1
:104540000AF0E8FF00287FF418AF31464FF07E50A4
:104550000AF038FD294606460AF0E6FF00287FF4F7
:104560000CAF2E4609E71D4A2B01995830460AF038
:1045700033FE10AB53F825100AF026FD05990AF01A
:104580002BFE0CF0A1FF069A504400B26B0027F8F6
:104590001500CAB1484503DB5845A8BF584600E09E
:1045A0004846039AF8526AB164B1089A52B907931F
:1045B00009F09AFC30B9009B9845BEBFBDF81020A9
:1045C000079BDA530135F2E68245E5DD5046E8E720
:1045D00032F8141023F814100134EFE66C0A0020AE
:1045E00010B5204B18B902221B681A8210BD00209A
:1045F0001D491C68088023780A4613F07F0313D1F5
:10460000637A990644BF0221117013F0400F1378AA
:1046100014BF43F0010323F001031370134B1B6815
:104620001B699847104810BD012B18D0022B17D1D9
:10463000617901F00F039B0003F1804303F5B84358
:1046400011F0800F1B6805D003F03003102BE5D16B
:104650000123E2E703F44053B3F5805FF7E7084630
:1046600010BD00BF7C240020300B0020A0240020BF
:1046700010B5064C18B9012223681A8210BD044BEC
:104680001B689B68984720680C3010BD7C24002074
:10469000A024002010B5064C18B9012223681A8204
:1046A00010BD044B1B681B68984720680A3010BD7A
:1046B0007C240020A0240020084BDA68D10709D40C
:1046C000DA68520708D4DB6813F0100F14BF032018
:1046D00004207047012070470220704700200240EC
:1046E000022803D0431E584258417047064B93F8A6
:1046F000F821064B1AB15868C0F3C0407047187AC9
:10470000C0F38000704700BF54200020300B002011
:10471000A0F17D03012B70B504460D460A4E11D859
:104720007D21F06808F0BBF884F02001F06808F003
:10473000B6F835B12888204400EB102000F0FF00C7
:10474000288070BD0146F1E7300B00205E2810B5CF
:104750000146094C09D15D21206908F0A0F83E21ED
:104760002069BDE8104008F09AB85D292069F8D1A9
:1047700008F095F83D21F3E7300B00200E4B0F4A6F
:104780001B683E299BB223F0070303EBC0000244E1
:104790004FEA42020AD94B09C80604BF03F1FF33AE
:1047A0009BB29B0243F40043136070474B08C90758
:1047B00048BF01339B02F7E7505C00400630002001
:1047C000054B1B689BB223F0070303EBC000034BB0
:1047D00003445B0019607047505C004002300020C9
:1047E0001F4A10B5536803F00C03042B21D0082B8B
:1047F00022D01C4B036053681B49C3F30313CC5CEA
:104800000368E34043605468C4F302240C5D23FA58
:1048100004F484605468C4F3C2240C5DE340C360B4
:104820005268C2F3813211440A7CB3FBF2F3036194
:1048300010BD0E4B1B68DDE753685168C3F383431B
:10484000C90303F1020302D409494B43D2E751687B
:1048500011F4003F0549096818BF4908F5E700BF92
:104860000010024000127A00F03D01080C00002008
:1048700000093D0010B50446FFF71EFF012806D1D0
:104880000CB9052010BDFFF717FF013CF6E7002C1F
:1048900008BF052010BD0F4BDA684378D243C2F33E
:1048A0000222C2F104018B400F2121FA02F2817829
:1048B0000A401343084902781B018818DBB280F8CC
:1048C00000330123500902F01F0203FA02F241F8FB
:1048D0002020704700ED00E000E100E02DE9F0410C
:1048E000CB780E88DA0648BF8A7803F00F0548BFF8
:1048F000154316F0FF0F1AD000214FF0010E4FF0B4
:104900000F0C02680EFA01F737EA06040BD18C008F
:104910000CFA04F822EA080205FA04F4282B42EA09
:10492000040225D1476101310829EBD10260FF2E35
:104930001CD900214FF0010E4FF00F0C426801F11D
:1049400008040EFA04F434EA06070BD18F000CFABF
:1049500007F822EA080205FA07F7282B42EA0702BD
:104960000AD1446101310829E9D14260BDE8F081F2
:10497000482B08BF0761D6E7482B08BF0461F1E761
:104980000F4B1A6842F001021A6059680D4A0A403A
:104990005A601A6822F0847222F480321A601A680F
:1049A00022F480221A605A6822F4FE025A604FF400
:1049B0001F029A604FF00062034B9A60704700BF7D
:1049C000001002400000FFF800ED00E080F30888CE
:1049D0007047024B197D986907F061BF300B0020CA
:1049E00038B50446044D0146A86907F058FF2B7DF1
:1049F0005C402C7538BD00BF300B002010B504465C
:104A0000C0B2FFF7EDFF200ABDE81040E8E738B577
:104A100000230546074C2421A069237507F03FFFBA
:104A2000A069542107F03BFF2946A069BDE8384042
:104A300007F035BF300B00204FF6F672074BDA84D3
:104A400003F12802DA610122998403F1290183F834
:104A50002800196283F82821704700BF300B00201E
:104A6000002373B502AD25F8023D0C462946FFF739
:104A70004FFEA61D14F8010B2946FFF749FEB4426C
:104A8000F8D19DF806000021C043C0B2FFF740FEF8
:104A900002B070BD07B50B0A8DF800008DF802104A
:104AA0008DF80330000A0B0C090E8DF801008DF80B
:104AB0000510102069468DF80430FFF7D1FF03B0D0
:104AC0005DF804FB38B50546064CD4F82C0105F01A
:104AD0008BFB082195F9000007F0FEF8C4F82C01C3
:104AE00038BD00BF300B002010B5064CD4F82C01A7
:104AF00007F0D2FE00B910BDD4F82C0107F0C9FEB2
:104B0000F4E700BF300B00200028114AB8BF404234
:104B100090FBF2F330B50F4C04FB03053C206843D7
:104B20000D4D90FBF2F295F8FB5175B903EB830341
:104B300003EB830302EB83030B804FF47A7304FBD4
:104B4000020292FBF3F24A8030BDC3EB0313F1E79C
:104B500080969800806967FF5420002010B50446B5
:104B6000C0B2FFF7F3FDC4F30720BDE81040EDE548
:104B7000024B5E21186907F092BE00BF300B002087
:104B800038B50546054C5E21206907F088FE2946A8
:104B90002069BDE8384007F082BE00BF300B00201E
:104BA000038813F0400004D013F4057F14BF0120E4
:104BB0000020704770B5504CD4F8306176B1304663
:104BC000FFF7EEFF50B194F83431DBB9D4F8383147
:104BD000C3B12361012384F8343113E094F83C011C
:104BE000FFF77EFD94F83431054683420AD0002851
:104BF0004ED03EB1042196F9020007F06DF8206115
:104C00000028E7D194F83D01FFF76AFD94F83E31A2
:104C1000054683420FD0002841D0D4F8403153B12B
:104C2000082193F9020007F057F8C4F82C0110B1DD
:104C3000012384F83E3194F84401FFF751FD94F8C4
:104C400045310546834211D090B3D4F848316BB159
:104C5000202193F9020007F03FF8E06030B1012312
:104C600084F84C3184F84531244B1B68D4F85061EA
:104C70003EB33046FFF794FF18B394F854319BBB12
:104C8000D4F8383183B3A361012384F8543170BD63
:104C9000206905F0A9FA256184F83451B2E7D4F807
:104CA0002C0105F0A1FAC4F82C5184F83E51C2E75A
:104CB000E06805F099FAE56084F84C5184F84551B4
:104CC000D4E794F85501FFF70BFD94F854310546ED
:104CD000834209D048B13EB1102196F9020006F096
:104CE000FBFFA0610028CFD170BDA06905F07CFA60
:104CF000A56184F85451F7E7300B0020D02800203C
:104D00004FF47A73064AD2F85811B3FBF1F3C3EBB0
:104D1000431103EB8103DB00A2F85631704700BF5B
:104D2000300B00202DE9F74F664D674C674B95F827
:104D30002371C4F86831C4F86C31C4F87031002FA5
:104D40004ED1B5F8260110B3614BB5F82811C4F85F
:104D50006C3109F077FB002681464FF01C0BDFF821
:104D6000848108F1540A0BFB0687B5F826014AF83E
:104D700026700AF0D9F9012301460093D4F858218E
:104D80004B463846013609F0D3FA032EEBD1B5F87D
:104D90002A0110B34E4BB5F82C11C4F8703109F04C
:104DA00051FB002681464FF01C0BDFF83C8108F1D7
:104DB000540A0BFB0687B5F82A014AF826700AF058
:104DC000B3F9012301460093D4F858214B463846E5
:104DD000013609F0ADFA032EEBD103B0BDE8F08F38
:104DE00095F82231012B1BD100264FF01C0A384BBD
:104DF00004F5BA79C4F8683104F5E4780AFB06973B
:104E000095F8230148F826700AF08EF9013601461C
:104E1000D4F85821384609F009FB032EEED190E76B
:104E2000002B39D12B4BD4F85801C4F868310AF063
:104E30007BF929490AF0D0F9064638460AF078F994
:104E4000014626480AF07CFA0746014630460AF039
:104E5000BBF8014630460AF073FA04F5EA73C4F869
:104E6000C83104F5F273C4F8CC3104F5FA73C4F810
:104E7000DC71C4F8E061C4F8D801C4F8EC71C4F87E
:104E8000F061C4F8E801C4F8D031C4F8FC71C4F88A
:104E90000062C4F8F80154E70026114B04F50178CC
:104EA000C4F8683104F5E47708EB062047F82600DB
:104EB000B4F8582195F82311013609F01BFA032E96
:104EC000F2D13EE754200020300B002033E00008F0
:104ED000BDDF000815E00008BD37863583F9223EA6
:104EE00059DF0008341000209410002002392DE909
:104EF000F843426804460368806806290DD8DFE855
:104F000001F0040873767B7E810022605B4263605F
:104F100003E05B425242236062603C4B1B79002BF2
:104F200060D120680AF004F9804660680AF000F950
:104F30000746A0680AF0FCF8354D0646D5F8C415BA
:104F400040460AF049F9D5F8D015814638460AF0AE
:104F500043F9014648460AF037F8D5F8DC15814692
:104F600030460AF039F9014648460AF02DF80CF0AF
:104F7000ABFAD5F8C815206040460AF02DF9D5F8EF
:104F8000D415814638460AF027F9014648460AF00A
:104F90001BF8D5F8E015814630460AF01DF90146A8
:104FA00048460AF011F80CF08FFAD5F8CC1560607D
:104FB00040460AF011F9D5F8D815804638460AF06F
:104FC0000BF90146404609F0FFFFD5F8E415074606
:104FD00030460AF001F90146384609F0F5FF0CF0B9
:104FE00073FAA060BDE8F883524222608FE75B420B
:104FF00023604042A06090E722606360F9E752427C
:105000006260F6E7524222605B42F6E70C00002045
:10501000300B00202DE9F84F90F8253006461BB9DB
:1050200000273846BDE8F88F4368984707460028B0
:10503000F6D0002586F82550B38B204C1BB2C4F85F
:10504000E835F38B96F826101BB2C4F8EC35338C98
:1050500004F5BD601BB2C4F8F035FFF747FF04F557
:10506000AC7808F5926904F2F45A04F5E47B5AF836
:10507000253059F82500C01A49F825000AF058F8DB
:10508000B1690AF0A9F8D4F8683101465BF8250047
:1050900098470B4A0146D4F86C3152F825009847DE
:1050A000084A0146D4F8703152F825009847013576
:1050B000032D48F8040FDAD1B3E700BF300B00200E
:1050C00088100020E810002070B51B4C94F80006F2
:1050D00010B31A49B1F86A51FDB128460AF024F814
:1050E0000646D4F804060AF023F80146304609F0D3
:1050F00069FF13490AF070F8044628460AF018F8C8
:10510000014620460AF01CF90AF042FA6428A8BFBA
:10511000642020EAE070C0B270BD91F86051B4F82C
:10512000083691F85F2100FB15346423521B63435A
:105130005043B3FBF0F0E9E7300B0020542000208F
:105140000000C84210B50A4CD4F80C36584309F098
:10515000EFFF08490AF040F8D4F8101609F034FFC0
:10516000C4F810060AF014FAC4F8040610BD00BF13
:10517000300B00202FE33E31054B93F81406032833
:1051800004D093F81536984238BF1846704700BFD0
:10519000300B002008B5FFF7EFFF012802D00228EE
:1051A00005D008BD0820BDE8084005F05DB807201F
:1051B000F9E710B50F4C94F86E31CBB1B4F86A3101
:1051C000B3B1FFF7D9FF032812D0FFF77DFF0A4BD9
:1051D00028B9022283F81426BDE81040DAE794F8D3
:1051E0006F2182422CBF0122002283F81526F3E7AB
:1051F00010BD00BF54200020300B00200B2870B5DC
:1052000011D009280ED83422144B02FB003009B10A
:10521000C36863B90022124DD5F81C4605F5C46376
:10522000A24208DB70BD0E4BD3F81806EFE7BDE8CD
:10523000704002F02DBF53F82210960088420AD128
:10524000A21A311D920019449819013C0EF0E9FB95
:10525000C5F81C4670BD0132E2E700BF1400002013
:10526000300B00200E4B10B51A680E4B92B222F094
:10527000070213445B001B680B4AC3F30903136066
:10528000136800229BB20133084909485B1093421E
:1052900000D110BD51F8044B20F812400132F6E75E
:1052A000505C00401E300020C428002020620040D6
:1052B000D92800200022014B1A607047D428002012
:1052C00070472DE9F0412D4D2C68228AD2B9267AFB
:1052D000042E17D12A480378012B0FD1294B1968C6
:1052E000294B89B221F007010B445B001A6030237F
:1052F000027043802B681E72BDE8F08110230726E0
:105300004380F7E7B4F81480A36942458CBF0226B6
:105310000426904528BF90461FFA88F738469847DC
:105320000021184B08F101021B6852109BB223F0B8
:10533000070303F1005303F540535B001B689BB266
:1053400003F1005303F540535B008A4210D1394604
:105350000020FFF735FA3022238ADB1B2382638A81
:105360001F44074B67825A804FF440529A80C1E72E
:1053700030F802EB23F821E00131E6E77C2400203D
:1053800080110020505C00400230002008B50B4B1B
:10539000002093F82C10FFF7F1F9094B1B68187ADD
:1053A000082805D14FF48052064B9A8010225A806B
:1053B000A0F109035842584108BD00BF2003002056
:1053C0007C240020801100204FF48022014B5A6180
:1053D000704700BF00040140704770477047FEE708
:1053E000FEE7FEE77047202938B50C461DD8D1B13D
:1053F000631C124AA1B25B100432C3B90120FFF74B
:10540000DFF90F4A1368234413600E4A136823F42C
:10541000E04323F040039BB283F0300343F40043A6
:1054200043F080031360204638BD2024E0E730F8C5
:10543000025B013B22F8045CDEE700BF80610040B4
:10544000D4280020045C0040002330B51D46DCB2A7
:10545000A24200D830BD040F092C94BF3034373439
:1054600001F8134001EB4304000165700133EEE7DE
:1054700070B5002240F60F7648F2800502F18053A5
:1054800003F5B8539B00196842EA05043140013224
:105490002143042A1960F1D1024B40F080001860CA
:1054A00070BD00BF4C5C00402DE9F3479D4D9E4C04
:1054B0002B689E4E9BB2E380E388328813409805A8
:1054C00006D54FF6FF532B60237A0133DBB22372EC
:1054D000E3881A40110440F12382002348F60F7834
:1054E000934FDFF86892ADF802302B689AB2190436
:1054F000E28040F11582E38803F00F036372002B12
:1055000040F00B83D9F800309BB2A380A38803F04E
:1055100030036380A38803F44053A380D9F800309C
:1055200023F4804323F040031B041B0C83F400533B
:1055300083F0200343F4004343F08003C9F80030B4
:10554000E38813F0100FD9F800302AD123F4E14397
:1055500023F070031B04774F1B0CC9F800303B6825
:105560001A7A022A01D0042A06D1FFF7AAFE3B6864
:105570001B7A3A681372ACE1062A10D15A78052AD0
:1055800009D11A78520606D1D878FFF771FF6A4B15
:105590001B681B6A9847694B1B689B6898470823E0
:1055A000E7E79BB2ADF80230BDF80230180540F1D4
:1055B0003782D9F80030624923F070031B051B0DB8
:1055C000C9F800300A685F4B92B222F00702134418
:1055D000584F5B001A683B688846187A092817D02C
:1055E00092B2520002F1804202F5C0421178197065
:1055F000517859709088C1B2090241EA102159804E
:105600001089C1B2090241EA102199809289DA8099
:1056100001221A72DA8893F80190002A40F0E7809C
:105620001A7812F07F025BD1B9F1090F18D1DA783C
:10563000012A09D9414B48461B685B6998470328F2
:1056400040F0D180092394E799780029F2D1998814
:105650000029EFD19A72384B1B685B6898470FE0BE
:10566000B9F1050F1AD193F90320002A97DB9A7834
:10567000002A94D19A88002A91D19B7A002B8ED14E
:10568000D8F80020304B92B222F0070213440022D7
:105690005B001A603023638006236AE7B9F1030FC9
:1056A0000DD1DA78012AC5D19A88002AC2D15A7A56
:1056B00042F020025A72204B1B68DB69CEE7B9F139
:1056C000010FB7D1DA78012AB4D19A88002AB1D172
:1056D0005B7A9906AED50BF027FD0028D0D0A9E75C
:1056E000012A35D1B9F10B0FA4D1144AD978126827
:1056F0005879926990473B689A7A002A9AD0002894
:1057000098D11A79002A95D19B78002B92D10A4B17
:105710001B68DB6898473B685A79DA72DA781A7343
:10572000AEE700BF445C0040801100201A29002031
:10573000043E01087C240020A02400209C2400209A
:10574000505C00400430002002300020005C00402B
:10575000022A7FF46FAFB9F1010FBCD0B9F1030F8A
:105760007FF468AF587920F0800E4FEA8E0202F184
:10577000804101F5B841096840B20028B4BF01F08A
:10578000300101F44051BEF1030F3FF653AFB3F8BF
:1057900002E0BEF1000F7FF44DAF00293FF44AAFA5
:1057A0009B7A002B3FF446AF02F1804202F5B842EB
:1057B00013680028B5BF23F4E04323F4804323F0AB
:1057C000400323F07003B5BF9BB29BB283F010037C
:1057D00083F4805343F4004343F080031360894B08
:1057E0001B689B693AE700287FF4D9AE48E7B9F116
:1057F000060F14D11A78520660D19A78824B012A8A
:1058000003D11B68DB69FBB958E0022A02D11B688F
:105810001B6AF8E7032A51D11B685B6AF3E7B9F109
:10582000000F40F09F805988002947D15A6822F420
:105830007F42B2F5003F41D11A7812F07F0219D1B0
:105840009B88002B3AD1714B4FF000083A684046D4
:10585000A2F812809361984740464FF6FF713B686B
:105860001A8A8A4233D0022802D0002A40F09F8050
:1058700008222DE0012A0AD1634A587912689269F8
:105880009047D8B93B689B7A002BDCD116E0022AFE
:1058900014D15A7902F00F018B0003F1804303F514
:1058A000B8431B6812F0800F14BF03F0300303F4F9
:1058B0004053032902D812F0700FE5D0524B3A68DA
:1058C0001B6850781B6998470328C6D13B6809229A
:1058D0001A72FFF75BFD4E4B1B68A28823F48043CE
:1058E00023F04003D1044FEA0343A2884FEA134355
:1058F00048BF83F480539204628848BF83F4005306
:10590000D706628848BF83F01003900648BF83F033
:10591000200343F4004343F080033D4A9BB21360ED
:105920003288E38813405A0505D54FF6FF332B60C4
:10593000384B5B689847E38832881340DB0440F1BA
:1059400026814EF6FF732B600023A372A37A052BEA
:1059500000F21281DFE813F00C0115011E01220193
:105960002B013601B9F1080F04D11B785B06A5D1D4
:10597000294B69E7B9F10A0FA0D11A7802F07F022A
:10598000012A9BD19A7A002A98D05988002995D16A
:105990005A6822F47F42B2F5803F8FD11A4A587973
:1059A000126892699047002888D11C4B4CE793F904
:1059B0000010002920DAD988134F01910198824202
:1059C00008D9019A1A823A6892F82C209A82FFF735
:1059D00078FC7EE78A42F6D2396891F82C00824240
:1059E00002D200222270EEE792FBF0F100FB1122BE
:1059F000002AE8D10122F5E703221A724FF440533E
:105A0000A38066E7A02400209C240020E145000834
:105A1000005C004020030020954600087146000805
:105A2000BDF8023018047FF560ADD9F800306F4A38
:105A300023F070031B051B0D1768C9F800303B7A73
:105A40009146022B67D0042B65D0032B01D0052B88
:105A50005BD1BB693A8AC3B93B8A43B100214FF499
:105A600040530846A380FEF7ABFE30236380BB8A19
:105A7000398A8B42D9F8003036D803221A72D9F805
:105A800000301B7AD9F8002074E5002AE4D0B7F87A
:105A90001480904528BF90461FFA88FA50469847D0
:105AA00000213B8A08F10108A3EB0A033B827B8AB1
:105AB0004FEA68089A444E4BA7F812A01A684D4B5B
:105AC00092B222F0070213445B001B689BB203F101
:105AD000005303F540535B008845BDD053F82120A7
