:020000040800F2
:100000000020001005A20208C9FD010875FF0008C4
:10001000C5FD0108C1FD0108BDFD0108000000008B
:10002000000000000000000000000000B9FD010811
:10003000B5FD010800000000B1FD010885120108AE
:100040006DA202086DA202086DA202086DA202084C
:100050006DA202086DA202082DF6000859F70008EB
:100060001DF70008E1F60008A5F60008016B00087E
:10007000F16A0008E16A0008D16A0008C16A000854
:10008000AD6A0008996A00086DA202086DA2020814
:10009000BD0102086DA202086DA2020869F60008FF
:1000A0006DA20208CD050108BD0501086DA2020878
:1000B000FD0501086DA202086DA202086DA20208EA
:1000C0006DA202086DA202086DA202086DA20208CC
:1000D0006DA2020835130108B91201086DA20208C9
:1000E000F1F500086DA20208A1FD01086DA2020849
:1000F000DD0501086DA20208ED0501086DA20208E8
:100100000000000000000000000000006DA20208D6
:100110006DA202086DA20208612D0108452D01089B
:10012000856A0008716A00085D6A0008496A00086B
:10013000356A00086DA202080000000000000000FF
:100140006DA202086DA202086DA202080000000064
:10015000000000000000000000000000000000009F
:1001600000000000000000006DA202086DA202085D
:100170006DA2020800000000000000000000000066
:08018000000000006DA202085E
:100188002DE9F04FB0F908502DED068B0D81EDB239
:10019800382D8DB00C4600F06184804691462ED9EA
:1001A800802D00F0928079D8522D00F0B48040F272
:1001B8003382542D00F085846E2D40F011817C4BE4
:1001C8000A681B887B4DFF2BA8BFFF23511C2160A9
:1001D8001370A96881F3100189B2204605F030FD3B
:1001E800754B2046198805F02BFD296801F30F018E
:1001F80089B22046012505F023FD2B4647E0042D52
:1002080000F0538440F2F081202D00F0B48040F2D9
:100218000E82242D00F06284282D40F0E1800B68C6
:10022800DFF8B881654E591C022221601A702368D4
:1002380006275A1C22601F7023680A22591C216055
:100248001A70236801255A1922601D70B8F8001029
:10025800204605F0F5FCB8F80210204605F0F0FC41
:1002680023685A1922601F70236850225919216087
:100278001A7023680022591921601A7031882046A3
:1002880005F0DEFC7188204605F0DAFC2B4628468E
:1002980063810DB0BDEC068BBDE8F08F822D42D096
:1002A800C0F03184A02D00F02284FE2D40F098800B
:1002B800434D05F1080635F8021B204605F0C0FC41
:1002C800AE42F8D101252B46E1E73E4B1D780B3DA8
:1002D80015F0FF05F6D03C4F00220A2621683B881E
:1002E800481C20600E702168FF2B02F10102A8BF94
:1002F800FF23481CAA4220600B70EFDBE2E75A1C80
:10030800C8F8002013F8022B3049C8F80030FF2A3B
:100318000A7000F0658422680021531C01252360BF
:100328002B461170B3E70B68294A224D1178294AE8
:10033800581C206019701189204605F081FC1C4B5F
:1003480022681B88FF2B02F10101A8BFFF2321604F
:100358001370A96881F3100189B2204605F070FC7A
:10036800296801F30F0189B2204605F069FC1A4B90
:1003780022681978D1E70B68164D591C6A782160F4
:100388001A7023682A78591C21601A702368AA7881
:10039800591C21601A702989204605F051FC2368F0
:1003A8006A79591C21601A702268A979B5E700BFDB
:1003B80044330020744D0020A44E0020CC26002099
:1003C8001A48002008590020784B0020281D0020DA
:1003D8005A330020D4470020CF470020FC4A002091
:1003E800A5F10A03E62B00F2E980DFE813F0950493
:1003F800E700E700E700E700E700E700E700E700BD
:10040800E700E700E700E700E700E700E700E700AC
:10041800E700E700E700E700E700E700E700E5049A
:10042800E700E700E700A804E700E700E700770532
:10043800E7003605E7001D05E7001105E700E705B9
:10044800E700C105E700EC05E700E700E70059040D
:10045800B805E700B405E700E700AB05E70081054C
:10046800E700E700E7004C04E700E700E700E700E3
:10047800D208E7007304E700EE08AE08E700E700DB
:10048800E700E700E700E700E7007908E7004E0823
:10049800E7001D08E7001209E7000109E700E70087
:1004A800E700E7003D070607E70006066104E700E6
:1004B800E700ED06DF06E7009D078007E700E70095
:1004C800E700E7007407E700E700E700E700E70058
:1004D800E7006307D707CE068F06E700E700E700C7
:1004E8005206E700E700E700E700E700E700E7005B
:1004F800E700E700E700E700E700E700E700E700BC
:10050800E700E700E7003D07E700E700E700E7004E
:10051800E700E700E700E700E700E700E700E7009B
:10052800E700E700E700E700E700E700E700E7008B
:10053800E700E700E700E700E700E700E700E7007B
:10054800E700E700E700E700E700E700E700E7006B
:10055800E700E700E700E700E700E700E700E7005B
:10056800E700E700E700E700E700E700E700E7004B
:10057800E700E700E700E700E700E700E700E7003B
:10058800E700E700E700E700E700E700E700E7002B
:10059800E700E700E700E700E700E700E700E7001B
:1005A800E700E700E700E700E700E700E700E7000B
:1005B800E700E700E700E700E7000405742D00F016
:1005C800F382772D52D1D8F80030D8F804209A4217
:1005D8001EBF5A1CC8F8002019781F4A08BF0021FE
:1005E800204623F0CFFE6DE6022D00F0D48200F203
:1005F800C482012D7FF4F4AE0B680022591C2160DF
:100608001A7023685A1C22601D7022682421531C0A
:1006180023602B4611703AE6442D7FF4E1AE002AA0
:100628003FF450AE0D4B136001252B462FE6052DE8
:100638007FF4D6AE0B220A49204605F0D1FA0822EB
:100648000849204605F0CCFA01250722064920462C
:1006580005F0C6FA2B461AE63D370208B1FE000837
:1006680084F0020890F0020868180308F52D00F0DD
:10067800AD82292DD8F8006001F00D86392D01F0E2
:10068800F885212D01F0CF85D8F804200B3D931B68
:10069800EF2D01F24D8201A151F825F0ED2100085E
:1006A800391B0008391B0008391B0008391B0008D2
:1006B800391B0008391B0008391B0008391B0008C2
:1006C800391B0008391B0008391B0008391B0008B2
:1006D800391B0008391B0008391B0008391B0008A2
:1006E800391B0008391B0008391B0008391B000892
:1006F800391B0008391B0008391B00087F1B00083C
:10070800391B0008651B0008391B0008431B00083B
:10071800391B0008391B0008391B0008C1210008D3
:10072800391B000835210008391B0008C5200008BE
:10073800391B00089D200008391B00088920000883
:10074800391B000827200008391B0008891F0008EA
:10075800391B0008391B0008391B0008391B000821
:10076800CD020008391B0008691F0008391B000862
:10077800391B0008011F0008391B0008A91E0008C2
:10078800391B0008391B0008391B0008391B0008F1
:10079800391B0008391B0008391B0008391B0008E1
:1007A8001D1F0008391B00085B1E0008391B0008C4
:1007B800391B00081D1E0008391B0008391B0008DA
:1007C800391B0008391B0008391B0008391B0008B1
:1007D800391B0008511D0008391B0008971C000828
:1007E800391B0008F31B0008391B0008211A0008F0
:1007F800391B0008B719000897190008391B0008A9
:10080800391B0008391B0008391B0008391B000870
:10081800391B0008391B0008391B0008391B000860
:10082800391B0008391B0008391B0008391B000850
:10083800391B0008391B0008391B0008391B000840
:10084800391B0008391B0008391B0008391B000830
:10085800391B0008391B0008391B0008391B000820
:10086800391B0008391B0008391B0008391B000810
:10087800391B0008391B0008391B0008391B000800
:10088800391B0008391B0008391B0008391B0008F0
:10089800391B0008391B0008391B0008391B0008E0
:1008A800391B0008391B0008391B0008391B0008D0
:1008B800391B0008391B0008391B0008391B0008C0
:1008C800391B0008391B0008391B0008391B0008B0
:1008D800391B0008391B0008391B0008391B0008A0
:1008E800391B0008391B0008391B0008391B000890
:1008F800391B0008391B0008391B0008391B000880
:10090800391B0008391B0008391B0008391B00086F
:10091800391B0008391B0008391B0008391B00085F
:10092800391B0008391B0008391B0008391B00084F
:10093800391B0008391B0008391B0008391B00083F
:10094800391B0008391B0008391B0008391B00082F
:10095800391B0008391B0008391B0008391B00081F
:10096800391B0008391B0008391B0008391B00080F
:10097800391B0008391B0008391B0008391B0008FF
:10098800391B0008391B0008391B0008391B0008EF
:100998003B190008391B0008FD180008391B00081E
:1009A8004F1800083518000819180008391B0008E6
:1009B800FF170008391B0008D5170008391B000865
:1009C800CD020008391B000893170008391B0008DE
:1009D800391B0008711700083D170008FB160008AE
:1009E800CD160008151B0008F31A0008391B00086B
:1009F800391B0008391B0008391B0008391B00087F
:100A0800391B0008391B0008391B0008391B00086E
:100A1800391B0008391B0008391B0008391B00085E
:100A2800391B0008391B0008391B0008D91A0008AF
:100A3800391B0008391B0008CD020008391B0008C3
:100A4800391B0008391B0008391B0008391B00082E
:100A5800391B0008391B0008BB1700080A68C04B7F
:100A68000125511C2160157022680521501920604C
:100A7800117022680A215019206011702268002123
:100A8800501920601170226819785019206011706F
:100A98002268597850192060117022689978531982
:100AA80023602B461170FFF7F2BB2A46AD4920465A
:100AB80005F096F80021204605F0C2F822680021CA
:100AC8002BE40B6800215A1C22601970226801254A
:100AD800531923602B461170FFF7D9BBA24B196835
:100AE8002046012505F094F82B46FFF7D0BB9F4B15
:100AF8000846196805F08CF89D4B2046196805F0E2
:100B080087F89C4BEBE79C4B1E780A3E16F0FF06D5
:100B18003FF4D8AB994B9A4F1E4403F101080A23BE
:100B280014E0502B01F07B83002529462268501CD5
:100B380020602046137005F083F82946204605F00A
:100B48007FF8B0453FF4BEAB18F8013B0A2BE8D15B
:100B58008C4A9568116805EB85054FF6FF726D00A4
:100B68009542A8BF15469142A8BF114625EAE575EA
:100B780021EAE171ADB289B2D8E70B680322591CAA
:100B880021601A7023680222591C21601A70226899
:100B98000021FFF7C2BB04227B492046012505F04E
:100BA8001FF82B46FFF773BBD8F80030D8F804209D
:100BB8009A421EBF5A1CC8F800201978734A08BF09
:100BC8000021204623F0DEFBFFF77CBBD8F800307D
:100BD800D8F804209A427FF492AB6D4BFF221A702A
:100BE8004FF000086B4D1DF091F8414620226A48ED
:100BF80085F800802BF0C1FE8DF80C809DF80C3034
:100C0800072B01F2A584654F634E42469DF80C30D0
:100C180003EB430307EBC3035B7CDBB19DF80C30AC
:100C280003EB430307EBC3035B699BB19DF80C30EF
:100C380003EB430307EBC303586946F822001DF092
:100C48000DF92B7856F823000EF09AFC2A78013219
:100C5800D2B22A709DF80C300133DBB28DF80C301B
:100C68009DF80C30072BD1D92368591C21601A70C4
:100C7800B9F1000F3FF426AB494BC9F80030012504
:100C88002B46FFF704BB236800255A1C226029461F
:100C980020461D7004F0BCFF2946204604F0B8FF2A
:100CA80000212046012504F0B3FF2B46FFF7EFBAD9
:100CB8003C4E3378002B3FF405AB3B4F002537F80B
:100CC800021F204604F0BCFF337801359D42F6DB55
:100CD800FFF7F8BA334E3378002B3FF4F3AA334FBB
:100CE8000025B846236817F81520591C21601A708A
:100CF80098F8011001EB810101EB810101F2EE216D
:100D080089B2204604F09CFF337801359D4208F1F2
:100D18000208E7DBFFF7D6BA254D284628F0F0FB96
:100D280000287FF7CFAA2B460544226813F8011B39
:100D3800501C9D4220601170F7D1FFF7C3BA1D4DBA
:100D48002046298804F07CFFA988204604F078FF13
:100D580029892046012504F073FF2B46FFF797BA2F
:100D68009933002041480020F8340020ACF7FF1FD9
:100D7800B0F7FF1FB4F7FF1F085900201CCB02086B
:100D8800D0260020982600207CF00208494202085C
:100D9800281D00201F560020F05500200C5500206B
:100DA800D5640208BC4800209A5900207C320020F3
:100DB800E84A0020E82B0020BE4D05F150062878AF
:100DC80023F034FB2368027A591C21601A702368C7
:100DD8006A78591C21601A702368AA78591C216006
:100DE8001A702368EA780435591CAE4221601A70DB
:100DF800E5D1FFF767BAB04D2046A98904F020FF76
:100E080069892046012504F01BFF2B46FFF73FBAEE
:100E1800AA4D05F1800655F8041F204604F0F8FE97
:100E2800AE42F8D1FFF74EBAA54D05F14006B5F828
:100E38008010204604F004FF236895F88220591C8E
:100E480021601A70236895F883200435591CAE4236
:100E580021601A70EBD1FFF735BA9A4D23682A7AC8
:100E6800591C21601A70A98B204604F0E9FE298BD1
:100E7800204604F0E5FE698B204604F0E1FE236875
:100E8800EA7C591C21601A70A98C204604F0D8FE0F
:100E9800E98C204604F0D4FE2368AA7F591C2160FF
:100EA8001A70236895F82020591C21601A70698CE3
:100EB800204604F0C5FE2368EA7A591C21601A709E
:100EC800E968204604F0A4FE23682A7C591C2160A6
:100ED8001A70226895F82110FFF71FBA7A4B22681A
:100EE8001978501C2060117022685978FFF715BADC
:100EF8002368754A754D1178754A581C2060197019
:100F08001168204604F084FE23686E4A591C127A40
:100F180021601A702988204604F092FEA98820468C
:100F280004F08EFE2989204604F08AFE002120461E
:100F380004F086FE01250021204604F081FE2B46A0
:100F4800FFF7A5B908225F492046012504F048FEAD
:100F58002B46FFF79CB95F4B22689978C1E7226856
:100F68000121531823600D460B461170FFF78FB906
:100F7800594B03F15A0522685979501C20601170A9
:100F880022681978501C2060117022685978501C0A
:100F98002060117022689978501C206011702268B6
:100FA800D978501C20601170226819790633501CBA
:100FB8009D4220601170DED1FFF784B9414B226851
:100FC800597DFFF7AAB9454D454E05F1180795F922
:100FD800023096F906209A4201F0158296F90E2001
:100FE8009A4201F0108296F916209A4201F00B827B
:100FF8000835AF42EBD1FFF765B93A4D3A4EDFED10
:101008003B8A9FED3B9ADFED3B9ADFED3BAA9FEDD4
:101018003BAA05F1200709E081B22046043504F017
:101028000FFEAF4206F118063FF44CA9717C002967
:10103800F3D095ED008AB0EE480A29F093FB304BC7
:101048001B78002BE8D02F4B1B6813F48053B4EEA9
:10105800E88A01F03582F1EE10FA0FDBB4EEE98A86
:10106800F1EE10FA01F20E82B4EECA8A7AEEC87A6C
:10107800F1EE10FAB0EE678A41F204824FF47A7109
:10108800B5EE408AF1EE10FA40F2DC5308BF19467B
:10109800C3E71D4D2046298A04F0D2FD698A2046FF
:1010A80004F0CEFDA98A2046012504F0C9FD2B468F
:1010B800FFF7EDB8004300200C4B0020A44D0020A2
:1010C800A84D0020983C0020FC420020E82B00207E
:1010D800F8340020284B00200C2F0020B0570020A7
:1010E8007C3C0020BC4200200C55002000004042FF
:1010F8000040744400E0824400C0884400C0824438
:1011080070390020B05000204C390020DFF80CE383
:101118000027FEB2714600232268501C206016701A
:101128002268501C20601370226811F8010F0133E7
:10113800551C062B25601070EED10137062F0EF1D5
:10114800060EE6D1A24900232268501C20601770C1
:101158002268501C20601370226811F8010F0133B7
:10116800551C0B2B25601070EED123689949581C2B
:10117800072220601A7023680022581C20601A7009
:10118800226891F8F010FFF7C8B82368924A93498B
:101198001078934A5D1C2560187023689278581C53
:1011A80020601A7022688978FFF7B7B88D4B2046FF
:1011B800196804F02DFD8C4B20461988012504F090
:1011C8003FFD2B46FFF763B8884D2046298804F079
:1011D80037FD6988204604F033FDB5F904308449A9
:1011E800DA1781FB0313C2EBA30399B2204601254A
:1011F80004F026FD2B46FFF74AB87E4B9B8AB3F5D1
:10120800006F01F27181B3F5007F34BF0127042715
:10121800794D05F10C0655F8041B91FBF7F12046B2
:1012280089B204F00DFDAE42F5D1744D744F05F14D
:101238000C06B5EC010AD7ED087A80EE270A29F0EA
:1012480091FA81B2204604F0FBFCB542F1D16D4D14
:1012580005F10C0655F8041B204689B204F0F0FC91
:10126800B542F7D1FFF72EB80023DFF8B491DFF8C5
:10127800B4B10293019303930493984601214FF666
:10128800FF7A07E008F10108B8F10B0F01F01A80A6
:1012980019F9011F481C4AFA08F3F3D0DA07F1D507
:1012A800BBF8003043FA08F3DB07EBD503A804F0DA
:1012B800ADFEE7E7544D2046298804F0C1FC698853
:1012C800204604F0BDFCA9882046012504F0B8FC9E
:1012D8002B46FEF7DCBF4D4952232268501C206084
:1012E800137011F8013F002BF7D1FEF7EBBF484D03
:1012F80000232268286803EB4301561C405C2660E3
:1013080010702A6820680A44461C527826600270C9
:101318002A6820680A4401339278411C0A2B21600C
:101328000270E6D1FEF7CEBF3A4D23682A68591CF1
:10133800127821601A702B6822689978531C2360F0
:10134800002311702A6821681A4401335279481C15
:10135800032B20600A70F5D123682A68591C127A79
:1013680021601A7023682A68591CD27821601A7083
:1013780023682A68591C127921601A702B68204644
:10138800598904F05DFC23682A68591C527A216047
:101398001A702B6822685978FEF7BFBF22681E4B67
:1013A80019491878551C2560107022685878551C02
:1013B8002560107022689B78501C20601370C988C3
:1013C8002046012504F03CFC2B46FEF760BF00BF19
:1013D8008B4E0020A84D0020905000201C4B002070
:1013E8000C4B002084230020941E0020B4480020C9
:1013F8006766666670480020A4480020A450002054
:1014080030450020E82E0020B82E0020ECCA020843
:1014180048480020E8570020044B0020674E002071
:1014280020CB0208A64E0020B74E23687279B74D2C
:10143800591C21601A702B682046198C04F000FC96
:101448002B682046D98B04F0FBFB3189204604F039
:10145800F7FB7189204604F0F3FB2B682046598C72
:1014680004F0EEFB2B682046998C04F0E9FBB18967
:10147800204604F0E5FBF189204604F0E1FB2B68E7
:10148800226893F82610FEF748BF9F4FFB78002B81
:1014980001F01D8023680822591C21601A702368F6
:1014A8000122991821601A702368994D591C2A79CC
:1014B80021601A702368AA78591C21601A7029883B
:1014C800204604F0BDFBE989204604F0B9FB2368F7
:1014D800BA79591C21601A702268E978FEF71DBF95
:1014E80018F05EF8FF28064601F006800CA90025D2
:1014F80001F82D5D0DF102008DF8025018F030F85A
:101508000CA800F82C5D18F01FF80CA800F8245D52
:1015180018F00EF823685A1C22601E7023689DF884
:101528000220591C21601A7023689DF80320591C59
:1015380021601A7023689DF80420591C21601A70D4
:1015480022689DF80C10FEF7E8BE2368714E01254D
:101558005A1C22601D702368B278591921601A70CC
:101568001FF0D2FA23686C4A6C495F19276018701B
:10157800B1F90010B2F9000004F0ECFC23685A1924
:10158800226018703188204604F05AFB2B46FEF77B
:101598007EBE2368624D591C2A7921601A7023681F
:1015A8006A79591C21601A702988204604F048FB82
:1015B8002368AA79591C21601A706988204604F0AA
:1015C8003FFB2268E979FEF7A8BE236800255A1C6C
:1015D80022601D7023685A1C22601D7023685A1CE3
:1015E800226029461D70204604F012FBFFF758BB05
:1015F80023684C4A4C49D0784C4A5D1C25601870C9
:1016080023685279581C20601A702268C978FEF73E
:1016180084BE0021204604F013FB0021204604F07C
:101628000FFB0021204604F00BFB2268374D0023F6
:10163800511C2160137022682968501C91F82C10E5
:101648002060117022682968501C91F836102060BB
:10165800117022682968501C91F8371020601170A9
:101668002268511C216013702268511C216013707C
:101678002268511C216013702B682046598F04F092
:10168800DFFA2B682046198F04F0DAFA2A682368F3
:1016980092F82E20591C21601A702A68236892F843
:1016A8002F20591C21601A702B682046598E04F08F
:1016B800C7FA2B682046998E012504F0C1FA2B46FB
:1016C800FEF7E5BD3346721CC8F800200E4A13F831
:1016D800021B1170C8F80030124A73789370F31C1B
:1016E800C8F80030104BB2789A7001252B46FEF7E7
:1016F800CEBD064B0E4918684E22012528F0BEFEC5
:101708002B46FEF7C4BD00BF90500020484800207B
:101718004C390020C8340020584900205A4900207C
:10172800D02E00200C4B00201C4B002078500020AD
:1017380090D102083246731CC8F80030A74B12F843
:10174800021B1970C8F8002072785A70F21CC8F889
:101758000020B2789A70404604F030FAA04B012578
:10176800D8802B46FEF793BD404604F027FA9C4EDE
:101778003080404604F022FA7080404604F01EFA99
:101788000125B0802B46FEF782BD964F3B78002B93
:101798003EF498AD944E0025404604F00FFA12F03E
:1017A80031FF3B78A6EC010A01359D42F4DBFEF7D8
:1017B80089BD8E4B1B78DB0700F1BA8101250EF03D
:1017C80007FC0FF02BF92B46FEF761BD731CC8F818
:1017D80000303078060600F1C186844B1B78DD079F
:1017E8003EF570AD032828BF002001250EF0D8FB78
:1017F8002B46FEF74CBD7D4B1B78D8073EF562ADF6
:1018080001250EF0A5FC0FF009F92B46FEF73FBDA8
:10181800764B1B78DA073EF555AD754A13780125E6
:1018280043F0040313702B46FEF731BD6F4B1B7852
:10183800D9073EF547AD6F4B4FF4C87201251A80A2
:101848002B46FEF724BD092B40F372816A4F3346BD
:10185800721C3D68C8F8002013F8022B2A70C8F8DB
:1018680000307378AB70F31CC8F80030B378642B81
:10187800A8BF6423321D6B71C8F80020F378642B6D
:10188800A8BF6423721DAB71C8F800203379EB71CF
:10189800B31DC8F800307379642BA8BF6423F21D08
:1018A8002B72C8F80020B379EB7006F10803C8F86A
:1018B8000030F3792B71404604F080F9D8F8042001
:1018C800D8F800306881D11A00290DDD591C386814
:1018D800C8F80010521A002A1978417204DD9A1CBF
:1018E800C8F800205B784370012526F0A7FA2B463C
:1018F800FEF7CDBC414B1868F31C02462136991EF1
:10190800C8F8001013F8031C1170591EC8F800100D
:1019180013F8021C5170C8F8003013F8011C9170BC
:101928000333B34202F10302E9D112F03DFAFEF7A4
:10193800C9BCC3F34705122D00F2FA80BDB10CAB48
:101948000DF10A0703EB45093E46A9F12609404671
:1019580004F034F926F8020FB145F8D1284B37F8CE
:10196800022F23F8022FBE42F9D1112D09D8254A9A
:101978006B00023B13440021223223F8021F9A42D3
:10198800FBD1214A01231D461370FEF780BC174B7B
:101998001B7813F0010140F0CB80731CC8F80030AD
:1019A8003078012511F030F92B46FEF770BC33462C
:1019B800721CC8F80020154A13F8021BD170C8F829
:1019C8000030134A73785371F31CC8F80030114B78
:1019D800B278DA7001252B46FEF759BC044B00207B
:1019E800B82E0020085900200C2E0020DC320020E0
:1019F8005C43002008580020E85700204848002091
:101A0800C6300020C8300020EC3000200C4B0020ED
:101A1800785000201C4B0020404604F0CFF8404688
:101A280004F0CCF8404604F0C9F8404604F0D2F877
:101A3800D8F80030BB4D1946581C2A68C8F8000071
:101A480011F8020B82F82C00C8F80010597882F8B7
:101A58003610D91CC8F800109B7882F837304046F9
:101A680004F0B8F8404604F0B5F8404604F0B2F87F
:101A780040462E6804F0A2F8708740462E6804F0AD
:101A88009DF8D8F80420D8F800303087D11A0129F9
:101A98000FDD5E1C19462868C8F8006011F8026B53
:101AA80080F82E60C8F800105B7880F82F30D8F8DE
:101AB8000030D31A032B09DD40462E6804F07EF867
:101AC800708640462E6804F079F8B08628682CE7BE
:101AD800404604F073F8944EB081404604F06EF826
:101AE800012570812B46FEF7D2BB404604F066F80C
:101AF8008E4E3082404604F061F87082404604F011
:101B08005DF80125B0822B46FEF7C1BB3346721C37
:101B1800C8F8002013F8020BC8F80030F31C7178DD
:101B2800C8F80030B27823F071FB00287EF4CAAB05
:101B38004FF0FF352B46FEF7AABB404604F03EF8AF
:101B48007B4E3060404604F039F87060404604F03F
:101B580035F80125B0602B46FEF799BB754E00237A
:101B68003360404628F07FFB336801250343336028
:101B78002B46FEF78CBB731CC8F800303578132D44
:101B8800D6D8B31CC8F80030707822F035FC00288D
:101B9800CED0694B027803F82520F21CC8F8002043
:101BA80003EB8505B2786A70321DC8F80020F27818
:101BB800AA70721DC8F800203279EA7003F150014A
:101BC80003E004338B4200F0C6841A78002AF8D167
:101BD8009878DA789042F4D20123584A83F00103C6
:101BE800012513702B46FEF752BB731CC8F8003052
:101BF8004C4D534F33787B7140462E6803F0DEFF1F
:101C0800308440462E6803F0D9FFD8F80420D8F86D
:101C18000030F083D11A072915DD404603F0CEFFC6
:101C28003881404603F0CAFF788140462E6803F0A9
:101C3800C5FF708440462E6803F0C0FFD8F8003016
:101C4800D8F80420B084D11A03290BDD404603F0EC
:101C5800B5FFB881404603F0B1FFD8F80030D8F896
:101C68000420F881D21A002A06DD591C2A68C8F80F
:101C780000101B7882F826300EF0B4F923F006FC29
:101C88002868012512F0C0F92B46FEF700BB334641
:101C9800721CC8F800202A4F13F8022BBA70C8F833
:101CA8000030284A73781370F31CC8F800301F4DB1
:101CB800B3782B71331DC8F80030F378092BA8BF0F
:101CC80009234046AB7003F079FFD8F80030D8F804
:101CD80004202880D11A012907DD404603F06EFF51
:101CE800D8F80030D8F80420E8819A4207D05A1C66
:101CF800C8F800201B78003318BF0123BB710EF011
:101D080071F9D8F80030D8F804209A423EF4DAAADB
:101D18005A1CC8F800201B78EB7001252B46FEF7EB
:101D2800B6BA00BF484800200C4B00204C390020B0
:101D3800E82B0020F834002000430020C91A0020B6
:101D480090500020004B0020404603F037FF054626
:101D580017F026FCFF283EF4B5AA0CA9002301F8C9
:101D68002D3DEE080DF102008DF80230013617F016
:101D7800F7FB9DF80230F6B205F00705B34205F10E
:101D8800010503D19DF80330AB4203D02946304604
:101D980017F0F2FBD8F80030D8F80420D21A012A3C
:101DA8007EF790AA5A1C0CA8C8F8002000221D78BB
:101DB80000F82C2D17F0C8FB9DF80430AB420AD070
:101DC800CC4B1B683BB19A79AA4204D31B681B69A8
:101DD8000BB128469847D8F800300CA85A1CC8F808
:101DE800002000221D7800F8242D17F0A1FB9DF893
:101DF8000C30AB423EF466AABE4B1B68002B3EF487
:101E080061AA1B685B69002B3EF45CAA28469847C8
:101E1800FEF758BAB84B1B78012B3EF653AA731C31
:101E28003146C8F80030B54F11F8023BBB70F31CBF
:101E3800D21AC8F80010012A7078C8F8003040F3A8
:101E4800BF83404603F0BAFE012538802B46FEF7D3
:101E58001EBA731CC8F800303778112F3FF668AEE9
:101E6800B31CC8F80030A64D737805F81730404603
:101E780003F0A4FE40F6CA039842A8BF184640F2F1
:101E8800EE23984205EB4701B8BF18460125A0F29A
:101E9800EE222B46192092FBF0F24A70FEF7F7B9B2
:101EA800731CC8F80030974B3278974F1A7000238C
:101EB8003B60404628F0D7F9D8F800203B689349A2
:101EC800934D0343501C3B60C8F8000013780B7215
:101ED800404603F073FE2860404603F06FFE6860DA
:101EE800404603F06BFEA860404603F067FE40469C
:101EF80003F064FEFEF7E6B9864B06F108010136E9
:101F0800C8F8006016F8012C03F8012FB142F6D189
:101F1800FEF7D8B93346721C7F4DC8F8002013F875
:101F2800022B2A71C8F8003073786B71404603F0B1
:101F380045FED8F8003028805A1CC8F800201B78C5
:101F4800AB71404603F03AFED8F8003068805A1C5E
:101F5800C8F800201B78EB7101252B46FEF797B9CE
:101F68003346721CC8F800206C4A13F8021B9170A3
:101F7800C8F800307378537001252B46FEF787B9EF
:101F88000722B3FBF2F2C2EBC2055B1B7FF4D0ADB4
:101F9800D2B202F1FF395FFA89F9002A3EF492A918
:101FA800DFF884A109F101091D462DE09AF90A20FC
:101FB8009A4200F0DE829AF912209A427FF4B8AD74
:101FC80002260AEBC6074046BB7003F0F7FDD8F8B7
:101FD80000302AF836001A46591CC8F8001012F8C2
:101FE800021BF970C8F800205A783A71DA1CC8F850
:101FF80000209A78BA711E1DC8F800600135DB7898
:102008007B714D453EF45EA9731CC8F8003096F903
:1020180000309AF902209A42C8D10026D1E7731CF1
:10202800C8F8003033780E2B3FF682ADB21CC8F8E2
:102038000020707803283FF67BAD3949062202FB61
:1020480003F28B18F51C5871C8F80050B078885402
:10205800321DC8F80020F2785A70721DC8F80020A6
:1020680032799A70B21DC8F800207279DA70F21DC0
:10207800C8F80020B2791A7101252B46FEF707B976
:10208800731CC8F80030214B32785A7501252B464D
:10209800FEF7FDB8721CC8F8002035781F2D3FF6F2
:1020A80047AD052B7FF444AD404628F0DCF81D4BC6
:1020B80043F825001DF05EFBFEF704B9194D05F144
:1020C8004006404603F07AFDD8F80030A5F88000B5
:1020D800591C1A46C8F8001012F8021B85F882101D
:1020E800C8F800205B7885F883300435AE42E8D123
:1020F800FEF7E8B8FC340020C5340020C8340020BE
:102108007C320020FC420020F8340020983C00205B
:10211800E82B0020973C0020D02E0020284B0020E0
:102128000C2F0020A84D0020B0570020731CC74D6D
:10213800C8F8003033782B72404603F03FFDA8837F
:10214800404603F03BFD2883404603F037FDD8F8AE
:1021580000206883531CC8F800301278EA74D8F855
:102168000420D31A032B00F30682D8F80030D11AC2
:10217800052913DD5A1CC8F800201B78EB7240466D
:1021880028F071F8D8F80030E8605A1CC8F8002028
:102198001B782B74D8F80030D8F80420D21A002AFB
:1021A8007EF790A85A1CC8F800201B7885F82130C3
:1021B80001252B46FEF76BB8731CC8F80030A449FC
:1021C80030780870D21A002A7EF77CA8B31CC8F8A9
:1021D80000307378003318BF012301254B702B465C
:1021E800FEF755B89B49102B4FF0000228BF10236B
:1021F8000A604A608A60CA600A74002B3EF462A8CA
:10220800D8F80020013913440132C8F8002012F828
:10221800010C01F8010F9A42F6D1FEF753B8BD68D8
:102228003968FEF798BC3346721CC8F800208A4DFE
:1022380013F8022B6A70C8F8003073782B70F31CFF
:10224800C8F80030B378AB70404603F0B7FCD8F854
:1022580000302881591C1A46C8F8001012F8021BD1
:102268006971C8F800205B78AB7101252B46FEF731
:102278000EB8731CC8F8003033780A2B00F044817C
:10228800404603F0A7FC404603F0A4FC404603F098
:10229800A1FCFEF717B8731CC8F8003033780A2B76
:1022A80000F02581502B7FF41FAE404603F086FCDA
:1022B8006A4E3080404603F081FC012570802B4631
:1022C800FDF7E5BFDFF8B8A14FF000084FF00809A7
:1022D80008F10108C8F1200209FA02F2A8F1200366
:1022E8002AFA08F6164329FA03F31E43B8F1250F14
:1022F80006F001024FF000030CD01343E8D05FFA58
:1023080088F025F049FD0028E2D0414603A803F0F3
:102318007DFEDDE7524B1B78DF0700F109810026BF
:10232800504FB04602E00136252E0ED031463846D1
:1023380003F07CFE0028F6D0314603A803F076FEB1
:1023480000287ED108F10108EDE7474B474EB3F866
:102358005010204603F074FC454B1988204689B27A
:1023680003F06EFC434B1A68530103F02001C2F3DB
:1023780040030B43C2F3800143EA4103C2F3C001A7
:1023880043EA8103C2F3401143EAC10102F010029B
:102398001143204603F054FC01A90422204603F00F
:1023A8001FFC23683178344A581C20601970118842
:1023B8006429A8BF6421204603F042FC962D00F052
:1023C800BC800021204603F03BFC2168B8F11903CA
:1023D80048BFA8F11203A3F3C4034A1C2260204695
:1023E8001A460B7002A903F0FBFB2368234A581C0A
:1023F80010212060197011882046012503F008FC7F
:102408002B46FDF744BF2268511C216013702988B0
:10241800204603F015FC2368EA78591C21601A70DD
:1024280023682A79591C21601A702368AA79591CD3
:1024380021601A7023686A79591C21601A70FEF7A6
:10244800D7BD414601A803F0E1FD7BE7983C002099
:10245800FC420020E84A0020D4470020CC26002077
:10246800DC320020684D0020E81600203C4800209F
:10247800F82E0020B8500020FC2E0020084800202C
:1024880090E33FF4F7EE007A78EE677AB6EE007ADA
:10249800F0EE496AE7EE876A40F2E932FDEEE67A45
:1024A80017EE901AB1F5FA6FA8BF4FF4FA6191428E
:1024B800B8BF114689B2002B3EF4AFADFEF7E0BDC0
:1024C800F1EE10FADEDA4FF47A71FEF7A6BD236852
:1024D800B978414A581C2060197023681278591C31
:1024E80021601A70FEF7E0BF0827FEF791BE40464C
:1024F80003F064FB394EDCE622680125531923609A
:102508002B461070FDF7C3BEB31CC8F80030344B1F
:1025180072781A70F21CC8F80020B2785A70321D0E
:10252800C8F80020F2789A7001252B46FDF7AFBE57
:10253800039B43F001030393F1E623680322591C2C
:1025480021601A7023687278591C21601A703CE760
:102558004246FEF789BB0023FFF73FBB00F07F0030
:10256800032828BF0020012510F004FC2B46FDF7A6
:102578008EBE012625E5404603F020FBA884404690
:1025880003F01CFBD8F80030D8F80420E884D11AEE
:1025980003297FF7ECAD1A46591CC8F8001012F849
:1025A800021BA977C8F800205B7885F820304046E0
:1025B80003F004FBD8F80030D8F804206884D6E586
:1025C800084BB1781A88012512FB00F22B4692FBC2
:1025D800F1F23A80FDF75BBE004B0020FC4A002078
:1025E80099330020584900202DE9F04F2DED028B3A
:1025F8008FB0019022F0D8FABA4B1D7825B10FB0F0
:10260800BDEC028BBDE8F08FB74B1B685C05F6D5B7
:10261800B64FB74E3B68002B5CD0B64C3168D4F847
:102628005C218A1A7C2A55D994F86021DFF808833E
:102638009FEDB18AC4F85C11013284F86021A8F1D9
:1026480034094FF0240A5E20984750463B68984763
:10265800B9F81430F8EC016A07EE103AF8EEE66AB9
:10266800B8EEC77A0AF1010AC6EE877A5FFA8AFAE3
:1026780067EE887AFDEEE77ACDED027ABDF908B00B
:102688005FFA8BF022F024FACBF3072022F020FA2D
:10269800BAF1270F3B68D6D15E2098473B683020B7
:1026A8009847D4F864815FFA88F022F011FAC8F3E9
:1026B800072022F00DFA3B685E20984794F86031B5
:1026C80013F0030800F06B81580701F07582282B7E
:1026D80001F09583894B1B78002B73D0854C0199A9
:1026E800D4F86C31864ACB1A934200F28B8794F85F
:1026F8007491B9F1000F35D1DFF84082D8F80000A5
:102708000CF0D0FAC0B201280FD902287D4F41F051
:102718006A843B78002B41F08986D4F87831019A95
:10272800D31AB3F57A6F82F01380D4F87C31002B7A
:1027380048D094F87431C3B9734B1B689B78012156
:102748001E3B00228B4284F8741184F8882141F2E0
:102758004187D8F800000221043016F0C8F994F82F
:10276800803111E0D4F87C3163B3D4F88431019915
:1027780040F6B732CB1A934224D994F88031002B13
:1027880001F0E682DFF8B481013BDBB284F88031E6
:10279800002B00F0AB87D4F87C7194F8882117F8E7
:1027A800011B94F88931D8F80000C4F87C710A44F8
:1027B800013384F8882184F889310CF077FA019B79
:1027C800C4F88431514B37681B7853B1DFF87081F6
:1027D800D8F8000028B14E4B1B78013B012B40F282
:1027E80095874C4B1B7863B14B4F3B684BB1414CC1
:1027F800D6F800B0D4F8C032ABEB0303632B00F279
:102808006486DFF8408198F80030022B01F080825E
:102818003C4F97F87430032B00F052873F4B1B78DE
:1028280073B13F4D2B685BB1324C0EF0E3FBD4F82B
:10283800CC3244F61F62C31A9342834600F2EE80FC
:10284800384B1B78002B7FD1374B1B784BB1294C69
:10285800019AD4F81C3403F5C333A0339A4280F0AC
:102868009186324B1B78002B3FF4C9AE214E304C79
:10287800304D06F23D4720680CF014FA00283FF46A
:10288800BEAE20680CF006FA2B7880465A1E33B18B
:1028980020682A700CF006FA0028F2D1AFE603226D
:1028A8003946781E2AF04FF896F83C3496F83D24BD
:1028B80086F83F8483F47F4383F0FF039B1A1FFA53
:1028C80088F89BB2B8EB132FD5D196F83E24DBB22B
:1028D8009A42D0D1781E16F019F82B78184428702F
:1028E800C9E700BF19480020B0500020A84E0020BA
:1028F800B4470020301D002000007A44024F002019
:102908003F0D03000000002070330020044F00201A
:102918000C4F0020144F0020243D00201C4F0020A5
:10292800204F0020604F00206E4F0020264F0020CF
:102938002C4F0020304F0020A44800206C3300208A
:10294800D4320020C23100202E4C2278002A40F0D8
:10295800FE852D4C019AD4F8143403F5C333A03303
:102968009A42FFF471AF114694F81834274AC4F814
:102978001414D55CEA0701F13084AB0701F1EE834A
:102988006F0701F1FE82224A94F818341178013356
:1029980093FBF1F201FB123384F8183454E7D4F8AE
:1029A8005C2141F288339A4201F2A8823B685E209A
:1029B80098473B6814209847164B174AB3F90430D8
:1029C80082FB03124FEAE378C8EBA2080FFA88F8F3
:1029D8005FFA88F022F07CF8C8F3072022F078F834
:1029E8003B685E2098473B681C209847002022F0EF
:1029F8006FF8002022F06CF83B685E20984794F846
:102A0800603161E6F44E0020301D0020684F002040
:102A18006D4F0020B44800206766666694F8D2328D
:102A2800002B41F02B82E04B1A6802F00803002BC0
:102A380048F603414AF60B404BF60F4349F6074761
:102A480004BF03460F4612F0040F4FF0190118BFD8
:102A58001F46930684F8D21203D547F4804747F0FF
:102A68002007D24B5A79C7F30909002A41F0AF86EB
:102A78009B79002B42F02880984664204FF0FF3A5B
:102A88004FF0000C06970797CDF82090ADF82680F8
:102A9800ADF828A08DF83600ADF824C0CDF82AC0CE
:102AA800CDF82EC0CDF832C00DF1180EBEE80F00DB
:102AB800BF4F84F851C00FC79EE80F0007C727F81B
:102AC800023B39464FF0010E1B0CFE271F20C8227F
:102AD80001F81E3984F84E7084F8522084F853E0C7
:102AE80084F84F0094F8E20284F8500080F0F10373
:102AF80083EA0313DAB2130983F0E70343EA0223F4
:102B080083EAC2031BB283EA0312D2B2C3F30723D8
:102B180083EA121343EA022383EAC2031BB283F057
:102B2800C80282EA0212D2B2C3F3072383EA12135D
:102B380043EA022383EAC2031BB283EA0E0787EA49
:102B48000717FFB2C3F3072282EA171242EA0722E5
:102B5800704482EAC70784F8E202A4F84C7001F1D5
:102B68001F0011F8013B7B4083EA0313DBB21A090B
:102B780082EA172242EA032282EAC3031BB29FB207
:102B88008142A4F84C70ECD183F07C0383EA0313F0
:102B9800DBB24FEA131E8EEA172E8EEA032E8EEA58
:102BA800C30E0FFA8EFE1FFA8EF34FEA132A5FFA4E
:102BB8008EFEDFF81082A4F84C3084F874A084F8F4
:102BC80073E004F14E0C04F16E09DCF80000DCF847
:102BD8000410DCF80820DCF80C3047460FC70CF16D
:102BE800100CCC45B846F0D1DCF800003860714FC5
:102BF8009CF8043088F8043007F1270884F831E39A
:102C080084F832A317F8011F28680CF04FF8B8456C
:102C1800F8D194F8D322002A41F02B816649336811
:102C280008780A2184F8D312002801F08D82DFF891
:102C380098E10128BEF80010059141F23887BEF8E6
:102C480002100291022801F0D985BEF80410039100
:102C5800032801F052870428BEF806A001F0478730
:102C68000528BEF8081001F03D870628BEF80A902E
:102C780001F034870728BEF80C7001F02C87BEF8E5
:102C88000E8094F8E2220693104680F0300383EA1F
:102C98000313DBB20490494A9DF810E0128884F8C7
:102CA80050E0180980F07A0040EA032080EAC30364
:102CB8004348C2EB022280FB02E01044D217C2EB69
:102CC800602205988DF82D204FF0000C60F30F0C52
:102CD80003984FF0000E60F30F0E00201BB261F353
:102CE8000F00002167F30F0183EA0317C3F30723DB
:102CF8000393029B63F31F4C039BCDF81CC0FFB2E8
:102D080069F31F4068F31F4183EA17136AF31F4EE4
:102D18004FF00009CDF820E009900A918DF82C9029
:102D280043EA072E0DF11808B8E80F008EEAC70726
:102D38003FB287F0C80CDFF878E084F851908CEA4D
:102D48000C1C5FFA8CFCC7F30727AEE80F0087EA74
:102D58001C1747EA0C2398E8030083EACC0C0FFA07
:102D68008CF383F023024EF8040B82EA0210C0B2FF
:102D7800C3F3072282EA1012049B2EF8141942EAC0
:102D88000022591C82EAC0004FF0230C1622FE27AD
:102D9800C82384F8E212A4F84C000EEB020184F870
:102DA80053C084F84E7011E0B8500020D44700207A
:102DB800841D00203B200020BC480020A44E002099
:102DC800030820803C2000209C59002084F84F20D4
:102DD80084F852301EF8013B434083EA0313DBB208
:102DE8001A0982EA102242EA032282EAC3031BB2CA
:102DF80098B28E45A4F84C00ECD183F0F40383EA32
:102E08000313DBB24FEA131E8EEA102E8EEA032E4E
:102E18008EEAC30E27460FFA8EFE1FFA8EF857F871
:102E28004E0FDFF804C4A4F84C804FEA18295FFA63
:102E38008EFE84F86AE084F86B907968BA68FB685B
:102E4800ACE80F0038697969BA6904F22938ACE846
:102E5800070004F20B3784F8299384F828E317F85D
:102E6800011F28680BF022FFB845F8D194F8DA72F0
:102E7800002F41F00D80E44B94F8E2E2B3F9001022
:102E8800B3F90220B3F904309FEDE06A84F8517079
:102E980007EE103A336806938EF06A0383EA031349
:102EA80006EE901AD9B20B0983F0D50343EA012341
:102EB80083EAC1031BB283EA03115242C9B207EE87
:102EC800902AC3F3072383EA111343EA0123F8EE98
:102ED800E77AF8EEE66AB8EEC77A83EAC1031BB26E
:102EE80067EE867A66EE866A27EE067A002083F019
:102EF800C806CDED087ACDED076A8DED097A0A90FE
:102F08000B900C9086EA06160DF11808F6B2C3F37A
:102F1800072CB8E80F008CEA161C4CEA062C8CEA41
:102F2800C606DFF810C336B2ACE80F0086F01E07FD
:102F380098E8070087EA0713DBB2C6F3072787EA92
:102F4800131747EA03278CE8070087EAC307ACF1A1
:102F580010061C20C8214FF005081E234FF0FE0C58
:102F68000EF1010284F8521084F8DA8284F85330A2
:102F780084F84EC084F84F00311884F850E0A4F863
:102F88004C7084F8E22216F8013B7B4083EA031375
:102F9800DBB21A0982EA172242EA032282EAC30351
:102FA8001BB29FB28E42A4F84C70ECD183F0270379
:102FB80083EA0313DBB24FEA131E8EEA172E8EEA5A
:102FC800032E8EEAC30E0FFA8EFE1FFA8EF34FEA17
:102FD800132C5FFA8EFEDFF85082A4F84C3084F888
:102FE80071C084F870E004F14E0704F16E09386886
:102FF8007968BA68FB6846460FC610374F45B04631
:10300800F5D1834E3B88A8F8003006F1240784F8F0
:103018002EE384F82FC316F8011F28680BF046FE2C
:10302800BE42F8D194F8DB320293002B40F02B8794
:10303800784B1B68052213F0140F84F8DB2240F04C
:10304800D887DFED757A94F8E2C26F4B734AB3F90B
:103058000410B2F90620724E7248CDED087A8CF051
:10306800220383EA0313DFB23B0983F05903B2F565
:10307800FA6F43EA072383EAC703A8BF4FF4FA624B
:103088001BB2B2F57A7F83EA0317B8BF4FF47A729E
:10309800FFB24FF0640EA2F57A72C3F307230EFB5A
:1030A80002F283EA171386FB026880FB0160D217DD
:1030B80043EA0726C9174FF0000AC2EBA812C1EB72
:1030C800A00186EAC7060DF11809ADF82A20ADF867
:1030D8002810CDF818A0CDF81CA0CDF824A036B241
:1030E800CE46BEE80F0086F0C80787EA0717FFB28A
:1030F800C6F3072686EA1716DFF83881DEF800E0FF
:1031080084F850C046EA0726A8E80F0086EAC702F6
:1031180012B282F04A0383EA0313DBB2C2F3072236
:1031280082EA131248F810E942EA03224A2082EAA6
:10313800C303142700260CF1010C4FF0FE0E84F88F
:103148005300C82084F8516084F8E2C2A4F84C30D7
:10315800424608EB070184F84EE084F84F7084F883
:1031680052001E4612F8010B704080EA0010C0B2EF
:10317800030983EA162343EA002383EAC00000B266
:1031880086B28A42A4F84C60ECD180F0140080EA40
:103198000010C0B24FEA101E8EEA162E8EEA002EDC
:1031A8008EEAC00E26460FFA8EFE1FFA8EFA56F8E1
:1031B8004E0F1D4FA4F84CA04FEA1A2C5FFA8EFE52
:1031C80084F868E084F869C07168F368B2680FC76A
:1031D80030697169338B03C704F20B363B8004F204
:1031E800273A374684F827C384F826E317F8011FDF
:1031F80028680BF05BFDBA45F8D10C4B0C4A1B78DC
:103208001278013B18E000BFB448002088C3E43AB4
:103218003B200020B8500020000000009C590020EE
:10322800D34D6210676666663C200020FC42002091
:10323800DC320020841D002012F00100DBB214BF34
:10324800C0224022172B04D8C5490B4493F83030CC
:103258000293C44B19888F071ABF002342F010024B
:10326800012311F4027F18BF022311F0100F18BFB9
:10327800062311F0200F18BF1023002841F06082A8
:10328800032194F8E2E206938EF0460383EA0313DF
:10329800D8B2030983F0920343EA002383EAC00308
:1032A8001BB283EA0310C0B2C3F3072C8CEA101CCC
:1032B8004CEA002C8CEAC00C0FFA8CFC8CF0C80786
:1032C8009DF808008DF81C0087EA07170023FFB255
:1032D8000320CCF3072C8DF81D308DF81E208DF8B7
:1032E8001F108DF820008CEA171C99E807004CEA9B
:1032F800072C8CEAC7073FB287EA071CA8E8030037
:103308005FFA8CFCC7F3072181EA1C1141EA0C2102
:1033180081EACC0C94F8547088F800200FFA8CF2EB
:10332800574087EA0717FFB2C2F3072282EA17124B
:1033380042EA072294F8550094F8561094F85780FA
:1033480094F858C084F8533082EAC70212B2504049
:1033580080EA0010C0B2C2F3072282EA101242EAE1
:10336800002282EAC00212B2514081EA0111C9B2B8
:10337800C2F3072282EA111242EA012282EAC1025A
:1033880012B288EA020888EA08185FFA88F8C2F3D5
:10339800072282EA181242EA082282EAC80212B216
:1033A8008CEA020C8CEA0C1C5FFA8CFCC2F3072234
:1033B80082EA1C1242EA0C2294F8597094F85A00D6
:1033C80094F85B1094F85C8084F8513082EACC025F
:1033D80012B2574087EA0717FFB2C2F3072282EA00
:1033E800171242EA072282EAC70212B2504080EA64
:1033F8000010C0B2C2F3072282EA101242EA002289
:1034080082EAC00212B2514081EA0111C9B2C2F384
:10341800072282EA111242EA012282EAC10213B2A9
:1034280088EA030282EA0212D2B2C3F3072383EACC
:10343800121343EA022383EAC2031BB283F0320267
:1034480082EA0212D2B2C3F3072383EA121343EAD1
:10345800022383EAC2031BB2434F84F850E09AB2B6
:103468004FF0FE0C0920C8210EF1010EDBB284F8E2
:103478004EC04FEA122C84F84F0084F8521084F89A
:10348800E2E2A4F84C2084F85EC084F85D30386825
:103498007968BA68B7F80C9007F2BE2EAEE8070054
:1034A80007F2CE278EF80280AEF8009084F81CC38D
:1034B80084F81B3316F8011F28680BF0F7FBB74296
:1034C800F8D1C4F8CCB2FFF7BBB9DFF8ACA0DFF88D
:1034D800AC80DFF8AC90412015F0BCFABAF90230A4
:1034E80088FB0320DB17C3EBA00080B215F098FA25
:1034F800BAF9003088FB0320DB17C3EBA00080B2C9
:1035080015F08EFABAF9043088FB0320DB17C3EBF9
:10351800A00080B215F084FA99F8001038680BF012
:10352800C5FB94F8C43213F0010800F07B850F4AFC
:10353800C4F8C0B20133DBB2A2FB0312D20802EB1B
:103548008202A3EB420384F8C432FFF75AB9084B4E
:10355800084918680BF076FB00232370FFF7F9B9C8
:103568002CCB0208A64E00207E1D0020CDCCCCCC52
:10357800644F0020D04E0020B4480020676666667D
:10358800F23F0020114694F82034CA4AC4F81C14AB
:1035980002EB8302926C42B30EAD04F22743C64E8F
:1035A80045F8203D002104F23943318007938021FA
:1035B8001523A52784F82634284684F8251484F88A
:1035C800247490472846318802F03AFB069DBB4890
:1035D80004F224416D1A152DA8BF15252A4626F098
:1035E8004DFFB74A94F820341570B64A013382FB70
:1035F8000312A2EBE37202EB42029B1A84F8203416
:10360800FFF72FB9B04AB14B92F80BE03068D4F805
:1036180070211B88AE49801A4FF47A72DFB202FB20
:103628000EF21B0A8F770F7590424FF00007CB7789
:103638004B758F700F7180F09584A64BDFF8A482CC
:103648001B68019FA44AC4F86C7188FB037CDB17D4
:103658001068DFF894E29268C3EB6C13D4F864C185
:1036680088FB0C878EFB00988EFB029ED217C2EB5C
:10367800AE0203F5FA734FEAEC7E9BB2CEEB671EFF
:10368800C0170CF5EA47C0EBA80030378B761B0A49
:103698000EF1780E3F120CF1300CCB764FEA202851
:1036A8001312087781F81D8081F8202081F82130D5
:1036B80081F824E081F8237081F822C0FFF717B859
:1036C800DFF82892D9F800000BF0E0FA00283FF460
:1036D800A5A8D9F8000001210BF0D4FA0222002392
:1036E80087F8742088F80030FFF798B894F88811A4
:1036F80094F88931D8F800004A1C013384F88821ED
:1037080084F889310BF0D2FAFFF759B8734CDFF817
:10371800E0914FF0010B4FF0000A09E01B2B00F07D
:103728000D830D2B00F0128289F801B0D8F8000043
:103738000BF0B8FA002837D0D8F800000BF0AAFA36
:1037480083B27E2B326828D099F80120002AEDD167
:1037580094F88A110029E1D07D2B00F0078294F8B3
:103768008EE1BEF1000F04D080F02003DBB284F8B4
:103778008E214A1CD2B2092A635484F88A2100F0A7
:10378800EB81082AD2D8B4F88C21134403EB132315
:1037980003F0FF03A4F88C31C8E784F88AA184F801
:1037A8008BA189F801A0C1E794F88F312BB1637818
:1037B80084F88F01302B00F0538794F88B213D4B10
:1037C800DFF83091DFF800B1DFF82CC1DFF82CA169
:1037D8004FF0010E002A3FF404A83168C91B0129E3
:1037E80000F2AF8194F8A482B8F1000F40F0BC82D7
:1037F80094F8BC1233F8110010B984F8BCE2E9E778
:103808000131B0F5826F84F8BC1200F01D811ED919
:10381800B0F5E26F00F0C18034D9B0F5046F00F064
:10382800CA80B0F5116F00F0D280B0F5E46FD1D145
:103838002B4AD76B918A642303FB07F393FBF1F1BF
:1038480015F03BF9002384F88B31FEF7CABFB0F5B9
:10385800007F00F0D68053D8B0F5807F00F0478114
:10386800B0F5887FB6D1D9F800104907B2D5D4F899
:1038780064114FF4887015F020F9002384F88B3117
:10388800FEF7AFBFB0F5C06F00F0CE80B0F5E06FC7
:10389800A0D1134A506B918A642303FB00F34FF4C1
:1038A800E06093FBF1F115F008F9002384F88B31FF
:1038B800FEF797BF2CCB0208704D0020BC400020BB
:1038C800D1400020565555554C3300204433002034
:1038D800344F002084230020744D0020301D002028
:1038E800704800201F85EB51676666662432002009
:1038F80000000020B8500020D44700205A33002090
:10390800B0F5047F00F00381B0F5806F7FF462AFFB
:1039180094F8BD320133DBB2032B00F22A8142F264
:10392800107184F8BD3201FB03F1964B1B88002B04
:1039380040F025810131944B1B78DF07934B1B889E
:1039480048BF0431D80748BF0A319A0748BF143125
:103958001F0648BF2831D80548BF28315A0748BF35
:1039680064311F0748BFC831980548BF01F5C871C1
:103978009A0648BF01F57A71DF0648BF01F5FA617A
:10398800580648BF01F57A614FF4806015F095F844
:10399800002384F88B31FEF724BF7D4A976B918A08
:1039A800642303FB07F393FBF1F115F086F884F821
:1039B8008B81FEF716BF774BB3F9041001EB810139
:1039C800490015F07AF884F88B81FEF70ABF9CF855
:1039D800051000293FF4FEAE9AF8001000293FF4C4
:1039E800F9AE6D4B1B8803EB83035B004FF411604A
:1039F80093FBF1F115F061F8002384F88B31FEF7A1
:103A0800F0BE9CF8061000293FF4E4AE634B64490D
:103A18001B6881FB0321DB17C3EBA10115F04DF8EF
:103A280084F88B81FEF7DDBE9CF8061000293FF470
:103A3800D1AE5A4B4FF4C060996815F03EF8002398
:103A480084F88B31FEF7CDBED9F8001011F02008AC
:103A58007FF4C0AE53490968090600F1EB859BF86D
:103A68000C1000293FF4B6AE94F8BE12032900F2F8
:103A7800FA86DFE801F0322819024B4B1B685979A6
:103A88009A79DB7901F1407101EB022101EB0341E5
:103A9800002384F8BE324FF4826015F00EF800233C
:103AA80084F88B31FEF79DBE404B1A68137A507923
:103AB80092781B0403EB002313444A1C84F8BE22AB
:103AC80003EB0161E7E7394B1A68D379107952782B
:103AD8001B0403EB00231344EFE7344B1A68937974
:103AE800D07812781B0403EB00231344E5E7D9F8D8
:103AF800001048077FF56EAE2D4B4FF480701968A3
:103B080014F0DBFF002384F88B31FEF76ABE9CF8C3
:103B1800051000293FF45EAE9AF8001000293FF422
:103B280059AE244B5B7B002B00F006861A4B1B8892
:103B380093FBF1F101EB810149004FF4047014F09B
:103B4800BCFF002384F88B31FEF74BBE84F88AB1A2
:103B58002370A4F88C11E9E5B4F88C21C2F1FF02B6
:103B680093427FF4E1AD84F88FB1DDE584F88EB13E
:103B7800DCE5012384F8BD3242F21071D5E602314A
:103B8800D9E600BF08480020DC320020A64E0020FD
:103B980070480020B448002044330020744D0020B1
:103BA80067666666B0500020E85700204848002045
:103BB800842300204C3300203B685E2098473B68F4
:103BC80002209847BE4BBF4A9B6A323382FB0328C8
:103BD800DB17C3EB68185FFA88F020F079FFC8F3A9
:103BE800072020F075FF3B685E2098473B6803205C
:103BF8009847B54B1B78D90740F14F8124F0D2F88C
:103C0800B24B9FEDB37AD3ED037A67EE877AFCEE79
:103C1800E77ACDED027ABDF80830002800F0E38499
:103C2800D8B24FEA132820F053FF404620F050FF47
:103C3800DFF8B88298F80530002B40F045830DF185
:103C480018094946A34814F09FFF3B685E2098472F
:103C58003B6813209847BDF918805FFA88F020F078
:103C680037FFC8F3072020F033FF3B685E209847F2
:103C78003B681B209847BDF91A805FFA88F020F04E
:103C880027FFC8F3072020F023FF3B685E209847F2
:103C98003B68232098474E2020F01AFF002020F090
:103CA80017FF49468B4814F06FFF3B685E20984722
:103CB8003B6812209847BDF918805FFA88F020F019
:103CC80007FFC8F3072020F003FF3B685E209847F2
:103CD8003B681A209847BDF91A805FFA88F020F0EF
:103CE800F7FEC8F3072020F0F3FE3B685E209847F4
:103CF8003B6822209847452020F0EAFE002020F06B
:103D0800E7FE3B685E20984794F86031FEF7DFBC19
:103D18000DF070F9704B1B68C01A40F6B833984222
:103D280000F27581DFF8C8B19BF804303A2B00F037
:103D38008483002388F80030FEF770BDD8F80000AF
:103D48000AF0B0FF00287FF4EFAC84F88BB1EDE403
:103D5800C4F87C3184F87431DFF8988114F0FAFEE5
:103D680094F88031FEF710BDD4F89432DFF88891CA
:103D780094F8BA224B4500F00985511CD4F898E212
:103D880094F8BBC284F8BA1202F00F028DF818201A
:103D98000DF11902AEEB030100290DF118090DF11F
:103DA8001E0703DC13E0002840F32E810133C4F81A
:103DB800943213F8011C02F8011BBA42AEEB03005F
:103DC80081EA0C0CEFD384F8BBC200F05785501C75
:103DD800B84282F800C005D20EAB9A1A1B3A0021ED
:103DE80028F0CBFD4946322014F04CFE4FF0000875
:103DF800002384F8A48284F88B31FEF7F2BC4FF0DC
:103E080000083B68D6F8009084F860815E209847E7
:103E18003B68324C17209847404620F059FE304BFB
:103E2800A3FB09239B0BA4FB03125209C2EB02124A
:103E3800A3EB8203D8B220F04BFE3B685E20984784
:103E48003B6818209847274BA3FB09239B09A4FB31
:103E580003125209C2EB0212A3EB8203D8B220F07C
:103E680037FE404620F034FE3B685E209847FEF758
:103E780031BC013A84F8D322FEF7F8BF013B84F83D
:103E8800D232FEF7C6BE013B84F8DB32FFF719BB1E
:103E9800013F84F8DA72FFF7C5B8DFF85080124B9B
:103EA800B8F80890A3FB09394FEA99095FFA89F035
:103EB80020F00EFE4FEA192020F00AFEBAE600BFF5
:103EC800904200201F85EB51DC3200205C3300203B
:103ED800CDCC4C3E80969800C831002089888888CF
:103EE80073B2E745D34D6210CDCCCCCCD44700207B
:103EF800B03100206C330020C41E00203B68DFF87E
:103F08008CB3DFF8C0935E2098473B681020984731
:103F1800DBF8003089FB032ADB17C3EB6A1A5FFA68
:103F28008AF020F0D5FDCAF3072020F0D1FD3B68C8
:103F38005E2098473B6821209847DBF8003089FBD2
:103F48000329D8176422C0EB691002FB103000283F
:103F5800B8BF4042C0B220F0BBFD404620F0B8FDDB
:103F6800FEF724BDC24B32681B78C4F87021013BB0
:103F7800012B3FF662AB102202238A700B71FFF708
:103F88005CBBBC4ABC4B12680793A3F12407002012
:103F98002121D50003F8240CB97040F1C183B74939
:103FA8000326B74B1B88580500F1B783DA0700F1E1
:103FB8002D8403F00203B34A002B1CBF03261146CD
:103FC800B14D3246284626F059FA73190EA8013326
:103FD800A91E40F8203D00225B1A72557B7020F024
:103FE80099FDFEF7D0BC14F0A5FD01233B70FEF748
:103FF8009CBBA64B9FEDA67AD3ED007AF8EEE77A44
:1040080067EE877AFFF71FB884F8BBC2DFE6A14ADC
:10401800B2F8C63200210133A2F8C63288F800107F
:10402800FEF7FCBB964B1B88D80515D4D90600F1C2
:10403800F1839A0600F10384580600F157841907A2
:1040480000F1FF84DA0700F1F88413F0020F0CBFC7
:104058004FF004084FF00C088F4B904A1B78D27829
:1040680003F001030AB143F002035320029314F052
:10407800F1FC8B4A128802EB820202EB820290006A
:1040880080B214F0CDFC002014F0CAFC854A8649A1
:1040980012883868C2EBC212520081FB0231114407
:1040A8004FEAE27ACAEB612A5FFA8AFA51460AF0C5
:1040B800FDFD99F80020029B386848EA03088AEA5F
:1040C800020A002189F800A00AF0F0FD414638688C
:1040D8000AF0ECFD99F80030386888EA0303DBB28F
:1040E800194689F800300AF0E1FD94F8C432002B33
:1040F8007FF41DAA4F2014F0ADFC16F051FF16F006
:104108004FFF16F04DFF012138680AF0CFFD674ACE
:1041180099F8003092F80080386808F0010883F0B8
:104128000103414689F800300AF0C0FD99F80030D3
:10413800386888EA0303194689F800300AF0B6FDA2
:1041480094F8C432FFF7F3B9074681460146824620
:104158000390029005908046FEF793BD464B504968
:1041680007930EAEA3F1210046F8200D4FF0080E7C
:1041780000270A2003F822EC03F8230C03F8247C18
:104188003046098801F036FD494B4A491B6881FBD6
:104198000321DB17C3EBA101304689B201F02AFDE8
:1041A800454BB3F808800FF065FA069B5A1C069237
:1041B8001F70069B4FEA1822591C06911A70069B1D
:1041C8005A1C069283F80080069B5A1C06921870A7
:1041D800304620F09FFCFEF7D3BB384F9FED388A5E
:1041E800B7F90230244A079207EE903AF8EEE77AD8
:1041F8000EAE67EE887AA2F12403FDEEE77AA2F10B
:104208002101002046F8201D02F8240C0822CDEDDB
:10421800027A5A701E229A70BDF80810304601F0D2
:10422800E9FCB7F9003007EE903AF8EEE77A304645
:1042380067EE887AFDEEE77ACDED027ABDF80810D0
:1042480001F0D8FCB7F9043007EE903AF8EEE77AB7
:10425800304667EE887AFDEEE77ACDED027ABDF852
:10426800081001F0C7FC304620F054FCFEF785BB6F
:10427800CF470020D44A0020D04E00209CF00208EE
:10428800A64E0020B4F00208AF4E00208423002080
:104298000AD7233C301D0020DC320020E4470020F0
:1042A80044330020A44E0020030820805C430020F3
:1042B800744D002067666666D4470020B448002025
:1042C80058A08B411F85EB51DFF858B39BF800A02D
:1042D800BAF1000F3FF4B3ACC74AB4F868E11188EB
:1042E8003B6802924FEA0E1E64201FFA8EFE00FB06
:1042F80001A14FEA4A00B1FBF0F14EEA012E1FFA84
:104308008EFEC1F303215E204EEA010998473B68FF
:10431800062098475FFA89F020F0DAFB4FEA192067
:1043280020F0D6FBB4F86831029AB449B2F800908C
:104338004A7A01339BB2012A93FBFAF00AFB103345
:10434800A4F8683100F0D6826E23AD484A7B03FB9F
:1043580009F380FB03014FEAE379C9EBA1092AB10C
:104368001FFA89F99BF8003099FBF3F93B68DFF8ED
:10437800B8A25E2098471FFA89F93B683A20984707
:10438800AAFB093A4FEA5A1A1FFA8AFB5FFA8BF01E
:1043980020F09EFB4FEA1B2020F09AFB3B685E2032
:1043A80098473B683B209847642303FB1A939BB2CA
:1043B8009448053380FB0320DB17C3EBA000C0B291
:1043C80020F086FB002020F083FB3B68DFF83CA24E
:1043D800DFF830925E2098473B6828209847DAF843
:1043E800003089FB0329DB17C3EBA9095FFA89F0C1
:1043F80020F06EFBC9F3072020F06AFB3B685E20C3
:1044080098473B6804209847B8F80830002B40F0DC
:104418003B82DAF8083083F310085FFA88F020F05E
:1044280057FBC8F3072020F053FB08E4019BC4F8AE
:10443800783187F80090FEF778B99BF80240C4B14C
:10444800013CE4B201345C445946002211F8013BB6
:10445800534083EA0313DBB2120ADF0042EA032265
:104468008C4287EA131382EA0302EFD1002A7FF411
:1044780060AC614A644F654B12886549654CFA61C6
:10448800DFF8A8911A6809689B68FA62B4F8C6222E
:10449800F866FB64D9F80000F963FA650AF0EAF9EE
:1044A800824600287EF4B5A90221D9F800000AF056
:1044B800E9FB94F8C8329BF803200392642B4FF071
:1044C800040287F8742040F0248294F8C932072B3C
:1044D80008BF84F8C9A294F8C932059307EB031AF8
:1044E800DAF804100291084625F00AF8DAF80810FC
:1044F80004915FFA80FA084625F002F85FFA80FB1B
:10450800059B4548029902900AEB0B020832C271DA
:1045180023F00F028272404A03F00F0353733E4B9D
:104528000BEBCA009873184652460F3025F0A6FFC9
:104538003A4B04990AF1090018445A4625F09EFF9F
:104548000298C37903F1010ACBB1013B5FFA83FCFE
:104558000CF1080CDFF8D8E084440023073010F889
:10456800012B5A409300D10883EA420301F0180155
:1045780053404EFA01F253408445DBB2EFD1274A4B
:1045880003980AF8023025F08BFE94F8C93200220D
:10459800013384F8C93284F8C822029BDDF808A0E8
:1045A8009B785BB11AF80510D9F800000AF07EFB79
:1045B80001359AF80230EDB2AB42F3D894F8C8321C
:1045C8000322013384F8C83287F8742088F8002061
:1045D800FFF778B80221D8F800000AF053FB94F8E6
:1045E8008031FEF7D1B80E4A1268D2067FF518ABB3
:1045F8008046FFF718BB00BF443300204C3300202F
:10460800310CC3306766666600000020744D0020D8
:1046180084230020301D0020FC3C0020023D0020A7
:10462800B05000205A3300201F85EB51243200205F
:104638000007090E10230422184606A98DF81A80CF
:104648008DF81B808DF81C808DF81D808DF8183032
:104658008DF8192014F016FA84F88B81FEF7C1B88A
:10466800A3785A09012A40F0D88003F00F0C13F000
:10467800100300F0E780DFF80084E37894F804E0A2
:10468800A4F8B20208EB03018EEA030084F8902133
:104698004346C4F8A882C4F8AC12A8F1070284F80B
:1046A800B802A4F8B0E294F8B802DFF8E4838646CA
:1046B8000CE012F8011BC4F8A802424581EA0E0E6C
:1046C800197007D2D4F8AC12D4F8A832994203F181
:1046D8000100EED1424584F8B8E200F0F181127889
:1046E80094F8B8329A4200F0D880D84BC4F8943283
:1046F8000133B4F8B022C4F89832002384F890311A
:10470800A4F89C2201234FF6F67284F8943184F8B9
:10471800A432A4F89E22FFF750B80326CC494FE4F0
:10472800CC4BCD4A1B68CD4903F4800383420ABFB2
:1047380011460326042634E4C94B1988FFF7FAB951
:10474800C849C97800290CBF04210521FEF799BD85
:104758000123D8F800003B700AF09CFA0746D8F805
:1047680000000AF097FA7F067DF4DFAF8E287DF40B
:10477800DCAF94F87431002B7DF4F4AFBA4BC4F875
:104788007C312D2384F88031FDF7D6BFD4F898E228
:10479800B4F99E1294F89CC2501CAEEB090902F0C1
:1047A8000F0242F01002002989EA0C0CB8BF42F04F
:1047B80020025FFA8CFC8DF8182084F8BA028DF874
:1047C800199084F8BBC20DF11A02FFF7E3BAA449A5
:1047D8009A790B8803EB830303EB83034FEA83087F
:1047E8001FFA88F8002A00F08F81A04B1B680FFA87
:1047F80083FA0EF03FFF40B2FEF742B917469146E2
:104808001146924603929046FEF73BBA9849042611
:10481800FFF7D6BB4FF034081EE48C4BC4F8943233
:10482800591C944A84F89001012384F89401C4F82F
:104838009812C4F89C2284F8A432FEF7BEBF4FF049
:10484800240809E494F89021002A3EF4B6AF94F8BD
:10485800B922013202F00F02624500F0E88084F8C4
:104868009031FEF7AABF4B1CDBB2042B84F8BE3292
:104878004FEA01617FF40FA9FFF70AB949463220D0
:1048880014F000F9FFF7B4BA0EF0F4FE20F020F9A6
:10489800002020F01DF9FFF7D2B9774BD4F8A822F1
:1048A800C4F8AC224FF0000E03F52272114603F54E
:1048B800C479C4F8982203F527707246C4F8A83260
:1048C800C4F89CE2C4F8949284F890E1FBF758FC91
:1048D800013000F0E180D4F89432C4F89832012312
:1048E800C4F8949284F8A432FEF767BF4FF010081A
:1048F800FFF7B2BB3B685E2098473B683920984772
:104908005FFA89F020F0E4F84FEA192020F0E0F887
:104918005BE597F875A059491AF00F0F04BF0AF123
:10492800010A5FFA8AFABAF1070F28BF4FF0010AA5
:104938004FEA0A1B07EB0B035FFA8BFC187C504B02
:1049480002930A18002392F824104D4A937202F138
:104958000D0307EB0B024CEA000001291870D2681E
:1049680003F1010E0CD90239C8B2811C19447346EF
:1049780003F8012B8B424FEA1222F9D10130864409
:10498800BB4422F060030AF1010A9BF811205FFA88
:104998008AFA1343BAF1080F8EF800300EF10103BA
:1049A80000F082804FEA0A1B07EB0B01354A087CAE
:1049B800324901449A1A91F8241002EB010E0CF1C5
:1049C800100CBEF1130F5FFA8CFCC2DD5FFA82FB9C
:1049D8000BF10603DBB20298DFF8B8E043F04002BF
:1049E800C27103F1010CD3B10BF1050B5FFA8BFB1C
:1049F8000BF1080B834400230EF1010010F8011B92
:104A080059408B0083EA4103CA084B401E4902F013
:104A1800180241FA02F253408345DBB2EED1039803
:104A28000CF80E3087F875A025F03AFCB5E5D4F8F7
:104A3800AC12D4F8A832154A35E64FF00808FFF74B
:104A48000BBB4FF02008FFF707BB00BFC41E0020B8
:104A5800A8F00208B0500020A0F002089CF002085C
:104A680044330020E4470020344F0020744D0020D8
:104A7800ACF002080000F6FF3C1D00202CCB020819
:104A8800FC3C0020093D00200007090E331D0020D2
:104A9800381D0020023D0020D4F894320222591C0F
:104AA800C4F894121A7016E7194A9A1A8EE717462C
:104AB800914611469246039202929046FEF7E1B85B
:104AC80084F8B9C2FEF779BE124B9046B3F900A03C
:104AD8006420FDF7D5BF9046FEF7D3B81746904639
:104AE800FEF7CFB8174691469046FEF7CAB8174664
:104AF800914611469046FEF7C4B8174691461146AE
:104B080092469046FEF7BDB84FF0FF336FE600BF00
:104B1800093D0020744D0020002870B51EDB0928CF
:104B2800044620DD012303EB83035B00B0FBF3F2B3
:104B3800092AF8D87BB10E4EB4FBF3F00928CCBF94
:104B480057223022A6FB03E5024403FB1044EB087E
:104B580001F8012BF0D100230B7070BD2D230B70D1
:104B680040420131DBE7303001F8010BF3E700BFC9
:104B7800CDCCCCCC884230B44FF001042ED301FB0D
:104B880004F4B0FBF4F58D42F9D284B1AAB901E07E
:104B9800B0FBF4F5092DCCBF572230222A4404FB80
:104BA800150003F8012BB4FBF1F4002CF0D100221E
:104BB8001A7030BC7047B0FBF4F5092DCCBF372212
:104BC80030222A4404FB150003F8012BB4FBF1F44E
:104BD800002CF0D100221A7030BC70470546002A1C
:104BE800EBD1D7E703685A1C02601970704700BF01
:104BF8002DE9F047089C2578002B804689460CBF94
:104C08004FF0200A4FF0300A661C35B3002A29DD20
:104C1800334601E0024698B113F8011B501E0029E3
:104C2800F8D1971E60B13D46013D51464046C84700
:104C38006B1C002BF8DC257827EAE770013055B1AA
:104C4800041B29464046C847301916F8015B002D59
:104C5800F7D1BDE8F087BDE8F087002A04DC2846D4
:104C6800BDE8F0870020EBE7571EDCE78368426861
:104C7800D0ED037A00EB83010133934281ED040AFE
:104C8800836004BF0023836000EB830393ED047A01
:104C9800036870EE277A9A42C0ED037A77EEC77AF6
:104CA800C0ED037A0CDA013307EE103AF8EEC76A62
:104CB800B7EE007A87EEA60A036030EE070A70475F
:104CC80007EE102AB8EEC77A87EE870A704700BF4A
:104CD80090ED057A90ED004AD0ED066AD0ED014AD4
:104CE800D0ED047A90ED035AD0ED025AA4EE007A82
:104CF800B0EE406AB0EE470AB0EE667AA6EE247AC5
:104D080067EEC07AA0EE457AE6EE257A80ED057A60
:104D1800C0ED067A704700BFD0ED057A90ED013AF4
:104D2800D0ED003AD0ED064A90ED024A90ED077AB0
:104D380090ED035A90ED086AD0ED045AC0ED067A5A
:104D4800F0EE406A27EE830AC0ED056AA3EEA60AD4
:104D580080ED087AA4EE240AA5EE470AA5EEC60A55
:104D680080ED070A704700BFD0ED007A90ED017A18
:104D780030EE670AE7EE007AB0EE670AC0ED007A17
:104D8800704700BF704700BF0A44914214D030B446
:104D98000139551E41F2210211F8014F082380EA1A
:104DA800042004044CBF82EA40004000013B80B26A
:104DB800F7D18D42F0D130BC704700BFE0B1D9B116
:104DC800F0B50E4B1B7800240A2B0CBF4FF00A0ECF
:104DD8004FF0080E23460227012617FB036511F83A
:104DE80013204D5D0133DBB242EA0522734520F8FA
:104DF80014201C46F1D3F0BD704700BF7800002096
:104E08002DE9F04FDFF8F8C1DFF8F8E1BCF80A70D7
:104E1800DEF80060BCF80C30BCF808A03C028BB08F
:104E2800361B4FF00004CDE90034009CBCF8063076
:104E38004FEA17654FF0000767EB0507B946B0461C
:104E4800A4FB06670024CDE90634009C002304FB7C
:104E580009770024CDE90034AAFB0823CDE9022311
:104E6800039AF30D00930AFB09230393009B43EA7B
:104E780047230093029B4FEAD31AFB150193039B28
:104E88004AEA436ADDE9002344464D46CDE9084530
:104E9800069C12F5FA62A4FB086743F1000304FBC1
:104EA8000977CDE90623BCF80440039BBCF802202F
:104EB8004FEAE31B230C059323040493340A44EAC2
:104EC80007643D12DDE904674FEAC23816EB0A06AB
:104ED80047EB0B0718EB0408DDE906344FEA5249A3
:104EE80049EB0509B3F5FA6F74F10004B246BB4605
:104EF8003CDADDE90067BC00B20044EA9673B418F6
:104F080047EB030522463C462B4602FB04F406FB0E
:104F18000344A2FB06232344940844EA83749D10A7
:104F28005B104FEA3202B8EB040869EB0509BAEBEB
:104F3800020A6BEB030BDDE90623304C4FF0FF351B
:104F4800A242AB412CDBDDE90856A5FB052305FB96
:104F580006F403EB4403D40F44EA4304DD17DDE908
:104F68000623121B63EB0503CDE90623DEF8044094
:104F7800A4FB082304FB0933540D44EAC3245D153C
:104F8800B4EB0A0A65EB0B0B4FEADA3343EA4B43FF
:104F980000B1036009B1069B0B600BB0BDE8F08F50
:104FA80040F6AC52B4184FF0000347EB0305224615
:104FB800A2FB022304FB05F403EB4403941843EB20
:104FC8000305A4185D414FEA850CA6004CEA947CC1
:104FD800B41A6CEB0305DF00D6006D104FEA3404F9
:104FE80047EA5277921B63EB0703B8EB040869EBB7
:104FF80005091AEB020A4BEB030BA4E724FAFFFF9F
:1050080060430020702100202DE9F04FDFF81CB22A
:10501800DFF81CE2BBF80020DEF80860BBF90430BA
:10502800BBF90250BBF90A80C2EB261404FB04F456
:1050380024135200C2EBE60203FB04F305FB02F261
:105048009B1303EBE223B3F5FA364FEAE37589B015
:1050580045F1FF373246A6FB0645CDE9024502FB7E
:1050680007F205EB4202CDE90467029EBBF908404E
:10507800039208FB02FC4FEAE87906FB09CC3A46A2
:10508800A8FB0689049ECBF81830E51704FB02F24A
:1050980006FB0522A4FB0667E14417444FEA1822E1
:1050A80042EA096200924FEA292201923D03DDE9B2
:1050B8000078340345EA16553F19BBF80660069098
:1050C80048EB05083C1C48F5004503EB8302A4FBAC
:1050D800068906FB0599803213124FEA69064FEAE2
:1050E800E977079356EA07038A4600F09280DDE9DC
:1050F8000489BBF90E20DEF80C40BBF910004946C4
:10510800C4F5801ED317DDE9024502FB01F108FB57
:105118000311A2FB08230B444FEA43492B46C1174E
:1051280000FB03F304FB0133A0FB0401BBF90C40B3
:105138001944E30001937346DC170023009349EAFE
:10514800D2394FEA4248DDE9002310EB080041EB71
:105158000901E50712184FEACE744B4145EA5E058E
:10516800A41A65EB0305221945EB050312196B41D7
:1051780099019001801841EA926159418B0082009F
:1051880043EA9073101943EB05018B00820043EA50
:10519800907310460019194632463B46694124F07F
:1051A80059FEBBF916204C13450B45EAC14502FBD5
:1051B80004F6D31705FB0366A2FB05233344BBF9AA
:1051C800146002FB04F405FB034406FB01FEA2FB8A
:1051D8000523F717234400FB07EE540EA6FB0067D0
:1051E800774444EAC3144FEAD64800194FEA636586
:1051F80048EA473869414FEAE74918EB0008BBF924
:10520800124049EB01094FEA182646EA09662001CF
:105218003618069B0BB1360A1E60BAF1000F02D091
:10522800079BCAF8003009B0BDE8F08F7043002032
:1052380070210020704700BF704700BF4FF4006323
:10524800838270474FF400638382704750F8043CB0
:10525800012280F83720103803B11847704700BF83
:1052680070B5044682B01430E56C06236A464321C3
:10527800A847B0B19DF804009DF800609DF80110A2
:105288009DF802509DF803209DF8053041EA06215B
:1052980043EA002342EA0522A187E287A4F84030C6
:1052A800012002B070BD00BF70B5044682B008305E
:1052B800656A06236A463B21A847A8B19DF8040001
:1052C8009DF800609DF801109DF802509DF803209C
:1052D8009DF8053041EA062143EA002342EA052207
:1052E800E18222836383012002B070BD70B4046838
:1052F800037B2268022101FA03F31A4213D04269A0
:105308000A49582000FB02124FF6FE76506852896F
:10531800C5680068296831402960C168D24392B2E3
:105328000A40C260636070BC704700BF74390020D7
:1053380030B4094B1C7864B1084B002503EBC40456
:105348001A6899885562D06808330143A342D1602E
:10535800F6D130BC704700BF343C0020383C0020F8
:1053680010B40268047B11680223A340194209D0D3
:105378000649406800240C7001684FF6FE7421400D
:10538800016053605DF8044B704700BF814D0020F9
:10539800F0B4334C00EB800004EB80046468002C0C
:1053A8005BD0304E49004FF42040CDB23061A16946
:1053B800090444D460682C4F45F08071384041F4AA
:1053C800903101434FF420406160306103E0411E99
:1053D800002838D00846A1698F07F8D54FF4204037
:1053E800A262306102E0421E68B31046A26911064B
:1053F800F9D562681C4945F0007545F480350A40C6
:1054080015434FF420406560306102E0421ED0B180
:105418001046A2699207F9D5A362A3694FF4204008
:105428009B06306105D4431E68B11846A3699B06E4
:10543800F9D520233061E3610120F0BC7047411E9B
:1054480008B10846B3E7094A138801339BB24FF005
:10545800FF3131611380F0BC70472046F0BC7047C3
:10546800D844002070210020009800FCF82E00206D
:10547800134601200A4668218AE700BF014B1868D5
:1054880009F014BCF04C0020F8B55D2021F0E0FDD7
:105498001049114A8C8ACB8A104D0E190134377E77
:1054A8003076DB1B184400B282FB0023C217C2EB24
:1054B800E302323292B2A2EB8203DB0003F6E80386
:1054C8001BB204F00F0483F30A038C82C8820A8596
:1054D8002B80F8BD70210020ABAAAA2AA44E002078
:1054E80008B5064B18680AF075F830B10BF082FD64
:1054F800034B0122D86283F8302008BDA45700204E
:10550800702100200278012A00D0704748210AF053
:1055180045BB00BF0278012A00D0704758210AF025
:105528003DBB00BF0378012B00D070473122F42126
:105538000AF034BB00B50378012B83B004D10323F0
:1055480001AA00210AF016FB9DF805309DF80420F9
:105558009DF806001B0243EA0243184303B05DF8B6
:1055680004FB00BF08B5FFF7E5FF014B586008BD15
:105578007021002008B5FFF7DDFF014B186008BD5A
:105588007021002070B50378012B82B004D1062366
:105598006A46F7210AF0EEFA9DF801209DF80430DA
:1055A8009DF800609DF803509DF802409DF80500A5
:1055B800074912011B0142EA063243EA053342EA6F
:1055C800141243EA1013CA608B6002B070BD00BFAA
:1055D8007021002038B5044690F84B0000285AD1B5
:1055E80004F11405236D80226B2128469847642016
:1055F8000BF0A6FD236D07226821284698476420F2
:105608000BF09EFD236D00226B21284698476420ED
:105618000BF096FD236D01226B21284698470F2039
:105628000BF08EFD94F84520236D022A8CBF1A22B8
:1056380018221B21284698470F200BF081FD236D67
:1056480018221C21284698470F200BF079FD236D5E
:1056580094F844201A21284698470F200BF070FD33
:10566800236D94F8462019212846984764200BF0AA
:1056780067FD236D10223721284698470F200BF02D
:105688005FFD2846236D0122382198470F20BDE889
:1056980038400BF055BD09F01BFB054618B1202218
:1056A80000238271C3712846002109F0A7FD214615
:1056B800054B41F8103F284621F016FC28460121E9
:1056C8000AF064F88CE700BF5552000810B5802135
:1056D800044680690AF0CCF801200BF0D7FC20467C
:1056E800FFF778FF10226A2104F1140009F016F977
:1056F80064200BF025FDA06902210AF0B9F8012009
:10570800BDE810400BF0C2BC70B582B004466946D3
:10571800143021F049FCB0B19DF805009DF80160F6
:105728009DF802109DF803509DF804209DF806305E
:1057380041EA062143EA002342EA0522A187E287DB
:10574800A4F84030012002B070BD00BF10B490E84A
:105758000600047B40690223A3404B6013685DF890
:10576800044B4FF6FE710B40136009F02FBAF8B5E1
:10577800174D2B78A12B28D16B78BE2B25D102226F
:1057880029464FF6FF70FFF7FFFA124FAC1C22882C
:105798004AB1A618BE4218D2052A16D92146FFF7E3
:1057A800F3FA3446F3E721460222FFF7EDFA022224
:1057B800A118FFF7E9FA0634074B641B1C8041F671
:1057C8000F53C31A58425841F8BD0020F8BD00BF16
:1057D80000F0030800000408FA2E00202DE9F04F1D
:1057E800DFF848914C4F8BB00326A7EB0907182226
:1057F800002104A827F0C1F8484BCDF81090059770
:105808001A69120604D5464A5A6002F188325A606B
:1058180001228DF824203422DA60424B424C1B8846
:10582800ADF800300222694604A80AF05BFA0222A9
:1058380069464FF6FF70FFF7A7FADFF8F4A0804635
:105848004FF0000B544536D30AAC002524F8245DEC
:105858000222214604A80AF045FA022221464046BF
:10586800FFF792FA40BAC043ADF80800022202A935
:1058780004A80AF037FA079860B106ABC0F1040231
:105888002946184427F079F8069904A80AF0D0F9AF
:10589800079508909DF82430089A23B11F490B6991
:1058A80043F080030B61013E2DD0002A9FD1FFF702
:1058B8005EFF50B32CE065888DF80DB0C5F30B057D
:1058C800AB1DADF808302388C3F30B02ADF80A20EE
:1058D8001B0B062202A904A88DF80C300AF002FA64
:1058E800062202A94046FFF74FFA616880462A4619
:1058F80004A80AF0F7F9616840462A46FFF744FA17
:10590800143480469EE7002AD1D005200AF052FFC1
:105918000BB0BDE8F08F00BF000004080020024073
:105928002301674580CB0208A020030800F0030884
:10593800742403080378202B024600F10100F9D0F3
:10594800092BF7D02D2B2CD02B2B03BF5378B7EE78
:10595800000A0246B7EE000AA3F13001C8B20928CE
:105968009FED467A10D8F2EE046A07EE901AF8EE28
:10597800E77A12F8013FE7EE267AA3F13001C8B2C0
:105988000928B0EE677AF0D92E2B4CD003F0DF034C
:10599800452B0BD0F7EE007A67EE276A20EE260A31
:1059A80070475378BFEE000A0246D5E710B4517825
:1059B8002D2959D02B290ABF9178501C901C0024FE
:1059C800A1F13003092B53D8002303EB830301EB28
:1059D800430310F8011FA1F13002092AA3F1300393
:1059E800F3D9B3F59A7F28BF4FF49A73072B42D99E
:1059F800DFED236A1A46F7EE007A083A072A67EEBF
:105A0800A67AFAD803F007032BB1F2EE046A013B39
:105A180067EEA67AFBD124B3C7EE276A5DF8044B7C
:105A280020EE260A70475378A3F13001C8B209283E
:105A380002F10102AAD8F2EE046AF0EE665A07EE05
:105A4800901AF8EEE77A12F8013F87EEA66AA3F1FA
:105A58003001C8B2092866EEA56A37EE067AEED993
:105A680094E767EE276AD9E7901C91780124A7E7A5
:105A7800F7EE007ACFE7F7EE007AC5E700000000FE
:105A880020BCBE4CB5EEC00ADFED317AF1EE10FA5B
:105A9800CCBF30EE270A30EE670ADFED2E7A20EE13
:105AA800270A30B5FDEEC07A87B017EE904A054652
:105AB80084EAE470002303A9A0EBE4700193009347
:105AC800029315F051F8002CACBF20232D2303A816
