:020000040800F2
:10000000002000100DEF0108CD40010891A001086B
:10001000C9400108C5400108C140010800000000B6
:10002000000000000000000000000000BD400108CA
:10003000B940010800000000B5400108F91E0108A0
:1000400075EF010875EF010875EF010875EF0108FC
:1000500075EF010875EF0108BDB30008E9B40008A9
:10006000ADB4000871B4000835B40008852B000851
:10007000752B0008652B0008552B0008452B000840
:10008000312B00081D2B000875EF010875EF0108E2
:100090001542010875EF010875EF0108F9B3000872
:1000A00075EF010875EF010875EF010875EF01089C
:1000B000251601081516010875EF010875EF0108EE
:1000C00075EF010875EF010875EF010875EF01087C
:1000D00075EF0108412A000875EF010875EF010866
:1000E00081B3000875EF0108A540010875EF01080C
:1000F000F515010875EF01080516010875EF0108EF
:1001000000000000000000000000000075EF010882
:1001100075EF010875EF010875EF010875EF01082B
:10012000092B0008F52A0008E12A0008CD2A00085A
:10013000B92A000875EF0108000000000000000067
:1001400075EF010875EF010875EF01080000000068
:10015000000000000000000000000000000000009F
:10016000000000000000000075EF010875EF0108B5
:1001700075EF010800000000000000000000000012
:080180000000000075EF01080A
:100190002DE9F04FB0F908302DED028B0F460B81A1
:1001A000D9B24B1E8BB00446FD2B00F20081DFE874
:1001B00013F0C705BF05B205A8059605FE00FE00B1
:1001C000FE00FE008505FE00FE00FE00FE00FE00B3
:1001D000FE00FE00FE00FE00FE00FE00FE00FE002F
:1001E000FE00FE00FE00FE00FE00FE00FE00FE001F
:1001F000FE00FE005F05FE004605FE003305FE0022
:100200001A05FE001505FE00C904FE00FE00FE00F2
:10021000FE00FE00C404FE003A06FE002606FE00B4
:100220000906FE007002BC04FE006F06FE00FE0020
:100230006606FE007A06FE00F805D3066302FE009D
:10024000FE00CA06FE00A806FE001407FE00FB061C
:100250003507FE00C002FE00C002FE00FE00FE00E8
:10026000C508FE008D08FE004408FE00EB07FE00F6
:10027000D907FE00FE00FE00C0078A075707FE00F0
:100280002509FA08FE00FE000C09B1047F044604AB
:100290002C04FE00D303CA0378036D03FE0045035C
:1002A000FE00FE00FE00FE00320317030603FE0000
:1002B000FE00FE00FE00FE00FE00FE00FE00FE004E
:1002C000FE00FE00FE00FE00FE00FE00FE00FE003E
:1002D000FE00FE00FE00FE00FE00FE00C802FE0062
:1002E000FE00FE00FE00FE00FE00FE00FE00FE001E
:1002F000E605FE00FE00FE00FE00FE00FE00FE0021
:10030000FE00FE00FE00FE00FE00FE00FE00FE00FD
:10031000FE00FE00FE00FE00FE00FE00FE00FE00ED
:10032000FE00FE00FE00FE00FE00FE00FE00FE00DD
:10033000FE00FE00FE00FE00FE00FE00FE00FE00CD
:10034000FE00FE00FE00FE00FE00FE00FE00FE00BD
:10035000FE00FE00FE00FE00FE00FE00FE00FE00AD
:10036000FE00FE00FE00FE00FE00FE00FE00FE009D
:10037000FE00FE00FE00FE00FE00FE00FE00FE008D
:10038000FE00FE00FE00FE00FE00FE00FE00FE007D
:10039000D805FE00FE00FE00FE00FE00FE00FE008E
:1003A000FE00FE00FE00FE00FE00FE00FE0594E8DA
:1003B00028000B39ED1AEF2900F2B781DFE811F0C0
:1003C000650AB501B501B501B501B501B501B501C4
:1003D000B501B501B501B501B501B501B501B5016D
:1003E000B501B501B501B501B501B501B501B5015D
:1003F000F30BB501D409B5013F0CB501730BB50181
:100400008D0BB501970BB501B501B501B501B5016E
:10041000030BB501800AB5016E01B501B00AB50143
:10042000B5015301B501DE0AB501B501E308B50117
:10043000F609B501B501B501B501B501B50149062A
:10044000B5013608B5015A08B501B5018408B501F2
:10045000B501B501B501B501B501B501F000B501B2
:100460009E08B501F008B5012E09B501EE0AB501E7
:10047000B501B501B501B501B501B501B501B501CC
:10048000B501B501B501B501B501B501B501B501BC
:10049000B501B501B501B501B501B501B501B501AC
:1004A000B501B501B501B501B501B501B501B5019C
:1004B000B501B501B501B501B501B501B501B5018C
:1004C000B501B501B501B501B501B501B501B5017C
:1004D000B501B501B501B501B501B501B501B5016C
:1004E000B501B501B501B501B501B501B501B5015C
:1004F000B501B501B501B501B501B501B501B5014C
:10050000B501B501B501B501B501B501B501B5013B
:10051000B501B501B501B501B501B501B501B5012B
:10052000B501B501B501B501B501B501B501B5011B
:10053000B501B501B501B501B5016A0CB5010D0BE9
:10054000B501250B660BB20C8009C00CB5012B0C54
:1005500049065301B501430AB501B501510A980C8A
:10056000530CE109B501B501B501B501B501B501FE
:10057000B501B501B501B501B501B501B501B501CB
:10058000B501B501B501B501270AB501B5015301A2
:10059000B501B501B501B501B501B501B501360A21
:1005A000204615F029FE05461DF0AAF9FF285AD06D
:1005B0000AA9002301F8263DEE080DF101008DF88F
:1005C000013001361AF052FC9DF80130F6B205F008
:1005D0000705B34205F1010503D19DF80230AB4296
:1005E0000ED0B84B1B685BB11A79B24208D35A7966
:1005F000AA4205D31B68DB6813B1294630469847E9
:1006000023686268D21A012A2DDD5A1C0AA82260CA
:1006100000221D7800F8252D1AF01CFC9DF80330EF
:10062000AB420AD0A74B1B683BB19A79AA4204D3CC
:100630001B681B690BB12846984723680AA85A1CF7
:10064000226000221C7800F8242D1AF0F7FB9DF898
:100650000430A34207D09B4B1B6823B11B685B6926
:100660000BB12046984701231A4618467A810BB0F1
:10067000BDEC028BBDE8F08F3B6800245A1C3A6049
:1006800021461C70384615F0D3FD0021384615F080
:10069000CFFD0021384615F0CBFDE4E78A4AA2FBE6
:1006A0000512A91A02EB51029208C2EBC201691AA3
:1006B0003BD1D2B2501EC0B2002AD4D0834D00F13B
:1006C00001090E4605F5FA7B05F5FE7A20E0D046D5
:1006D00088F80230204615F08FFD2268A8F8000047
:1006E0001346511C216013F8021B88F80310236085
:1006F000537888F80430D31C2360937888F8063048
:10070000131D23600136D27888F80520B145AAD0A0
:100710005A1C226093F9003095F9F6219A4201F0B3
:10072000298395F9FE219A42D1D04FF0FF331A4622
:100730009BE7396800204A1C01233A601A4608707A
:1007400093E7634B3846B3F8581015F089FD002144
:10075000384615F085FD5F4B1A68C2F3C003C2F33B
:1007600080019B0043EA4103C2F340010B43C2F303
:10077000401143EAC10102F010021143384615F05E
:100780006FFD1DF043FC0146384615F051FD3B68F6
:100790004E4A581C92F884134F4A386019701188D9
:1007A00064293846A8BF642115F05AFD3B684B4ABE
:1007B000581C03213860197039681078BBE73A6813
:1007C000424B501C93F81E11386011703A6893F830
:1007D0003A11501C38601170396893F83001AAE75B
:1007E0003A683A4B501C93F87011386011703A68AF
:1007F00093F87111501C386011703A6893F87211B7
:10080000501C38601170B3F80611384615F028FDF9
:1008100001231A4629E72D4C3846B4F8001115F08B
:100820001FFDB4F80211384615F01AFDB4F8041192
:10083000384615F015FD01231A4616E7284C237893
:10084000002B3FF410AFDFF8A0E0E61C00250023EA
:1008500016F8010F234A194604E00133202B10D06B
:1008600012F80C1C884202F10C02F6D1DBB203EB49
:1008700043033A680EEB8303511C93F83830396018
:100880001370237801359D42E1DBECE616495223D3
:100890003A68501C3860137011F8013F002BF7D1F3
:1008A000E1E60F4C2378002B3FF4DDAE0E4E012520
:1008B000DFF838904FF00108002319F8010F094ABA
:1008C00019461BE01445002025499224A44E00201F
:1008D000A0000020CC220020382600202C2300205D
:1008E0006C1B0020782F02083C2F02086F1B002091
:1008F0000133202B01F0318212F80C1C884202F1E6
:100900000C02F5D1DBB203EB430306EB8303D3F810
:1009100034A050461DF0ECFD002D41F01E82002851
:100920000ADD53460AEB000E3A6813F8011B501C0F
:100930009E4538601170F7D1237843457FF793AE19
:1009400008F10108B8E701233A68511C39601370B7
:100950000133092BF8D186E6BD4C3846B4F89E1118
:1009600015F07EFCB4F8F810384615F079FCB4F8B0
:10097000FA10384615F074FCB4F8FC10384615F03F
:100980006FFCB4F8EC11384615F06AFC3A68B149CE
:100990000023501C386013703A68501C3860137084
:1009A0003A68501C386013703A6894F86901551C15
:1009B0003D6010703A6894F89B01551C3D601070C2
:1009C0003A68501C38601370B4F92E3181FB032152
:1009D000DB17C3EBA10189B2384615F041FC3B6837
:1009E00094F85C21591C39601A703B6894F86021B6
:1009F000591C39601A703B6894F85F21591C3960A2
:100A00001A70396894F8610195E6934E00233A68AC
:100A10003168501CC95C38601170326839681A44FA
:100A2000481C927A38600A70326839681A44013377
:100A3000127D481C0A2B38600A70E8D113E6874CF7
:100A40003B682268591C127839601A7023683A682A
:100A50009978531C3B6000231170226839681A444E
:100A600001335279481C032B38600A70F5D13B687A
:100A70002268591C127A39601A703B682268591C26
:100A8000D27839601A703B682268591C1279396033
:100A90001A7023683846598915F0E2FB3B682268D2
:100AA000591C527A39601A7023683968587842E6BE
:100AB0006B4B3A681B886B49FF2BA8BFFF23501C68
:100AC0003860137009684FF6FF74A142A8BF214631
:100AD00021EAE17189B2384615F0C2FB624B384613
:100AE000198815F0BDFB5A4B93F86931002B01F0C2
:100AF00044815E4B1B6803EB83035900A142A8BFEE
:100B0000214621EAE17189B2384615F0A9FB01239B
:100B10001A46AAE50021384615F08AFB002138461E
:100B200015F09EFB01231A469FE5396801200A183B
:100B30003A6003460246087097E5454B396893F8DA
:100B40009B01F8E5424C3B6894F88021591C3960C0
:100B50001A70B4F8A211384615F082FBB4F89E1151
:100B6000384615F07DFBB4F8A011384615F078FB37
:100B70003B6894F89921591C39601A70B4F8AC118B
:100B8000384615F06DFBB4F8AE11384615F068FB29
:100B90003B6894F8A421591C39601A703B6894F89A
:100BA000A621591C39601A70B4F8AA11384615F0FC
:100BB00057FB3B6894F88221591C39601A70D4F8AD
:100BC0008411384615F034FB3B6894F89821591C81
:100BD00039601A70396894F8A701ACE51C4B396884
:100BE00093F8E701A7E51A4C3846B4F8641115F0FC
:100BF00037FBB4F86611384615F032FB3B6894F8C1
:100C00006821591C39601A70B4F86A11384615F019
:100C100027FB01231A4628E50D4C3846B4F8081185
:100C200015F01EFBB4F80C11384615F019FBB4F89A
:100C30001011384615F014FB01231A4615E5044B34
:100C40003846996815F0F4FA01231A460DE500BFFD
:100C5000A44E00206766666628230020E81E002058
:100C600058440020C8220020BC3F00205C440020E3
:100C7000BD4BBE4D03F1500493F88523396802EB58
:100C8000420205EB8202481C92F8382038600A7054
:100C90003A6893F88613501C386011703A6893F8DC
:100CA0008713501C386011703A6893F88813043326
:100CB000501C9C4238601170DED1D4E4AC481DF069
:100CC00017FC011E7FF7CFACA94B19443A6813F803
:100CD000010B541C99423C601070F7D1C3E40B2205
:100CE000A449384615F09AFA0822A349384615F067
:100CF00095FA0722A149384615F090FA01231A46C1
:100D0000B3E404229E49384615F088FA002138469B
:100D100015F0A6FAA7E43B680322591C39601A7043
:100D20003B680222591C39601A703968002002E5BC
:100D300004229449384615F071FA01231A4694E4C6
:100D40003B680022591C39601A703A680123D11897
:100D50003960137039682020CA183A601A46087042
:100D600083E4814C3846B4F8441115F079FAB4F8AC
:100D70004211384615F074FA01231A4675E4824B85
:100D80003846196815F054FA804B3846196815F042
:100D90004FFA7F4B3846196815F04AFA01231A4674
:100DA00063E4002A3FF45FAC7A4B13605BE47A4C57
:100DB00004F1080534F8021B384615F051FAA54233
:100DC000F8D150E43A68684B501C93F85C113860D5
:100DD00011703A6893F86011501C386011703A68CD
:100DE00093F85F11501C386011703A6893F86111E4
:100DF000501C38601170396893F863019BE45A4CB9
:100E0000664D04F1100694F9F63195F900209A42E6
:100E100000F0C18795F90C209A4200F0BC87083495
:100E2000B442F0D11FE4504B03F15A043A6893F8EE
:100E3000DA13501C386011703A6893F8D513501CBF
:100E4000386011703A6893F8D613501C38601170EE
:100E50003A6893F8D713501C386011703A6893F8C9
:100E6000D813501C386011703A6893F8D9130633C0
:100E7000501C9C4238601170D8D1FFF7F4BB082297
:100E80004749384615F0CAF901231A46FFF7EDBB6A
:100E90003A68354B501C93F8E61138601170396888
:100EA00093F8E50147E4304C3B6894F8E721591C7E
:100EB00039601A70A168384615F0BAF93B6894F8A1
:100EC0008021591C39601A70B4F80811384615F0A1
:100ED000C7F9B4F80C11384615F0C2F9B4F810117E
:100EE000384615F0BDF9B4F86411384615F0B8F974
:100EF000B4F86611384615F0B3F901231A46FFF726
:100F0000B4BB3B68184C591C94F8EA2139601A703C
:100F10003B6894F8EB21591C39601A70B4F8EC1155
:100F2000384615F09DF93B6894F8EE21591C39605C
:100F30001A70B4F8F011384615F092F9396894F83F
:100F4000F201FFF7F8BB174B3846198815F088F9FE
:100F500001231A46FFF789BB0B220649384615F0D4
:100F60005DF9FFF792BB00BFA44E00203C2F0208A2
:100F7000B14E0020685102087451020874690208D9
:100F80006051020858510208ACF7FF1FB0F7FF1F6D
:100F9000B4F7FF1FF5DF010868230020F8440020A4
:100FA0001C500020102300203B6800245A1C3A608B
:100FB0001C703B685A1C3A601C703B685A1C3A60B3
:100FC00021461C70384615F033F92146384615F095
:100FD0002FF901231A46FFF748BBB24E3378002B96
:100FE0003FF441ABB04C00253B6894F8B021591C4C
:100FF00039601A7094F8B13103EB830303EB830378
:1010000003F2EE2189B2384615F02AF9337801351A
:101010009D4204F10204E7DBFFF725BB3968A24AD1
:101020000123481C38600B70396892F83104CC18E1
:101030003C600870396892F82F04CC183C60087046
:10104000396892F83004CA183A601A460870FFF7F7
:101050000CBB204615F0D0F801231A46FFF705BB5C
:10106000924C2289B2F5007F04F1300594BF01262D
:1010700004263C3455F8041B91FBF6F1384689B23E
:1010800015F0EEF8AC42F5D1894C8A4E04F10C050E
:10109000B4EC010AD6ED067A80EE270A1FF06EF94D
:1010A00081B2384615F0DCF8AC42F1D1824C04F143
:1010B0000C0554F8041B384689B215F0D1F8AC423F
:1010C000F7D1FFF7D0BA7D4B3846B3F8581015F07A
:1010D000C7F83846002115F0C3F8794B1A68C2F3F7
:1010E000C003C2F380019B0043EA4103C2F3400105
:1010F0000B43C2F3401143EAC10102F01002114355
:10110000384615F0ADF81CF081FF0146384615F061
:101110008FF83B68644A581C92F88413694A386017
:101120001970118864293846A8BF642115F098F811
:10113000ECE53B685C4A581CE721386019703B6855
:1011400092F8E721591C39601A703B680022591C3B
:10115000396038461A70042115F06AF801231A46DE
:10116000FFF783BA3A68504B501C93F83B11386034
:1011700011703A6893F84811501C38601170396842
:1011800093F83101FFF7D7BA4F4C0021384615F0DC
:1011900067F80021384615F063F823683846598D02
:1011A00015F05EF83A680023511C396013703A68F4
:1011B0002168501C91F83110386011703A6821682C
:1011C000501C91F83C10386011703A682168501C2E
:1011D00091F83D10386011703A68511C39601370F5
:1011E0003A68511C396013703A68511C39601370A9
:1011F000236893ED110AB2EE048A20EE080A1FF06C
:10120000BDF881B2384615F02BF8236893ED100A2B
:1012100020EE080A1FF0B2F881B2384615F020F827
:101220003B682268591C92F8332039601A70236891
:10123000396893F83400FFF77EBA1B4C3B6894F88A
:101240002321214D591C39601A702B683846198C9E
:1012500015F006F82B683846598C15F001F8B4F8EB
:101260002611384614F0FCFFB4F82811384614F063
:10127000F7FF2B683846998C14F0F2FF2B6838463C
:10128000D98C14F0EDFFB4F82A11384614F0E8FFB9
:10129000B4F82C11384614F0E3FF01231A46FFF787
:1012A000E4B900BFD0410020A44E0020D02200208D
:1012B000142300200C2E002068390020A0000020FC
:1012C000CC2200203826002028230020C64D95F887
:1012D0002131002B00F082853B680822591C3960BF
:1012E0001A703B680122991839601A703B6895F8AA
:1012F000E420591C39601A703B6895F8E220591CAB
:1013000039601A70B5F8E010384614F0A9FFDFED27
:10131000B77A95ED3D0A20EE270A1FF02FF881B22B
:10132000384614F09DFF3B6895F82521591C39601B
:101330001A70396895F8E300FFF7FDB91CF0E0FA80
:10134000FF28054600F01F850AA9002401F8264D54
:101350000DF101008DF8014019F088FD0AA800F890
:10136000254D19F077FD0AA800F8244D19F066FD07
:101370003B685A1C3A601D703B689DF80120591C5F
:1013800039601A703B689DF80220591C39601A7048
:101390003B689DF80320591C39601A7039689DF824
:1013A0000400FFF7C8B9924E3378002B3FF45BA9D5
:1013B000904D002435F8021F384614F051FF337861
:1013C00001349C42F6DBFFF74EB98B4C384621883E
:1013D00014F046FF6188384614F042FFB4F9043037
:1013E0008649DA1781FB0313C2EBA30399B238468F
:1013F00014F036FF01231A46FFF737B9804C814DB0
:1014000004F1A00607E0143414F02AFFB44205F1F9
:1014100002053FF428A9237B38461946002BF2D059
:1014200028880FF0CDFD01463846ECE71A46591CD6
:1014300021606D4D12F8021B85F8EA1122605B787D
:1014400085F8EB31204614F0D7FE2368A5F8EC01AF
:101450005A1C22601B7885F8EE31204614F0CCFE31
:101460002368A5F8F0015A1C22601B7885F8F23138
:10147000FFF7F9B85A1C22601D78112D3FF655A9C7
:101480009A1C226005F1D806574D5B7805F8163096
:10149000204614F0B1FE40F6CA039842A8BF184691
:1014A00040F2EE239842B8BF1846574AA0F2EE2009
:1014B00082FB003205EB4605C017C0EBE2020123B8
:1014C0006A701A46FFF7D1B8504A1278012A3FF6DF
:1014D000CAA819465A1C2260434A11F8020B82F826
:1014E00031042160597882F82F14D91C21609B782F
:1014F00082F8303401231A46FFF7B7B81A46591C50
:101500002160394D12F8021B85F8201122605A78AB
:1015100085F81C21DA1C22609A7885F8E4201A1DCF
:101520002260DB78082BA8BF0823204685F8E2302C
:1015300014F062FE62682368A5F8E000D11A012960
:101540000EDD204614F058FE07EE900A9FED307A2B
:1015500062682368F8EEE77A67EE877AC5ED3D7A30
:101560009A4240F0898418F0D1FD236862689A425B
:101570003FF479A85A1C22601B7885F8E3300123D8
:101580001A46FFF772B8234A03F1080101332360BA
:1015900013F8010C02F8010B8B42F7D1FFF763B887
:1015A0005A1C22601C4EDFF840801B78D6F8009051
:1015B00088F82331204614F01FFEA9F820002046A9
:1015C000D6F8009014F018FE052DA9F8220000F2BC
:1015D0002C8418F09BFD0DF0F9F930680FF06EFBCC
:1015E00001231A46FFF741B8A44E00200000C8426C
:1015F000D0410020E241002020230020676666667B
:10160000E4390020C03F00201F85EB512F530020FC
:101610000AD7233C1C50002028230020204614F029
:10162000EBFDD04E9FEDD08A204614F0E5FD20461C
:10163000D6F8008014F0E0FDA8F82A00204614F047
:10164000E7FD236832681946581C206011F8020B28
:1016500082F831002160597882F83C10D91C216051
:101660009B7882F83D30204614F0D2FD204614F0DD
:10167000CFFD204614F0CCFD2046D6F8009014F0A3
:10168000BBFD07EE900AF8EEE77A204667EE887A0F
:10169000D6F80080C9ED117A14F0AEFD07EE900A7D
:1016A000F8EEE77A112D67EE887AC8ED107A00F22D
:1016B000AE8330680FF040FA01231A46FEF7D5BF1B
:1016C000204614F099FDA94DA5F89E01204614F07E
:1016D00093FDA5F8F800204614F08EFDA5F8FA0059
:1016E000204614F089FDA5F8FC00204614F084FD86
:1016F000A5F8EC01204614F08BFD204614F088FD7F
:10170000204614F085FD23681A46591C216012F802
:10171000021B85F8691122605B7885F89B312046B1
:1017200014F076FD204614F067FD236800EB80007E
:101730001A464100581CA5F82E11206012F8021B11
:1017400085F85C1122605A7885F86021DA1C2260E5
:101750009A7885F85F211A1D2260DB7885F861315F
:1017600001231A46FEF781BF804D0023AB6020465F
:1017700014F02AFDAA6801230243AA601A46FEF764
:1017800074BF19465A1C2260784A11F8020B82F87D
:101790001E012160597882F83A11D91C21609B788A
:1017A00082F8303101231A46FEF75FBF5A1C6F4D95
:1017B00022601B7885F8E7310023AB60204614F0E7
:1017C00003FD2268AB68511C0343AB6021601378B2
:1017D00085F88031204614F00FFDC5F80801204639
:1017E00014F00AFDC5F80C01204614F005FDC5F8FB
:1017F0001001204614F000FDA5F86401204614F005
:10180000FBFC0123A5F866011A46FEF72EBF204611
:1018100014F0F2FC554DA5F84401204614F0ECFC00
:101820000123A5F842011A46FEF71FBF504B1B7853
:101830005B073EF57AAF18F05FFC18F009FD012355
:101840001A46FEF712BF4B4D05F11006204614F064
:10185000D3FC0FF0CBFB25F8020FB542F6D1FEF713
:1018600002BF204614F0C8FC404DA5F800012046F8
:1018700014F0C2FCA5F80201204614F0BDFC0123BF
:10188000A5F804011A46FEF7F0BE3B4A102D4FF0B2
:101890000003294628BF1021136053609360D36072
:1018A000137400293EF4DFAE23681944013323602A
:1018B00013F8010C02F8010B9942F7D1FEF7D3BEE1
:1018C0005A1C226019780E293EF62FAF9A1C22600E
:1018D000587803283EF629AF244A01EB410102EB78
:1018E0004102D91C82F8DA032160997882F8D51375
:1018F000191D2160D97882F8D613591D21601979F4
:1019000082F8D713991D2160597982F8D813D91D0F
:1019100021609B7982F8D93301231A46FEF7A5BED0
:1019200019465A1C2260114A11F8020B82F85C0118
:101930002160597882F86011D91C2160997882F869
:101940005F11191D2160D97882F86111042D7EF68E
:101950008AAE591D21601B7982F8633101231A4632
:10196000FEF783BE28230020CDCCCC3DA44E002022
:1019700054530020D6370020B14E00201A46591C7F
:101980002160BD4912F8020B81F8E60122605B7804
:1019900081F8E53101231A46FEF767BE19465A1C45
:1019A0002260B54A11F8020B82F83B012160597898
:1019B00082F84811D91C21609B7882F831310123CB
:1019C0001A46FEF752BE5A1C2260AB4A1B7882F8B8
:1019D0009B3101231A46FEF748BEA84A1068DA1C5C
:1019E000411E2133951E256012F8035C01F8015F4A
:1019F000551E256012F8025C8D72226012F8015C9F
:101A00000D7503329342EDD154E6092D7EF68DAE6D
:101A1000DFF87C821A46591CD8F80060216012F861
:101A2000021B317022605A78B270DA1C22609A78F8
:101A3000642A03F10401A8BF642272712160DA787C
:101A4000642A03F10501A8BF6422B27121601A79EA
:101A5000F2719A1D22605A79642A28BF6422D91D26
:101A6000327221609A79F27003F108022260DB7908
:101A70003371204614F0C0FB0A2D708140F00682BD
:101A80001CF052FB01231A46FEF7EFBD7C4B1B787E
:101A900059073EF5E8AD7B4A4FF4C8710123118028
:101AA0001A46FEF7E2BD204614F0A6FB724DA5F8DB
:101AB0006401204614F0A0FB2368A5F866015A1CB7
:101AC00022601B7885F86831204614F095FB0123CD
:101AD000A5F86A011A46FEF7C8BD5A1C2260664A7C
:101AE0001B7882F8E73101231A46FEF7BEBD5A1C67
:101AF0002260614E1B7886F88031204614F07CFB12
:101B0000A6F8A201204614F077FBA6F89E01204615
:101B100014F072FB2368A6F8A0015A1C22601B78FF
:101B200086F89931082D7EF69EAD204614F064FBB0
:101B3000A6F8AC01204614F05FFB0C2DA6F8AE0110
:101B40007EF691AD23681A46591C216012F8021BDB
:101B500086F8A41122605B7886F8A631204614F03E
:101B60004BFB102DA6F8AA017EF67DAD23685A1C0A
:101B700022601B7886F88231204614F025FB23680A
:101B8000C6F884015A1C22601A7886F89821162D0E
:101B90007EF669AD9A1C22605B7886F8A731012336
:101BA0001A46FEF762BD5A1C2260187813283EF6CA
:101BB000BCAD9A1C226000225E783349154605E0D0
:101BC0000132202A3EF4B1AD11F80C5CAE4201F1B5
:101BD0000C01F5D1D2B22D4D2749284E02EB42021D
:101BE000E03005EB820501EB800295F83010517171
:101BF000D91C216099789171191D2160D978D17112
:101C0000591D21601B79137230681BF079FB012389
:101C10001A46FEF72ABD5A1C22601878050600F104
:101C2000EB80174B1B785C073EF51DAD032828BFE2
:101C3000002018F0CDFC01231A46FEF716BD204601
:101C400014F0DAFA0C4DC5F80801204614F0D4FA65
:101C5000C5F80C01204614F0CFFA0123C5F8100195
:101C60001A46FEF702BD054B18680FF0F7FA01237C
:101C70001A46FEF7FABC00BFA44E0020282300201D
:101C8000545300204E210020802F02083C2F0208D0
:101C9000E81E0020C5F34705122D3EF646ADBDB146
:101CA0000AAB0DF1020803EB45094646A9F12609E6
:101CB000204614F0A1FA26F8020FB145F8D17B4B6B
:101CC00038F8022F23F8022F4645F9D1112D09D8F3
:101CD000774A6B00023B13440021223223F8021F93
:101CE0009A42FBD17349012213460A70FEF7BDBC2C
:101CF0001A46591C2160704D12F8021B85F87011AC
:101D000022605A7885F87121DA1C22609B7885F868
:101D10007231204614F070FA0123A5F806011A4624
:101D2000FEF7A3BC654B1B785A073EF59CAC644993
:101D30000A78012342F004020A701A46FEF795BCA5
:101D40005E4B1B7858073EF58EAC18F033FE18F04A
:101D50007FFA01231A46FEF788BC23789845FEF6E1
:101D6000EFAD002D3EF47FAC0025002B7EF4A0AD3E
:101D7000FEF779BCD846FEF7ABBC524B196801F3AD
:101D80000F01FEF7C0BE39680123CA183A601A462F
:101D90000870FEF76ABC3A68511C39601370B4F8D9
:101DA000F411384614F05CFA3B6894F8F721591C9A
:101DB00039601A703B6894F8F821591C39601A7020
:101DC0003B6894F8FA21591C39601A703B6894F802
:101DD000F921591C39601A70FFF721B83B6895F852
:101DE0002021591C39601A703B6895F81C21591C38
:101DF00039601A70FFF77ABA00F07F00032828BF15
:101E0000002018F055F901231A46FEF72EBC23686E
:101E10003068591C1A46216012F8021B80F83310F2
:101E200022605B7880F8343044E4204614F0E4F912
:101E3000A8F82601204614F0DFF9A8F8280120466A
:101E4000D6F8009014F0D8F9A9F824002046D6F866
:101E5000009014F0D1F90D2DA9F826007FF6B9AB4A
:101E6000204614F0C9F9A8F82A01204614F0C4F954
:101E7000A8F82C01FFF7ADBB5A1C22601B78003379
:101E800018BF012385F82531FFF76DBB2368D8F80B
:101E90000020591C2160197851720B2D3FF4F0ADD0
:101EA000991C21605B785370EAE500BFC6240020CE
:101EB000C8240020C4240020A44E00205453002035
:101EC0002C4000205C440020DFED2B7AB4EEE70AC2
:101ED000F1EE10FA4ADDDFED296A9FED297A01E083
:101EE000B0EE670AB4EEC70AF1EE10FA70EE667A49
:101EF000F6DC9FED247AF4EEC77AF1EE10FA38D5CD
:101F0000DFED1E6A9FED207A01E0F0EE407AF4EEFC
:101F1000C77AF1EE10FA37EEA60AF6D4DFED1B7A97
:101F2000B4EEE70AF1EE10FA14DDDFED137A37EEC6
:101F3000C00A60EE006A9FED166A9FED167ADFED2B
:101F4000167AA6EE867A20EE266AE6EE877AA6EE66
:101F5000270A7047DFED117AB4EEE70AF1EE10FAC6
:101F600044BFDFED087A37EEC00AE2E7F0EE407AD0
:101F7000BFE7B0EE670AD1E7DB0F4940DB0FC9408E
:101F8000E4CB1641DB0F49C0E4CB16C1DB0FC93FE0
:101F900092E741B99730083C15A82ABEDB0FC9BFAC
:101FA00083684268D0ED037A00EB830101339342EA
:101FB00081ED040A836004BF0023836000EB830388
:101FC00093ED047A036870EE277A9A42C0ED037AA3
:101FD00077EEC77AC0ED037A0CDA013307EE103AD8
:101FE000F8EEC76AB7EE007A87EEA60A036030EE15
:101FF000070A704707EE102AB8EEC77A87EE870AFD
:10200000704700BF90ED057A90ED004AD0ED066A6A
:10201000D0ED014AD0ED047A90ED035AD0ED025A8A
:10202000A4EE007AB0EE406AB0EE470AB0EE667AEF
:10203000A6EE247A67EEC07AA0EE457AE6EE257A1F
:1020400080ED057AC0ED067A704700BFD0ED007ACA
:1020500090ED017A30EE670AE7EE007AB0EE670A9B
:10206000C0ED007A704700BF704700BF10B402385F
:1020700001F110044A7811F8023B43EA02238C4232
:1020800020F8023FF6D15DF8044B70474FF400632F
:10209000038170474FF400630381704750F8043C9C
:1020A00001224274143803B11847704790F8253064
:1020B000024603F0FF0013B1002382F82530704779
:1020C00070B582B00446036B90F844006A4606215E
:1020D0009847C0B19DF804009DF800609DF801107C
:1020E0009DF802509DF803209DF8053041EA062135
:1020F00043EA002342EA052209B212B21BB2A183CD
:102100000120E283238402B070BD00BFF0B583B02C
:10211000044643696A4606213B209847A0B19DF8D2
:1021200000709DF801109DF802609DF803209DF855
:1021300004509DF8053041EA072142EA062243EAAD
:1021400005236181A281E38103B0F0BD0A4B1B78B6
:102150008BB130B4094B1C7864B1094B002503EBFB
:10216000C4041A6899885562D06808330143A342B1
:10217000D160F6D130BC7047703F00202C3F00206A
:10218000303F0020294BF0B51C78002C4CD0284D56
:102190004FF05C0E0EFB005EDEF80460002E43D0B4
:1021A000F468002C40D09EF80C3043EA41039AB208
:1021B000131283EA121300EB40075340C0EBC7072A
:1021C000BF0003F00F0343EA0213002107F10C02E2
:1021D0004C379BB22A442F448EF80C1013F4004F56
:1021E00014BF0E21072142F8041F5B00BA429BB2C4
:1021F000F4D15C2303FB00502268816D438935686C
:102200004FF6FE7002402260E8680A68DB439BB22A
:1022100003401220EB606060097B02238B40536017
:10222000236843F001032360F0BD00BF703F00202E
:10223000DC3A00202DE9F843A54C2368054653B14C
:1022400019689A880B8A1A4205D02379E3B10025D0
:102250002846BDE8F8830FF00BFD064640201AF033
:102260001DFF82073ED4830668D5C020002508F0F4
:10227000F1FB23794BB12846BDE8F883C02008F074
:10228000E9FB2379002BE2D100250FF0F1FCA36BD1
:10229000904AC31A934218D8236B8F4EC31A4FF635
:1022A000E852934284BFFF2384F82C30236A3268BB
:1022B000C31A934225D8012DCAD1012517F01CFF5E
:1022C00017F0C6FF2846BDE8F883A36AA063642B15
:1022D0009ABFC3F16403DBB20023002284F83430D8
:1022E000A262D9E72579002DBFD16379E2180133C5
:1022F00003F00F03117A63710F2008F053FBC02025
:10230000B5E7636A20620133A020636208F0A2FB94
:102310006379E218013303F00F03117A63710F2020
:1023200008F040FBC02008F095FB636A1F2B8CBFB0
:1023300041F28F6340F60A733360BCE7F020674FC9
:1023400008F088FB25201AF06BFF3B78582B32D021
:1023500094D3BB3B012B91D82379002B85D0FB7AFA
:10236000D7F80120E261FF2B40F0858007F10B05D3
:102370004FF0FF33C7F80B306B60AB60EB602B6145
:102380006B612B837B7AA269C7F80520012B4FF084
:10239000E0004FF0FF3388BF0023237108F05AFBA1
:1023A00025224E49052008F063FA2379002B6BD0D3
:1023B000D02000255BE704224949781D20F0C0F8B1
:1023C00000287FF452AF04224649781C20F0B8F868
:1023D00000287FF44AAF3B46A26A53F8099F3E4962
:1023E000D3F808E0D3F80480D3F80CC094F82C306C
:1023F000C5F808E0013241F2FE0E26626062C5F8BF
:102400000090C5F80480C5F80CC0A262C1F800E0D5
:10241000002B50D0344B94F834E01B8884F82C0007
:1024200003EB83035B009BB24FF0FF324FEA132CA8
:10243000AA25FB72FE237872B872B873387487F8D5
:102440000CC0C7F81520C7F81120C7F81920C7F825
:102450001D20C7F8212087F80FE03D707B73E02036
:10246000266308F0F7FA39462522052008F000FA1D
:102470000225D020FBE63D461C4E55F80B0F69683F
:10248000AA68EB680FC673E7184B194FE6690FCBC4
:1024900007F5C47585E80F0036BAC7F884610FF0F8
:1024A000E7FB2062D02008F0D5FA23790125002B24
:1024B0003FF4EBAE01E76379E218013303F00F0359
:1024C000117A63710F2008F06DFA0225C020CEE664
:1024D000901B0020E8DF0500000000207C4E00205B
:1024E000A81B0020AC1B002058440020981B002093
:1024F000A44E00202DE9F041484B494E494D336030
:10250000A3F1E00708220A701E24022282B087F895
:10251000E720202187F8E6408046184608F0D6FAE2
:102520000021084608F03EFA54207521C5222A23CE
:102530008DF8040001A88DF805108DF806208DF89F
:10254000073000241AF006FE0134E4B2322C204693
:102550000AD015F8011FFF29F6D00134E4B208F0C3
:1025600021FA322C2046F4D1A02008F073FA012180
:10257000022008F017FA42201AF090FD04460028C5
:10258000F9D162201AF08AFD1321242008F00AFAFA
:102590000921252008F006FAA02008F05BFA1E2386
:1025A00020212148BB73FC7308F090FA1F4B20498F
:1025B000204A09681B6812684B4053401A0A1D0ED6
:1025C000190C0A20F376B276357671760FF09CFB03
:1025D000BB68BA891B8A1A4214D04346164D53F879
:1025E000100FD8F80C7059689A68DB6834710FC501
:1025F000390E3A0C3B0AF77731777277B37702B02E
:10260000BDE8F081FF230D210F20337108F0CAF9D6
:10261000C02008F01FFA02B0BDE8F081544E00203F
:10262000901B0020EC3002087C4D0020ACF7FF1F0F
:10263000B0F7FF1FB4F7FF1F981B002070B50C4CBC
:1026400023680E46154613B11A689B88138540F01F
:102650008001084808F06EF9314628461AF0E4FC7B
:10266000236813B11A689B889361012070BD00BF75
:10267000582E00200030014038B50B4C23680D4621
:1026800013B11A689B8813850146084808F052F96F
:102690002946064808F04EF9236813B11A689B884A
:1026A0009361012038BD00BF582E0020003001404A
:1026B00038B5C36A0446F3B1187808F0BFFB20238D
:1026C00000218371C171054608F000FA21462C4BA8
:1026D00041F8143F28461AF047FCAB88B3FA83F35D
:1026E000C3F11F035A1C06D026490122086802FACA
:1026F00003F303430B60636B80216B20984719F051
:10270000A3F8636B07216820984719F09DF8636B65
:1027100000216B20984719F097F80121636B6B201B
:10272000984719F017F994F82320636B012A8CBF9E
:102730001A2118211B20984719F00CF9636B1821F6
:102740001C20984719F006F9636B94F822101A20A0
:10275000984719F0FFF8636B94F8241019209847F4
:1027600019F072F8636B10213720984719F0F2F8CE
:10277000636B012138209847BDE8384019F0EAB86A
:102780009D2000080004014038B51B4C238823F02D
:1027900040031B041B0C2380238823F038031B04F5
:1027A0001B0C43F03003238023889BB243F040038B
:1027B0002380054601200FF0A7FA2846FFF778FF8F
:1027C00010216A20FFF758FF19F03EF8238823F004
:1027D00040031B041B0C2380238823F038031B04B5
:1027E0001B0C238023889BB243F0400323800120ED
:1027F000BDE838400FF088BA00300140F0B5064619
:1028000083B00D460024012714E003290CBF0322E6
:102810000122C3F3011E6946C3F3810330468DF8DC
:1028200005208DF806E08DF8073017F00DFB013418
:10283000102C0FD02B8807FA04F21342F7D0AB7894
:10284000E9780092022903F003028DF80420DCD11C
:102850000A46DEE703B0F0BD2DE9F047089C257875
:10286000002B804689460CBF4FF0200A4FF0300AFB
:10287000661C35B3002A29DD334601E0024698B1D3
:1028800013F8011B501E0029F8D1971E60B13D4678
:10289000013D51464046C8476B1C002BF8DC2578AB
:1028A00027EAE770013055B1041B29464046C84766
:1028B000301916F8015B002DF7D1BDE8F087BDE8AF
:1028C000F087002A04DC2846BDE8F0870020EBE70B
:1028D000571EDCE741404A0011F0800F82F0D5031B
:1028E000D2B2DBB208BF1346590013F0800F81F05B
:1028F000D502C9B2D2B208BF0A46510012F0800F09
:1029000081F0D503C9B2DBB208BF0B46590013F002
:10291000800F81F0D502C9B2D2B208BF0A46510079
:1029200012F0800F81F0D503C9B2DBB208BF0B46AD
:10293000590013F0800F81F0D502C9B2D2B208BF9E
:102940000A46510012F0800F81F0D503C9B2DBB204
:1029500008BF0B465A0082F0D50013F0800FD2B2A8
:10296000C0B208BF1046704738B5DFED337A07EEC6
:10297000101A2DED048B20EE270AF8EE478AB0EEF0
:10298000608A68EE808A0446B0EE680A15461DF03B
:1029900041FD38EE088AB0EE409AB0EE680A1DF0AC
:1029A0009BFCC9EE085A65B3012D17D0DFED237AE1
:1029B000B0EE670AB0EE677AF0EE676ABDEC048BA2
:1029C0000023C4ED006A84ED017AC4ED026A84ED4F
:1029D000030AC4ED047AA361636138BDF7EE007A9F
:1029E00035EEA76AB8EE007AC7EE866A20EE070ACF
:1029F00077EEE57A20EE267A67EEA67AB0EE470A01
:102A0000DCE7F7EE007A75EEA76A37EEC07A87EE5C
:102A1000A65AB8EE006AF6EE006A67EE266A77EE0E
:102A2000E57A20EE060A67EE857A66EE856A27EE7D
:102A3000057A20EE050AC1E727D4D2360000C07F10
:102A400070B51C4C236D226BDD69C2B1636B2BB179
:102A50002B0702D5236D08221A6270BD2A06F7D50E
:102A6000A26A616A8A421FD0511CA069A162825C7D
:102A70002069266D81423285EAD3A362E8E7A90680
:102A8000E4D5E26A1AB1988C80B29047DEE7E1693A
:102A90009B8C6069DBB24E1CE6614354E169E368DC
:102AA000994228BFE261D1E7226D136823F08003C9
:102AB0001360CDE75C2F00200348D0F83C3113B100
:102AC00000F59A7018477047E41000200348D0F8CA
:102AD000203113B100F58C7018477047E4100020C6
:102AE0000348D0F804310BB1FC301847704700BFE1
:102AF000E41000200348D0F8E8300BB1E03018476C
:102B0000704700BFE41000200348D0F8CC300BB170
:102B1000C4301847704700BFE41000200348D0F8C5
:102B2000B0300BB1A8301847704700BFE410002048
:102B30000348D0F894300BB18C301847704700BF71
:102B4000E41000200248836F0BB1703018477047C3
:102B5000E41000200248C36D0BB154301847704791
:102B6000E41000200248036C0BB13830184770475E
:102B7000E41000200248436A0BB11C30184770472C
:102B8000E41000200248836803B11847704700BF73
:102B9000E41000201749184B184A194810B4D1F80E
:102BA000884044F47004C1F888401C6844F0010473
:102BB0001C605C6822405A601A6822F0847222F419
:102BC00080321A601A6822F480221A605A6822F44D
:102BD000FE025A60DA6A22F00F02DA621A6B0024EF
:102BE00010404FF0006218639C608A605DF8044BEF
:102BF000704700BF00ED00E0001002400CC07FF8FD
:102C0000CCFC00FF2DE9F04F2DED028B8FB0019031
:102C10001BF0A0F8864B1B7823B10FB0BDEC028BE4
:102C2000BDE8F08FDFF860B2DBF800305905F4D56D
:102C3000804BDFF858921B78002B40F02D817E4BA3
:102C40001B78002B62D0DFF848820199D8F86831F0
:102C50007A4ACB1A934200F2588798F89C4184BB79
:102C6000774D286811F080F8C0B201280FD90228EA
:102C700041F0C482734B1A78002A41F0F184D8F8ED
:102C8000A02101998A1AB2F57A6F81F0FC85D8F8F3
:102C9000A421002A3AD098F89C31ABB96A4B286835
:102CA0001B689B780122022B88F89C214FF00201BF
:102CB00001F23282043016F048FA002388F8B0316D
:102CC00021E0D8F8A4210AB3D8F8AC31019840F635
:102CD000B731C31A8B4219D998F8A831002B41F0AB
:102CE0000082594AC8F8A431126888F89C31937858
:102CF000022B534B01F21A8318680121043016F09D
:102D000024FA16F039FA019BC8F8AC314F4BD9F8C8
:102D100000401B7843B14E4D286828B14D4B1B78BD
:102D2000013B012B40F242874B4B1B786BB14B4C64
:102D3000236853B1DFF85881D9F800A0D8F8E432FD
:102D4000AAEB0303632B00F28181454C2378022B0D
:102D500001F05781434E3378032B00F01487424B28
:102D60001B788BB1DFF82CA1DAF8003063B1DFF803
:102D700020810EF07DFFD8F8EC32029044F61F62FD
:102D8000C31A934200F2B881384B1B78002B40F0F5
:102D90003181374B1B78002B3FF43FAFDFF8F080D9
:102DA000019AD8F8403403F5C333A0339A42FFF4B4
:102DB00034AF114698F844342E4AC8F8401402EB58
:102DC0008302D26B42B30EAC08F24B432A4D44F857
:102DD000203D002108F25D432980079380211523BF
:102DE000A52688F84A34204688F8491488F84864AB
:102DF00090472046298813F033FA069C1F4808F5AF
:102E00008961641A152CA8BF152422461FF0A7FB60
:102E10001B4A98F8443414701A4A013382FB031297
:102E2000A2EBE37202EB42029B1A88F84434F4E608
:102E3000CE380020B0530020B35300203F0D0300D4
:102E40007C44002095000020B4530020B95300209A
:102E500054440020C0530020C853002018450020CF
:102E6000EC25002091030020D0530020E0530020E7
:102E7000E1530020603102085C530020CC23002085
:102E8000E123002056555555504200206C49002042
:102E9000081C0020D4530020DFF85882D9F8002005
:102EA000D8F85C31D31A7C2B7FF6C9AE98F8603124
:102EB000854D9FED868AC8F85C21013388F8603122
:102EC000A5F130062424204616F0C4F93389F5EC28
:102ED000016A07EE103AF8EEE66AB8EEC77A0134F6
:102EE000C6EE877AE4B267EE887AFDEEE77ACDED3A
:102EF000027ABDF90870F8B216F088F9C7F3072016
:102F000016F084F9272CDED1302016F0A3F9704D8D
:102F1000002016F07BF9002016F078F928685E2171
:102F200010F026FF98F8603113F0030429D1D8F887
:102F30005C2141F288339A4201F28984142016F010
:102F400089F9644B644AB3F9043082FB0312DC173D
:102F5000C4EBA20424B2E0B216F058F9C4F307207F
:102F600016F054F91C2016F075F9002016F04EF9F1
:102F7000002016F04BF95E21286810F0F9FE98F851
:102F800060315A0701F00C82282B7FF458AE0024E0
:102F90001720D9F8007088F8604116F05BF92046D8
:102FA00016F034F94D4B4E4EA3FB07239B0BA6FBAB
:102FB00003125209C2EB0212A3EB8203D8B216F03D
:102FC00025F9182016F046F9464BA3FB07239B0969
:102FD000A6FB03125209C2EB0212A3EB8203D8B282
:102FE00016F014F9204616F011F928685E2110F049
:102FF000BFFE24E63C4C2278002A40F07D85DFF8B5
:10300000F480019AD8F8343403F5C333A0339A42DC
:10301000FFF4BFAE98F83D34C8F83424434493F825
:103020003854EF0701F19582AE0701F149826C0730
:1030300001F1A28098F83D3498F83E14013393FBD7
:10304000F1F201FB123388F83D34A2E6214F224D04
:10305000264E412016F02CF8B7F9023085FB0320EC
:10306000DB17C3EBA00080B216F008F8B7F9003008
:1030700085FB0320DB17C3EBA00080B215F0FEFF39
:10308000B7F9043085FB0320DB17C3EBA00080B247
:1030900015F0F4FF3178206810F06AFE98F8E832F5
:1030A00013F0010501F0B480114AC8F8E4A201331D
:1030B000DBB2A2FB0312D20802EB8202A3EB4203B3
:1030C00088F8E83241E600BF0023002000007A447F
:1030D00080440020202300206766666673B2E745BF
:1030E00089888888D34D6210A85300206449002045
:1030F000CDCCCCCC081C002098F8F232002B41F04B
:103100001D80CC4B1A6802F00803002B48F60341DF
:103110004AF60B404BF60F4349F6074404BF0346FB
:103120000C4612F0040F4FF0190118BF1C4692060E
:1031300088F8F21203D544F4804444F02004DBF80C
:10314000003013F00203C4F3090741F0FE824FF090
:10315000FF356420002606940794ADF828500897A0
:10316000ADF826308DF83600ADF82460CDF82A6031
:10317000CDF82E60CDF8326006AD0FCDAE4C88F89C
:1031800051600FC495E80F0007C424F8023B2146A4
:1031900001251B0CFE241F20C82201F81E3988F8C7
:1031A0004E4088F8522088F8535088F84F0098F81D
:1031B000020388F8500080F0F10383EA0313DAB2C7
:1031C000130983F0E70343EA022383EAC2031BB235
:1031D00083EA0312D2B2C3F3072383EA121343EA4A
:1031E000022383EAC2031BB283F0C80282EA0212FE
:1031F000D2B2C3F3072383EA121343EA022383EA1A
:10320000C2031BB283EA050484EA0414E4B2C3F3E4
:10321000072282EA141242EA0422284482EAC40401
:1032200088F80203A8F84C4001F11F0011F8013B97
:10323000634083EA0313DBB21A0982EA142242EAEA
:10324000032282EAC3031BB29CB28142A8F84C401D
:10325000ECD183F07C0383EA0313DBB21D0985EA1A
:10326000142585EA032585EAC3052DB2ABB24FEAE2
:10327000132CEDB2714FA8F84C3088F874C088F860
:10328000735008F14E0608F16E0E30687168B2682E
:10329000F3683C460FC4103676452746F5D13068B2
:1032A0002060674C33793B7104F1270688F851534D
:1032B00088F852C314F8011FDAF8000010F058FD26
:1032C000A642F7D198F8F372002F40F032875D4A9A
:1032D000D9F8003012780A2188F8F312002A01F098
:1032E00055805948012A058841F25A844188039142
:1032F000022A01F0098381880591032A01F0648480
:10330000C1880491042A01F05A84052A018901F038
:103310005284062AB0F80AE001F04A84072A848918
:1033200000D0C78998F802C306938CF0300383EA73
:103330000313DBB21809454A88F850C080F07A00C0
:10334000128840EA032080EAC3034148C2EB02220C
:1033500080FB02601044D217C2EB60220026059861
:103360008DF82D2065F30F06002560F30F05002072
:103370001BB261F30F00002164F30F0183EA031411
:10338000C3F307230593039B63F31F46049B079630
:1033900063F31F45059B0895E4B26EF31F4067F386
:1033A0001F4183EA14134FF0000E09900A918DF823
:1033B0002CE043EA042506AF0FCF85EAC40424B20B
:1033C00084F0C8061C4D88F851E086EA0616F6B26D
:1033D000C4F307240FC584EA161444EA062397E8C9
:1033E000030083EAC60633B283F0230245F8040BD8
:1033F00082EA0210C0B2C3F3072282EA101242EA44
:10340000002225F8141982EAC0000CF1010C1622E2
:103410002326FE24C82388F802C3A8F84C0088F8A5
:10342000536088F84E40A91888F84F2088F8523029
:1034300010E000BFCC2200205C1C0020341F0020C4
:10344000331F0020D0410020E4410020BC3F002079
:103450000308208015F8013B434083EA0313DBB2E5
:103460001A0982EA102242EA032282EAC3031BB24B
:1034700098B28D42A8F84C00ECD183F0F40383EAB3
:103480000313DBB21D0985EA102585EA032585EAC9
:10349000C30544462DB21FFA85FE54F84E0FE24E86
:1034A000A8F84CE0EDB24FEA1E2788F86A5088F879
:1034B0006B706168A268E3680FC620696169A269E0
:1034C00008F22B3407C608F2493688F8497388F8A1
:1034D000485314F8011FDAF8000010F049FCA64226
:1034E000F7D198F8FA52002D40F01E86CF4B98F88D
:1034F0000263B3F90010B3F90220B3F904309FED71
:10350000CC6A88F8515007EE103AD9F8003006938B
:1035100086F06A0383EA031306EE901AD9B20B0908
:1035200083F0D50343EA012383EAC1031BB283EA94
:1035300003115242C9B207EE902AC3F3072383EA6C
:10354000111343EA0123F8EEE77AF8EEE66AB8EEE3
:10355000C77A83EAC1031BB267EE867A66EE866A93
:1035600027EE067A002083F0C804CDED087ACDED71
:10357000076A8DED097A0A900B900C9084EA041486
:103580000DF1180EE4B2C3F30727BEE80F0087EA77
:10359000141747EA042787EAC404A64F24B20FC7CA
:1035A00084F01E059EE8070085EA0513DBB2C4F32C
:1035B000072585EA131545EA032587E8070085EA0C
:1035C000C305A7F110041C20C8214FF0050E1E23CF
:1035D000FE27721C88F8521088F8FAE288F85330F7
:1035E00088F84E7088F84F00211888F85060A8F8C5
:1035F0004C5088F8022314F8013B6B4083EA031314
:10360000DBB21A0982EA152242EA032282EAC303E4
:103610001BB29DB28C42A8F84C50ECD183F027032A
:1036200083EA0313DBB21A0982EA152585EA03252A
:1036300085EAC3052DB2ABB21F0AEDB2DFF8E8E1AF
:10364000A8F84C3088F8717088F8705008F14E0670
:1036500008F16E0C30687168B268F36874460FC484
:1036600010366645A646F5D1734C3388AEF8003067
:1036700004F1240688F84E5388F84F7314F8011F9C
:10368000DAF8000010F074FBA642F7D198F8FB328C
:103690000393002B40F0448598F802C3634B674ABC
:1036A000B3F90410B2F90620654D664C614F88F8F5
:1036B00050C08CF0220383EA0313DBB2180980F0B8
:1036C0005900B2F5FA6F40EA032080EAC303A8BFAD
:1036D0004FF4FA621BB2B2F57A7F83EA0310B8BFE7
:1036E0004FF47A72C0B26426A2F57A72C3F307234C
:1036F00006FB02F283EA101385FB026584FB01647A
:1037000043EA0023D217C9174FF0000EC2EBA512EF
:10371000C1EBA40183EAC00306AECDF818E0CDF8F2
:103720001CE0CDF820E0CDF824E01CB2ADF82A2052
:10373000ADF82810B646BEE80F0084F0C80585EA4B
:103740000515EDB2C4F3072484EA151444EA0524F0
:103750000FC784EAC50212B282F04A0383EA031358
:10376000DBB2C2F3072181EA1311DEF8002047F82B
:10377000102941EA032105250CF1010281EAC30366
:103780009DF80CE088F8FB5214214A24FE20C8253D
:1037900088F851E088F80223A8F84C303A4607EB45
:1037A000010E88F8534088F84E0088F84F1088F8CA
:1037B000525012F8011B594081EA0111C9B208099F
:1037C00080EA132343EA012383EAC10109B28BB2E1
:1037D0007245A8F84C30ECD181F0140181EA011156
:1037E000C9B24FEA111E8EEA132E8EEA012E8EEA1E
:1037F000C10E44460FFA8EFE1FFA8EF954F84E0F92
:10380000094DA8F84C904FEA192C5FFA8EFE88F803
:1038100068E088F869C06168E368A2680FC520693C
:103820006169238B03C50FE0341F00202023002093
:1038300088C3E43A5C1C0020331F0020E4410020D0
:10384000D34D62106766666608F22B342B8008F24F
:103850004739254688F847C388F846E315F8011F1D
:10386000DAF8000010F084FA4D45F7D1D34BD44A72
:1038700093F8E7311278013B12F00400DBB214BF79
:10388000C0224022172B04D8CE490B4493F8243091
:103890000393CD4B19888B071ABF002342F0100207
:1038A000012311F4027F18BF022311F0100F18BF7B
:1038B000062311F0200F18BF1023002840F0DB87EB
:1038C000032198F802C306938CF0460383EA03139E
:1038D000D8B2030983F0920343EA002383EAC003CA
:1038E0001BB283EA0310C0B2C3F3072E8EEA101E88
:1038F0004EEA002E8EEAC00E0FFA8EFE8EF0C8053C
:103900009DF80C008DF81C0085EA05150023EDB22A
:103910000320CEF3072E8DF81D308DF81E208DF874
:103920001F108DF820008EEA151E96E807004EEA5B
:10393000052E8EEAC5052DB285EA051603C7F6B237
:10394000C5F3072181EA161141EA062181EAC6067C
:1039500098F854503A7032B2554085EA0515EDB2E8
:10396000C2F3072282EA151242EA052298F85500AE
:1039700098F8561098F8577098F8586098F85CE0E6
:1039800088F8533082EAC50212B2504080EA001033
:10399000C0B2C2F3072282EA101242EA002282EA8F
:1039A000C00212B2514081EA0111C9B2C2F307222A
:1039B00082EA111242EA012282EAC10212B257409F
:1039C00087EA0717FFB2C2F3072282EA171242EA18
:1039D000072282EAC70212B2564086EA0616F6B2FB
:1039E000C2F3072282EA161242EA062298F85950D8
:1039F00098F85A0098F85B1088F8513082EAC602AD
:103A000012B2554085EA0515EDB2C2F3072282EAEB
:103A1000151242EA052282EAC50212B2504080EA3B
:103A20000010C0B2C2F3072282EA101242EA00225A
:103A300082EAC00212B2514081EA0111C9B2C2F356
:103A4000072282EA111242EA012282EAC10213B27B
:103A50008EEA030282EA0212D2B2C3F3072383EA98
:103A6000121343EA022383EAC2031BB283F0320239
:103A700082EA0212D2B2C3F3072383EA121343EAA3
:103A8000022383EAC2031BB2504D88F850C09AB299
:103A9000170AFE260920C8210CF1010CDBB288F8B8
:103AA0004E6088F84F0088F8521088F802C3A8F8D2
:103AB0004C2088F85E7088F85D3028686968AA68CC
:103AC000B5F80CC005F2DE2607C605F2EE2586F82D
:103AD00002E0A6F800C088F83C7388F83B3314F87D
:103AE000011FDAF8000010F043F9A542F7D1029B5C
:103AF000C8F8EC32FFF748B9354B3649186810F072
:103B00000BF900232370FFF77ABA2C4A324B92F854
:103B10001752D8F89801D9F800101B884FF47A7220
:103B2000091A02FB05F2DCB200201B0A914288F858
:103B30008A4188F8804188F88B3188F8813188F88B
:103B40006E0188F8700180F0FE82244B244A1968C7
:103B500012682448019BC8F8683180FB013480FB5F
:103B60000230C917D317C3EBA003C1EBA402101294
:103B7000191288F8882188F8890188F88C3188F82A
:103B80008D11FFF76AB8184D286803685B6998477C
:103B900000283FF4E4A82868036801219B6998473E
:103BA0000222002332702370FFF7D9B8DFF840807B
:103BB0000E4E4FF0010A002725E000BFA44E002062
:103BC0005453002060310208CC380020561C0020DD
:103BD000F842002084530020584400205C44002018
:103BE000C822002067666666B44200209500002067
:103BF000081C00201B2B00F017820D2B00F0CC813D
:103C000086F801A0286810F0AFF8002836D02868A0
:103C100010F0A6F883B27E2BD9F8002028D0727855
:103C2000002AEFD198F8B2110029E3D07D2B00F0E3
:103C3000E58198F8B6E1BEF1000F04D080F02003D2
:103C4000DBB288F8B6214A1CD2B2092A08F8013042
:103C500088F8B22100F0C881082AD3D8B8F8B42176
:103C6000134403EB132303F0FF03A8F8B431C9E7AF
:103C700088F8B27188F8B3717770C3E798F8B731F4
:103C800033B198F8013088F8B701302B00F06F8518
:103C900098F8B351C74AC84FC84EDFF83CE398F8CC
:103CA000C81298F8DA32002D3FF43EA8002940F0FF
:103CB000CB81D9F80010091B012900F2BE8132F82E
:103CC000130040B30133B0F5826FDBB200F0C78060
:103CD00023D9B0F5E26F00F0938040F28480B0F514
:103CE000046F00F09280B0F5116F00F09D80B0F588
:103CF000E46FDED1B24A88F8DA32946B118964231A
:103D000003FB04F393FBF1F115F005FA002388F8A7
:103D1000B331FFF709B80123CBE7B0F5007F00F01E
:103D2000138112D8B0F5807F02D0B0F5887FC0D162
:103D3000316888F8DA324B07B1D5002115F0EBF97C
:103D4000002388F8B331FEF7EFBFB0F5047F00F031
:103D5000DA80B0F5806FACD198F8DD1288F8DA32ED
:103D60000131CBB2032B00F21E8142F2107188F8B0
:103D7000DD3201FB03F1934B1B78D80748BF0131BB
:103D80009A0748BF02315B078F4B1B8848BF04313D
:103D9000DF0748BF0A319E0748BF14311D0648BFE0
:103DA0002831DC0548BF2831580748BF64311A075D
:103DB00048BFC8319F0548BF01F5C8719E0648BF7E
:103DC00001F57A71DD0648BF01F5FA615C0648BF6E
:103DD00001F57A614FF4806015F09DF9002388F8B1
:103DE000B331FEF7A1BFB0F5C06F00F0C480B0F5ED
:103DF000E06F7FF45EAF724A88F8DA32146B7DE7C9
:103E00006F4A88F8DA32546B78E7704A88F8DA3209
:103E1000B2F9041001EB8101490015F07CF900238F
:103E200088F8B331FEF780BFDBF8001088F8DA328B
:103E30008B077FF534AF3B78002B3FF430AF644AFB
:103E4000128802EB820251004FF4116091FBF3F1F2
:103E500015F061F9002388F8B331FEF765BF3168CA
:103E600088F8DA3211F020017FF419AFDBF8003066
:103E7000180600F1CE839EF81832002B3FF40FAFE6
:103E800098F8DE12032900F20886DFE801F03228F4
:103E90001902D8F8E03259799A79DB7901F1407149
:103EA00001EB022101EB0341002388F8DE324FF4DD
:103EB000826015F030F9002388F8B331FEF734BF83
:103EC000444B1A68937D507D127D1B0403EB002345
:103ED00013444A1C88F8DE2203EB0161E7E73D4BFF
:103EE0001A68137BD07A927A1B0403EB00231344E5
:103EF000EFE7384B1A689378507812781B0403EB7D
:103F000000231344E5E7DBF8001088F8DA3289076C
:103F10007FF5C5AE3B78002B3FF4C1AE2E4A92F838
:103F20001622002A00F07181294A118891FBF3F1D1
:103F300001EB810149004FF4047015F0ECF8002307
:103F400088F8B331FEF7F0BEDBF8001088F8DA32FB
:103F500011F0082F3FF4A3AE204B21491B6881FBD1
:103F60000321DB17C3EBA10115F0D5F8002388F876
:103F7000B331FEF7D9BEDBF8001088F8DA3211F061
:103F8000082F3FF48CAE174B196815F0C4F80023C6
:103F900088F8B331FEF7C8BE88F8B2A188F80030BF
:103FA000A8F8B4112EE6012388F8DD3242F2107130
:103FB000E1E600BF60310208C5220020CC220020CB
:103FC000D022002054530020CC3800202023002091
:103FD0005844002028230020A44E00205C440020E8
:103FE00067666666C8220020B8F8B421C2F1FF02F5
:103FF00093427FF405AE88F8B7A101E688F8B6A130
:1040000000E60DF035FECC4B1A6840F6B833801A46
:10401000984200F28181C94D2B793A2B00F04283FE
:1040200000232370FEF79BBE28680FF09DFE00283A
:104030007FF4E6AD88F8B3A1E4E5002288F8DA322F
:1040400088F8B321FEF770BED9F80020141B012CAC
:104050008A46F2D8D8F8BC32B94D98F8DB22AB4288
:1040600000F02D84511C98F8DC52D8F8C07288F802
:10407000DB1202F00F028DF818200DF11902F91A67
:10408000002906AE0DF11E0403DC13E0002840F306
:1040900040810133C8F8BC3213F8011C02F8011B3F
:1040A000A242A7EB030085EA0105EFD388F8DC52B2
:1040B00000F01185501CA042157005D20EAB9A1A63
:1040C0001B3A00211EF070FA3146322015F008F834
:1040D0004FF0000A002388F8C8A288F8B331FEF731
:1040E00023BE013BDBB288F8A831002B00F0A88288
:1040F00098F8B00112F8011B98F8B131914CC8F84A
:10410000A42101330A18206888F8B02188F8B13159
:104110000FF02EFEFEF7F7BD0FF01EFEFEF7CDBD31
:10412000013B88F8FB32E2E4013D88F8FA52FFF7E0
:10413000ADBA013F88F8F372FFF7D3B9013B88F8B5
:10414000F232FFF7BFB8804AD9F800301278C8F8C9
:104150009831032A3FF4F9AC7C4B1B78934238BF6B
:104160001346013B012B3FF6F0AC1022022388F8E6
:104170006E2188F87031E8E4754B764C07930EAEEB
:10418000A3F1220246F8202DA3F124070022304695
:1041900003F8242C21217A70227019F0C3FD6E4B94
:1041A0001B68180140F13D836C4D4FF003096C4BC7
:1041B0001B88590500F1C582DA0700F19F8303F0DF
:1041C0000203684A002B1CBF4FF003091546013D4E
:1041D0000024013415F8011F304619F0A3FDA14554
:1041E000F7DC3046002119F09DFD069B5E4A9B1AC4
:1041F00030467B7019F07CFDFEF71CBF14F0BCFF4D
:104200005A4B01221A70FEF742BD594B19888FE6AE
:10421000534B1B88D80513D4D90600F173839A0633
:1042200000F156845F0600F15C84180700F18F846A
:10423000D90700F1A68413F0020F0CBF04250C254A
:104240004C4B4D4A1B78D278C3F380030AB143F03C
:1042500002035320029314F02BFF454A128802EB0D
:10426000820202EB8202900080B214F007FF00206D
:1042700014F004FF414A424912882068C2EBC2127E
:10428000520081FB02311144D717C7EB6127FFB2FF
:1042900039460FF06DFD3278029B20681D43574070
:1042A000002137700FF064FD294620680FF060FD93
:1042B000337820686B40DBB2194633700FF058FD3D
:1042C00098F8E832002B7EF4EFAE4F2014F0F0FEA9
:1042D00016F0D8FD16F0D6FD16F0D4FD01212068A9
:1042E0000FF046FD274B32781B78206803F001055C
:1042F00082F00102294632700FF03AFD33782068CF
:104300006B40194633700FF033FD98F8E832FEF732
:10431000CBBE88F8DC52CDE61B4AB2F8EA32002167
:104320000133A2F8EA322170FEF719BD01211868A5
:104330000FF012FDFEF7E5BCF4250020DC2500207F
:10434000C41D00207C440020842E0020852E0020E7
:10435000845300205E53002050530020EC5202088A
:10436000CC380020F0520208615300209500002054
:10437000584400205453002070230020BC3F0020EC
:10438000030820802C400020081C0020144696467C
:10439000114604920592039215461746FEF7C2BFD6
:1043A000022014F057FFB14EB8F9623186FB0312B8
:1043B000DC17C4EBA20424B2E0B214F027FFC4F36C
:1043C000072014F023FF032014F044FFA84B1B78B0
:1043D0005F0740F1348214F049F8A64BB3F9063078
:1043E00086FB0326DC17C4EB6604A4B228B9DBF80D
:1043F000003013F0100F18BF0024E0B214F006FFD5
:10440000200A14F003FF9C4ADBF800301A4204D063
:104410009A4F3B78002B40F0A38206AE3146984875
:1044200014F0B8FE132014F015FFBDF91840E0B2E7
:1044300014F0ECFEC4F3072014F0E8FE1B2014F087
:1044400009FFBDF91A40E0B214F0E0FEC4F3072002
:1044500014F0DCFE232014F0FDFE4E2014F0D6FEF6
:10446000002014F0D3FE3146854814F093FE12204C
:1044700014F0F0FEBDF91840E0B214F0C7FEC4F32A
:10448000072014F0C3FE1A2014F0E4FEBDF91A4010
:10449000E0B214F0BBFEC4F3072014F0B7FE2220F4
:1044A00014F0D8FE452014F0B1FE002014F0AEFE4A
:1044B0005E2128680FF05CFC98F86031FEF764BD5F
:1044C000704B714C07930EAEA3F1220146F8201DEC
:1044D00000270A2103F8231C304603F8247C082116
:1044E000277019F01FFC694B1C883046210A19F00F
:1044F00019FCE1B2304619F015FC654B5B4C1B68AA
:1045000084FB0324DB17C3EBA4043046C4F3072168
:1045100019F008FCE1B2304619F004FC5D4BB3F829
:104520006A410AF00FFE39468146304619F0FAFB1F
:104530003046210A19F0F6FBE1B2304619F0F2FBE1
:104540003046494619F0EEFB304619F0D1FBFEF734
:104550006EBD4C4B504E4C4F07930EACA3F1220155
:1045600044F8201D0022082103F8242C03F8231C02
:1045700020461E213A7019F0D5FBB6F902309FEDA6
:10458000478A07EE903AF8EEE77A204667EE887A97
:10459000FDEEE77ACDED027ABDF90870C7F3072189
:1045A00019F0C0FBF9B2204619F0BCFBB6F9003097
:1045B00007EE903AF8EEE77A204667EE887AFDEE4D
:1045C000E77ACDED027ABDF90870C7F3072119F03B
:1045D000A9FBF9B2204619F0A5FBB6F9043007EEA5
:1045E000903AF8EEE77A204667EE887AFDEEE77AB1
:1045F000CDED027ABDF90860C6F3072119F092FBF0
:104600002046F1B219F08EFB204619F071FBFEF73F
:104610000BBD10238A4604228DF81A108DF81B104A
:104620008DF81C108DF81D10184606A98DF818304D
:104630008DF8192014F054FD88F8B3A1FEF774BB6F
:1046400098F8B01198F8B13115484A1C0133006848
:1046500088F8B02188F8B1310FF08AFBFEF753BB20
:10466000019AC8F8A0211C70FEF711BB6766666648
:1046700054530020AC3F002002000008C522002057
:1046800080969800845300205E53002058440020F8
:104690005C440020A44E00202023002058A08B4121
:1046A0007C440020AF78C7B1013FFFB201372F44EF
:1046B0002E46002216F8013B534083EA0313DBB277
:1046C000120AD90042EA0322B74281EA131382EAAE
:1046D0000302EFD1002A7FF4A3AC8F4B8F4E1968F1
:1046E0008F4B904A1B680F6BDFF848E2B3648E4B28
:1046F0001268BEF800E0B066B262B3F8EA02C6F82B
:1047000018E00022B263B065002F00F023827B68BE
:10471000086C83423BBFCA681B1A1B1A9B18002BEC
:104720007EF418AB0B68814E9B69084602219847BE
:104730000423E878337009F007FA03232370FEF7A7
:104740000ABB4FF003097A4D41E57A4B754A1B8845
:10475000B2F9005003EB830303EB83039B009BB28E
:1047600003930AF0EFFC039B40B2FEF7F3BC98F80A
:1047700002305A09012A40F07E8103F00F0713F03E
:10478000100300F095816C4E98F8033098F80450AF
:10479000A8F8D602F11885EA030088F8B821334654
:1047A000C8F8CC62C8F8D012F21F88F8D802A8F86E
:1047B000D45298F8D802614E0CE012F8011BC8F8E8
:1047C000CC52B24280EA0100197007D2D8F8D01258
:1047D000D8F8CC32994203F10105EED1B24288F803
:1047E000D80200F0D981127898F8D8329A4200F0B5
:1047F0007B81534BC8F8BC3200220133B8F8D41285
:10480000C8F8C03288F8B82101234FF6F672A8F82C
:10481000C41288F8BC3188F8C832A8F8C622FFF75D
:1048200037BADBF80030474A474D03F48003002BCA
:1048300016BF15464FF004094FF00309B7E4434A89
:10484000434BB2F86A41A3FB0434A408D5E5102019
:1048500014F000FD204614F0D9FC204614F0D6FCDC
:10486000212014F0F7FC204614F0D0FC204614F070
:10487000CDFCFEF763BB3749C97800290CBF042182
:104880000521FFF71EB8012228681A700FF068FA98
:10489000044628680FF064FA64067EF4F8A98E28AE
:1048A0007EF4F5A998F89C31002B7EF40AAA2A4BD5
:1048B000C8F8A4312D2388F8A831FEF7EFB9B8F96C
:1048C000C612D8F8C072501C02F00F0242F010025B
:1048D0000029B8BF42F0200298F8C4128DF81820C1
:1048E0007A1B82EA0105EDB28DF8192088F8DB0207
:1048F00088F8DC520DF11A02FFF7C1BB4FF0040932
:10490000164D64E434259BE43C46BE463946049784
:104910000597FEF707BD00BFB4420020200300202A
:10492000C82200205C440020081C002091030020C5
:10493000FC52020858440020141C0020101C0020C7
:10494000C41D0020EC520208E4520208A44E0020CC
:10495000CDCCCCCC70230020741D0020F452020872
:10496000B8F86441DFF894A29A4EBAF80020240106
:104970006421A4B201FB02325B00B2FBF3F344EA10
:104980000324A4B2C3F303231C43062014F062FCE7
:10499000E0B214F03BFC200A14F038FCB8F86431A3
:1049A0003A7896F8150201339BB2012893FBF2F195
:1049B00002FB1133A8F8643100F0BD80BAF8001092
:1049C000854F6E2303FB01F396F8161287FB03074E
:1049D000DB17C3EBA70311B19BB293FBF2F37F4C40
:1049E0009FB2A4FB073464093A201FFA84FA14F03A
:1049F00031FC5FFA8AF014F009FC4FEA1A2014F037
:104A000005FC3B2014F026FC642303FB14739BB2CB
:104A10007348053380FB0320DB17C3EBA000C0B253
:104A200014F0F4FB002014F0F1FB282014F012FC29
:104A30006C4B6B4C1B6884FB0324DB17C3EBA40497
:104A4000E0B214F0E3FBC4F3072014F0DFFB042012
:104A500014F000FCB6F86A31002B40F08480624B01
:104A60001C6884F31004E0B214F0D0FBC4F30720F8
:104A700014F0CCFBD1E45D4B5D4AC8F8BC32591C44
:104A8000012388F8B80188F8BC01C8F8C012C8F83A
:104A9000C42288F8C832FFF7FBB84B1CDBB2042BEA
:104AA00088F8DE324FEA01617FF401AAFFF7FCB912
:104AB00098F8B821002A3FF4EBA898F8D9220132DF
:104AC00002F00F02BA4256D088F8B831FFF7E0B8CA
:104AD0002425FFF7B5BB3146322014F001FBFFF768
:104AE000F9BA1025FFF7ACBB424BD8F8CC22C8F876
:104AF000D022002603F52C72114603F5D875C8F8AC
:104B0000C02203F530703246C8F8BC52C8F8CC3227
:104B100088F8B861C8F8C462FBF73AFB013033D0BB
:104B2000D8F8BC32C8F8C0320123C8F8BC5288F8A3
:104B3000C832FFF7ADB8392014F08CFBBAF800404A
:104B4000E0B214F063FB200A14F060FB6DE720254F
:104B5000FFF776BBC8690B6A98423BBFCA68121858
:104B6000C31AD31ADBE50AF0EDFA14F04FFB00206C
:104B700014F04CFB51E4D8F8D012D8F8CC321E4ACD
:104B800017E60825FFF75CBBD8F8BC320222591C97
:104B9000C8F8BC121A70C3E788F8D972FFF778B862
:104BA0003C46BE463946049705970397FEF7BABBC5
:104BB0003C46FEF7B7BB3C46BE46FEF7B3BB3C46A1
:104BC000BE463946FEF7AEBB3C46BE463946049764
:104BD000FEF7A8BBA44E0020310CC3301F85EB515B
:104BE000676666665C440020C8220020C41D002061
:104BF0000000F6FF141C00200B1C0020584400206D
:104C00002DE9F04F764A7749137897B0044609901A
:104C100000F59C4020300D900860002B00F05C8572
:104C2000714909688C4240F2A68070497048D1F8F9
:104C300000900791013B04906E4913700068DFF803
:104C4000D8B1DFF8D8A1029109F4805308931BB1C1
:104C500010F0010301F04981674B05931F7807F0BD
:104C60000407029B93F89B31002B40F0E58419F474
:104C7000004F40F0318719F4807F0BD05F4B099AC9
:104C8000DFF89C819A4298F8023000F28580002B70
:104C900040F086805A4BBAF906205A4C069319F414
:104CA000805300F02681C10000F12381029DB5F8F8
:104CB0009E11B5F806514E1BB24240F3C0870D4419
:104CC000AA42B4BF0025012510F0006000F01C814D
:104CD000002F00F01D814C4A03921146029AB1F94F
:104CE0000610B2F8AA21914280F29187002D40F07F
:104CF00017819BF8C420002A40F01281434A1268B1
:104D000092F832200021CBF8C810CBF8CC10CBF8A9
:104D1000D010002A40F004818BF8D420002F00F03E
:104D2000058119F0100F00F00181394A1278D2067E
:104D300000F1FC80002B40F0F980002840F0F68064
:104D400019F4800F40F0F2802678002E01F0548490
:104D5000029B93F8E631002D41F0BF843BB12D4A10
:104D6000DBF8D83012689B1A002BC1F2AF84012304
:104D70008BF8DC30DBE01D4B1D4AD3F80090079325
:104D80001C4B029309F4805304921068DFF888B03A
:104D9000DFF888A008935AE713B9012388F8023096
:104DA00098F82150174C164ACDF80CB000F08063EB
:104DB0000893C34698F82030DFF858900692A04632
:104DC0003C462F46059D0026052B00F22C83DFE88C
:104DD00013F06C00DD02A30232004200580000BF55
:104DE00004260020C024002000260020504200207D
:104DF00050530020A44E002054530020404B4C0040
:104E0000CC3800208C190020AC3F00202823002043
:104E10002C4000206C49002068200020E441002044
:104E200070230020D9F8003047F230520323CBF82A
:104E30001C208BF820302B7843F002032B7015F0E8
:104E4000E5F8D9F80020DBF81C3013440422CBF835
:104E500018308BF82020012F41F0FC82D9F8003067
:104E6000DBF818209A4280F0DE8298F8003023B9EF
:104E7000049B1868C30701F1CB812B7823F0020350
:104E80002B70029B0699B3F8F021D9F800000B882B
:104E90008BF820604FF0640E0EFB020223F4806357
:104EA0008BF80360CBF810200B80002C40F056826A
:104EB000089B4446D846DDF80CB0002B40F07686BF
:104EC000069B1B8823F480639BB2059A1778069A89
:104ED00013800023C8F81030049BBAF90620186824
:104EE000079BD3F8009019F4805307F004077FF470
:104EF000DAAE0299B1F8A051AA42B4BF002501254B
:104F000010F000607FF4E4AE19F4800F7FF4E0AE9F
:104F100000228BF8C420704A0392002D3FF4EEAEBD
:104F200001228BF8D420002F7FF4FBAE2678029A62
:104F3000BAF900E0B2F8A011B2F8A221BAF9020061
:104F40007145B4BF8027002747F040037245D8BFA2
:104F50003B469B0843F080078142B8BF3B4643F085
:104F600040078242C8BF3B469B08BAF90470BAF9B1
:104F7000060043F0800EB942B8BF734643F0400EBE
:104F8000BA42C8BF73469B0843F080078842C8BF37
:104F90003B4643F040079BF8DDE09042B8BF3B46FC
:104FA0009E4500F0398500228BF8DD308BF8DE203D
:104FB00076B93246049B1B68DB0740F1638500230A
:104FC0008BF8DF30002D00F02786142A00F038859A
:104FD000079BD3F8009009F00401002940F0C58434
:104FE0003E4B0293002703F1500E1A4640F6330859
:104FF000192540F283344FF0010C92F8871392F890
:105000008803814215FB014617D292F886130431BA
:1050100015FB00403AF911104145A8BF4146B1F5D2
:10502000617FB8BF4FF461718E4206DA884204DBBB
:1050300092F885130CFA01F10F4304329645DCD146
:10504000274A049912780F60002A00F0F883254B54
:1050500008930B461A68950700F1C18119F4807F07
:1050600040F0B88106990B8823F001039BB25007EA
:105070000B8000F18C8523F002039BB2110502998D
:10508000069891F8E71156BF23F4807343F48073B8
:105090009BB20829038000F0F1820E2900F0EE8215
:1050A00019F4806F52D0029B93F81032002B40F01D
:1050B0008081059B1B785B0700F17E8118F04AFE1A
:1050C00001200BF0BBFC00283BD0074F00244FF021
:1050D000CC084FF003090CE0AC3F0020A44E0020A8
:1050E000CE380020E81E00208C4A0020DCB2022CC2
:1050F00027D808FB04F6631CBD59002DF6D1C378F0
:10510000BC4A90F9020052F823300195CDF8009086
:105110002A4601210BF00EFA034604EB440000EB93
:10512000001009934BB1294607EB8000CC221DF0FB
:105130003BFA099BBB510134E4B212F033FA002868
:10514000D5D1069B079A1B88D2F80090089ABAF925
:1051500006401268518901208C428BF8200180F2B0
:105160009F814FF07E52CBF82421029EBAF9005065
:10517000B6F89E0196F9742196F871E196F870617F
:10518000A5EB000808F2F31C40F2E6375242BC459A
:1051900092B240F27C814FF4FA71891B09B2039FED
:1051A000A842398001DD49423980BAF90250A5EBA5
:1051B000000808F2F31C40F2E637BC4540F25E817D
:1051C0004FF4FA71891B09B2039EA842718001DD78
:1051D00049427180BAF90450A5EB000C0CF2F317A8
:1051E00040F2E636B74200F243818CEAEC71A1EB63
:1051F000EC717145D8BF002100F33C81039E12FB86
:1052000001F28542B280BCBF5242B28019F4805193
:1052100000F01881B4F5FA6FA8BF4FF4FA64B4F542
:105220007A7FB8BF4FF47A74A4F57A74724EE2179D
:1052300086FB0475C2EB65120BEB42052F46B5F9F0
:105240002851B7F92A716FF0630E0EFB02427C1BE6
:1052500002FB04F286FB0246D217C2EB66122A4416
:10526000039C92B2E28021B104990968CE0000F15A
:1052700069865D0600F12D81059B1B785C0700F1B6
:10528000C781049A1268D00702D59BF88C201AB106
:10529000059A43F001031370584A1278110703D49A
:1052A000059A03F0FE031370BBF8E6201AB1544AC6
:1052B0001268920704D4BBF8E020002A00F0A68010
:1052C000059923F0010302220B708BF842210CF0A8
:1052D000CFFCDBF84431C01A00281ADB9BF84231BE
:1052E000012B00F05B86C0F05586022B09D1454B9F
:1052F0001B6833B11A689B88918A0B4218BF1B0444
:1053000093610CF0B5FC00F5F42000F59070CBF83B
:10531000440117B0BDE8F08F012F04BF05238BF8BF
:105320002030002C3FF47EAD029AD9F80010DBF853
:105330001400B2F99E31B2F9EC21AAF8003088428B
:10534000AAF80230AAF80430AAF80620FFF46CADDF
:10535000012F41F0D6819BF8203035E513F086F817
:10536000012801F0E980089B2BB1029B93F8EE31F4
:10537000002B41F0CE80012F55D0D9F80030DBF85A
:1053800010209A420BD301238BF82030012F3FF4D9
:1053900078AD029B93F8F231012B40F001840DF0BF
:1053A00067FF032240F6B8338BF82020CBF81C307F
:1053B00041E517037FF582AE3C2015F0DFFC0028A5
:1053C0003FF4BFAE08F082FE3C2015F097FC0028A9
:1053D000F8D1B6E60C4BDB78002B3FF443AE084B1C
:1053E0001B689C077FF53EAE069B1B8843F00103BC
:1053F00041E600BF304002081F85EB512C400020E1
:10540000CC220020F0520020702300209E49098801
:1054100064293FF655AFDB0756BF02238BF84221C4
:105420008BF8423153E7059BDDF80CB01F78049BE5
:10543000BAF906201868079B4446D3F8009007F095
:1054400004072CE4029AB2F8A051AC42C0F23C83AB
:10545000B4F5FA6FD4BFC5EB0404C5F5FA644FF494
:105460007A7202FB04F4C5F5FA65B4FBF5F4DDE6E7
:105470004FF4FA71A1EB0E0189B2BFE688EAE87138
:10548000A1EBE8718E42FFF69DAE00219CE688EA12
:10549000E871A1EBE8718E42FFF67FAE00217EE657
:1054A000B4F5FA6F80F21283107A621A02FB00F2EE
:1054B000C1F5FA6192FBF1F2C2F1640207EE902AA3
:1054C000F8EEE77A9FED717A67EE877ACBED497A4D
:1054D0004BE66F4B6F4AB3F90430BBF84011DFED78
:1054E0006E6A9FED6E7A82FB0302DB17C3EBA203A9
:1054F0005B1A1BB207EE903AF8EEE77A67EEA67AEF
:1055000077EE876ABDEEE66A16EE103A2033402B3E
:1055100040F2A384DFED626ABDEEE77A17EE103A3F
:105520002033402B00F295849FED5E7AF4EEC77A2B
:10553000F1EE10FA40F3F887DFED5B5A9FED5B6AFE
:1055400001E0F0EE477AF4EEC67AF1EE10FA37EEAB
:10555000E57AF6DCDFED567AB4EEE77AF1EE10FA92
:1055600040F1E687DFED505A9FED526A01E0B0EE60
:10557000677AB4EEC67AF1EE10FA77EE257AF6D4B1
:105580009FED467AF4EEC77AF1EE10FA00F36583E8
:105590009FED497AF4EEC77AF1EE10FA44BF9FED21
:1055A000447A77EE677A67EEA75A9FED445A9FEDEB
:1055B000446A9FED447AA5EE856A27EEA55AA5EECA
:1055C000867AE5EE077A0398B0F9023006EE103AD3
:1055D000B0F9003005EE903AB8EEC66AF8EEE55A3A
:1055E00027EEC67A65EEA77AA5EEA67A0146E6EE24
:1055F000267ABDEEC77AFDEEE77A17EE102A17EE8F
:10560000903A4380059B02801B785C077FF539AE9A
:105610002D4B2E4A1B78126803F00103002A3FF439
:1056200078AE002B938812680CBF102100218B40AC
:10563000936117B0BDE8F08F029A013B92F89D216B
:105640003AF91330002A40F0A682A3F57A73B3F535
:105650007A7FA8BF4FF47A7323EAE37307EE903A98
:105660009FED1B7AF8EEE77A67EE877A194AFCEE2F
:10567000E77A17EE903A1380FFF7FDBA23F0400364
:1056800006999BB20B800BE5382600200AD7233CF5
:10569000202300206766666635FA8E3CDB0FC93F23
:1056A00000000000DB0F4940DB0FC940E4CB16418E
:1056B000DB0F49C0E4CB16C1DB0FC9BF92E741B98C
:1056C0009730083C15A82ABEEC520020F05200206A
:1056D000AAF1823FBC3F0020DFF828B3B94B9BF80A
:1056E00000700293B84E002F00F07D82C7B1B54D17
:1056F000DFF814A3DFF8D08205F5BC790024072C6D
:105700004046E1B2736840F38587984700B20134A0
:10571000A7422AF8020F05F1040509F10109EED1AB
:10572000AA4B07931A46AA4BD2F80090099AA3FBFA
:1057300002239B0942F20102069319EA02030B932A
:1057400000F04D82A348A44AA44B0078A4490490D9
:1057500012781A70049B08702BB1A04B93F800E0EC
:105760008EF0010304939F4A029812783478B0F8BF
:10577000ACE190F8A8710C920594B0F8AE41B0F885
:105780009E010C9A13909BF82900974B0F940446A6
:105790001046A3FB00035B0803EB4303D31ADBB201
:1057A0000E9309F480530893069B9BF800108F4DCD
:1057B000DFF858A2DFF85882CDF80CE00F2204374A
:1057C00003F596738BF82820DDF82CE01092CDF8C5
:1057D0002CB0FFB28C4600200A93CDF84490A3462B
:1057E000129631B9059B9F428DBF9C46BC463946F7
:1057F0006146884280F2BA82049B002B00F05582F9
:105800007B4B039C33F910201FFA82F9A1454FEA24
:10581000400303D30F9CA14540F2958258F8202005
:10582000069C944280F04C823AF90320BEF1000FAE
:1058300040F062822AF8032001300635D1E79BF858
:10584000EBC06C4EDFF8CCE1099240F63309192524
:1058500040F283340127CDF820B093F8D61393F8A3
:10586000D723914215FB014031D293F8D58308F13B
:10587000040815FB02413AF918204A45A8BF4A46D8
:10588000B2F5617FB8BF4FF4617282421FDD8A4278
:105890001DDC93F8DA83089893F8D82393F8D9B3EA
:1058A00008EB480100EB8101013AD1F8F00002EB6E
:1058B0004202724482420AD007FA08F8C1F8F02086
:1058C000099A81F8ECB02CEA080CC1F8F4200633F0
:1058D0009E42C2D1484BDDF820B008931946404B98
:1058E000464A1B780968D2F80080454C09918BF82C
:1058F000EBC000254FF001091F46636853B31E78C3
:1059000046B3A268A8EB0202002A0ADB9BF8EB2050
:1059100009FA05F122EA010208F5FA718BF8EB2089
:10592000A160BFB1227859780432D2B2002940F088
:10593000898102993AF91220B1F89E1101F1C8004B
:10594000824240F3F1839B789BF8EB202A41D207F7
:1059500040F12F840135042D04F10C04CDD1079BB7
:10596000D3F80090049BFFF775BB9BF8E430ABB114
:10597000059B1B78580711D5029BBAF90620B3F88E
:10598000A0319A420ADD049B1B6813F0010107D184
:1059900032228BF8E410ABF8E82001E0049B1B688E
:1059A000D90340F10A819BF8EA302BB99BF8E23029
:1059B00013B93223ABF8E83001238BF8EA30FFF754
:1059C0000FBB00BFA44E0020D04100205042002059
:1059D000D34D6210A02400201003002011030020EA
:1059E00094230020DC410020ABAAAAAA9420002026
:1059F0006C200020FE4E0020E81E00206C49002094
:105A000054210020682000206A200020E44100206A
:105A100008420020AC3102089BF8DE20F92A00F28F
:105A2000EF800132D2B28BF8DE208BF8DD30002E11
:105A30003FF4C0AA142A7FF4CBAA5F2B00F07A832C
:105A4000059B1A78079BD3F8009012F004027FF4AC
:105A5000C2AA9BF8DD30572B00F0208519F0040115
:105A600000F000815A2B40F0FD809BF8E230002BC3
:105A700040F025869BF8E43083F001038BF8E43096
:105A8000FFF7ABBA059B1B785E077FF59EAAB04B6C
:105A90001B78002B3FF499AAAE4BDB78002B7FF4E8
:105AA00094AA9BF8DF300133DBB2032B8BF8DF3095
:105AB0007FF68BAA029B93F8E53113B9002D7FF492
:105AC00084AA14F0A3FAAEE00C46CCE4127AC2F138
:105AD000640207EE902AF3E4DBF89030099AD31AB7
