:020000040800F2
:1000000000200010AD6A0208ED33010835B3010885
:10001000E9330108E5330108E1330108000000007D
:10002000000000000000000000000000DD330108B7
:10003000D933010800000000D5330108059D0108EF
:10004000156B0208156B0208156B0208156B020888
:10005000156B0208156B0208F5C0000821C20008E4
:10006000E5C10008A9C100086DC1000835570008A6
:10007000255700081557000805570008F5560008D1
:10008000E1560008CD560008156B0208156B0208F2
:10009000613A0108156B0208156B020831C10008AE
:1000A000156B0208E9930108D9930108156B020842
:1000B00019940108156B0208156B0208156B0208EC
:1000C000156B0208156B0208156B0208156B020808
:1000D000156B020801560008F5550008156B02085B
:1000E000B9C00008156B02080D590208156B02080B
:1000F000F9930108156B020809940108156B0208B1
:10010000000000000000000000000000156B020865
:10011000156B0208156B0208156B0208156B0208B7
:10012000B9560008A5560008915600087D560008EB
:1001300069560008156B020800000000000000006E
:10014000156B0208156B0208156B02080000000011
:10015000000000000000000000000000000000009F
:100160000000000000000000156B0208156B02087B
:10017000156B0208000000000000000000000000F5
:0801800000000000156B0208ED
:100190002DE9F04FA84C2DED028B94F85C318FB017
:1001A0000546002B40F05C8194F81C32002B00F0D7
:1001B000A480D4F82032A14AEB1A934200F21084B2
:1001C00094F85A72002F39D0D4F86422002A00F033
:1001D0009480D4F86C3240F6B731EB1A8B4240F27F
:1001E0008C8094F86832002B40F03C84D4F8702264
:1001F000C4F86432927884F85A32022A01F24282B8
:100200008F4AD4F85C125068814201F02784136948
:10021000994202F0C583D369994201F01E840022FD
:10022000012391F90400009301924FF496430821B1
:1002300010F0D8F9C4F85C0201F034BAD4F85C02CA
:1002400003685B689847C0B2012840F2A780022883
:1002500040F09A807B4E3378002B42F04282D4F8F3
:100260006032EB1AB3F57A6FC0F09880D4F85C0274
:1002700003680122DB68327098470646D4F85C02B6
:100280000368DB689847760640F088808E2840F047
:10029000858094F85A32002B96D16B4BC4F86432A7
:1002A0002D2384F86832D4F870329A780123022A18
:1002B00084F85A3200F20A85614AD4F85C12506818
:1002C000814202F04F831069814201F09080D3692E
:1002D000994201F08B800022022391F904000093DF
:1002E00001924FF49643082110F07CF9C4F85C02A7
:1002F000002384F87432C4F86C521FF09BFC94F80D
:10030000763263B1514E306848B1514AD4F87832F0
:10031000D2F80080A8EB0303632B00F2CB8194F8A2
:10032000A732022B00F05382464E96F87430032B0E
:1003300000F0A58494F8C2326BB1D4F8C43253B142
:1003400019F09CFBD4F8C83244F61F62C31A9342DA
:10035000824600F24F8294F82434002B40F07681DC
:1003600094F8623433B1D4F8643403F5C333A03362
:100370009D421DD20FB0BDEC028BBDE8F08FD4F8CA
:100380005C020368DB689847D4F85C0203685B682A
:1003900098470028F3D12B4E01233370D4F8642200
:1003A000002AAAD094F85A32002B3FF47CAF10E711
:1003B00094F86834274AC4F8645402EB8302526A02
:1003C0004AB3254E0EADF31C45F8203D06F115014C
:1003D00000230791A4F86A3480211523A52784F807
:1003E0006E34284684F86D1484F86C74904728465F
:1003F000B4F86A140DF024FA069DAD1B152DA8BFA4
:1004000015252A46314606F1180027F033FC94F8EA
:10041000683484F89954114A013382FB0312A2EB29
:10042000E37202EB42029B1A84F868340FB0BDEC11
:10043000028BBDE8F08F00BF901C00203F0D030031
:10044000044C002000000020B41E0020C85F0020E3
:1004500088590020E0AA0208FC2000205655555576
:10046000DFF84CA2D4F86031DAF80020D31A7C2BE4
:100470007FF69AAE94F864319FED888AC4F86021C3
:100480000133894684F8643104F5CC782427D4F804
:10049000A80103685E211B689847D4F8A801036887
:1004A00039461B689847B4F87031F8EC016A07EEDA
:1004B000103AF8EEE66AB8EEC77A0137C6EE877AE8
:1004C000FFB267EE887AFDEEE77ACDED027ABDF9EC
:1004D0000860F0B21FF0F2FFC6F307201FF0EEFF36
:1004E000272FD4D1D4F8A80103685E211B68984750
:1004F000D4F8A801036830211B689847D4F8AC6190
:10050000F0B21FF0DBFFC6F307201FF0D7FFD4F8CF
:10051000A80103685E211B68984794F8643113F0C2
:10052000030642D1D4F8602141F288339A4202F2A4
:10053000F080D4F8A80103685E211B689847D4F8BE
:10054000A801036814211B689847554AB4F9D431AF
:10055000DE1782FB0323C6EBA30636B2F0B21FF010
:10056000ADFFC6F307201FF0A9FFD4F8A801036868
:100570005E211B689847D4F8A80103681C211B68FA
:100580009847D4F8A801036800211B689847D4F85D
:10059000A801036800211B689847D4F8A8010368E4
:1005A0005E211B68984794F86431580701F09F87D3
:1005B000282B7FF4F9ADD4F8A801DAF800600368BD
:1005C000384F1B684FF000085E2184F8648198471B
:1005D000D4F8A801036817211B689847D4F8A8012C
:1005E000036841461B6898472F4BA3FB06239B0BD0
:1005F000A7FB03125209C2EB0212A3EB8203D8B28B
:100600001FF05CFFD4F8A80103685E211B689847BF
:10061000D4F8A801036818211B689847234BA3FB53
:1006200006239B09A7FB03125209C2EB0212A3EB9C
:100630008203D8B21FF042FF40461FF03FFFD4F8BC
:10064000A80103685E211B689847ADE594F825244E
:10065000002A40F02A83D4F82C3403F5C333A033A6
:100660009D42FFF47DAE94F83064C4F82C54A31975
:1006700093F83474FA0701F10182BB0701F1448455
:100680007F0700F1E98694F86124013696FBF2F3C6
:1006900002FB136684F8306462E600BF00007A440F
:1006A000676666668988888873B2E745D34D6210AD
:1006B00088590020C44FDFF8209300233B70036863
:1006C00024211B6898473068036854211B689847A9
:1006D0003068036841211B689847B4F9D23130680B
:1006E00089FB0312DB17C3EBA2030FFA83FA03683B
:1006F0005FFA8AFB59461B689847397830688BEA5D
:10070000010139700368CAF3072A51461B689847EC
:100710003A78B4F9D031306889FB03E18AEA020201
:10072000DB173A70C3EBA10302680FFA83FA5FFA92
:100730008AFB136859469847397830688BEA01017B
:1007400039700368CAF3072A51461B6898473A78FC
:10075000B4F9D43130688AEA020289FB0319DB1745
:100760003A70C3EBA90301680FFA83F95FFA89FABB
:100770000B68514698473A7830688AEA02023A7024
:100780000368C9F307291B684946984739783068D8
:1007900089EA0101397003681B68984794F87C3234
:1007A00013F0010200F04987884AC4F878820133C7
:1007B000DBB2A2FB0312D20802EB8202A3EB4203DC
:1007C00084F87C3294F8A732022B7FF4ADAD19F097
:1007D00055F9D4F8A82240F6B833801A984200F2AE
:1007E000478794F8B4323A2B00F05781002384F8FD
:1007F000A7329FE594F8CE32002B40F07F82D4F8E8
:10080000D83203F00802002A48F603414AF60B40AA
:100810004BF60F4249F6074604BF02460E4613F058
:10082000040F4FF0190118BF16469B0684F8CE122C
:1008300003D546F4804646F02006D4F8D83113F0AC
:100840000207C6F3090841F0F9804FF0FF39642030
:100850004FF0000E06960796ADF82670CDF8208072
:10086000ADF828908DF83600ADF824E0CDF82AE0F8
:10087000CDF82EE0CDF832E006AF0FCF544E84F81D
:100880002DE00FC697E80F0007C626F8023B314659
:1008900001271B0CFE261F20C82201F81E3984F8F0
:1008A0002B0084F82E2084F82F7084F82A6094F8A6
:1008B000E26284F82C6086F0F10383EA0313DAB273
:1008C000130983F0E70343EA022383EAC2031BB25E
:1008D00083EA0312D2B2C3F3072383EA121343EA73
:1008E000022383EAC2031BB283F0C80282EA021227
:1008F000D2B2C3F3072383EA121343EA022383EA43
:10090000C2031BB283EA070080EA0010C0B2C3F33F
:10091000072282EA101242EA00223E4482EAC00024
:1009200084F8E262208501F11F0611F8013B434083
:1009300083EA0313DBB21A0982EA102242EA032295
:1009400082EAC3031BB298B2B1422085EDD183F095
:100950007C0181EA0111C9B20B0983EA102383EA01
:10096000012383EAC1031BB29AB24FEA122C5FFA49
:1009700083FEDFF86880228584F850C084F84FE059
:1009800004F12A0704F14A0938687968BA68FB68F3
:1009900046460FC610374F45B046F5D1386830602F
:1009A0000C4E3B7988F8043006F1270784F831E3D0
:1009B00084F832C3D4F8C40216F8011F03681B6818
:1009C0009847B742F6D19CE1CC5F0020CDCCCCCC8F
:1009D000C01C00209B1F0020676666669C1F0020CD
:1009E000B4F80A32D4F85462BC4FD4F850123A68C2
:1009F000D8B21B0A84F8433284F8393284F84202B0
:100A000084F83802307C4FF47A73521A03FB00F3F7
:100A100000219A4284F8261284F8281280F0F1848A
:100A2000D4F81822D4F81412AD4894F85A72C4F8C5
:100A3000205280FB013680FB0230C917D317C3EB6D
:100A4000A003C1EBA6021012191284F8402284F808
:100A5000410284F8443284F84512002F7FF4B4AB8D
:100A6000FFF7ECBB013BDBB284F86832D4F85C02E0
:100A7000002B01F0278612F8011B94F8746294F899
:100A800075320768C4F8642201338A193F6884F814
:100A9000742284F87532B8472DE494F8B272C7B165
:100AA000013FFFB28F4E01373744002216F8013B59
:100AB000534083EA0313DBB2120AD90042EA03224D
:100AC000B74281EA131382EA0302EFD1002A7FF4CE
:100AD0008DAED4F8BC12844E0B6BB4F80A22D4F855
:100AE0001472F066F261D4F8C801D4F81822F762E3
:100AF000B4F8AC72F063F264F765002B01F0F9878B
:100B00005B680A6C93423BBFCF689B1A9F1AFF1821
:100B1000002F7FF40AAC0B6808469B6902219847B6
:100B200094F8C09294F8B3320293B9F1640F4FF085
:100B3000040386F8743041F0368794F8C132072BED
:100B400001F0F18703F101095FFA89F903F0F0027E
:100B500003F00F0706EB03180592D8F80410049170
:100B6000084625F0CFF8D8F8083003935FFA80F8EC
:100B7000184625F0C7F8059ADFF87CA1A2725FFA43
:100B800080FB08EB0B0208320BEBC8000499E27102
:100B9000A07342460AF10900677327F06BF8039BC4
:100BA00008F1090019465A46504427F063F8E379E2
:100BB00003F1010EC3B1581EC0B208304B4F2044A0
:100BC0000AF10101002311F8012B5A4093004FEA6A
:100BD000D20C83EA42030CF0180C534047FA0CF293
:100BE00053408842DBB2EED10AF80E30E3799DF82B
:100BF0000820E27003F03F039A1C03F10A0E6271B1
:100C000084F802E03A4C0833E0182746002217F82F
:100C1000013B534083EA0313DBB2120AD90042EAD4
:100C2000032281EA131353401BB2B8429AB2EED1A9
:100C3000A644120A0EF8023CA37884F8C192234419
:100C40004FF0000903F8012C84F8C092A3786BB12F
:100C50000027D4F8BC02E15D03681B6898470137A0
:100C6000A378FFB2BB42F4D894F8C092032309F1F1
:100C7000010984F8C09286F8743084F8A732D4F859
:100C8000BC0203685B69984700283FF453ABD4F873
:100C9000BC02036801219B6998470222002386F861
:100CA000742084F8A732FFF745BBD4F82864336872
:100CB000D3F81C801746B8F1000F00F0BB83304614
:100CC0000C49C047002384F82534C4E4D4F85C02FE
:100CD000036802219B699847FFF70ABB88590020E7
:100CE00067666666401F0020000000200007090EAE
:100CF000901C0020C81D0020961C0020013B84F899
:100D0000CE3294F8CF2292BB874B94F814141B6810
:100D10000A2084F8CF02002900F0DC840129B4F80D
:100D2000E08141F217870229B4F8E2B101F0608551
:100D30000329B4F8E4E101F00687B4F8E601039072
:100D4000042901F0FA860529B4F8E80101F01287B8
:100D50000629B4F8EAC101F009870729B4F8EC7153
:100D600001F00187B4F8EE21029200F0BBBC013A19
:100D700084F8CF2294F8D672002F40F0E180B4F9C5
:100D8000D03194F8E2E2B4F9D2119FED686A84F8A8
:100D90002D7006EE903AB4F9D43107EE103A624B5A
:100DA0001B6806938EF06A0383EA0313DAB2130911
:100DB00083F0D50343EA022383EAC2031BB283EA2A
:100DC00003124942D2B207EE901AC3F3072383EA13
:100DD000121343EA0223F8EEE77AF8EEE66AB8EE79
:100DE000C77A83EAC2031BB267EE867A66EE866A2A
:100DF00027EE067A002083F0C806CDED087ACDED07
:100E0000076A8DED097A0A900B900C9086EA061C11
:100E10000DF118085FFA8CFCC3F30726B8E80F0041
:100E200086EA1C1646EA0C2686EACC06DFF804C1E0
:100E300036B2ACE80F0086F01E0798E8070087EA94
:100E40000713DBB2C6F3072787EA131747EA03271E
:100E50008CE8070087EAC3071C21ACF110064FF0AD
:100E600005094FF01E08FE20C8220EF1010384F888
:100E70002B1084F8D69284F82F8084F82A0084F806
:100E80002E20711884F82CE0278584F8E23216F8B9
:100E9000013B7B4083EA0313DBB21A0982EA172283
:100EA00042EA032282EAC3031BB29FB28E42278525
:100EB000EDD183F0270282EA0212D2B2130983EA4B
:100EC000172383EA022383EAC2031BB29AB24FEAD2
:100ED000122C5FFA83FEDFF86080228584F84DC013
:100EE00084F84CE004F12A0704F14A09386879686B
:100EF000BA68FB6846460FC610374F45B046F5D175
:100F00000B4E3B88A8F8003006F1240784F82EE346
:100F100084F82FC3D4F8C40216F8011F03681B68B5
:100F20009847B742F6D10EE08859002088C3E43ACA
:100F30009B1F0020C01C00209C1F00200AD7233CC0
:100F4000013F84F8D67294F8D792B9F1000F40F0BF
:100F50004882D4F8D832052213F0140F84F8D7222F
:100F600000F0A783D4F820341FED0C7A07EE903AF6
:100F7000F8EEE77A67EE877A94F8E272B4F9E66100
:100F8000B4F9D42172487349CDED087A87F0220371
:100F900083EA03135FFA83FE4FEA1E1383F05903BB
:100FA000B6F5FA6F43EA0E2383EACE03A8BF4FF4E7
:100FB000FA661BB2B6F57A7F83EA031EB8BF4FF418
:100FC0007A764FF0640C5FFA8EFEA6F57A76C3F35C
:100FD00007230CFB06F683EA1E1381FB02C180FB8C
:100FE00006C043EA0E28F617D2174FF0000BC6EBE7
:100FF000A010C2EBA10388EACE080FFA88F8ADF87A
:101000002A00ADF82830CDF818B0CDF81CB0CDF8D6
:1010100024B00DF1180EBEE80F0088F0C80C8CEA61
:101020000C1C5FFA8CFCC8F3072686EA1C16DFF856
:101030003081DEF800E084F82C7046EA0C26A8E83F
:101040000F0086EACC031BB283F04A0686EA061636
:10105000F6B2C3F3072282EA161248F810E942EA10
:1010600006224A2382EAC6064FF0140E01374FF0DB
:10107000FE0C002284F82F30C82384F8E272268503
:10108000414608EB0E0084F82AC084F82BE084F86F
:101090002D2084F82E3011F8013B734083EA0313AE
:1010A000DBB21A0982EA162242EA032282EAC30369
:1010B0001BB29EB281422685EDD183F0140383EAF0
:1010C0000313DBB24FEA131E8EEA162E8EEA032EAE
:1010D0008EEAC30E26460FFA8EFE1FFA8EFB56F8D6
:1010E0002A0F1D4FA4F828B04FEA1B2C5FFA8EFE82
:1010F00084F844E084F845C07168F368B2680FC7AB
:1011000030697169338B03C704F20B363B8004F2FC
:10111000273B374684F827C384F826E3D4F8C40273
:1011200017F8011F03681B689847BB45F6D10B4BA6
:1011300094F8D62193F8CF31013B12F00401DBB2D1
:1011400014BFC0224022172B40F2AB830AE000BF3D
:10115000D34D6210676666669C1F0020245A0020EB
:10116000C01C0020B4F87E0287071ABF002342F09B
:101170001002012310F4027F18BF022310F0100F99
:1011800018BF062310F0200F18BF1023002941F0CC
:10119000FE82032194F8E272069387F0460383EA05
:1011A0000313D8B2030983F0920343EA002383EACE
:1011B000C0031BB283EA0310C0B2C3F3072383EA60
:1011C000101343EA002383EAC0031BB283F0C80E66
:1011D0008EEA0E1E5FFA8EFE4FF0000C0320C3F362
:1011E00007238DF81C908DF81E208DF81DC08DF8FA
:1011F0001F108DF8200083EA1E1306AA07CA43EACF
:101200000E2383EACE031BB283EA031EA8E8030081
:101210005FFA8EFEC3F3072383EA1E1343EA0E230D
:1012200083EACE0394F830E088F800201BB28EEAFF
:10123000030282EA0212D2B2C3F3072383EA121333
:1012400043EA022394F8310094F8321094F8338082
:1012500094F834E084F82FC083EAC2031BB25840EC
:1012600080EA0010C0B2C3F3072383EA101343EAF5
:10127000002383EAC0031BB2594081EA0111C9B2BD
:10128000C3F3072383EA111343EA012383EAC1036B
:101290001BB288EA030888EA08185FFA88F8C3F3E3
:1012A000072383EA181343EA082383EAC8031BB21F
:1012B0008EEA030E8EEA0E1E5FFA8EFEC3F307233C
:1012C00083EA1E1343EA0E2394F8350094F836108F
:1012D00094F8372094F8388084F82DC083EACE0340
:1012E0001BB2584080EA0010C0B2C3F3072383EA60
:1012F000101343EA002383EAC0031BB2594081EA7A
:101300000111C9B2C3F3072383EA111343EA01238E
:1013100083EAC1031BB25A4082EA0212D2B2C3F37B
:10132000072383EA121343EA022383EAC2031BB2B0
:1013300088EA030282EA0212D2B2C3F3072383EAE5
:10134000121343EA022383EAC2031BB283F0320280
:1013500082EA0212D2B2C3F3072383EA121343EAEA
:10136000022383EAC2031BB2DFF85CE384F82C702B
:101370009AB24FF0FE0C0920C8214FEA122901371A
:10138000DBB284F82AC084F82E1084F82B0084F88D
:10139000E272228584F83A9084F83930DEF8000051
:1013A000DEF80410DEF80820BEF80CB00EF2E22CD5
:1013B000ACE807000EF2F2278CF80280ACF800B01F
:1013C00084F81C9384F81B33D4F8C40216F8011F68
:1013D00003681B689847B742F6D1C4F8C8A2FEF765
:1013E000BABF09F1FF3984F8D792F6E7022303EB7D
:1013F000430302EB830300221A815A60CA62FEF79C
:101400006ABF94F858223B68C4F85032032A3FF46C
:1014100007AB94F85932934238BF1346013B012B76
:101420003FF6FEAA1022022384F8262284F82832EE
:10143000FFF7F6BADFF8948200E033689B68304625
:1014400098470028F9D0336818F8011B1B6830460C
:101450009847013FF1D135E4D4F8DC212120002365
:10146000712184F83E04D00084F83C3484F83D3483
:1014700084F8601440F1D4828F484FF0030CB4F824
:101480007E32590501F13281DA0701F1988103F0CA
:1014900002038A4A002B1CBF4FF0030C1046DFF8F2
:1014A000308201384746712300216FF02A0E10F870
:1014B000012F07F8012B53405A0013F0800F82F0E0
:1014C000D509D2B25FFA89F908BF91464FEA4902BD
:1014D00082F0D50319F0800F5FFA83F9D3B218BFF9
:1014E0004B464FEA430913F0800F89F0D5025FFAAB
:1014F00089F9D2B208BF4A464FEA420912F0800F7A
:1015000089F0D5035FFA89F9DBB208BF4B464FEA91
:10151000430913F0800F89F0D5025FFA89F9D2B23E
:1015200008BF4A464FEA420912F0800F89F0D503FE
:101530005FFA89F9DBB208BF4B464FEA430913F063
:10154000800F89F0D5025FFA89F9D2B208BF4A4606
:10155000530083F0D50912F0800F01F101015FFA09
:1015600089F2DBB218BF13468C45A0DC5A0082EA30
:101570000E0113F0800FC9B2D3B218BF0B46590049
:1015800081EA0E0213F0800FC9B2D3B208BF0B4636
:10159000590081EA0E0213F0800FC9B2D2B208BF1F
:1015A0000A46530083EA0E0112F0800FCAB2DBB282
:1015B00018BF1346590081EA0E0213F0800FC9B21A
:1015C000D2B208BF0A46530083EA0E0112F0800F20
:1015D000DBB2CAB208BF1A46530083EA0E0112F00A
:1015E000800FDBB2CAB208EB0C0708BF1A463449B9
:1015F000500007F10209A9EB010980EA0E0312F07D
:10160000800FC0B2DBB208BF0346B9F1240FA8BFF8
:101610004FF02409A7EB010E002208F80C20A1F5D9
:10162000417084F83DE44A467B7084F8603426F0CB
:1016300021FB84F82594FFF726B8B4F87E32D9054B
:1016400000F13481D80601F1BF80990601F186814D
:101650005A0601F18A81180701F15E82D90701F16A
:10166000688213F0020F0CBF04230C2302931EE1C7
:10167000B4F8AC3200220133A4F8AC3284F8A722CB
:10168000FEF758BED4F85C02036801219B699847B5
:10169000D4F85C0206E0D4F85C020368DB68984783
:1016A000D4F85C0203685B6898470028F3D1FEF722
:1016B00022BEDFED047A5FE4BCCB0208C8CB02088F
:1016C000CC20002000000000BA1C0020C81D002013
:1016D000CF2000200F468C46084603918E468B464D
:1016E0008846029194F8E262069386F0300383EA1A
:1016F0000313DBB24FEA1319B4F8A412C44A84F8F6
:101700002C6089F07A09C1EB012149EA032989EAB1
:10171000C30382FB01298944C917C1EB69214FF03A
:10172000000968F30F09039A8DF82D104FF0000897
:101730006EF30F084FF0000E62F31F481BB260F308
:101740000F0E029ACDF82080002067F30F0083EA85
:101750000317FFB26CF31F4E6BF31F4962F31F4078
:101760004FF0000CC3F3072383EA1713CDF81C9046
:10177000CDF824E00A908DF82CC00DF1180E43EA44
:101780000728BEE80F0088EAC7073FB287F0C809FC
:10179000DFF8888284F82DC089EA0919A8E80F00CB
:1017A0005FFA89F9C7F3072787EA19139EE8030050
:1017B00043EA092383EAC9031BB248F8040B83F008
:1017C000230787EA0717FFB24046C3F3072282EADE
:1017D000171242EA072220F8141982EAC7070136D5
:1017E00016224FF023084FF0FE0EC82384F8E26261
:1017F0002785811884F82F8084F82AE084F82B202C
:1018000084F82E3010F8013B7B4083EA0313DBB2EF
:101810001A0982EA172242EA032282EAC3031BB2B0
:101820009FB288422785EDD183F0F40181EA01114E
:10183000C9B20E0986EA172686EA012686EAC1069B
:10184000A64636B21FFA86F85EF82A0F714FA4F842
:1018500028804FEA182CF6B284F8466084F847C016
:10186000DEF80410DEF80820DEF80C300FC7DEF8D2
:101870001000DEF81410DEF8182004F20B3807C749
:1018800004F2293784F829C384F82863D4F8C40201
:1018900018F8011F03681B6898474745F6D1FFF702
:1018A00069BA5D48034493F80C905BE4029294F8A3
:1018B000D6A194F88332CAF3800A0BB14AF0020A27
:1018C0004FF0000B306887F800B0036824211B68D4
:1018D00098473068036854211B689847306803684C
:1018E00053211B689847B4F80A32306803EB83032E
:1018F00003EB83034FEA830902681FFA89F95FFA51
:1019000089F319461268039390473A78039B30682D
:1019100053403B7003684FEA192949461B689847B2
:101920003B78306889EA03033B70036859461B68BB
:1019300098473068036859461B689847B4F8A43242
:10194000334A3068C3EBC3135B0082FB03121A44B3
:101950004FEAE379C9EB622903685FFA89F94946DE
:101960001B6898473B78306889EA030987F800903C
:10197000036859461B6898473068029A036842EA30
:101980000A0A51461B689847397830688AEA010A82
:101990005FFA8AF1397003681B68984794F87C32C3
:1019A000002B7EF401AF30683B70036824211B6874
:1019B00098473068036854211B689847306803686B
:1019C0004F211B68984724F07FF924F07DF924F01B
:1019D0007BF93068036801211B6898473B783068C1
:1019E00094F8A69283F001033B70036809F00109A3
:1019F0001B68494698473978306889EA010139708F
:101A000003681B68984794F87C32FEF7CDBE00BF90
:101A1000030820809C1F0020E0AA0208C01C0020B0
:101A2000D4F8D831124A134803F48003002B0ABFBC
:101A300010464FF0030C4FF0040C20E5B4F80A32C6
:101A4000B4F9149203EB830303EB83039F0015F0B7
:101A5000CFFCBFB240B2FEF7FBBE022303EB430351
:101A600002EB830300221A815A60CA62FEF7D7BBD9
:101A7000C0CB0208BCCB020858A08B41B4F9D231CC
:101A80001FED036A06EE903AF8EEE66AB4F9D0313B
:101A900066EE866A07EE103AFDEEE66AB4F9D431D6
:101AA000CDED026ABDF90800C0F3072888F0FA02FC
:101AB00007EE903A530012F0800F83F0D502DBB2AC
:101AC000D2B208BF1A46530012F0800F83F0D5023D
:101AD000DBB2D2B208BF1A46530012F0800F83F077
:101AE000D502DBB2D2B208BF1A46530012F0800F03
:101AF00083F0D502DBB2D2B208BF1A46530012F00F
:101B0000800F83F0D502DBB2D2B208BF1A46530071
:101B100012F0800F83F0D502DBB2D2B208BF1A46B2
:101B2000530012F0800F83F0D502D2B2DBB218BF9F
:101B300013465A0013F0800F82F0D503D2B2C0B220
:101B4000DBB208BF134643405A0013F0800F82F007
:101B5000D503DBB2D2B218BF1A46530012F0800F81
:101B600083F0D502DBB2D2B208BF1A46530012F09E
:101B7000800F83F0D502DBB2D2B208BF1A46530001
:101B800012F0800F83F0D502DBB2D2B208BF1A4642
:101B9000530012F0800F83F0D502DBB2D2B208BF3F
:101BA0001A465300B8EEC77A12F0800F83F0D502C0
:101BB000DBB2D2B227EE067A08BF1A46530012F003
:101BC000800FBDEEC77A83F0D502D2B2DBB28DEDC5
:101BD000037A18BF13465A00BDF90C1084F83F84ED
:101BE00013F0800F82F0D503D2B2C1F3072CDBB221
:101BF00008BF13468CEA030313F0800F4FEA430338
:101C000083F0D502D2B2DBB218BF134613F0800FB7
:101C10004FEA430383F0D502D2B2DBB218BF1346BA
:101C200013F0800F4FEA430383F0D502D2B2DBB248
:101C300018BF134613F0800F4FEA430383F0D50219
:101C4000D2B2DBB218BF134613F0800F4FEA430342
:101C500083F0D502D2B2DBB218BF134613F0800F67
:101C60004FEA430383F0D502D2B2DBB218BF13466A
:101C700013F0800F4FEA430383F0D502D2B2DBB2F8
:101C800018BF134613F0800F4FEA430383F0D502C9
:101C9000D2B2C9B2DBB218BF13464B4013F0800F6B
:101CA0004FEA430383F0D502D2B2DBB218BF13462A
:101CB00013F0800F4FEA430383F0D502D2B2DBB2B8
:101CC00018BF134613F0800F4FEA430383F0D50289
:101CD000D2B2DBB218BF134613F0800F4FEA4303B2
:101CE00083F0D502D2B2DBB218BF134613F0800FD7
:101CF0004FEA430383F0D502D2B2DBB218BF1346DA
:101D000013F0800F4FEA430383F0D502D2B2DBB267
:101D1000F8EEE77A18BF13465A0013F0800F67EE0B
:101D2000867A82F0D5035FFA83FEFDEEE77AD3B2BE
:101D300018BF73465A0013F0800FCDED027A82F07F
:101D4000D503D2B2DBB208BF1346BDF9082084F830
:101D50004004C2F3072E8EEA030313F0800F4FEA0C
:101D6000430383F0D5095FFA89F9DBB218BF4B460C
:101D700013F0800F4FEA430383F0D5095FFA89F926
:101D8000DBB218BF4B4613F0800F4FEA430383F0DA
:101D9000D5095FFA89F9DBB218BF4B4613F0800F03
:101DA0004FEA430383F0D5095FFA89F9DBB218BF24
:101DB0004B4613F0800F4FEA430383F0D5095FFAD7
:101DC00089F9DBB218BF4B4613F0800F4FEA43038B
:101DD00083F0D5095FFA89F9DBB218BF4B4613F0DF
:101DE000800F4FEA430383F0D5095FFA89FA5FFA5F
:101DF00083F918BFD14619F0800F4FEA490989F0DD
:101E0000D5035FFA89F9D2B2DBB208BF4B46534023
:101E100013F0800F4FEA430383F0D5095FFA89F985
:101E2000DBB218BF4B4613F0800F4FEA430383F039
:101E3000D5095FFA89F9DBB218BF4B4613F0800F62
:101E40004FEA430383F0D5095FFA89F9DBB218BF83
:101E50004B4613F0800F4FEA430383F0D5095FFA36
:101E600089F9DBB218BF4B4613F0800F4FEA4303EA
:101E700083F0D5095FFA89F9DBB218BF4B4613F03E
:101E8000800F4FEA430383F0D5095FFA89F9DBB28B
:101E900018BF4B4613F0800F4FEA430383F0D50978
:101EA0005FFA89F9DBB218BF4B4613F0800F4FEA97
:101EB000430383F0D508DBB25FFA88F884F841C4A5
:101EC00008BF984684F8421408201E210D4B84F860
:101ED00043E44FF0000C84F8442484F8458484F8EB
:101EE0003CC484F83D0484F83E1493E80700A3F54D
:101EF000417303C30A2184F860841A8084F825148E
:101F0000FEF7BBBBCC200020B4F80A12D4F8142290
:101F1000DFF8C8E8080A80F0290C4FEA4C031CF0EF
:101F2000800F83F0D50CDBB25FFA8CFC08BF9C46B7
:101F30004FEA4C031CF0800F83F0D50CDBB25FFA44
:101F40008CFC08BF9C464FEA4C031CF0800F83F0CA
:101F5000D50CDBB25FFA8CFC08BF9C464FEA4C0301
:101F60001CF0800F83F0D50CDBB25FFA8CFC08BF4D
:101F70009C464FEA4C031CF0800F83F0D50CDBB27B
:101F80005FFA8CFC08BF9C464FEA4C031CF0800FA4
:101F900083F0D50CDBB25FFA8CFC08BF9C464FEA9D
:101FA0004C031CF0800F83F0D50C5FFA8CFCDBB285
:101FB00018BF63464FEA430C13F0800F8CF0D50333
:101FC0005FFA8CFCC9B2DBB208BF63464B404FEAF4
:101FD000430C13F0800F8CF0D503DBB25FFA8CFC5E
:101FE00018BF9C464FEA4C031CF0800F83F0D50CC1
:101FF000DBB25FFA8CFC08BF9C464FEA4C031CF036
:10200000800F83F0D50CDBB25FFA8CFC08BF9C46D6
:102010004FEA4C031CF0800F83F0D50CDBB25FFA63
:102020008CFC08BF9C464FEA4C031CF0800F83F0E9
:10203000D50CDBB25FFA8CFC08BF9C464FEA4C0320
:102040001CF0800F83F0D50CDBB25FFA8CFC08BF6C
:102050009C464FEA4C031CF0800F83F0D50C5FFACE
:102060008CFCDBB218BF634613F0800F8EFB02CEF0
:102070004FEA43034FEAE272C2EBAE0283F0D50EA1
:102080005FFA8EFEDBB218BF7346C2F3072E8EEAEC
:1020900003034FEA430C13F0800F8CF0D503DBB23F
:1020A0005FFA8CFC18BF9C464FEA4C031CF0800F73
:1020B00083F0D50CDBB25FFA8CFC08BF9C464FEA7C
:1020C0004C031CF0800F83F0D50CDBB25FFA8CFC64
:1020D00008BF9C464FEA4C031CF0800F83F0D50CE0
:1020E000DBB25FFA8CFC08BF9C464FEA4C031CF045
:1020F000800F83F0D50CDBB25FFA8CFC08BF9C46E6
:102100004FEA4C031CF0800F83F0D50CDBB25FFA72
:102110008CFC08BF9C464FEA4C031CF0800F83F0F8
:10212000D50C5FFA8CFCDBB218BF63464FEA430C58
:1021300013F0800F8CF0D5035FFA8CFCD2B2DBB2C7
:1021400008BF634653404FEA430C13F0800F8CF0F6
:10215000D503DBB25FFA8CFC18BF9C464FEA4C03F8
:102160001CF0800F83F0D50CDBB25FFA8CFC08BF4B
:102170009C464FEA4C031CF0800F83F0D50CDBB279
:102180005FFA8CFC08BF9C464FEA4C031CF0800FA2
:1021900083F0D50CDBB25FFA8CFC08BF9C464FEA9B
:1021A0004C031CF0800F83F0D50CDBB25FFA8CFC83
:1021B00008BF9C464FEA4C031CF0800F83F0D50CFF
:1021C000DBB25FFA8CFC08BF9C464FEA4C031CF064
:1021D000800F83F0D50C5FFA8CFCDBB218BF63462E
:1021E0004FEA430C13F0800F8CF0D50AD4F8043278
:1021F00084F840145FFA8CFC5FFA8AFA4FF00A0107
:1022000008BFE2464FF0000884F842240822B3F8E1
:102210000E9084F841E484F83D1484F83E2484F858
:102220003F0484F860A484F83C8415F0E1F84FEA98
:102230004A031AF0800F83F0D502DBB2D2B208BF96
:102240001A46530012F0800F83F0D502DBB2D2B2EF
:1022500008BF1A46530012F0800F83F0D502DBB29C
:10226000D2B208BF1A46530012F0800F83F0D50295
:10227000DBB2D2B208BF1A46530012F0800F83F0CF
:10228000D502DBB2D2B208BF1A46530012F0800F5B
:1022900083F0D502DBB2D2B208BF1A46530012F067
:1022A000800F83F0D502D2B2DBB218BF13465A00BA
:1022B00013F0800F82F0D503D2B24FEA1921DBB2BE
:1022C00008BF13464B405A0013F0800F82F0D5032D
:1022D000DBB2D2B218BF1A46530012F0800F83F05F
:1022E000D502DBB2D2B208BF1A46530012F0800FFB
:1022F00083F0D502DBB2D2B208BF1A46530012F007
:10230000800F83F0D502DBB2D2B208BF1A46530069
:1023100012F0800F83F0D502DBB2D2B208BF1A46AA
:10232000530012F0800F83F0D502DBB2D2B208BFA7
:102330001A46530012F0800F83F0D502D2B2DBB2FE
:1023400018BF13465A0013F0800F5FFA82FE82F026
:10235000D503DBB25FFA89F208BF734653404FEAF8
:10236000430E13F0800F8EF0D503DBB25FFA8EFEC2
:1023700018BF9E464FEA4E031EF0800F83F0D50E25
:10238000DBB25FFA8EFE08BF9E464FEA4E031EF098
:10239000800F83F0D50EDBB25FFA8EFE08BF9E463B
:1023A0004FEA4E031EF0800F83F0D50EDBB25FFACA
:1023B0008EFE08BF9E464FEA4E031EF0800F83F04C
:1023C000D50EDBB25FFA8EFE08BF9E464FEA4E0383
:1023D0001EF0800F83F0D50EDBB25FFA8EFE08BFD1
:1023E0009E464FEA4E031EF0800F83F0D50E5FFA33
:1023F0008EFEDBB218BF73464FEA430E13F0800F18
:102400008EF0D5035FFA8EFEDBB208BF7346434001
:102410004FEA430E13F0800F8EF0D503DBB25FFA64
:102420008EFE18BF9E464FEA4E031EF0800F83F0CB
:10243000D50EDBB25FFA8EFE08BF9E464FEA4E0312
:102440001EF0800F83F0D50EDBB25FFA8EFE08BF60
:102450009E464FEA4E031EF0800F83F0D50EDBB28E
:102460005FFA8EFE08BF9E464FEA4E031EF0800FB5
:1024700083F0D50EDBB25FFA8EFE08BF9E464FEAB0
:102480004E031EF0800F83F0D50EDBB25FFA8EFE96
:1024900008BF9E464FEA4E031EF0800F83F0D50E14
:1024A0005FFA8EFEDBB218BF73464FEA430E13F09D
:1024B000800F8EF0D503DBB25FFA8EFE18BF9E460A
:1024C000C34B84F8452484F8438403F5417284F8AF
:1024D000460484F8441484F847E407CA83E80700F4
:1024E0000C2384F860E484F82534FEF7C9B8D4F8E6
:1024F000A801B84E03685E211B689847D4F8A8016C
:10250000036802211B689847D4F8CC31323386FB2C
:102510000326DB17C3EB6616F0B21DF0CFFFC6F340
:1025200007201DF0CBFFD4F8A80103685E211B68CB
:102530009847D4F8A801036803211B68984794F8CA
:10254000D631590740F1D780D4F8D831DA0440F1B8
:102550002681D4F8DC21970000F121819E4AB4F94C
:10256000E611B2F88621A2EB0900814203DD4A445C
:102570009142C0F21C81B4F9A234984ADE1782FB62
:102580000323C6EB630636B2F0B2C6F307261DF08E
:1025900095FF30461DF092FF914AD4F8D8311A4287
:1025A00004D094F80832002B40F02A81D4F810327D
:1025B000D4F8A8011A7B0368002A1B684FF05E015B
:1025C00014BF3C2664269847D4F8A8010368132159
:1025D0001B68984730461DF071FF00201DF06EFF0C
:1025E000D4F8A80103685E211B689847D4F8A801B5
:1025F00003681B211B68984700201DF05FFF002027
:102600001DF05CFFD4F8A80103685E211B689847A1
:10261000D4F8A801036823211B6898474E201DF0B9
:102620004DFFD4F8A801036800211B689847D4F82F
:102630001032D4F8A8011A7B0368002A1B684FF0F7
:102640005E0114BF3C2664269847D4F8A8010368AD
:1026500012211B68984730461DF030FF00201DF006
:102660002DFFD4F8A80103685E211B689847D4F8B1
:10267000A80103681A211B68984700201DF01EFF5F
:1026800000201DF01BFFD4F8A80103685E211B6821
:102690009847D4F8A801036822211B689847452071
:1026A0001DF00CFFD4F8A801036800211B689847AF
:1026B000D4F8A80103685E211B68984794F8643138
:1026C000FDF776BF94F8741294F8753202684E1CC8
:1026D0000133126884F8746284F875329047FDF70C
:1026E0000ABEC4F860523770FDF758BE4FF0030CB5
:1026F0003C48FEF7D4BED4F804223B4BD689A3FB5A
:102700000636B608F0B21DF0D9FE300A1DF0D6FE2E
:1027100042E7D4F8A801DFF8BC8003685E211B689B
:102720009847D4F8A801036810211B689847D4F88B
:10273000C83188FB0327DB17C3EB6717F8B21DF01E
:10274000BDFEC7F307201DF0B9FED4F8A801036849
:102750005E211B689847D4F8A801036821211B68F3
:102760009847D4F8C83188FB0328D817C0EB681005
:10277000642202FB103383EAE370A0EBE370C0B283
:102780001DF09CFE30461DF099FEFDF7D2BE94F878
:10279000831200290CBF04210521FEF7FBBC0E4A61
:1027A000B4F9E611B2F888219142BFF6E4AEDB0637
:1027B000B4F9A22440F1DD8000263046E7E64FF070
:1027C000040C0A48FEF76BBE34230293FFF76FB880
:1027D000C81D00201F85EB51245A002067666666DD
:1027E00002000008D4CB0208CDCCCCCCCCCB020864
:1027F000174694461046039296460292FEF772BF21
:10280000B4F80C62D4F8A801B4F80A1264223601B4
:1028100002FB0131B6B202685B00B1FBF3F346EA9A
:1028200003261268C3F303235E21B6B21E4390470A
:10283000D4F8A801036806211B689847F0B21DF080
:102840003DFE300A1DF03AFEB4F80C32D4F8100206
:1028500094F80822867B01339BB2012E93FBF2F1A0
:1028600002FB1133A4F80C3200F08E80B4F80A6237
:10287000C349C07B6E2303FB06F381FB0361DB17B7
:10288000C3EBA10310B19BB293FBF2F3BD4E9FB219
:10289000A6FB073676093A201FFA86F81DF036FEA9
:1028A0005FFA88F01DF00AFE4FEA18201DF006FEC0
:1028B000D4F8A80103685E211B689847D4F8A801E2
:1028C00003683B211B689847642303FB16739BB284
:1028D000AD48053380FB0320DB17C3EBA000C0B27B
:1028E0001DF0ECFD00201DF0E9FDD4F8A8010368FF
:1028F0005E211B689847D4F8A801036828211B684B
:102900009847A14AD4F81432DE1782FB0323C6EBA2
:10291000A306F0B21DF0D2FDC6F307201DF0CEFDD8
:10292000D4F8A80103685E211B689847D4F8A80171
:10293000036804211B689847D4F80432DB89002B14
:1029400040F0E080D4F8186286F31006F0B21DF073
:10295000B5FDC6F307201DF0B1FD27E62423029341
:10296000FEF7A5BF0023FEF742BD10230293FEF73A
:102970009EBF854BD61783FB0232C6EB620636B28A
:10298000F0B2C6F3072602E639201DF0BFFDB4F809
:102990000A62F0B21DF092FD300A1DF08FFDA4E72F
:1029A0000123FFF75BB896F87500DFF8E8B1DFF8B0
:1029B000E8A1020704BF0130C0B2062888BF012089
:1029C00006EB00134FEA001E1F7C00231BF80710C4
:1029D000A37252465FFA8EF806EB0E0348EA070729
:1029E00001291770DB6802F1010C0CD90239CFB252
:1029F000B91C1144624602F8013B91424FEA13238D
:102A0000F9D10137BC44B64401309EF8112023F0BF
:102A10006003C0B2134308288CF800300CF10102A7
:102A20007ED04FEA001E06EB0E01A2EB0A030F7CDC
:102A30001BF8071001EB030C08F11008BCF1130F91
:102A40005FFA88F8C8DDDBB29A1DD2B242F04001CD
:102A5000E17102F1010C4D4FE2B10533DBB20833F5
:102A6000DFF838E12344791C002211F8018B88EA51
:102A700002084FEA88024FEAD80A82EA48020AF0BE
:102A8000180A82EA08024EFA0AF882EA08028B4221
:102A9000D2B2EAD107F80C20E3799DF80820E27061
:102AA00003F03F039A1C03F10A076271A770384CC8
:102AB00086F875000833E018A64600221EF8013B90
:102AC000534083EA0313DBB2120AD90042EA03221D
:102AD00081EA131353401BB270459AB2EED12744DA
:102AE000120A07F8023CA378234403F8012CFEF7EE
:102AF000ADB8CB690F6ABB423CBFCA689B18DF1BED
:102B0000FEF706B814F074FC1DF0D8FC0021D4F8D0
:102B1000A80109F0D5FF49E520230293FEF7C7BEBF
:102B2000A2EB0A038FE73A463B464FF00109FEF756
:102B300011B808230293FEF7BABE17469446104612
:102B40000292FEF7CFBD17469446104603920292BA
:102B5000FEF7C8BD17469446104603929646934624
:102B60000292FEF7BFBD0292FEF7BCBD174602926D
:102B7000FEF7B8BD174694460292FEF7B3BD00BFFC
:102B8000310CC3301F85EB5167666666961C0020CA
:102B9000901C0020E0AA02089D1C00200007090EDE
:102BA00030B4821E01F110054C7811F8023B43EA63
:102BB00004238D4222F8023FF6D1024B1B88038288
:102BC00030BC7047780000202DE9F04FDFF8F8C1E5
:102BD000DFF8F8E1BCF80A70DEF80060BCF80C30F1
:102BE000BCF808A03C028BB0361B4FF00004CDE9C6
:102BF0000034009CBCF806304FEA17654FF0000720
:102C000067EB0507B946B046A4FB06670024CDE98B
:102C10000634009C002304FB09770024CDE900342E
:102C2000AAFB0823CDE90223039AF30D00930AFBC4
:102C300009230393009B43EA47230093029B4FEA37
:102C4000D31AFB150193039B4AEA436ADDE900238B
:102C500044464D46CDE90845069C12F5FA62A4FBB0
:102C6000086743F1000304FB0977CDE90623BCF8AC
:102C70000440039BBCF802204FEAE31B230C05939E
:102C800023040493340A44EA07643D12DDE904672F
:102C90004FEAC23816EB0A0647EB0B0718EB04089D
:102CA000DDE906344FEA524949EB0509B3F5FA6FFD
:102CB00074F10004B246BB463CDADDE90067BC00B3
:102CC000B20044EA9673B41847EB030522463C462B
:102CD0002B4602FB04F406FB0344A2FB0623234419
:102CE000940844EA83749D105B104FEA3202B8EBFB
:102CF000040869EB0509BAEB020A6BEB030BDDE98B
:102D00000623304C4FF0FF35A242AB412CDBDDE90E
:102D10000856A5FB052305FB06F403EB4403D40F7B
:102D200044EA4304DD17DDE90623121B63EB0503C8
:102D3000CDE90623DEF80440A4FB082304FB093395
:102D4000540D44EAC3245D15B4EB0A0A65EB0B0B82
:102D50004FEADA3343EA4B4300B1036009B1069B03
:102D60000B600BB0BDE8F08F40F6AC52B4184FF0DA
:102D7000000347EB03052246A2FB022304FB05F4F4
:102D800003EB4403941843EB0305A4185D414FEA99
:102D9000850CA6004CEA947CB41A6CEB0305DF00AA
:102DA000D6006D104FEA340447EA5277921B63EB6A
:102DB0000703B8EB040869EB05091AEB020A4BEBB1
:102DC000030BA4E724FAFFFF842400203421002011
:102DD0002DE9F04FDFF81CB2DFF81CE2BBF8002051
:102DE000DEF80860BBF90430BBF90250BBF90A8079
:102DF000C2EB261404FB04F424135200C2EBE602D7
:102E000003FB04F305FB02F29B1303EBE223B3F590
:102E1000FA364FEAE37589B045F1FF373246A6FB33
:102E20000645CDE9024502FB07F205EB4202CDE97A
:102E30000467029EBBF90840039208FB02FC4FEABC
:102E4000E87906FB09CC3A46A8FB0689049ECBF834
:102E50001830E51704FB02F206FB0522A4FB066707
:102E6000E14417444FEA182242EA096200924FEA0D
:102E7000292201923D03DDE90078340345EA165525
:102E80003F19BBF80660069048EB05083C1C48F566
:102E9000004503EB8302A4FB068906FB05998032FB
:102EA00013124FEA69064FEAE977079356EA0703D8
:102EB0008A4600F09280DDE90489BBF90E20DEF835
:102EC0000C40BBF910004946C4F5801ED317DDE95C
:102ED000024502FB01F108FB0311A2FB08230B448E
:102EE0004FEA43492B46C11700FB03F304FB0133B0
:102EF000A0FB0401BBF90C401944E30001937346A5
:102F0000DC170023009349EAD2394FEA4248DDE951
:102F1000002310EB080041EB0901E50712184FEA06
:102F2000CE744B4145EA5E05A41A65EB03052219F0
:102F300045EB050312196B4199019001801841EA94
:102F4000926159418B00820043EA9073101943EB60
:102F500005018B00820043EA907310460019194660
:102F600032463B46694123F0CDFBBBF916204C139A
:102F7000450B45EAC14502FB04F6D31705FB036682
:102F8000A2FB05233344BBF9146002FB04F405FBE8
:102F9000034406FB01FEA2FB0523F717234400FBB5
:102FA00007EE540EA6FB0067774444EAC3144FEAC9
:102FB000D64800194FEA636548EA473869414FEA45
:102FC000E74918EB0008BBF9124049EB01094FEA49
:102FD000182646EA096620013618069B0BB1360A08
:102FE0001E60BAF1000F02D0079BCAF8003009B08A
:102FF000BDE8F08F9824002034210020704700BFE6
:10300000704700BF4FF40063038170474FF40063C3
:103010000381704750F8043C01224274143803B114
:103020001847704790F82530024603F0FF0013B1AF
:10303000002382F82530704770B582B00446036BD8
:1030400090F844006A4606219847C0B19DF80400F4
:103050009DF800609DF801109DF802509DF8032036
:103060009DF8053041EA062143EA002342EA0522A1
:1030700009B212B21BB2A1830120E283238402B001
:1030800070BD00BFF0B583B0044643696A460621AF
:103090003B209847A0B19DF800709DF801109DF865
:1030A00002609DF803209DF804509DF8053041EA28
:1030B000072142EA062243EA05236181A281E381D6
:1030C00003B0F0BD036D026B70B50446DD69C2B19B
:1030D000636B2BB12B0702D5236D08221A6270BDDA
:1030E0002A06F7D5A26A616A8A421FD0511CA069DC
:1030F000A162825C2069266D81423285EAD3A36297
:10310000E8E7A906E4D5C26A1AB1988C80B2904764
:10311000DEE7C1699B8C4069DBB24E1CE66143541B
:10312000E169E368994228BFE261D1E7226D136843
:1031300023F080031360CDE770B40468037B22683A
:10314000022101FA03F31A4213D042690A49456881
:10315000582000FB021229685068528900684FF617
:10316000FE7631402960C168D24392B20A40C26003
:10317000636070BC704700BF5C4E00200A4B1B7838
:103180008BB130B4094B1C7864B1094B002503EBBB
:10319000C4041A6899885562D06808330143A34271
:1031A000D160F6D130BC7047C05200207C52002064
:1031B000805200201B4B70B41C788CB31A4E5825DB
:1031C00005FB00656C685CB3E4684CB32B7B43EA99
:1031D00041039AB2131283EA121300EB80015340A9
:1031E00000EB4100C00003F00F0343EA021300218B
:1031F00000F10C024C309BB232443044297313F47A
:10320000004F14BF0E21072142F8041F5B008242C9
:103210009BB2F4D112236360236843F0010323605F
:1032200070BC7047C05200205C4E002010B4026891
:10323000047B11680223A340194209D00649406863
:1032400000240C7001684FF6FE7421400160536049
:103250005DF8044B704700BFDC3E00202DE9F843C9
:103260008549864A864B874CD1ED024A246992ED06
:10327000026AD3ED027A91ED014AD2ED015A93ED43
:10328000017AD1ED003A92ED005AD3ED006A7E4BFF
:103290002060FDEEE33ABDEEC44AFDEEE44ABDEE29
:1032A000C55AFDEEE55ABDEEC66AFDEEE66ABDEE14
:1032B000C77AFDEEE77A04F1280204F1300003F149
:1032C0000801914288BF9842C4ED013A84ED024A58
:1032D000C4ED034A84ED045AC4ED055A84ED066A30
:1032E000C4ED076A84ED087AC4ED097A7FD81A43E1
:1032F00050077CD11A685B68A262E362634D95ED6A
:10330000130A24F0E3FE95ED140A814624F0DEFE54
:1033100095ED150A804624F0D9FE5D4A5D4BD2F842
:1033200034E0966B176B00210025002260F30F0537
:1033300069F30F016EF30F0204F13C0068F31F41C3
:1033400066F31F4240EA030667F31F4521637107D6
:103350006563A26304F144054ED19D4203F1080167
:103360008CBF00220122884228BF42F00102002ABD
:1033700042D01A685B68E2632364474B1A782AB329
:10338000464B04F14801181DA84288BF994238D81D
:103390000A2A36D9911E49080131052998681E6804
:1033A0005D68E0644FEA410018BF59696664A5642E
:1033B000DE681D6918BFA16590422665656505D068
:1033C00004EB400233F81030A2F844303448354959
:1033D000354A364B0088096892691B88A4F86C004E
:1033E000A4F86E102267A4F87430BDE8F8835A6818
:1033F0001B68E262A36281E75A681B682264E36388
:10340000BBE71988A4F84410012ADFD05988A4F832
:103410004610022ADAD09988A4F84810032AD5D099
:10342000D988A4F84A10042AD0D01989A4F84C10DD
:10343000052ACBD05989A4F84E10062AC6D09989FE
:10344000A4F85010072AC1D0D989A4F85210082A2C
:10345000BCD0198AA4F85410092AB7D0598AA4F804
:1034600056100A2AB2D0998AA4F858100B2AADD067
:10347000DB8AA4F85A30A9E7104400201C4400203D
:1034800004440020342100202C2100206457002017
:10349000F81D0020B4440020582F002024300020C4
:1034A000AC290020F4290020401E0020341F0020F9
:1034B0002DE9F04184B0002853D0DFF81081B8F82E
:1034C0000030B3F5805F4CD3384C394839493A4A1B
:1034D0003A4B3B4E2468007891F8201012781B7804
:1034E000F46186F8200086F8211086F8222086F8FC
:1034F000233001AF334D2868036853211B68984778
:10350000F4697F2C09D92868036864F07F011B687F
:10351000C9B2E40998477F2CF5D828680368E1B25E
:103520001B68984796F820107F2904D928680368FB
:103530001B6898470121286803681B68984796F81C
:10354000233096F8211096F82220039338460191F3
:10355000029204F0CFFD0023A8F8003004B0BDE8CB
:10356000F0811249124A134C1348144B164E096845
:10357000127894F820501B780478019101AF8DF8EF
:1035800008203146384608228DF809508DF80A4047
:103590008DF80B3026F07CFE0028DFD097E8030082
:1035A000DFF8288086E803001C3EA3E76C1E00209D
:1035B000361F0020101F0020D5440020303300208B
:1035C000342100208059002050210020E2230020D7
:1035D0002DE9F047BE4CBF4F8046606A08F062FD9F
:1035E000BB780646C3B1B8B9B87016F047FA814641
:1035F000402019F02BFD830754D594F82830002B78
:1036000040F04081C020002507F0FAFE94F82830F1
:1036100043B92846BDE8F08794F82850BE70002DC5
:10362000F7D0002516F02AFA636DAB4AC31A93420D
:10363000804614D9E36C642B00F2BA809BB203EB92
:103640008302520002F57A72C3F1640392B29BB214
:103650000021A4F852303A80C4F85480E164A36D8C
:103660004DF6A862A8EB0303934275D8666C7B689D
:10367000A8EB06069E4275D8012DCAD1974E984DEB
:10368000236CC6F86C310FCD0125C6F87101C6F860
:103690007511C6F87921C6F87D3109F041FE28463A
:1036A000BDE8F08710F02005ACD194F82830002B4D
:1036B0000CBF1B261926F02007F0A2FE3046894ECB
:1036C00019F086FD3378582B76D0C0F0D280BB3B02
:1036D000012B00F2CE8094F82830002B92D1F37A9F
:1036E000D6F801202264FF2B00F0DC80354604F17F
:1036F0002C0E55F80B0F6968AA68EB68AEE80F004E
:10370000727AE36BC6F80530012A4FF0FF33C6F832
:103710000B3094BF002201226B60AB60EB602B6129
:103720006B612B83E02084F8282007F069FE2522B6
:103730006C49052007F09EFD94F82850D020002DFC
:103740003FF462AFC4F8449007F05AFE94F8283072
:10375000002B93D0012565E70123C4F8588084F835
:10376000503083E7A02007F04BFE94F829305E49E3
:103770007608E218A1FB061603EB962692F82C10A9
:1037800006F00F060F2084F8296007F0E1FDC02045
:1037900007F036FEA36CC4F84480013340F60A7289
:1037A00041F28F611F2B88BF0A46A3647A6063E7EA
:1037B0004FF4FA6200234BE7D6F80520E36B9A42F8
:1037C0007FF420AFD6F80120236C9A427FF41AAF21
:1037D0003346E26C53F809AF94F85010D3F804C0A4
:1037E000D3F808E0D868C4F84490013241F2FE03EF
:1037F000A564C8F800A0C8F804C0C8F808E0C8F874
:103800000C00E2647B6000294FD0384BB4F85210B2
:103810001B88387AF17303EB83035B009BB2F3726E
:103820001B0A33734FF0FF334FEA112EC6F81530E1
:10383000AA21C6F81130C6F81930C6F81D30C6F8EE
:103840002130FE2384F850507572B572B57386F836
:1038500010E031707373C0B33D722525E02007F08E
:10386000CFFD2A461F49052007F004FD0225D02080
:10387000CAE6C02007F0C4FD94F82850002D7FF45C
:10388000D0AEC6E694F82930E218013303F00F03F6
:1038900092F82C1084F829300F2007F059FD354696
:1038A000C020B1E606F10B052AE794F82930E218AA
:1038B000013303F00F0392F82C1084F829300F2005
:1038C00007F046FD0225C0209EE61125C6E700BF91
:1038D0003421002078000020E8DF0500245A002071
:1038E00060210020D04B00205FBF2D889A1E002051
:1038F0002DE9F0410923464E0B700024262382B0A7
:10390000B3738046F47306F1080021F09BFA414F2F
:10391000414D06F1E00302221E21184686F8E720F9
:1039200086F8E6107B6221F08DFA2146204607F0EA
:103930000FFD54207521C5222A238DF8040001A80B
:103940008DF805108DF806208DF8073019F0DAFB98
:103950000134E4B2322C20460AD015F8011FFF29A9
:10396000F6D00134E4B207F0F3FC322C2046F4D157
:10397000A02007F045FD0121022007F0E9FC4220CC
:1039800019F064FB0028FAD1622019F05FFB1321C3
:10399000242007F0DDFC0921252007F0D9FCA02018
:1039A00007F02EFD1D4B1E491E4A1B680968126850
:1039B0001D484B405340FB6308F074FBD8B1D8F866
:1039C0000C60C6B158F8110F184DD8F80410D8F88B
:1039D0000820D8F80C3097F829403E640FC53A19F2
:1039E000631C92F82C1003F00F03012287F8293092
:1039F00087F8282003E0002387F828300D210F20C6
:103A000007F0A6FCC02007F0FBFC02B0BDE8F08187
:103A1000C84A00203421002010AB0208ACF7FF1F79
:103A2000B0F7FF1FB4F7FF1FD04A0020602100202D
:103A300001224821772021F047BB00BF01225821F5
:103A4000772021F041BB00BF3122F421762021F004
:103A50003BBB00BF00B583B001AB03220021772040
:103A600019F098F89DF805309DF804209DF806009F
:103A70001B0243EA0243184303B05DF804FB00BF96
:103A800008B5FFF7E7FF014B586008BD342100205F
:103A900008B5FFF7DFFF014B186008BD3421002097
:103AA00070B582B06B460622F721762019F072F8C5
:103AB0009DF801209DF804309DF800609DF80350AA
:103AC0009DF802409DF80500074912011B0142EADA
:103AD000063243EA053342EA141243EA1013CA607D
:103AE0008B6002B070BD00BF34210020F8B50A4CD5
:103AF0000746206815460E4607F024FC47F0800173
:103B0000064809F025F93146284619F065FA20687B
:103B100007F012FC0120F8BD2058002000300140C1
:103B2000F8B50A4C0A4D074620680E4607F00AFC15
:103B30003946284609F00CF93146284609F008F9BB
:103B4000206807F0F9FB0120F8BD00BF20580020D5
:103B50000030014038B5C36A0446F3B1187807F065
:103B600043FE202300218371C171054608F0DEF871
:103B700021462C4B41F8143F284619F0C9F9AB886F
:103B8000B3FA83F3C3F11F035A1C06D0264901225E
:103B9000086802FA03F303430B60636B80216B2018
:103BA000984720F09FFF636B07216820984720F01B
:103BB00099FF636B00216B20984720F093FF012150
:103BC000636B6B20984721F099F894F82320636B7E
:103BD000012A8CBF1A2118211B20984721F08EF84A
:103BE000636B18211C20984721F088F8636B94F8C8
:103BF00022101A20984721F081F8636B94F8241062
:103C00001920984720F06EFF636B102137209847EA
:103C100021F074F8636B012138209847BDE83840E3
:103C200021F06CB8153000080004014038B51B4C79
:103C3000238823F040031B041B0C2380238823F0DC
:103C400038031B041B0C43F03003238023889BB2F2
:103C500043F0400323800546012015F05BFF284612
:103C6000FFF778FF10216A20FFF75AFF20F03AFF94
:103C7000238823F040031B041B0C2380238823F09C
:103C800038031B041B0C238023889BB243F04003A2
:103C900023800120BDE8384015F03CBF00300140D2
:103CA0002DE9F04FA94C23888BB00646002B40F03D
:103CB000BB81A74A92F83725012A00F0AB8318464A
:103CC000A44CA54DFFF7F4FB3046FFF7C7FA206878
:103CD000D5F81080036849211B6898479F4B1E68E0
:103CE0007F2E09D92068036866F07F011B68C9B27E
:103CF000F60998477F2EF5D820680368F1B21B6853
:103D00009847D8F800607F2E09D92068036866F0CC
:103D10007F011B68C9B2F60998477F2EF5D8206845
:103D20000368F1B21B689847C24608F10C075AF8BD
:103D3000043FDE1786EA43067F2E09D92068036810
:103D400066F07F011B68C9B2F60998477F2EF5D847
:103D500020680368F1B21B6898475745E7D108F11E
:103D6000180A57F8043FDE1786EA43067F2E09D962
:103D70002068036866F07F011B68C9B2F60998479E
:103D80007F2EF5D820680368F1B21B689847BA45C2
:103D9000E7D1734E08F11C0A10274FF0010B33686E
:103DA0000BFA07F21A4240F001810137132F0AF192
:103DB000040AF4D108F1260A08F12C0B3AF9023F63
:103DC000DF1787EA43077F2F09D92068036867F068
:103DD0007F011B68C9B2FF0998477F2FF5D820687B
:103DE0000368F9B21B689847D345E7D1584BB8F937
:103DF0002E70B3F8CC30FF1A7F2F09D920680368E2
:103E000067F07F011B68C9B2FF0998477F2FF5D87B
:103E100020680368F9B21B6898473368D90400F139
:103E2000E1829A0400F1C9821F0500F1AE821804F4
:103E300000F1978208F12E0908F1340A39F9023F9E
:103E4000DF1787EA43077F2F09D92068036867F0E7
:103E50007F011B68C9B2FF0998477F2FF5D82068FA
:103E60000368F9B21B689847CA45E7D108F13A09D7
:103E70003AF9023FDF1787EA43077F2F09D9206805
:103E8000036867F07F011B68C9B2FF0998477F2F5D
:103E9000F5D820680368F9B21B689847D145E7D187
:103EA00008F1420A39F9023FDF1787EA43077F2FFB
:103EB00009D92068036867F07F011B68C9B2FF0950
:103EC00098477F2FF5D820680368F9B21B68984798
:103ED000CA45E7D1234BB8F944701B88FF1A7F2FDE
:103EE00009D92068036867F07F011B68C9B2FF0920
:103EF00098477F2FF5D820680368F9B21B68984768
:103F0000194B1B78012B31DD213308EB430A08F1F3
:103F1000440939F9027FB8F94430FB1ADF1787EA00
:103F200043077F2F09D92068036867F07F011B686A
:103F3000C9B2FF0998477F2FF5D820680368F9B206
:103F40001B689847CA45E4D110E000BFE423002075
:103F5000245A00208059002034210020E82300202A
:103F6000DC230020462F0020582F002033689905BD
:103F700038D428692849294B294A2A4C6861461AAD
:103F8000F61003FB06F3013382FB0362A2EBE3723C
:103F900002EB42029B1AC3EB031301EBC3030122A2
:103FA000A8612B6122700BB0BDE8F08FDAF8003009
:103FB0004FEAE37989EA4309B9F17F0F0BD9206809
:103FC000036869F07F011B68C9B24FEAD9199847A5
:103FD000B9F17F0FF3D8206803685FFA89F11B6895
:103FE0009847E2E6B8F96630A3F2DC53DE1786EABA
:103FF00043067F2E09D92068036866F07F011B689D
:10400000C9B2F60998477F2EF5D820680368F1B247
:104010001B689847ADE700BF90210020EFEEEEEE61
:1040200056555555F8230020B64DD5F8C43143B147
:10403000B54B1B78093B0027012BC5F8C47140F232
:104040009F83B24BD5F8C8811F68474507D0AE4B58
:10405000C5F8C8711B78093B012B40F2E481AC4ADA
:10406000238892F8371592F838050B44013BB3FBCF
:10407000F0F200FB1233994295D90120A54CFFF7CD
:1040800017FA3046FFF7EAF820686A690368009279
:104090001B68D5F81090502198472B69AA69696967
:1040A0001B6812680E681344A3EB4603DE1786EA0A
:1040B00043067F2E09D92068036866F07F011B68DC
:1040C000C9B2F60998477F2EF5D820680368F1B287
:1040D0001B6898470098D9F8041047688668D9F893
:1040E0000820D9F80C30C068C91B921B1B1A0DF1AF
:1040F000080802910392049347460DF1140A57F8F9
:10410000043BDE1786EA43067F2E09D92068036840
:1041100066F07F011B68C9B2F60998477F2EF5D873
:1041200020680368F1B21B689847BA45E7D1009848
:10413000D9F8101007694669D9F814208069D9F8B0
:104140001830C91B1B1A921B02A8049302910392F8
:1041500003F0D0FF009B704E01951C33254609F1FA
:104160001C0B10271C463368012202FA07F1194282
:1041700040F0A4820137132F0BF1040B04F1040467
:10418000F1D1009FB9F928A0B7F92820B7F92A1072
:10419000B9F92AC0B7F92C00B9F92CE0B9F92E30D9
:1041A000B7F92E70AAEB0202ACEB0101AEEB0000F6
:1041B000DB1B2C460292019D0391049005932BB1C9
:1041C00003F108070F2F00F2058301239B0030B194
:1041D00000F108070F2F00F2F58243F001039B0066
:1041E000DBB231B101F108000F2800F2E38243F0A5
:1041F00001039B00DFB232B102F108030F2B00F282
:10420000D18247F001072068036839461B684FF0E8
:10421000000B98470DF1080A019525465C4607F00A
:104220000303022B00F01982032B00F02782012BDD
:1042300000F009820AF1040A06AB53454FEA9707DA
:10424000EDD123462C46019D002B40F0D6823368E9
:1042500013F4805700F060820099B9F86C20B1F82F
:104260006C10521A0292022101279A040CD5009870
:10427000B9F86E20B0F86EE00AA800EB8700A2EB58
:104280000E020F4640F8202C180500F135821A0462
:1042900040F1DE80009AB9F87430B2F874100AAABE
:1042A00002EB87025B1A42F8203C0137012F00F035
:1042B000AA820AAB781E03EB800050F8203C50F82D
:1042C000242C191C18BF01214900002A18BF41F0F5
:1042D0000101022F0FD050F8283C4900002B18BFD5
:1042E00041F00101042F06D150F82C3C003318BFD7
:1042F000012343EA4101206803681B6898474FF097
:10430000000A10E0342100207C5900206C1E00209F
:10431000245A002080590020DC2300200AF1010AE1
:10432000BA4580F2988058F8043B002BF6D04FEA4B
:10433000E37B8BEA430BBBF17F0F0BD9206803684B
:104340006BF07F011B68C9B24FEADB1B9847BBF1DA
:104350007F0FF3D8206803685FFA8BF11B689847DA
:10436000DCE7B8F874707F2F09D92068036867F01C
:104370007F011B68C9B2FF0998477F2FF5D82068D5
:104380000368F9B21B68984754E5D8F87030DF1716
:1043900087EA43077F2F09D92068036867F07F0108
:1043A0001B68C9B2FF0998477F2FF5D820680368BA
:1043B000F9B21B689847336839E5B8F86E707F2FFB
:1043C00009D92068036867F07F011B68C9B2FF093B
:1043D00098477F2FF5D820680368F9B21B68984783
:1043E000336821E5AD4AB8F86C301788FF1AC7F377
:1043F0000D077F2F07D92068036867F07F011B68CE
:10440000C9B29847FF0920680368F9B21B6898474A
:10441000336806E5A24B93F83835A3F12000B0FAD3
:1044200080F040094CE4DFF89092D9F8000003686E
:1044300045211B689847D9F8000003681E211B68B6
:104440009847384603F058FF404603F055FF06E60C
:10445000002F7FF42BAF6B69A9692A69019503F1DD
:104460002E073433254601F12E0A02F12E081C4690
:1044700037F9023F3AF9021F38F902BF0B4403EB48
:10448000D373ABEB63034FEAE37B8BEA430BBBF1E4
:104490007F0F0BD9286803686BF07F011B68C9B2D6
:1044A0004FEADB1B9847BBF17F0FF3D828680368FE
:1044B0005FFA8BF11B689847BC42D9D12C46019D0D
:1044C0006B69A9692A6903F134073A33254601F17A
:1044D000340A02F134081C4637F9023F3AF9021F48
:1044E00038F902BF0B4403EBD373ABEB63034FEA22
:1044F000E37B8BEA430BBBF17F0F0BD92868036882
:104500006BF07F011B68C9B24FEADB1B9847BBF118
:104510007F0FF3D8286803685FFA8BF11B68984710
:10452000BC42D9D12C46019D6B69A9692A6903F166
:104530003A074233254601F13A0A02F13A081C468D
:1045400037F9023F3AF9021F38F902BF0B4403EB77
:10455000D373ABEB63034FEAE37B8BEA430BBBF113
:104560007F0F0BD9286803686BF07F011B68C9B205
:104570004FEADB1B9847BBF17F0FF3D8286803682D
:104580005FFA8BF11B689847BC42D9D1454B2C464A
:104590001B78019D2A696F69A96993B3213307EBE1
:1045A000430301954237254601F1420A02F14208D0
:1045B0001C4637F9023F3AF9021F38F902BF0B4493
:1045C00003EBD373ABEB63034FEAE37B8BEA430B61
:1045D000BBF17F0F0BD9286803686BF07F011B6864
:1045E000C9B24FEADB1B9847BBF17F0FF3D82868AD
:1045F00003685FFA8BF11B689847BC42D9D12C46FF
:10460000019D33689B0500F1A080286926496E69E9
:10461000AE61264B264A274C6861461AF61003FB0A
:1046200006F3013382FB0362A2EBE37202EB420268
:104630009B1AC3EB031301EBC30301222B6122700E
:104640000BB0BDE8F08F002C40F0CB80DAF8001002
:1046500009011C465FFA81FBECE52868BCB1DAF879
:104660000030C3F30311036841EA0B011B6898474C
:10467000DAF800301B015FFA83FBDBE52868002CC9
:104680004CD103689AF801101B68984728680368A2
:104690009AF800101B689847CCE500BFE023002083
:1046A000245A0020582F002090210020EFEEEEEE3B
:1046B00056555555F823002080590020DBF800306E
:1046C00021685B1A4FEAE37A8AEA430ABAF17F0F5C
:1046D0000BD9286803686AF07F011B68C9B24FEAEA
:1046E000DA1A9847BAF17F0FF3D8286803685FFA9F
:1046F0008AF11B6898473DE50099D9F87020096F49
:104700000AA800EB8700521A190440F8202C07F180
:1047100001073FF5BFADC9E50121A6E5DAF8003094
:10472000C3F30331036841EA0B011B68984728680B
:10473000DAF800100368C1F307111B689847DAF82C
:1047400000301B015FFA83FB74E5009AB9F966300B
:10475000B2F966609B1BDE1786EA43067F2E09D9F5
:104760002068036866F07F011B68C9B2F6099847A4
:104770007F2EF5D820680368F1B21B68984744E79C
:10478000DFF89080D8F80000036845211B6898473F
:10479000D8F80000036839461B689847384603F08C
:1047A000ABFD4EE48032FF2A94BF47F0020747F08A
:1047B000030728E58031FF298CBF43F0030343F052
:1047C000020316E58030FF288CBF43F0030343F05B
:1047D000020304E58033B3F5807F34BF0223032353
:1047E000F4E42868DAF80030046803F00F03246862
:1047F00043EA0B01A04700241CE5206803685946E2
:104800001B68984723E5029BD81780EA430003F012
:1048100073FD20E6805900202DE9F04F85B09B1AEA
:10482000604E0F9F0193109B7468DB1B90460093B2
:1048300000290CBF04230623621C039372D00E9B35
:10484000A3424CDDDFF87891DFF870B14FB1009BE7
:10485000554A04FB03F31268F95C01238B401342B1
:1048600038D0019A336804FB02F408EB0405002BEE
:104870004CD158F80400029321F044FA029B053011
:10488000D9F80020824203DA012005B0BDE8F08F9C
:104890009BF8CC11121AC9F80020002938D1012246
:1048A0008BF8CC2133BB58F80440217851B1DFF8A4
:1048B00014A1DAF8000003681B68984714F8011F78
:1048C0000029F6D195F904104B1C18D0374804F094
:1048D000D9FC74680E9B0134A3427460B6DCA34219
:1048E0004DD03068039B834294BF0020012005B067
:1048F000BDE8F08F1D442E48297904F0C3FC74688C
:104900000E9B0134A3427460A0DCE8E70320B7E704
:10491000DFF8B0A0DAF8000003682C211B68984784
:104920003368BFE73468A34203D8002005B0BDE870
:10493000F08F204B029103EB84030546D3F834B08B
:10494000DFF87C90584621F0DDF9D9F80030029963
:104950000B30984298DC032C98BF29465A461648DB
:1049600004F090FC7268D9F800301449541C1B1AEA
:104970000022C9F80030746081F8CC215FE7104A4A
:104980001368002BADDD0F4908680168013B136017
:104990000B680A21984730684FF0FF33013086E8F2
:1049A00009009FE7D4230020DC23002040CC02082C
:1049B000ACE7020810AB020830CC0208342100201A
:1049C000CC2300208059002070B5184C23780B2B85
:1049D00008D801229A4040F603010A4208D112F495
:1049E000C06F06D1124A134B12685A600B23237012
:1049F00070BD093B012BF5D80F4E104D3068036890
:104A000045211B68984730680368FF211B68984759
:104A10004521306803681B68984715F8011F002975
:104A2000F7D1306803681B689847DBE77C590020A2
:104A300088590020D42300208059002048CC020847
:104A40002DE9F04F944C2378012B85B002D005B0AE
:104A5000BDE8F08F914D95F8370510B195F83865A0
:104A60000EBB012385F8373585F8383595F839358B
:104A700013B1002385F83935894B8A491B68002218
:104A80000A701A88100624D41A89160600F13F838A
:104A90001A8A100600F1438303230B70002323704E
:104AA00005B0BDE8F08FB042DBD20146324600E0EF
:104AB0001A4691FBF2F302FB13131146002BF7D1B8
:104AC00090FBF2F096FBF2F285F8370585F8382571
:104AD000CCE70120087074495E7993F9020051F81F
:104AE0002630724E802A14BF02270127B3F5613F9A
:104AF00014BF002102210222019100928021002294
:104B000037700BF06FFD6A4B6A491B686A4A03EB0A
:104B10004303A1FB03135B09106000F02E81402BBF
:104B2000A8BF4023654A13700028B7D06449654A7E
:104B3000654B664E0968664895F838E595F83785FF
:104B40001F68368895F8CF31068002F5A679C2F83D
:104B5000189001F40066C1F3C039C1F34001F0457B
:104B6000DFF890C10391A3F119085A499CF800C0DD
:104B70004FF0000002F15C0B02F1D40A2CBF4FF0A1
:104B8000000E4FF0010EB8FA88F8012BC2F810B0F1
:104B9000C2F814A095F883B1C2F8D401C2F8D801C4
:104BA000C2F8DC01C2F8E001C2F8D001C7F3800707
:104BB0004FEA5818D1F800A095F8505100F0DF8066
:104BC000002E40F09980BBF1000F00F025810123F9
:104BD0000399304699465D1EEDB26E1E132E0DD818
:104BE000DFE806F01C1C1C1C1C1C1C1C180F2314CA
:104BF000110F0C2727270A0F764626B109FA05F56B
:104C00002843142B1ED80133DBB2E4E70E46002EF6
:104C1000F4D1F8E74646002EF0D1F4E76545CCBF65
:104C200000260126002EECD0E8E73E46002EE5D116
:104C3000E9E70AEB05063679003618BF0126002E93
:104C4000DFD0DBE72449154B086003F1500002E098
:104C5000043398421ED093F88D141A29F8D193F892
:104C60008F5493F890148D42F2D201211B481C4BB3
:104C700000681C4F1C4E1D4DC2F8C8011C4819701D
:104C8000002302213B60C2F8C43133802B800370C3
:104C90002170DCE60021E9E77C590020245A00203D
:104CA0002C4C0020304C00208CB70208F023002050
:104CB000B02A0020D34D621080590020D02300205C
:104CC000681E002034210020681F0020AC2900202D
:104CD000E02300205C2A0020DC2300206C1E002042
:104CE000EE230020E8230020E4230020EC23002012
:104CF000F8230020582F0020012D00F02B81BBF15C
:104D0000000F00F0D88001260399B146731EDBB274
:104D10005D1E132D0DD8DFE805F020202020202077
:104D200020201C0F1814110F0C2727270A0F754677
:104D300025B109FA03F31843142E83D80136F6B2CD
:104D4000E4E70D46002DF4D1F8E73D46002DF0D103
:104D5000F4E74546002DECD1F0E79C45B4BF0025B3
:104D60000125002DE8D0E4E70AEB03052D79003595
:104D700018BF0125002DDFD0DBE70123D2E6BBF110
:104D8000000F00F03481012D00F06682002E00F04B
:104D90007A8103991E465D1EEDB205F1FF38B8F128
:104DA000130F0FD8DFE808F0171717171717171783
:104DB0000E110A2114110E2B2B2B2611B846B8F117
:104DC000000F05D006FA05F52843142B3FF63AAF3D
:104DD0000133DBB2DFE7AC45B4BF4FF000084FF062
:104DE0000108B8F1000FF0D0ECE78846B8F1000FE9
:104DF000E8D1EDE7F046B8F1000FE3D1E8E70AEBC0
:104E0000050898F8048018F1000818BF4FF0010851
:104E1000B8F1000FD9D0D5E7012558462E466B1EB4
:104E2000DBB203F1FF3BBBF1130F0FD8DFE80BF050
:104E30002C2C2C2C2C2C2C2C27110A1714111D3641
:104E400036362211BB46BBF1000F05D006FA03F33C
:104E50001843142D3FF6F6AE0135EDB2DFE7DDF86D
:104E60000CB0BBF1000FF1D1F6E7CB46BBF1000F60
:104E7000ECD1F1E7F346BBF1000FE7D1ECE7C34615
:104E8000BBF1000FE2D1E7E76345CCBF4FF0000B69
:104E90004FF0010BBBF1000FDBD0D7E70AEB030BA0
:104EA0009BF804B01BF1000B18BF4FF0010BBBF1D6
:104EB000000FCED0CAE7012558462E466B1EDBB246
:104EC00003F1FF3BBBF1130F0FD8DFE80BF01C1C05
:104ED0001C1C1C1C1C1C2C110A26141117363636DF
:104EE0003111BB46BBF1000F05D006FA03F318439E
:104EF000142D3FF6A7AE0135EDB2DFE7CB46BBF18F
:104F0000000FF2D1F7E79C45B4BF4FF0000B4FF014
:104F1000010BBBF1000FEBD0E7E7DDF80CB0BBF104
:104F2000000FE2D1E7E7C346BBF1000FDDD1E2E7B6
:104F3000F346BBF1000FD8D1DDE70AEB030B9BF87A
:104F400004B01BF1000B18BF4FF0010BBBF1000FB9
:104F5000CED0CAE72B46BBF1000F00F02F8103999A
:104F60002E465D1EEDB205F1FF39B9F1130F0FD8D2
:104F7000DFE809F0262626262626262621110A17EE
:104F80000E110E3030301C11B946B9F1000F05D0AA
:104F900006FA05F52843142B3FF654AE0133DBB275
:104FA000DFE78946B9F1000FF2D1F7E7F146B9F131
:104FB000000FEDD1F2E7C146B9F1000FE8D1EDE7FE
:104FC0006545CCBF4FF000094FF00109B9F1000F62
:104FD000E1D0DDE70AEB050999F8049019F1000921
:104FE00018BF4FF00109B9F1000FD4D0D0E7002E5F
:104FF00040F09880039930461E465D1EEDB205F1E3
:10500000FF38B8F1130F0FD8DFE808F01C1C1C1C88
:105010001C1C1C1C0E112B261411173030300A11C9
:10502000F046B8F1000F05D006FA05F52843142B19
:105030003FF608AE0133DBB2DFE7C846B8F1000F38
:10504000F2D1F7E7AC45B4BF4FF000084FF00108CC
:10505000B8F1000FEBD0E7E78846B8F1000FE3D1D5
:10506000E8E7B846B8F1000FDED1E3E70AEB050840
:1050700098F8048018F1000818BF4FF00108B8F143
:10508000000FD4D0D0E7039930461E465D1EEDB226
:1050900005F1FF38B8F1130F0FD8DFE808F01C1C3A
:1050A0001C1C1C1C1C1C0E11260A14110E2B2B2B55
:1050B00017118846B8F1000F05D006FA05F5284308
:1050C000142B3FF6BFAD0133DBB2DFE7F046B8F19A
:1050D000000FF2D1F7E7AC45B4BF4FF000084FF036
:1050E0000108B8F1000FEBD0E7E7B846B8F1000FC0
:1050F000E3D1E8E70AEB050898F8048018F1000806
:1051000018BF4FF00108B8F1000FD9D0D5E702263B
:10511000012013EBC0030E707FF4DDACBEE4032668
:105120000220F6E7012D00F00781039958461E463C
:105130005D1EEDB205F1FF38B8F1130F0FD8DFE8AF
:1051400008F01C1C1C1C1C1C1C1C0E112B261411F2
:10515000173030300A11F046B8F1000F05D006FACA
:1051600005F52843142B3FF66DAD0133DBB2DFE7C5
:10517000C846B8F1000FF2D1F7E7AC45B4BF4FF025
:1051800000084FF00108B8F1000FEBD0E7E78846C0
:10519000B8F1000FE3D1E8E7B846B8F1000FDED16F
:1051A000E3E70AEB050898F8048018F1000818BF37
:1051B0004FF00108B8F1000FD4D0D0E758462E4682
:1051C0005D1EEDB205F1FF3BBBF1130F0FD8DFE819
:1051D0000BF02C2C2C2C2C2C2C2C27111D170E11E9
:1051E000223636360A11F346BBF1000F05D006FA17
:1051F00005F52843142B3FF625AD0133DBB2DFE77D
:10520000DDF80CB0BBF1000FF1D1F6E7BB46BBF106
:10521000000FECD1F1E7CB46BBF1000FE7D1ECE793
:10522000C346BBF1000FE2D1E7E7AC45B4BF4FF096
:10523000000B4FF0010BBBF1000FDBD0D7E70AEBFF
:10524000050B9BF804B01BF1000B18BF4FF0010BCE
:10525000BBF1000FCED0CAE72B46002E35D0039904
:10526000A8465D1EEDB26E1E132E0DD8DFE806F0C7
:1052700019191919191919190C0F15200C0F0C24CB
:1052800024240A0F76462EB108FA05F52843142B7C
:105290003FF6D8AC0133DBB2E3E73E46002EF3D154
:1052A000F8E76545CCBF00260126002EEFD0EBE7DE
:1052B0000E46002EE8D1EDE70AEB050636790036FA
:1052C00018BF0126002EE2D0DEE703993046A8463B
:1052D0005D1EEDB26E1E132E0DD8DFE806F01D1D0B
:1052E0001D1D1D1D1D1D0C0F0A15120F0C2424243D
:1052F000190F3E462EB108FA05F52843142B3FF648
:10530000A1AC0133DBB2E3E70E46002EF3D1F8E7A0
:105310007646002EEFD1F4E7AC45B4BF0026012657
:10532000002EEBD0E7E70AEB05063679003618BF0A
:105330000126002EE2D0DEE703992B4658462E4682
:105340005D1EEDB205F1FF38B8F1130F0FD8DFE89D
:1053500008F01C1C1C1C1C1C1C1C0E110A2B0E1102
:10536000263030301711B846B8F1000F05D006FAD4
:1053700005F52843142B3FF665AC0133DBB2DFE7BC
:10538000F046B8F1000FF2D1F7E7AC45B4BF4FF0EB
:1053900000084FF00108B8F1000FEBD0E7E7C8466E
:1053A000B8F1000FE3D1E8E78846B8F1000FDED18D
:1053B000E3E70AEB050898F8048018F1000818BF25
:1053C0004FF00108B8F1000FD4D0D0E72DE9F04F2D
:1053D0007F4BDFF818E293F8E48193F8E5A193F8A6
:1053E000E6717C4EDFF808924FF0000C01259EF824
:1053F00002309EF80320C3F1FF039BB2002B00F0A4
:10540000DD80BEF80010C3F1FF03A9FB014002FBE1
:1054100003F340091B121446052800F2D580DFE88B
:1054200000F0BDA48F765E03A9FB01404009C0EBEC
:105430000010A1EB800189B2D71AC1F13C0107FB32
:1054400001F75FFA83FAA9FB07170AEB5717904693
:10545000FFB21C463A4643461B0243EA0444144347
:105460001723624605FA03F1214214BF11200920D7
:10547000511C013BB0548AB2591CF3D1564B0EF16A
:10548000040E0CF1180C73451FFA8CFCAFD1534B72
:105490004F4A4F4C52481B7882F8E4814FF44071D8
:1054A000202284F8E5A184F8E6710570A4F8E811DB
:1054B000A4F8EA218BB14B4B4B4A196812680023C0
:1054C00040F22A3050604B620B889BB243F00103DC
:1054D0000B80136843F001031360BDE8F08FA9FB54
:1054E00001404009C0EB0010A1EB80081FFA88F8CA
:1054F000D11A08FB01F85FFA83FAA9FB08180AEB36
:1055000058185FFA88F81C4617464346A4E7A9FBDB
:1055100001404009C0EB0010A1EB800189B2C1F14C
:105520003C01A2EB030A0AFB01FAA9FB0A1A5FFA83
:1055300083F808EB5A1A5FFA8AFA174654468BE743
:10554000A9FB01704009C0EB0010A1EB8007BFB2BE
:10555000D11A07FB01F7A9FB07175FFA83F808EBDD
:105560005717FFB292463A4676E7A9FB0170400909
:10557000C0EB0010A1EB800189B2A2EB0308C1F1DE
:105580003C0108FB01F8DFB2A9FB081807EB58182B
:105590005FFA88F892461A4643465DE7A2EB030A93
:1055A00001FB0AFADFB2A9FB0A1A07EB5A1A904666
:1055B0005FFA8AFA1A46544643464DE717461446A0
:1055C00092469046134647E7544643463A4643E7D9
:1055D00034210020A43F0020603F0020DC42002056
:1055E000DC3E0020D0420020D8420020E03E0020D7
:1055F000898888880148FDF765BD00BF2C250020FB
:105600000148FDF75FBD00BFD8240020F0B5064675
:1056100083B00D460024012714E003290CBF0322A8
:105620000122C3F3011E6946C3F3810330468DF89E
:1056300005208DF806E08DF8073011F015F90134DA
:10564000102C0FD02B8807FA04F21342F7D0AB7856
:10565000E9780092022903F003028DF80420DCD1DE
:105660000A46DEE703B0F0BD0348D0F83C3113B181
:1056700000F59A70184770476C1200200348D0F864
:10568000203113B100F58C70184770476C12002060
:105690000348D0F804310BB1FC301847704700BF05
:1056A0006C1200200348D0F8E8300BB1E030184706
:1056B000704700BF6C1200200348D0F8CC300BB10B
:1056C000C4301847704700BF6C1200200348D0F860
:1056D000B0300BB1A8301847704700BF6C120020E3
:1056E0000348D0F894300BB18C301847704700BF96
:1056F0006C1200200248836F0BB17030184770475E
:105700006C1200200248C36D0BB15430184770472B
:105710006C1200200248036C0BB1383018477047F8
:105720006C1200200248436A0BB11C3018477047C6
:105730006C1200200248836803B11847704700BF0D
:105740006C1200201749184B184A194810B4D1F8A8
:10575000884044F47004C1F888401C6844F0010497
:105760001C605C6822405A601A6822F0847222F43D
:1057700080321A601A6822F480221A605A6822F471
:10578000FE025A60DA6A22F00F02DA621A6B002413
:1057900010404FF0006218639C608A605DF8044B13
:1057A000704700BF00ED00E0001002400CC07FF821
:1057B000CCFC00FF2DE9F0470F46B0F908102DEDA5
:1057C000028B3981C9B24B1E8AB01546FD2B00F2FF
:1057D0000081DFE813F00C04660954094809260922
:1057E000FE00FE00FE00FE001409FE00FE00FE00AA
:1057F000FE00FE00FE00FE00FE00FE00FE00FE00B9
:10580000FE00FE00FE00FE00FE00FE00FE00FE00A8
:10581000FE00FE00FE00FE00ED08FE00E408FE00B3
:10582000D008FE00B608FE00B008FE006308FE00C7
:105830003808FE002C08FE002608FE00FA07FE00CD
:10584000B503FE003803FE0033036803FE007F0942
:10585000FE00FE007209FE00310AFE002A0A24033F
:105860001F0AFE00FE00150AFE00F309FE00BD0936
:10587000FE00A6098B09FE00C902FE00C902FE0057
:10588000FE00FE00E805FE00B705FE008405FE00F0
:105890002D05FE00F004FE00FE00FE00D8049E046C
:1058A0006B04FE0053044204FE00FE002A041D04A3
:1058B000850392077707FE001D071307D706AE067C
:1058C000FE008506FE00FE00FE00FE005503DE071A
:1058D000CC07CE03FE00FE00FE00FE00FE00FE0030
:1058E000FE00FE00FE00FE00FE00FE00FE00FE00C8
:1058F000FE00FE00FE00FE00FE00FE00FE00FE00B8
:105900004706FE00FE00FE00FE00FE00FE00FE0058
:10591000FE00FE003506FE00FE00FE00FE00FE005A
:10592000FE00FE00FE00FE00FE00FE00FE00FE0087
:10593000FE00FE00FE00FE00FE00FE00FE00FE0077
:10594000FE00FE00FE00FE00FE00FE00FE00FE0067
:10595000FE00FE00FE00FE00FE00FE00FE00FE0057
:10596000FE00FE00FE00FE00FE00FE00FE00FE0047
:10597000FE00FE00FE00FE00FE00FE00FE00FE0037
:10598000FE00FE00FE00FE00FE00FE00FE00FE0027
:10599000FE00FE00FE00FE00FE00FE00FE00FE0017
:1059A000FE00FE00FE00FE00FE00FE00FE00FE0007
:1059B000FE00FE001C06FE00FE00FE00FE00FE00D3
:1059C000FE00FE00FE00FE00FE00FE00FE00FE00E7
:1059D0002A06F529044600F0658194E828000B3971
:1059E000ED1AEF2900F21182DFE811F0F3090F023E
:1059F0000F020F020F020F020F020F020F020F021F
:105A00000F020F020F020F020F020F020F020F020E
:105A10000F020F020F020F020F020F02AF090F0257
:105A2000E6090F021C0C0F023E0C0F02580C0F026D
:105A3000620C0F02BC0C0F02D50C0F02EB0C0F0214
:105A4000F50C0F02C6010F02250D0F020F025301C4
:105A50000F02470D0F020F02570D0F0254090F02DC
:105A60000F020F020F020F020F0213020F02D60DD8
:105A70000F0285090F020F020E0A0F020F020F021A
:105A80000F020F020F020F02F0000F02280A0F028E
:105A90005B0A0F02920A0F02E00A0F020F020F02C6
:105AA0000F020F020F020F020F020F020F020F026E
:105AB0000F020F020F020F020F020F020F020F025E
:105AC0000F020F020F020F020F020F020F020F024E
:105AD0000F020F020F020F020F020F020F020F023E
