:020000040800F2
:10000000002000109D060208E9470108CD6D010897
:10001000E5470108E1470108DD470108000000004D
:10002000000000000000000000000000D9470108A7
:10003000D547010800000000CD4701083DA8010890
:100040000507020805070208050702080507020858
:100050000507020805070208DDB8000809BA00080C
:10006000CDB9000891B9000855B90008A9290008C0
:1000700099290008892900087929000869290008B8
:10008000552900084129000805070208050702084C
:100090004D540108050702080507020819B90008B0
:1000A00005070208050702080507020805070208F8
:1000B0006D7601085D76010805070208050702084C
:1000C00005070208050702080507020805070208D8
:1000D0000507020865280008050702080507020849
:1000E000A1B80008050702083D54010805070208E9
:1000F0003D760108050702084D760108050702084C
:1001000000000000000000000000000005070208D9
:100110000507020805070208050702080507020887
:100120002D2900081929000805290008F1280008D0
:10013000DD2800080507020800000000000000009C
:10014000050702080507020805070208000000006D
:10015000000000000000000000000000000000009F
:100160000000000000000000050702080507020863
:100170000507020800000000000000000000000069
:08018000000000000507020861
:100190002DE9F04FB0F908302DED028B0B81DBB269
:1001A0000C46591E8BB00546FD2900F20081DFE8A0
:1001B00011F0A907B908AB089E088B08FE00FE00E5
:1001C000FE00FE00DF08FE00FE00FE00FE00FE0056
:1001D000FE00FE00FE00FE00FE00FE00FE00FE002F
:1001E000FE00FE00FE00FE00FE00FE00FE00FE001F
:1001F000C208FE00F108FE003C06FE009207FE0069
:100200005707FE005207FE000E07FE00FE00FE002C
:10021000FE00FE00A307FE000403FE00F002FE0045
:10022000CA02FE007002C202FE00DD06FE00FE00F1
:10023000D406FE00B306FE00AC06FE006302FE001C
:10024000FE00FE00FE009106FE005406FE0042067F
:10025000E906FE00E606FE000107FE00FE00FE00C5
:100260000806FE00D605FE00A805FE005105FE00AA
:100270004005FE00FE00FE00FE000B05B104FE007E
:100280009B048A04FE00FE007204690448040F0403
:10029000F503FE00FE00FE00B803EA03FE00910332
:1002A000FE00FE00FE00FE00810351033B03FE0042
:1002B000290376084D083C08FE00FE00FE00FE0003
:1002C000FE00FE00FE00FE00FE00FE00FE00FE003E
:1002D000FE00FE00FE00FE00FE00FE00FF07FE0026
:1002E000FE00FE00FE00FE00FE00FE00FE00FE001E
:1002F000D407FE00FE00FE00FE00FE00FE00FE0031
:10030000FE00FE00FE00FE00FE00FE00FE00FE00FD
:10031000FE00FE00FE00FE00FE00FE00FE00FE00ED
:10032000FE00FE00FE00FE00FE00FE00FE00FE00DD
:10033000FE00FE00FE00FE00FE00FE00FE00FE00CD
:10034000FE00FE00FE00FE00FE00FE00FE00FE00BD
:10035000FE00FE00FE00FE00FE00FE00FE00FE00AD
:10036000FE00FE00FE00FE00FE00FE00FE00FE009D
:10037000FE00FE00FE00FE00FE00FE00FE00FE008D
:10038000FE00FE00FE00FE00FE00FE00FE00FE007D
:10039000C707FE00FE00FE00FE00FE00FE00FE009D
:1003A000FE00FE00FE00FE00FE00FE00BB072A6805
:1003B00069680B3B8E1AEF2B00F2B981DFE813F06E
:1003C0002109B701B701B701B701B701B701B701FB
:1003D000B701B701B701B701B701B701B701B7015D
:1003E000B701B701B701B701B701B7013008B701CD
:1003F000460CB701280CB701350CB7010B09B70142
:10040000840AB7018B0AB701B701B701B701B70179
:100410007A0AB7012E0BB7017001B7011B08B701AB
:10042000B7015301B701200BB701B701580BB70152
:100430005A09B701B701B701B701B701B701B70151
:10044000B7018509B701A509B701B701CD09B70102
:10045000B701B701B701B701B701B701F000B701A4
:10046000E409B701560AB701DE0AB701650BB70107
:10047000B701B701B701B701B701B701B701B701BC
:10048000B701B701B701B701B701B701B701B701AC
:10049000B701B701B701B701B701B701B701B7019C
:1004A000B701B701B701B701B701B701B701B7018C
:1004B000B701B701B701B701B701B701B701B7017C
:1004C000B701B701B701B701B701B701B701B7016C
:1004D000B701B701B701B701B701B701B701B7015C
:1004E000B701B701B701B701B701B701B701B7014C
:1004F000B701B701B701B701B701B701B701B7013C
:10050000B701B701B701B701B701B701B701B7012B
:10051000B701B701B701B701B701B701B701B7011B
:10052000B701B701B701B701B701B701B701B7010B
:10053000B701B701B701B701B7017A0BB701A80B33
:10054000B701DA0B1B0C7C0CB7015008B7015D0832
:10055000B7015301B701AD08B701B701C408D50809
:10056000EC08F608B7013C09B701B701B701B701BC
:10057000B701B701B701B701B701B701B701B701BB
:10058000B701B701B701B7014D09B701B701530171
:10059000B701B701B701B701B701B701B7019C08AF
:1005A00028460FF073FE06461EF0E6FFFF285AD0DD
:1005B0000AA9002301F8263DF7080DF101008DF886
:1005C000013001371BF004FD9DF80130FFB206F049
:1005D0000706BB4206F1010603D19DF80230B34283
:1005E0000ED0A84B1B685BB11A79BA4208D35A796E
:1005F000B24205D31B68DB6813B1314638469847D1
:100600002B686A68D21A012A2DDD5A1C0AA82A60B2
:1006100000221E7800F8252D1BF0CEFC9DF803303B
:10062000B3420AD0974B1B683BB19A79B24204D3CC
:100630001B681B690BB1304698472B680AA85A1CE7
:100640002A6000221D7800F8242D1BF0A9FC9DF8DB
:100650000430AB4207D08B4B1B6823B11B685B692E
:100660000BB12846984701231A46184662810BB001
:10067000BDEC028BBDE8F08F236800255A1C226078
:10068000294620461D700FF025FE294620460FF012
:1006900021FE002120460FF01DFE01231A46E4E74B
:1006A000794BA3FB0613F11A03EB51039B08C3EB31
:1006B000C301711A3BD1DBB25E1EF6B2002BD2D061
:1006C000DFF8CCB101368A46D8460BF1080721E0A5
:1006D000B94689F8023028460FF0D8FD2968A9F8F4
:1006E00000000B464A1C2A6013F8022B89F80320ED
:1006F0002B604B7889F80430CB1C2B608B7889F801
:1007000006300A1D2A600AF1010ACB7889F8053003
:100710005645A8D0531C2B6092F900309BF902205B
:100720009A4201F00D839BF90A209A42D0D04FF0F3
:10073000FF331A4699E7216801200A182260034610
:100740000246087091E7226850480123511C21603D
:10075000137022680521D5182560117022680A21BE
:10076000D5182560117022680021D51825601170F8
:1007700022680178D5182560117022684178D51853
:100780002560117021688078CA1822601A460870A6
:100790006BE73F4D3F4E05F1100795F9023096F992
:1007A00000209A4201F0998296F90C209A4201F0B9
:1007B00094820835BD42F0D155E7374B03F15A0515
:1007C00022685979501C2060117022681978501CD9
:1007D0002060117022685978501C206011702268C6
:1007E0009978501C206011702268D978501C2060C4
:1007F0001170226819790633501C9D4220601170D7
:10080000DED130E723682549581C0A220988206078
:100810001A702068FF2900F10102A8BFFF210123FF
:1008200022601A46017020E723681D4A1D4910788E
:100830001D4A5D1C2560187023688978581C20604B
:100840001970216892F826004A1C012322601A467A
:1008500008700AE72268154B15491878551C256061
:10086000107022685878551C2560107022689B789B
:10087000501C20601370C98820460FF043FD0123EF
:100880001A46F2E6EC48002025499224375200200F
:10089000684700201843002040370020302D0020FA
:1008A0002C53002098350020B81B00203C4D002020
:1008B000842A0020B04D204629880FF023FD698846
:1008C00020460FF01FFDA98820460FF01BFD0123D5
:1008D0001A46CAE6A94D2B78002B3FF4C4AEDFF8C8
:1008E000E4E2EF1C0026002317F8010FA44A194682
:1008F00006E00133212B02F10C020DD012F80C1C82
:100900008842F6D1DBB203EB430322680EEB83038C
:10091000511C1B7A216013702B7801369E42E2DB5A
:10092000A1E6964D2B78002B3FF49DAEDFF8948224
:1009300005F1030900263B27002319F8010F904A0F
:10094000194606E00133212B02F10C0216D012F8F1
:100950000C1C8842F6D1DBB203EB430308EB8303A4
:10096000D3F804A050461FF08BF9514602462046AA
:100970000FF098FC23685A1C22601F702B780136F8
:100980009E42D9DB6FE67F4952232268501C2060CB
:10099000137011F8013F002BF7D164E67A4F002263
:1009A00023683968581C895C206019703B6821688D
:1009B0001344481C9B7A20600B703B6821681344E9
:1009C00001321B7D481C0A2A20600B70E8D14AE6E0
:1009D0006E4D23682A68591C127821601A702B68A2
:1009E00022689978531C2360002311702A682168BB
:1009F0001A4401335279481C032B20600A70F5D148
:100A000023682A68591C127A21601A7023682A68A0
:100A1000591CD27821601A7023682A68591C1279EF
:100A200021601A702B68204659890FF06BFC2368EF
:100A30002A68591C527A21601A702B6821685878EC
:100A400002E7534B22681B88524DFF2B02F1010134
:100A5000A8BFFF2321601370AB6883F3100399B222
:100A600020460FF04FFC4C4B204619880FF04AFCF3
:100A7000296801F30F0189B220460FF043FC0123DE
:100A80001A46F2E5002120460FF024FC0021204602
:100A90000FF038FCE7E5414D204629880FF032FC85
:100AA000698820460FF02EFCB5F904303C49DA176E
:100AB00081FB0313C2EBA30399B220460FF022FC83
:100AC00001231A46D1E5374E3378002B3FF4CBADE6
:100AD000354F002537F8021F20460FF013FC3378FE
:100AE00001359D42F6DBBEE5304D314E05F1A007E4
:100AF00008E0204614350FF005FCAF4206F102066F
:100B00003FF4B1AD297B0029F3D030880CF002FE10
:100B10000146EEE7274EB389B3F5007F06F13405B1
:100B200094BF01270427403655F8041B91FBF7F1C9
:100B3000204689B20FF0E6FBAE42F5D11E4D1F4FA5
:100B400005F10C06B5EC010AD7ED077A80EE270A0D
:100B500020F014FF81B220460FF0D4FBAE42F1D159
:100B6000174D05F10C0655F8041B204689B20FF00D
:100B7000C9FBAE42F7D176E5842A0020B81B0020DD
:100B8000D04B02083C450208AC2300204C1F00203B
:100B9000783C00207C3C0020664300208C23002011
:100BA00067666666F822002002230020983D002038
:100BB000684300203823002080230020B434002024
:100BC000402B0020C44B0208B54B2046B3F8501010
:100BD0000FF098FB002120460FF094FBB14B1A68F0
:100BE000C2F3C003C2F380019B0043EA4103C2F396
:100BF00040010B43C2F3401143EAC10102F010026D
:100C0000114320460FF07EFB1EF0D2FD0146204628
:100C10000FF060FB2368A44A581C1178A34A206097
:100C20001970118864292046A8BF64210FF06AFB5F
:100C30002CE722689E4B501CD978206011702268E6
:100C40009C4B501C93F8301020601170216893F871
:100C50002700F9E5002120460FF054FB0021204633
:100C60000FF050FB002120460FF04CFB2268924D04
:100C70000023511C2160137022682968501C91F8D0
:100C800035102060117022682968501C91F84010BE
:100C90002060117022682968501C91F84110206072
:100CA00011702268511C216013702268511C216050
:100CB00013702268511C216013702B6893ED120A87
:100CC000B2EE048A20EE080A20F058FE81B22046D7
:100CD0000FF018FB2B6893ED110A20EE080A20F0A4
:100CE0004DFE81B220460FF00DFB23682A68591C87
:100CF00092F8372021601A702B68216893F8380029
:100D0000A2E56E4D23686A796B4E591C21601A70FA
:100D100033682046198C0FF0F5FA33682046598C59
:100D20000FF0F0FA698920460FF0ECFAA989204605
:100D30000FF0E8FA33682046998C0FF0E3FA336835
:100D40002046D98C0FF0DEFAE98920460FF0DAFA56
:100D5000298A20460FF0D6FA01231A4685E4574E19
:100D6000F378002B00F0D78723680822591C2160F4
:100D70001A7023680122991821601A702368504D57
:100D8000591C2A7921601A702368AA78591C21609D
:100D90001A70298820460FF0B5FADFED4A7A95EDF2
:100DA000050A20EE270A20F0E9FD81B220460FF067
:100DB000A9FA2368F279591C21601A702168E87831
:100DC00042E51EF0D9FBFF28054600F0B1870AA9CD
:100DD000002601F8266D0DF101008DF801601BF071
:100DE000F7F80AA800F8256D1BF0E6F80AA800F845
:100DF000246D1BF0D5F823685A1C22601D702368EF
:100E00009DF80120591C21601A7023689DF802206A
:100E1000591C21601A7023689DF80320591C216019
:100E20001A7021689DF804000EE5274B19682046CA
:100E30000FF050FA17E4236800255A1C22601D7039
:100E400023685A1C22601D7023685A1C22602946A0
:100E50001D7020460FF03EFA1BE41C4E3378002B29
:100E60003FF401AC1A4D0027A846236815F8172057
:100E7000591C21601A7098F8011001EB810101EBF7
:100E8000810101F2EE2189B220460FF03BFA33785E
:100E900001379F4208F10208E7DBFFF7E4BB00BF20
:100EA000F41600203423002094230020542D002029
:100EB00098350020B81B0020AC2300202C530020C4
:100EC000883E00200000C842A0360020F822002002
:100ED000E42C00202368A74D591C2A7821601A7041
:100EE00023686A78591C21601A70698820460FF0BF
:100EF00009FA23682A79591C21601A70E98820466A
:100F00000FF000FA2168287A9EE4002A3FF4ABAB88
:100F1000994B1360FFF7A7BB2368984A984D117847
:100F2000984A581C20601970116820460FF0D2F9B9
:100F30002368954A591C127A21601A702988204624
:100F40000FF0E0F9A98820460FF0DCF92989204646
:100F50000FF0D8F90021204668E608228A49204689
:100F60000FF0A0F901231A46FFF77FBB2268874BD9
:100F7000501C9978206011702168587864E42168C9
:100F8000002061E42168824A0123481C20600B7024
:100F900021689078CD182560087021681078CD18E8
:100FA0002560087021685078CA1822601A460870B7
:100FB000FFF75BBB236800205A1C22601870216871
:100FC0000123CA1822601A460870FFF74EBB6E4D07
:100FD00023682A7A591C21601A70698D20460FF007
:100FE00091F9E98C20460FF08DF9298D20460FF0FC
:100FF00089F9236895F82120591C21601A70A98E5F
:1010000020460FF07FF9E98E20460FF07BF9236828
:1010100095F82C20591C21601A70236895F82E2011
:10102000591C21601A70698E20460FF06BF92368F5
:10103000EA7A591C21601A70E96820460FF04AF9D3
:10104000236895F82020591C21601A70216895F8B2
:101050002F00FFF7F9BB494B21681878FFF7F4BB65
:101060002368DFF848814B4D591C022221601A7019
:10107000236806275A1C22601F7023680A22591C05
:1010800021601A7022680126931923601670B8F83F
:10109000001020460FF036F9B8F8021020460FF085
:1010A00031F922689319236017702268502391192F
:1010B0002160137022680023911921601370298820
:1010C00020460FF01FF9698820460FF01BF93346C0
:1010D0003246FFF7CABA2A4D204629880FF012F986
:1010E000A98820460FF00EF9298920460FF00AF949
:1010F00001231A46FFF7B9BA234B216893F823005E
:10110000FFF7A2BB23680022591C21601A702268D5
:101110000123D1182160137021682320CA1822608E
:101120001A460870FFF7A1BA1B4D05F1080635F8FD
:10113000021B20460FF0E6F8AE42F8D1FFF793BA53
:10114000164D2046A9890FF0DDF8698920460FF079
:10115000D9F801231A46FFF788BA114B20461968BF
:101160000FF0B8F80F4B204619680FF0B3F80E4B8C
:101170005CE600BF9C2A002099F701085C4500202E
:10118000D04C0020A036002030470020484D0020E1
:101190006E530020A82D0020142400209835002034
:1011A000ACF7FF1FB0F7FF1FB4F7FF1F882D00201B
:1011B000BC4BBD4DB3F8501020460FF0A3F80021F2
:1011C00020460FF09FF8B94B1A68C2F3C003C2F370
:1011D00080019B0043EA4103C2F340010B43C2F389
:1011E000401143EAC10102F01002114320460FF002
:1011F00089F81EF0DDFA014620460FF06BF82368EF
:101200002978AB4A581C206019701188642920463F
:10121000A8BF64210FF076F823680322591C2160CF
:101220001A7021686878FFF70FBBA24D2046298B02
:101230000FF068F8698B20460FF064F8A98B204600
:101240000FF060F801231A46FFF70FBA23689A4A95
:101250009A4D11789A4A581C20601970D1882046FE
:101260000FF050F8974B22681B88FF2B02F1010109
:10127000A8BFFF2321601370AB6883F3100399B2FA
:1012800020460FF03FF8296801F30F0189B220468C
:101290000FF038F88C4B21681878FFF7D5BA23681F
:1012A0000A22591C216020461A7000210FF02AF8EA
:1012B000002120460FF026F823685022591C216097
:1012C000204600211A70B1E40B22804920460EF01E
:1012D000E9FF08227E4920460EF0E4FF07227D49FF
:1012E00020460EF0DFFF01231A46FFF7BEB90422A5
:1012F000794920460EF0D6FF002120460FF002F873
:1013000021680020FFF7A0BA23680322591C21603E
:101310001A7023680222591C21601A70216800206B
:10132000FFF792BA04226D4920460EF0BBFF01235D
:101330001A46FFF79AB92368614D591C6A782160F3
:101340001A7023682A78591C21601A702368AA78B9
:10135000591C21601A70E98820460EF0D3FF2368DB
:101360002A79591C21601A7021686879FFF76CBAD4
:101370005B481EF085FC00287FF775A9584B1D18A7
:10138000226813F8011B501C9D4220601170F7D198
:10139000FFF769B9534D544F05F1500600232878E3
:1013A000524A194607E00133212B02F10C0200F0EA
:1013B000918412F80C1C8142F5D1DBB203EB43039C
:1013C000226807EB8303511C1B7A2160137023688A
:1013D0006A78591C21601A702368AA78591C216008
:1013E0001A702368EA780435591CB54221601A70D6
:1013F000D4D1FFF738B9531C2B6013780A2B7FF434
:1014000096A9931C2B603A4B51781970D11C296016
:1014100091785970111D2960D2789A70FFF723B91D
:101420001346511C2960264E13F8021B71702B6065
:1014300053783370D31C2B609378B37028460EF02A
:1014400025FF2B68F0801A46591C296012F8021BF0
:1014500031712A605B78737101231A46FFF705B971
:10146000244B1B7858073FF5FEA815F099FF15F09F
:101470007BFD01231A46FFF7F8B8531C2B60107848
:10148000060600F16E841B4B1B785D073FF5EBA849
:10149000032828BF002015F0BDFC01231A46FFF7E2
:1014A000E4B800BFF4160020942300203423002069
:1014B000542D0020883E0020B03C00207C3C0020C1
:1014C00028230020783C0020BC3500207C630208E3
:1014D0008863020884730208746302086C6302085C
:1014E00098230020E0460020C44B0208D04B02089D
:1014F000375200207C4E0020C44B1B785B073FF521
:1015000016A91DF0F3F80EF06BFC1DF0D7F815F0DE
:101510002BFD01231A46FFF7A8B8DFF84C8398F893
:101520000030002B3FF49FA8B94F002628460EF04C
:10153000ADFE0CF01BF998F8003027F8020B0136CD
:101540009E42F3DBFFF78FB828460EF09FFEB14EA8
:10155000308028460EF09AFE708028460EF096FEE7
:101560000123B0801A46FFF780B81146531C2B6048
:10157000A94B11F8020B1870296051785970D11CD1
:10158000296092789A7028460EF080FEA14A0123C5
:10159000D0801A46FFF769B8A04BA14918684C22C1
:1015A00022F0DDFA01231A46FFF75FB81346511CFB
:1015B00029609C4913F8020B08702B609A495378F4
:1015C0008B70D31C2B60994B927883F826200123D3
:1015D0001A46FFF74AB8531C2B6013780A2B00F009
:1015E000CB83502B7FF4A3A828460EF04FFE904EDD
:1015F000308028460EF04AFE012370801A46FFF71D
:1016000034B88C4A102E4FF00003304628BF10200B
:10161000136053609360D360137400283FF423A8D1
:101620002B68184401332B6013F8011C02F8011BCE
:101630009842F7D1FFF717B828460EF027FE7E4EE6
:10164000308328460EF022FE708328460EF01EFEE0
:101650000123B0831A46FFF708B828460EF016FE9D
:10166000714EB08128460EF011FE012370811A469A
:10167000FEF7FBBF531C2B60704B1278704F1A7033
:1016800000233B6028460EF0E9FD2A683B686D495F
:101690006D4E0343501C3B60286013780B72284644
:1016A0000EF0F4FD306028460EF0F0FD7060284624
:1016B0000EF0ECFDB06028460EF0E8FD28460EF076
:1016C000E5FD01231A46FEF7D0BF1346511C2960E1
:1016D0005E4E13F8021B31702B60537873702846EE
:1016E0000EF0D4FD2B6870805A1C2A601B78337171
:1016F00028460EF0CBFD2B68F0805A1C2A601B7820
:10170000337201231A46FEF7B0BF531C2B601778C3
:10171000112F3FF60CA8931C2B604D4E537806F802
:10172000173028460EF0B2FD40F6CA039842A8BF13
:10173000184640F2EE239842B8BF1846454AA0F238
:10174000EE2082FB003206EB4706C017C0EBE20238
:10175000012372701A46FEF788BF3F4B1B78012B9E
:101760003EF681AF1146531C2B603C4B11F8020B27
:101770009870296051781970D11C296092785A703C
:1017800001231A46FEF771BF1346511C2960254EEE
:1017900013F8021BB1702B60314953780B70D31CC6
:1017A0002B60254F93783B71131D2B60D378082B4A
:1017B000A8BF08232846BB700EF068FD2B686A6836
:1017C0003880D11A01290EDD28460EF05FFD07EEA4
:1017D000900A9FED247A6A682B68F8EEE77A67EE44
:1017E000877AC7ED057A934240F0CB8215F02AFB49
:1017F0002B686A689A423EF436AF5A1C2A601B78FE
:10180000FB7001231A46FEF730BF00BF7C4E00205C
:10181000A0290020842A00203C4D0020AC23002079
:10182000504D02082C53002098350020B81B002092
:10183000A82D002098230020883E00205C45002031
:10184000A036002030470020D04C00209C2A0020E9
:10185000E42C00201F85EB516D5300206E530020B7
:10186000383B00200AD7233C64430020531C2B60E4
:10187000B34FDFF8FC821378D7F8009088F8053072
:1018800028460EF003FDA9F820002846D7F800905E
:101890000EF0FCFC052EA9F8220000F27A8215F069
:1018A000D1FA0FF041F838680BF0ACFD01231A466D
:1018B000FEF7DBBE531C2B60A24B127883F823206B
:1018C00001231A46FEF7D1BE531C2B609E4B1278A3
:1018D0001A70FEF7C8BE531C9A4F2B6013783B72E8
:1018E00028460EF0D3FC788528460EF0CFFCF8840D
:1018F00028460EF0CBFC2B6838855A1C2A601B78D2
:1019000087F82130082E7EF6AEAE28460EF0BEFCDB
:10191000B88628460EF0BAFC0C2EF8867EF6A3AEEA
:101920002B681A46591C296012F8021B87F82C10E4
:101930002A605B7887F82E3028460EF0A7FC102E20
:1019400078867EF690AE2B685A1C2A601B78FB7254
:1019500028460EF083FC2B68F8605A1C2A601A781F
:1019600087F82020162E7EF67EAE9A1C2A605B78C1
:1019700087F82F3001231A46FEF777BE28460EF06F
:1019800085FC28460EF082FC28460EF07FFC2B6872
:101990006B4F9FED6E8AD7F800809A1C2A605A78A8
:1019A00088F83520DA1C2A609A7888F840201A1DB9
:1019B0002A60DA7888F8412007332B6028460EF039
:1019C00065FC07EE900AF8EEE77A284667EE887A1B
:1019D000D7F80090C8ED127A0EF058FC07EE900A86
:1019E000F8EEE77A112E67EE887AC9ED117A00F2E7
:1019F000AA81386812F040FB01231A46FEF735BE73
:101A00001346511C2960524913F8020B88702B6051
:101A100053784B7001231A46FEF727BE531C2B60E8
:101A200013780E2B3EF683AE911C29605678032E58
:101A30003EF67DAE474803EB43035B00C118D71C5D
:101A40004E712F609678C654131D2B60D3784B705F
:101A5000531D2B6013798B70931D2B605379CB70C2
:101A6000D31D2B6093790B7101231A46FEF7FDBD40
:101A7000394B02F1080001322A6012F8011C03F808
:101A8000011F9042F7D1FEF7EEBD1346511C2960AD
:101A9000324913F8020BC8702B603149537881F832
:101AA0003030D31C2B60937881F8273001231A46FD
:101AB000FEF7DBBDC6F34706122E3EF638AEBEB1CA
:101AC0000AAB0DF1020803EB46094746A9F12609C6
:101AD00028460EF0DBFB27F8020FB945F8D1214B61
:101AE00038F8022F23F8022FB845F9D1112E09D862
:101AF0001D4A7300023B13440021223223F8021FC7
:101B00009A42FBD11949012213460A70FEF7ADBD76
:101B10000B4B1868D31C411E21329E1E2E6013F8F9
:101B2000036C01F8016F5E1E2E6013F8026C8E725A
:101B30002B6013F8016C0E7503339A42EDD159E70F
:101B4000AC230020304700205C450020CDCCCC3DAC
:101B5000484D0020403700202F47002098350020B6
:101B6000B81B00204E2B0020502B0020742B00208F
:101B70002C530020092E7EF6DAADDFF8AC82134636
:101B8000511CD8F80070296013F8021B39702B60C3
:101B90005378BB70D31C2B609378642B02F1040143
:101BA000A8BF64237B712960D378642B02F10501FF
:101BB000A8BF6423BB7129601379FB71931D2B604F
:101BC0005379642B28BF6423D11D3B72296093791C
:101BD000FB7002F108032B60D3793B7128460EF0AD
:101BE00055FB0A2E788140F0FA801DF065FE012336
:101BF0001A46FEF73ABD814B1B7859073EF533ADC7
:101C00007F4A4FF4C871012311801A46FEF72DBD9B
:101C10007C4E0023336028460EF020FB32680123FF
:101C2000024332601A46FEF720BD28460EF02EFB16
:101C3000754E306028460EF029FB706028460EF085
:101C400025FB0123B0601A46FEF70FBD531C2B6025
:101C50001778132F3EF66BAD931C2B60002356783C
:101C60006A49184607E00133212B01F10C013EF4CB
:101C70005EAD11F80C0CB042F5D1DBB26448654999
:101C800003EB430310F8233001F82730D01C286001
:101C900001EB870391785970111D2960D0789870F5
:101CA000501D28605C491279DA70086817F048FC0A
:101CB00001231A46FEF7D9BC504B1B785A073EF554
:101CC000D2AC56490A78012342F004020A701A463F
:101CD000FEF7CBBC00231B7AFFDE2268511C21607B
:101CE0001370298820460EF00DFB2368EA78591CF2
:101CF00021601A7023682A79591C21601A702368A0
:101D0000AA79591C21601A7023686A79591C2160CC
:101D10001A70FEF74EBD2368B178414A581C206006
:101D2000197023681278591C21601A70FFF726B8C1
:101D300021680123CA1822601A460870FEF795BC74
:101D4000C146FEF7C6BC2B683868591C1A46296084
:101D500012F8021B80F837102A605B7880F8383060
:101D600048E600F07F00032828BF002015F03EF869
:101D700001231A46FEF779BC28460EF087FA294E51
:101D800036E45A1C2A601B78003318BF0123F37114
:101D90002CE528460EF07AFAA8F80A0028460EF03C
:101DA00075FAA8F80C002846D7F800900EF06EFAE5
:101DB000A9F824002846D7F800900EF067FA0D2EF7
:101DC000A9F826007FF66BAD28460EF05FFAA8F85A
:101DD0000E0028460EF05AFAA8F810005FE52B68AE
:101DE000D8F80020591C2960197851720B2E3FF445
:101DF000FCAE991C29605B785370F6E67C4E00209F
:101E00008A210020A0360020D04C0020D84B0208A8
:101E1000C44B0208E0460020AC230020BC43002055
:101E2000383B0020882D00204C1F0020836842682A
:101E3000D0ED037A00EB83010133934281ED040A74
:101E4000836004BF0023836000EB830393ED047A77
:101E5000036870EE277A9A42C0ED037A77EEC77A6C
:101E6000C0ED037A0CDA013307EE103AF8EEC76AD8
:101E7000B7EE007A87EEA60A036030EE070A7047D5
:101E800007EE102AB8EEC77A87EE870A704700BFC0
:101E900090ED057A90ED004AD0ED066AD0ED014A4A
:101EA000D0ED047A90ED035AD0ED025AA4EE007AF8
:101EB000B0EE406AB0EE470AB0EE667AA6EE247A3B
:101EC00067EEC07AA0EE457AE6EE257A80ED057AD7
:101ED000C0ED067A704700BFD0ED007A90ED017A30
:101EE00030EE670AE7EE007AB0EE670AC0ED007ADE
:101EF000704700BF704700BF10B4023801F11004F2
:101F00004A7811F8023B43EA02238C4220F8023F50
:101F1000F6D15DF8044B70474FF40063838170473E
:101F20004FF400638381704750F8043C012280F82D
:101F30002F20143803B11847704700BF90F8433082
:101F4000024603F0FF0013B1002382F843307047CC
:101F500070B5044682B01830E56C94F860106B469A
:101F60000622A847A8B19DF804009DF800609DF8DE
:101F700001109DF802509DF803209DF8053041EABC
:101F8000062143EA002342EA052221846284A384D5
:101F9000012002B070BD00BFF0B5044683B0083028
:101FA000A5696B4606223B21A847A0B19DF80070A9
:101FB0009DF801109DF802609DF803209DF80450E3
:101FC0009DF8053041EA072142EA062243EA05234B
:101FD000E1812282638203B0F0BD00BF70B4046867
:101FE000037B2268022101FA03F31A4213D04269EB
:101FF0000A49582000FB02124FF6FE7650685289BB
:10200000C5680068296831402960C168D24392B22E
:102010000A40C260636070BC704700BFB03E0020E1
:102020000A4B1B788BB130B4094B1C7864B1094B57
:10203000002503EBC4041A6899885562D0680833F8
:102040000143A342D160F6D130BC70471443002055
:10205000D0420020D44200201B4B70B41C788CB3BB
:102060001A4E582505FB00656C685CB3E4684CB3F8
:102070002B7B43EA41039AB2131283EA121300EB5B
:102080008001534000EB4100C00003F00F0343EA1E
:102090000213002100F10C024C309BB23244304458
:1020A000297313F4004F14BF0E21072142F8041FB7
:1020B0005B0082429BB2F4D112236360236843F039
:1020C0000103236070BC704714430020B03E002021
:1020D0002DE9F041A54C2368054653B119689A884B
:1020E0000B8A1A4205D02379E3B100252846BDE8C2
:1020F000F08118F05FFA0646402017F0EFF88207EB
:1021000043D483066ED5C020002508F077FD2379DF
:102110004BB12846BDE8F081C02008F06FFD23795F
:10212000002BE2D1002518F045FA236B904AC31A20
:1021300093420BD9A36A2063642B9ABFC3F1640353
:10214000DBB20023002284F82D30A262636B4DF6CF
:10215000A862C31A934213D8864E236A3268C31A00
:10216000934221D8012DC1D101251CF0BFFA0DF0F9
:1021700037FE1CF0A3FA14F0F7FE2846BDE8F08104
:102180000123606384F82C30E6E72579002DBAD16D
:102190006379E218013303F00F03117A63710F20A2
:1021A00008F0D4FCC020B0E7636A20620133A020AD
:1021B000636208F023FD6379E2180133117A03F0BA
:1021C0000F030F20637108F0C1FCC02008F016FD5A
:1021D000616A40F60A7341F28F621F2988BF134675
:1021E0003360BFE7F020644F08F008FD252017F0AA
:1021F00037F93B78582B32D08ED3BB3B012B8BD891
:102200002379002B3FF47FAFFB7AD7F80120E261FE
:10221000FF2B7FD107F10B054FF0FF33C7F80B30D1
:102220006B60AB60EB602B616B612B837B7AA26987
:10223000C7F80520012B4FF0E0004FF0FF3388BFB7
:102240000023237108F0DAFC25224B49052008F011
:102250001BFC2379002B66D0D020002555E70422F3
:102260004649781D21F06CFC00287FF44CAF042215
:102270004349781C21F064FC00287FF444AF3B46BE
:10228000A26A53F8098F3B49D3F804C0D3F80CE095
:1022900026629E6894F82C30AE60013241F2FE0650
:1022A0006062C5F80080C5F804C0C5F80CE0A26201
:1022B0000E60002B4DD0334B94F82D601B8884F8B2
:1022C0002C0003EB83035B009BB24FF0FF324FEA1D
:1022D000132EAA25FB72FE237872B872B873387475
:1022E00087F80CE0C7F81520C7F81120C7F81920A7
:1022F000C7F81D20C7F821203D707B73E020FE73D6
:1023000008F07CFC39462522052008F0BDFB02259B
:10231000D020FAE63D461C4E55F80B0F6968AA68B6
:10232000EB680FC678E7184B184FE6690FCB07F13B
:10233000100585E80F0036BAFE6018F03BF9206200
:10234000D02008F05BFC23790125002B3FF4EBAE95
:102350000AE76379E218013303F00F03117A63711E
:102360000F2008F0F3FB0225C020CEE6F81B00206A
:10237000E8DF050000000020B8460020101C002007
:10238000141C0020783C0020001C00203047002056
:102390002DE9F041484B494E494D3360A3F1E00728
:1023A00008220A701E24022282B087F8E72020212A
:1023B00087F8E6408046184608F05CFC0021084695
:1023C00008F0C4FB54207521C5222A238DF804008F
:1023D00001A88DF805108DF806208DF8073000242F
:1023E00016F0D8FF0134E4B2322C20460AD015F89A
:1023F000011FFF29F6D00134E4B208F0A7FB322C0C
:102400002046F4D1A02008F0F9FB0121022008F0B9
:102410009DFB422016F062FF04460028F9D162209D
:1024200016F05CFF1321242008F090FB09212520E1
:1024300008F08CFBA02008F0E1FB1E23202121489E
:10244000BB73FC7308F016FC1F4B2049204A096837
:102450001B6812684B4053401A0A1D0E190C0A20C3
:10246000F376B2763576717618F0F0F8BB68BA89F3
:102470001B8A1A4214D04346164D53F8100FD8F851
:102480000C7059689A68DB6834710FC5390E3A0CC4
:102490003B0AF77731777277B37702B0BDE8F08106
:1024A000FF230D210F20337108F050FBC02008F0EE
:1024B000A5FB02B0BDE8F08190460020F81B00208B
:1024C0006C450208B8450020ACF7FF1FB0F7FF1FAE
:1024D000B4F7FF1F001C002070B5044600681646C4
:1024E0001D4610B1036882881A8541F080010748B3
:1024F0000DF084FA3146284619F0E2F9236813B149
:102500001A689B889361012070BD00BF00300140B4
:1025100038B503680446154613B11A689B881385BD
:1025200006480DF06BFA294604480DF067FA236857
:1025300013B11A689B889361012038BD00300140B7
:1025400038B5836C0446FBB1187808F04BFD05469E
:1025500000286AD0202300218371C17108F0E4FFB4
:102560002146384B41F8143F284616F057FEAB88F9
:10257000B3FA83F3C3F11F035A1C05D001229A401A
:1025800031490B6813430B6004F11805236D802259
:102590006B212846984719F041F8236D07226821DE
:1025A0002846984719F03AF8236D00226B212846F7
:1025B000984719F033F8236D01226B21284698477C
:1025C00019F0B2F894F84120236D032A34BF182281
:1025D0001A221B212846984719F0A6F8236D1822C5
:1025E0001C212846984719F09FF8236D94F8402045
:1025F0001A212846984719F097F8236D94F842203D
:1026000019212846984719F009F8236D102237211F
:102610002846984719F088F82846236D012238216A
:102620009847BDE8384019F07FB8014608F07CFFB4
:102630002146044B41F8143F284616F0EFFD0122D5
:102640009EE700BF291F00080004014038B51C4C5C
:10265000238823F040031B041B0C2380238823F0D2
:1026600038031B041B0C43F03003238023889BB2E8
:1026700043F0400323800546012017F0E7FF28467A
:10268000FFF75EFF05F1180010226A21FFF740FFF7
:1026900018F0C4FF238823F040031B041B0C238085
:1026A000238823F038031B041B0C238023889BB250
:1026B00043F0400323800120BDE8384017F0C6BF37
:1026C00000300140F0B5064683B00D4600240127D6
:1026D00014E003290CBF03220122C3F3011E694643
:1026E000C3F3810330468DF805208DF806E08DF8A0
:1026F000073012F02FFC0134102C0FD02B8807FA72
:1027000004F21342F7D0AB78E9780092022903F083
:1027100003028DF80420DCD10A46DEE703B0F0BDE9
:102720000A44914251D030B441F2210411F8013BE6
:1027300080EA0320430010F4004F84EA03059BB2B3
:10274000ADB208BF1D466B0015F4004F84EA0300CC
:102750009BB280B208BF1846430010F4004F84EAD1
:1027600003059BB2ADB208BF1D466B0015F4004FC8
:1027700084EA03009BB280B208BF1846430010F4FD
:10278000004F84EA03059BB2ADB208BF1D466B0043
:1027900015F4004F84EA03009BB280B208BF1846CC
:1027A000430010F4004F84EA03059BB2ADB208BFAA
:1027B0001D466B0084EA030015F4004F85B298B201
:1027C00018BF28468A42B1D130BC704710B507EE19
:1027D000901A2DED028BB8EE678ADFED207A28EE95
:1027E000008A044628EE278AB0EE480A1FF012F944
:1027F000F0EE408AB0EE480A1FF06EF8F7EE007A6D
:102800009FED177AF0EE675AE8EE875A0023A3612E
:10281000B0EE676AC7EEA56A6361A8EEC76ABDEC51
:10282000028B77EEC07AB6EE007AF8EE005A27EE09
:10283000877A20EE250A27EE267A26EE266A66EEAD
:10284000A77A20EE260A84ED046AC4ED017A84EDAD
:10285000007A84ED027A84ED030A10BD27D4D236C3
:10286000F304353F70B51C4C236D226BDD69C2B19A
:10287000636B2BB12B0702D5236D08221A6270BD42
:102880002A06F7D5A26A616A8A421FD0511CA06944
:10289000A162825C2069266D81423285EAD3A362FF
:1028A000E8E7A906E4D5E26A1AB1988C80B29047AD
:1028B000DEE7E1699B8C6069DBB24E1CE661435444
:1028C000E169E368994228BFE261D1E7226D1368AC
:1028D00023F080031360CDE7943800200348D0F83C
:1028E0003C3113B100F59A70184770476815002005
:1028F0000348D0F8203113B100F58C7018477047A9
:10290000681500200348D0F804310BB1FC3018479B
:10291000704700BF681500200348D0F8E8300BB1BD
:10292000E0301847704700BF681500200348D0F812
:10293000CC300BB1C4301847704700BF6815002079
:102940000348D0F8B0300BB1A8301847704700BF2B
:10295000681500200348D0F894300BB18C3018472C
:10296000704700BF681500200248836F0BB17030BC
:1029700018477047681500200248C36D0BB15430EA
:1029800018477047681500200248036C0BB13830B7
:1029900018477047681500200248436A0BB11C3085
:1029A00018477047681500200248836803B118472C
:1029B000704700BF681500201749184B184A19487E
:1029C00010B4D1F8884044F47004C1F888401C6801
:1029D00044F001041C605C6822405A601A6822F0CE
:1029E000847222F480321A601A6822F480221A60FB
:1029F0005A6822F4FE025A60DA6A22F00F02DA62A2
:102A00001A6B002410404FF0006218639C608A60CB
:102A10005DF8044B704700BF00ED00E0001002407D
:102A20000CC07FF8CCFC00FF2DE9F04F2DED028BA0
:102A30008FB006461AF0B0FA974B1F7827B10FB047
:102A4000BDEC028BBDE8F08FDFF8A4B2DBF80030FC
:102A50005C05F4D5914B924D1B78002B40F04E81D4
:102A6000904B1B78002B60D08F4C904AD4F8643187
:102A7000F31A934201F2298094F8987197BBDFF81A
:102A80003882D8F8000018F0E3FAC0B201280ED955
:102A9000022841F0A683864B1A78002A41F0AC85C3
:102AA000D4F89C21B21AB2F57A6F81F0D686D4F8A8
:102AB000A021002A39D094F89831B3B97D4BD8F8C9
:102AC00000001B689B780122022B84F898214FF0AC
:102AD000020101F21383043013F073FF002384F822
:102AE000AC3120E0D4F8A021FAB1D4F8A83140F6F6
:102AF000B731F31A8B4218D994F8A431002B41F066
:102B000001836C4AC4F8A031126884F89831937834
:102B1000022B694B01F20D8418680121043013F077
:102B200050FF13F067FFC4F8A861644B2F681B784F
:102B300053B1DFF8C081D8F8000028B1604B1B7892
:102B4000013B012B41F220805E4B1B7863B15E4F4D
:102B50003B684BB1544CD5F80090D4F8E032A9EB67
:102B60000303632B00F21687584C2378022B01F0E5
:102B70004182DFF8848198F80030032B00F0F08761
:102B8000534B1B7873B1534F3B685BB1464C17F006
:102B900011FDD4F8E832009044F61F62C31A934244
:102BA00000F278814C4B1B78002B4BD14B4B1B78A0
:102BB00043B13D4CD4F83C3403F5C333A0339E42BB
:102BC00080F04487464B1B78002B3FF438AF364EDD
:102BD000444C454D06F25D47206818F039FA00284C
:102BE0003FF42DAF206818F02FFA2B7880465A1E3C
:102BF00033B120682A7018F02BFA0028F2D11EE7B2
:102C000003223946781E20F0B5FF96F85C3496F81A
:102C10005D2486F85F8483F47F4383F0FF039B1A6F
:102C20001FFA88F89BB2B8EB132FD5D196F85E2423
:102C3000DBB29A42D0D1781E13F0BAFD2B7818443B
:102C40002870C9E7294C2278002A40F0E386164C08
:102C5000D4F8303403F5C333A0339E42A6D394F89E
:102C60003934C4F83064234493F83454E80701F14C
:102C70006784A90701F123846A0701F1828294F82D
:102C8000393494F83A14013393FBF1F201FB123317
:102C900084F839348AE700BFA62A0020D44E0020E9
:102CA00084480020DE4E0020701C00203F0D0300F1
:102CB00095000020E04E0020BC3C0020E54E0020A6
:102CC000EC4E0020F44E0020F0480020422C002062
:102CD000FC4E0020004F00204C4F00204D4F0020A4
:102CE000064F0020104F00200C4F0020CC4E00203B
:102CF00060450020743C0020150100205B4C2A68D0
:102D0000D4F85C31D31A7C2B7FF6AAAE94F86031EC
:102D1000DFF878919FED568AC4F85C21013384F87E
:102D200060314FF02408404613F0DAFE514BF9ECC5
:102D3000016A9B8907EE103AF8EEE66AB8EEC77AA8
:102D400008F10108C6EE877A5FFA88F867EE887A9C
:102D5000FDEEE77ACDED007ABDF900A05FFA8AF0CA
:102D600013F094FECAF3072013F090FEB8F1270F7A
:102D7000D9D1302013F0B4FEDFF81481002013F015
:102D800085FE002013F082FED8F800005E2118F0C6
:102D900063F994F8603113F003092DD1D4F85C2164
:102DA00041F288339A4201F22D85142013F098FEE7
:102DB000314B324AB3F9043082FB03124FEAE37914
:102DC000C9EBA2090FFA89F95FFA89F013F05EFEE8
:102DD000C9F3072013F05AFE1C2013F081FE0020D7
:102DE00013F054FE002013F051FE5E21D8F80000CD
:102DF00018F032F994F86031580701F0CD82282B91
:102E00007FF42EAE00271720D5F8009084F860716B
:102E100013F066FE384613F039FE194B194CA3FB2C
:102E200009239B0BA4FB03125209C2EB0212A3EB72
:102E30008203D8B213F02AFE182013F051FE124B71
:102E4000A3FB09239B09A4FB03125209C2EB021244
:102E5000A3EB8203D8B213F019FE384613F016FE26
:102E6000D8F800005E2118F0F7F8F9E5701C002092
:102E700000007A44382300208C23002067666666B1
:102E800073B2E74589888888D34D62106C2300208F
:102E9000C03C002094F8EE32002B41F05381E34B0C
:102EA0001A6802F00803002B48F603414AF60B406B
:102EB0004BF60F4349F6074804BF0346884612F015
:102EC000040F4FF0190118BF9846920684F8EE12CD
:102ED00003D548F4804848F02008D54B1A79C8F348
:102EE00009010191002A41F0FF845B79002B41F038
:102EF000F3849A4664204FF0FF330A464FF00009EE
:102F0000CDF81880CDF81C800892ADF826A0ADF859
:102F100028308DF83600ADF82490CDF82A90CDF801
:102F20002E90CDF832900DF1180CBCE80F00DFF8B0
:102F300010E384F85190AEE80F009CE80F00AEE873
:102F400007002EF8023B71464FF0010C1B0C4FF0AE
:102F5000FE0E1F20C82201F81E3984F84EE084F8C6
:102F6000522084F853C084F84F0094F8FE0284F88D
:102F7000500080F0F10383EA0313DAB2130983F0FF
:102F8000E70343EA022383EAC2031BB283EA031284
:102F9000D2B2C3F3072383EA121343EA022383EA7C
:102FA000C2031BB283F0C80282EA0212D2B2C3F398
:102FB000072383EA121343EA022383EAC2031BB204
:102FC00083EA0C0E8EEA0E1E5FFA8EFEC3F3072212
:102FD00082EA1E1242EA0E22604482EACE0E84F891
:102FE000FE02A4F84CE001F11F0011F8013B83EA56
:102FF0000E0383EA0313DBB21A0982EA1E2242EAB5
:10300000032282EAC3031BB21FFA83FE8142A4F8A3
:103010004CE0EAD183F07C0383EA0313DBB21A09A4
:1030200082EA1E2E8EEA032E8EEAC30E0FFA8EFE61
:103030001FFA8EF34FEA132A5FFA8EFEA4F84C3083
:10304000DFF8009284F874A004F16E0384F873E052
:1030500004F14E0C0193DCF80C30DCF80000DCF8D5
:103060000410DCF80820C846A8E80F00019B0CF10A
:10307000100C9C45C146EED1DCF80000C8F80000F9
:10308000DFF8C4819CF8043089F8043008F127097E
:1030900084F84DE384F84EA318F8011F386817F040
:1030A000DBFFC145F8D194F8EF22002A41F04580BA
:1030B00060492B6808780A2184F8EF12002801F093
:1030C0003E81DFF888C10128BCF80010059141F26B
:1030D0009E85BCF802100391022801F02184BCF8FF
:1030E00004100291032801F07B85BCF806100191C1
:1030F000042801F06F850528BCF8081001F06585EB
:103100000628BCF80AA001F05C850728BCF80CE092
:1031100001F05185BCF80E9094F8FE2206931046FB
:1031200080F0300383EA0313DBB20490424A9DF837
:1031300010C0128884F850C0180980F07A0040EA64
:10314000032080EAC3033D48C2EB022280FB02C099
:103150001044D217C2EB602205988DF82D204FF055
:10316000000860F30F0802984FF0000C60F30F0C9A
:1031700000201BB261F30F0000216EF30F0183EA00
:10318000031EC3F307230293039B63F31F48019BB2
:10319000CDF81C8063F31F4C029BCDF820C05FFA72
:1031A0008EFE6AF31F4069F31F4183EA1E134FF03E
:1031B000000A09900A918DF82CA043EA0E2C0DF11B
:1031C0001809B9E80F008CEACE0E0FFA8EFE8EF0C9
:1031D000C808DFF86CC084F851A088EA08185FFAC4
:1031E00088F8CEF3072EACE80F008EEA181E4EEAE0
:1031F000082399E8030083EAC8080FFA88F383F0EC
:1032000023024CF8040B82EA0210C0B2C3F3072277
:1032100082EA1012049B2CF8141942EA0022591C6D
:1032200082EAC0004FF02308162211E03423002068
:1032300028230020F8220020664300200308208075
:10324000C41C0020981F0020971F0020042300208A
:103250004FF0FE0EC82384F8FE12A4F84C000CEBCD
:10326000020184F8538084F84EE084F84F2084F8FB
:1032700052301CF8013B434083EA0313DBB21A09C6
:1032800082EA102242EA032282EAC3031BB298B206
:103290008C45A4F84C00ECD183F0F40383EA0313CB
:1032A000DBB24FEA131E8EEA102E8EEA032E8EEA50
:1032B000C30EA0460FFA8EFE1FFA8EF958F84E0F75
:1032C000DFF81CC4A4F84C904FEA192A5FFA8EFE6E
:1032D00084F86AE084F86BA0D8F80410D8F80820C5
:1032E000D8F80C30ACE80F00D8F81000D8F814105B
:1032F000D8F8182004F24539ACE8070004F2273862
:1033000084F845A384F844E318F8011F386817F0DF
:10331000A3FEC145F8D194F8F6E2BEF1000F40F0EB
:103320001A87E84B94F8FEC2B3F90010B3F90220F3
:10333000B3F904309FEDE46A84F851E007EE103AE7
:103340002B6806938CF06A0383EA031306EE901A47
:10335000D9B20B0983F0D50343EA012383EAC10301
:103360001BB283EA03115242C9B207EE902AC3F39B
:10337000072383EA111343EA0123F8EEE77AF8EE14
:10338000E66AB8EEC77A83EAC1031BB267EE867AB3
:1033900066EE866A27EE067A002083F0C805CDED3A
:1033A000087ACDED076A8DED097A0A900B900C90A2
:1033B00085EA05150DF11809EDB2C3F30728B9E840
:1033C0000F0088EA151848EA052888EAC505DFF8DD
:1033D00014832DB2A8E80F0085F01E0E99E80700AF
:1033E0008EEA0E13DBB2C5F3072E8EEA131E4EEAE9
:1033F000032E88E807008EEAC30EA8F110051C20F2
:10340000C8214FF005091E234FF0FE080CF1010200
:1034100084F8521084F8F69284F8533084F84E8081
:1034200084F84F00291884F850C0A4F84CE084F8C0
:10343000FE2215F8013B83EA0E0383EA0313DBB295
:103440001A0982EA1E2242EA032282EAC3031BB25D
:103450001FFA83FE8D42A4F84CE0EAD183F02703E3
:1034600083EA0313DBB21A0982EA1E2E8EEA032EC8
:103470008EEAC30E0FFA8EFE1FFA8EF34FEA13295F
:103480005FFA8EFEDFF85882A4F84C3084F8719011
:1034900084F870E004F14E0C04F16E0ADCF80000D0
:1034A000DCF80410DCF80820DCF80C3045460FC5C9
:1034B0000CF1100CD445A846F0D1844DBCF8003076
:1034C000A8F8003005F1240884F84AE384F84B9307
:1034D00015F8011F386817F0BFFD4545F8D194F87D
:1034E000F7320193002B40F0328694F8FE82754B40
:1034F000774AB3F90410B2F90620DFF8ECC1754D34
:10350000DFF8E09184F8508088F0220383EA031307
:10351000DBB2180980F05900B2F5FA6F40EA0320D7
:1035200080EAC303A8BF4FF4FA621BB2B2F57A7FF8
:1035300083EA0310B8BF4FF47A72C0B24FF0640E42
:10354000A2F57A72C3F307230EFB02F283EA10138B
:1035500085FB02E543EA00238CFB01CED217C91795
:103560004FF0000AC2EBA512C1EBAE0183EAC00323
:103570001DB2CDF818A00DF1180CADF82A20ADF849
:103580002810CDF81CA0CDF820A0CDF824A085F0FF
:10359000C80ECDF808C0BCE80F008EEA0E1E5FFA18
:1035A0008EFEC5F3072585EA1E1545EA0E25A9E816
:1035B0000F0085EACE0212B282F04A0383EA0313B7
:1035C000DBB2C2F3072181EA1311DCF8002049F8CD
:1035D000102941EA0321052081EAC303142508F1DB
:1035E00001029DF8041084F8F7024FF04A0C4FF0E6
:1035F000FE0EC82084F8511084F8FE2209EB050164
:1036000084F84F50A4F84C304A4684F853C084F8EC
:103610004EE084F852001D4612F8010B684080EA23
:103620000010C0B2030983EA152343EA002383EAAA
:10363000C00000B285B28A42A4F84C50ECD180F0B0
:10364000140080EA0010C0B24FEA101E8EEA152E58
:103650008EEA002E8EEAC00E25460FFA8EFE1FFA65
:103660008EF855F84E0FDFF878C0A4F84C804FEA7A
:10367000182A5FFA8EFE84F869A084F868E0696809
:10368000EB68AA68ACE80F00286969692B8BACE885
:10369000030004F22735ACF80030A84684F843A3B1
:1036A00084F842E304F2433A18F8011F386817F02F
:1036B000D3FCC245F8D1084B084A1B781278013B6D
:1036C00014E000BF8C23002088C3E43A971F002039
:1036D00004230020D34D62105C4500207C4E002066
:1036E000981F0020C41C00206766666612F0040064
:1036F000DBB214BFC0224022172B04D8CA490B44A6
:1037000093F824300193C94B19888B071ABF002303
:1037100042F01002012311F4027F18BF022311F0BE
:10372000100F18BF062311F0200F18BF1023002818
:1037300041F07C80032194F8FEE206938EF046036C
:1037400083EA0313D8B2030983F0920343EA002308
:1037500083EAC0031BB283EA0310C0B2C3F3072895
:1037600088EA101848EA002888EAC0080FFA88F8A2
:1037700088F0C80C9DF804008DF81C008CEA0C1C25
:1037800000235FFA8CFC8DF81E200320029A8DF82E
:103790001D30C8F307288DF81F108DF8200088EA27
:1037A0001C1807CA48EA0C2888EACC0C0FFA8CFCD3
:1037B0008CEA0C18A9E803005FFA88F8CCF307211B
:1037C00081EA181141EA082181EAC80894F854C036
:1037D00089F800200FFA88F28CEA020C8CEA0C1CA3
:1037E0005FFA8CFCC2F3072282EA1C1242EA0C2226
:1037F00094F8550094F8561094F8579094F858801F
:1038000084F8533082EACC0212B2504080EA0010B1
:10381000C0B2C2F3072282EA101242EA002282EA10
:10382000C00212B2514081EA0111C9B2C2F30722AB
:1038300082EA111242EA012282EAC10212B289EA44
:10384000020989EA09195FFA89F9C2F3072282EAB3
:10385000191242EA092282EAC90212B288EA02086F
:1038600088EA08185FFA88F8C2F3072282EA181279
:1038700042EA082294F859C094F85A0094F85B1070
:1038800094F85C9084F8513082EAC80212B28CEA53
:10389000020C8CEA0C1C5FFA8CFCC2F3072282EA51
:1038A0001C1242EA0C2282EACC0212B2504080EA98
:1038B0000010C0B2C2F3072282EA101242EA0022CC
:1038C00082EAC00212B2514081EA0111C9B2C2F3C8
:1038D000072282EA111242EA012282EAC10213B2ED
:1038E00089EA030282EA0212D2B2C3F3072383EA0F
:1038F000121343EA022383EAC2031BB283F03202AB
:1039000082EA0212D2B2C3F3072383EA121343EA14
:10391000022383EAC2031BB29AB24FF0FE0CDFF817
:10392000208184F850E00920C8210EF1010EDBB29D
:1039300084F84EC04FEA122C84F84F0084F85210DD
:1039400084F8FEE2A4F84C2084F85EC084F85D3070
:10395000D8F80000D8F80410D8F80820B8F80CA05F
:1039600008F2DA2EAEE8070008F2EA288EF8029094
:10397000AEF800A084F838C384F8373315F8011F77
:10398000386817F069FBA845F8D1009BC4F8E83205
:10399000FFF708B9DFF8ACA0DFF8AC80412012F0E7
:1039A000C3FFBAF9023088FB0320DB17C3EBA0008A
:1039B00080B212F09FFFBAF9003088FB0320DB17BA
:1039C000C3EBA00080B212F095FFBAF9043088FB77
:1039D0000320DB17C3EBA00080B212F08BFF144B67
:1039E0003868197817F038FB94F8E43213F00108BE
:1039F00000F001840F4AC4F8E0920133DBB2A2FB6D
:103A00000312D20802EB8202A3EB420384F8E432F1
:103A1000FFF7AAB8084B0949186817F0F1FA002314
:103A20002370FFF714B900BFE0450208982A002070
:103A3000524C0020CDCCCCCCA02C0020A84E002095
:103A4000BE1C00208C2300206766666694F8403414
:103A5000B64AC4F83C6402EB8302D26B42B30EADAB
:103A600004F24743B24E45F8203D002104F2594389
:103A70003180079380211523A52784F846342846F2
:103A800084F8451484F844749047284631880CF033
:103A900039FC069DA74804F244416D1A152DA8BFB4
:103AA00015252A4620F05BF8A34A94F84034157097
:103AB000A24A013382FB0312A2EBE37202EB420241
:103AC0009B1A84F84034FFF77DB89D4A9D4BD77B05
:103AD0002968D4F894211B88891A4FF47A72D8B2D5
:103AE00002FB07F21B0A84F8860184F87C019142EC
:103AF0004FF0000084F8873184F87D3184F86A0142
:103B000084F86C0180F02D838F4B90491A689B6874
:103B1000C4F8646181FB0270D21781FB0371C2EBB0
:103B2000A002DB17C3EBA10311124FEA232EF427E7
:103B300084F88421012084F8851184F888313021AB
:103B40007522782384F889E184F8827184F88301EE
:103B500084F88A1184F88B2184F88C31FEF78CBFAD
:103B60007B4F386803685B69984700283FF408A8D2
:103B70003868036801219B6998470222002388F86E
:103B800000202370FEF7FCBF724CDFF8D0914FF09D
:103B9000000A0BE01B2B00F040820D2B00F00B8283
:103BA0004FF0010389F80130D8F8000017F050FAFF
:103BB000002837D0D8F8000017F046FA83B27E2BE1
:103BC0002A6828D099F80120002AEDD194F8AE1186
:103BD0000029DFD07D2B00F0028294F8B2E1BEF123
:103BE000000F04D080F02003DBB284F8B2214A1C1D
:103BF000D2B2092A635484F8AE2100F0E481082A85
:103C0000D2D8B4F8B021134403EB132303F0FF031D
:103C1000A4F8B031C8E784F8AEA184F8AFA189F860
:103C200001A0C1E794F8B3312BB1637884F8B301F4
:103C3000302B00F0778594F8AF213C4BDFF82091D2
:103C4000DFF820C1DFF820A14FF0010E002A3EF47A
:103C50007BAF2968C91B012900F2A88194F8C482AE
:103C6000B8F1000F40F0E58194F8D81233F8110054
:103C700010B984F8D8E2E9E70131B0F5826F84F831
:103C8000D81200F0F4801ED9B0F5E26F00F0BB80CE
:103C900033D9B0F5046F00F0C480B0F5116F00F0B7
:103CA000CC80B0F5E46FD1D12B4AD76B91896423D6
:103CB00003FB07F393FBF1F112F069FE002384F894
:103CC000AF31FEF741BFB0F5007F00F032814DD833
:103CD000B0F5807F00F01E81B0F5887FB6D1D9F8AD
:103CE00000104907B2D500214FF4887012F04FFE42
:103CF000002384F8AF31FEF727BFB0F5C06F00F0A6
:103D00002B81B0F5E06FA1D1134A506B91896423E8
:103D100003FB00F34FF4E06093FBF1F112F037FE88
:103D2000002384F8AF31FEF70FBF00BFE045020863
:103D3000824E002004500020195000205655555541
:103D40009C3C0020783C00207C3C00206766666636
:103D50009C2C0020701C002038230020950000209F
:103D60003423002028230020B03C0020B0F5047F3D
:103D700000F00281B0F5806F7FF468AF94F8D9321B
:103D80000133DBB2032B00F22F8142F2107184F871
:103D9000D93201FB03F1B74B1B78D80748BF01317B
:103DA0009A0748BF02315F07B34B1B8848BF0431F5
:103DB000D80748BF0A319A0748BF14311F0648BFC9
:103DC0002831D80548BF28315A0748BF64311F073A
:103DD00048BFC831980548BF01F5C8719A0648BF69
:103DE00001F57A71DF0648BF01F5FA61580648BF50
:103DF00001F57A614FF4806012F0C9FD002384F868
:103E0000AF31FEF7A1BE9D4A976B9189642303FBF6
:103E100007F393FBF1F112F0BAFD84F8AF81FEF7DE
:103E200093BE974BB3F9041001EB8101490012F0E6
:103E3000AEFD84F8AF81FEF787BE9CF80410002920
:103E40003FF404AF9AF8001000293FF4FFAE8D4B09
:103E50001B8803EB83035B004FF4116093FBF1F1CC
:103E600012F095FD002384F8AF31FEF76DBED9F84E
:103E7000001011F020087FF4E9AEDBF8001009060D
:103E800000F11A848049097C00293FF4DFAE94F8E0
:103E9000DA12032900F20486DFE801F03228190261
:103EA000D4F8DC3259799A79DB7901F1407101EB70
:103EB000022101EB0341002384F8DA324FF48260DF
:103EC00012F065FD002384F8AF31FEF73DBE6F4B65
:103ED0001A68937D507D127D1B0403EB002313446D
:103EE0004A1C84F8DA2203EB0161E7E7674B1A68A2
:103EF000137BD07A927A1B0403EB00231344EFE781
:103F0000624B1A689378507812781B0403EB0023F5
:103F10001344E5E7D9F8001048077FF597AE002174
:103F20004FF4807012F033FD002384F8AF31FEF7B8
:103F30000BBE9CF8051000293FF488AE544B554940
:103F40001B6881FB0321DB17C3EBA10112F01FFDEE
:103F500084F8AF81FEF7F8BD9CF8051000293FF406
:103F600075AE4B4B4FF4C060996812F010FD002302
:103F700084F8AF31FEF7E8BD9CF8041000293FF447
:103F800065AE9AF8000000283FF460AE3E4B9B7B84
:103F9000002B00F033843B4B198891FBF0F101EBCF
:103FA000810149004FF4047012F0F1FC002384F801
:103FB000AF31FEF7C9BD4FF0010284F8AE21237086
:103FC000A4F8B011F0E5B4F8B021C2F1FF029342B9
:103FD0007FF4E6AD4FF0010384F8B331E0E54FF034
:103FE000010384F8B231DFE5012384F8D93242F2CB
:103FF0001071D0E616F0DEFA274B1A6840F6B83397
:10400000801A984200F28B81244F3B793A2B00F0C2
:10401000F88200232370FEF7B3BDD8F8000017F034
:1040200017F800287FF4BCAD4FF0010384F8AF31DE
:10403000BAE5D4F8B832DFF8689094F8D6224B4548
:1040400000F02984511C94F8D7E2D4F8BCC284F85B
:10405000D61202F00F028DF818200DF11902ACEB08
:104060000301002940F32D8506A902910DF11E07D9
:104070001BE000BF7C4E0020982A0020382300203F
:104080008C230020783C00209C3C0020AC230020A6
:104090007C3C002067666666482C0020302C00209F
:1040A000281E0020002840F3A3800133C4F8B83252
:1040B00013F8011C02F8011BBA42ACEB030081EAC1
:1040C0000E0EEFD384F8D7E200F0F584501CB8420E
:1040D00082F800E005D20EAB9A1A1B3A00211FF0BD
:1040E00063FD0299322012F037FC4FF000080023E4
:1040F00084F8C48284F8AF31FEF726BD16F0A0FF25
:10410000FEF7ECBC013BDBB284F8A431002B00F0DD
:10411000638294F8AC0112F8011B94F8AD318D4F15
:10412000C4F8A02101330A18386884F8AC2184F857
:10413000AD3116F091FFFEF7F6BC013A84F8EF229C
:10414000FFF7E9B8013B84F8EE32FEF7ACBF013B64
:1041500084F8F73219E40EF1FF3E84F8F6E2FFF737
:10416000BEB97D4B2A681B78C4F89421013B012B12
:104170003FF6CAAC1022022384F86A2184F86C311D
:10418000C2E4764A764B12680793A3F12407002015
:10419000212103F8240CD300B97040F12383714925
:1041A0000425714B1B88580500F11983DA0700F1CB
:1041B000B48303F002036D4A002B1CBF0425114693
:1041C0006B4B2A4618461FF0CAFC03460EA81D4436
:1041D000023B40F8205DED1A7D7018F09BFEFEF763
:1041E0004EBD12F007FC634B01221A70FEF75FBC54
:1041F00084F8D7E26AE75C4B1B88DA0515D4D80649
:1042000000F19683990600F12F845A0600F1A884E4
:10421000180700F1C484D90700F1B78413F0020F26
:104220000CBF4FF004084FF00C08534B534A1B7857
:10423000D278C3F380030AB143F002035320009302
:1042400012F072FB4E4A128802EB820202EB8202EB
:10425000900080B212F04EFB002012F04BFB494A56
:10426000494912883868C2EBC212520081FB023100
:1042700011444FEAE27ACAEB612A5FFA8AFA5146A0
:1042800016F0EAFE414B38681A78009B48EA0308AA
:104290003E4B8AEA020A002183F800A016F0DCFEF9
:1042A0004146386816F0D8FE384B384A1B783868D3
:1042B00088EA0303DBB21946137016F0CDFE94F8BA
:1042C000E432002B7FF496AB4F2012F02DFB17F059
:1042D0008BFE17F089FE17F087FE0121386816F073
:1042E000BBFE2B4A294B92F800801B78274A38687E
:1042F00008F00108414683F00103137016F0ACFE8C
:10430000224B38681B7888EA0308204B414683F823
:10431000008016F0A1FE94F8E432FFF76BBB1D4A53
:10432000B2F8E63200210133A2F8E6322170FEF73E
:1043300027BC0121186816F083FEFEF7F2BB864603
:104340008246014601900290039005908146FEF757
:10435000E3BE00BFBC3C0020BC350020784E0020EE
:10436000A84E0020A4630208982A0020BC6302081B
:10437000874E0020950000207C4E00201C24002049
:10438000783C00206643002003082080524C002027
:10439000BC430020701C0020022012F0A1FBD14B76
:1043A000DFF85CA3B3F900308AFB03124FEAE3792C
:1043B000C9EBA2090FFA89F95FFA89F012F066FBDE
:1043C000C9F3072012F062FB032012F089FBC64BF1
:1043D0001B78590740F1328218F020FBC34BB3F928
:1043E00006308AFB032ADB17C3EB6A031BB20028E3
:1043F00000F04F83DFB2C3F30729384612F046FBC3
:10440000484612F043FBDFF8FC9299F80430002B89
:1044100040F091820DF118094946B54812F0FAFAB8
:10442000132012F05DFBBDF91870F8B212F02EFBEC
:10443000C7F3072012F02AFB1B2012F051FBBDF935
:104440001A70F8B212F022FBC7F3072012F01EFB1D
:10445000232012F045FB4E2012F018FB002012F032
:1044600015FB4946A24812F0D5FA122012F038FB8B
:10447000BDF91870F8B212F009FBC7F3072012F06B
:1044800005FB1A2012F02CFBBDF91A70F8B212F0DD
:10449000FDFAC7F3072012F0F9FA222012F020FBF0
:1044A000452012F0F3FA002012F0F0FA5E21D8F85D
:1044B000000016F0D1FD94F86031FEF7A0BC8D4BE2
:1044C0008D4907930EAFA3F1210047F8200D4FF05F
:1044D000080E4FF000080A2003F822EC03F8230C22
:1044E00003F8248C384609880BF0E6FE834B844998
:1044F0001B6881FB0321DB17C3EBA101384689B29E
:104500000BF0DAFE7F4BB3F806900CF0C7FD069B6C
:104510005A1C069283F80080069B4FEA1922591C08
:1045200006911A70069B5A1C069283F80090069B0F
:104530005A1C06921870384618F0ECFCFEF79CBB2B
:10454000DFF8D0819FED708AB8F90230694A07928E
:1045500007EE903AF8EEE77A0EAF67EE887AA2F1AE
:104560002403FDEEE77AA2F12101002047F8201D87
:1045700002F8240C0822CDED007A5A701E229A709F
:10458000BDF8001038460BF097FEB8F9003007EE82
:10459000903AF8EEE77A384667EE887AFDEEE77AE9
:1045A000CDED007ABDF800100BF086FEB8F90430AE
:1045B00007EE903AF8EEE77A384667EE887AFDEE35
:1045C000E77ACDED007ABDF800100BF075FE3846A5
:1045D00018F0A0FCFEF74DBB94F8AC1194F8AD3187
:1045E0004A484A1C0133006884F8AC2184F8AD3194
:1045F00016F032FDFEF797BAC4F89C611F70FEF703
:1046000056BABB78DBB103F1FF3C5FFA8CFC0CF1CE
:10461000010CBC44BE4600221EF8013B534083EA15
:104620000313DBB2120AD90042EA0322F44581EAFD
:10463000131382EA0302EFD1002A7FF4EAAC344B71
:104640002D4ADFF8D4E019682C4B1288DFF8CC80B3
:10465000D1F830C0CEF818201A68B8F8E6829B6806
:10466000CEF828200022CEF86800CEF84830CEF8E8
:104670003820CEF85880BCF1000F00F07D82DCF8C5
:104680000430086C83423BBFCA681B1A1B1A9B1874
:10469000002B7EF46EAA0B68DFF884809B690846C5
:1046A000022198470423F87888F800300AF08AFE3F
:1046B00003232370FEF75FBA10230422184606A9CD
:1046C0008DF81A808DF81B808DF81C808DF81D8068
:1046D0008DF818308DF8192012F03EF984F8AF816A
:1046E000FEF732BAB23C00207C4E0020B43C0020E1
:1046F00080969800A84E0020783C00207C3C00204A
:10470000676666662823002058A08B41BC3C0020C9
:104710009C2C00208C230020A4000020701C002072
:1047200015010020A3785A09012A40F08B8103F07B
:104730000F0C13F0100300F09B81DFF8C483E378C3
:1047400094F804E0A4F8D20208EB03018EEA030017
:1047500084F8B4214346C4F8C882C4F8CC12A8F146
:10476000070284F8D402A4F8D0E294F8D402DFF867
:10477000948386460CE012F8011BC4F8C802424537
:1047800081EA0E0E197007D2D4F8CC12D4F8C832D0
:10479000994203F10100EED1424584F8D4E200F0E1
:1047A0003F82127894F8D4329A4200F0B181C84B1B
:1047B000C4F8B83200220133B4F8D012C4F8BC32C5
:1047C00084F8B42101234FF6F672A4F8C01284F8DD
:1047D000B83184F8C432A4F8C222FFF72CBA0425F9
:1047E000BC49EDE4DBF80030BB4ABC4903F480036C
:1047F00083420ABF114604250525D2E4B84B198827
:10480000FFF7CDBB102012F06BF9484612F03EF9CD
:10481000484612F03BF9212012F062F9484612F0A6
:1048200035F9484612F032F9FEF7BFBAAD49C978FA
:1048300000290CBF04210521FEF77DBFDFF8C892D7
:10484000A94BB9F80670A3FB0737BF08F8B212F0FE
:104850001DF9380A12F01AF9D7E50122D8F800003C
:104860001A7016F0F1FB0746D8F8000016F0ECFBC2
:104870007F067EF41CA98E287EF419A994F898313D
:10488000002B7EF42FA9994BC4F8A0312D2384F876
:10489000A431FEF713B9B4F9C212D4F8BCC294F82B
:1048A000C0E2501C02F00F0242F010020029B8BF13
:1048B00042F020028DF81820ACEB090282EA0E0EBD
:1048C0005FFA8EFE8DF8192084F8D60284F8D7E2BC
:1048D0000DF11A02FFF7C3BB854B9246B3F90030C6
:1048E00064200A46FEF70ABB7D495A790B8803EB20
:1048F000830303EB83034FEA830A1FFA8AFA002A31
:1049000040F05C814FF0FF331BB202930CF0C6FB0A
:10491000029B019A40B2FEF7F1BA764905254FE4B1
:10492000964692461146019202929146FEF7F4BBDA
:104930004FF0340879E4DFF8D4A19AF80020002A77
:104940003FF468ADB4F86271654B00921B883F017B
:104950006421BFB201FB03235100B3FBF1F347EA2B
:104960000327BFB2C3F303231F43062012F0B8F896
:10497000F8B212F08BF8380A12F088F8B4F8623105
:10498000574A5D491788009A01339BB293FBF2F0B6
:1049900002FB1033487BA4F86231012800F02D811E
:1049A0008B7B6E2202FB07F7152297FBF2F7002B99
:1049B00040F01D813A2012F093F8BFB24FF0640A24
:1049C000B7FBFAF293B2D8B20192009312F05EF8FC
:1049D000009B180A12F05AF83B2012F081F8019A55
:1049E0000AFB127080B20A23053090FBF3F0C0B2CC
:1049F00012F04CF8002012F049F8DFF8F4A028205B
:104A000012F06EF80A23DAF8007097FBF3F7F8B2A9
:104A100012F03CF8C7F3072012F038F8042012F027
:104A20005FF8B9F80630002B40F09E80DAF8087085
:104A300087F31007F8B212F029F8C7F3072012F035
:104A400025F8E7E4224B2D4AC4F8B832591C01235B
:104A500084F8B40184F8B801C4F8BC12C4F8C022C8
:104A600084F8C432FFF7E7B84FF02408FFF7DDBB46
:104A700094F8B421002A3FF4DEA894F8D52201323C
:104A800002F00F02624500F0848084F8B431FFF731
:104A9000D2B8DBF80020D2067FF5ACAC8146ACE49E
:104AA0004B1CDBB2042B84F8DA324FEA01617FF44D
:104AB00005AAFFF700BA0299322011F04DFFFFF767
:104AC00016BB06AB02930DF11E07FFF7FFBA00BF3E
:104AD000281E0020B0630208A8630208A46302082D
:104AE000783C00201C240020CDCCCCCCD81D00204C
:104AF0007C3C0020B46302089C3C00200000F6FFD0
:104B00007C1C0020781C002028230020B03C0020C2
:104B1000454BD4F8C822C4F8CC224FF0000E03F560
:104B20002B72114603F5D679C4F8BC2203F52F7019
:104B30007246C4F8C832C4F8C0E2C4F8B89284F827
:104B4000B4E1FBF725FB01302DD0D4F8B832C4F81E
:104B5000BC320123C4F8B89284F8C432FFF76BB8B2
:104B60004FF01008FFF761BB0CF098FA11F08EFFC0
:104B7000002011F08BFF4DE4C8690B6A98423BBFDF
:104B8000CA681218C31AD31A82E54FF00808FFF753
:104B90004CBBD4F8CC12D4F8C832244AE5E54FF027
:104BA0002008FFF742BBD4F8B8320222591CC4F8DF
:104BB000B8121A70C9E79146FEF7AEBA1C4B1B68D3
:104BC000A2E696469146FEF7A7BA964692469146C9
:104BD000FEF7A2BA9646924611469146FEF79CBA57
:104BE00096469246114601929146FEF795BABFB29B
:104BF0009AF8003097FBF3F7DCE6392011F070FFEC
:104C0000F8B211F043FF380A11F040FFF5E696467E
:104C1000924611460192029203929146FEF77CBAA7
:104C200084F8D5C2FFF707B87C1C0020731C002055
:104C30007C3C00202DE9F04FB64AB749137897B075
:104C40000446099000F59C4020300C900860002B31
:104C500000F03A86B14909688C4200F2A182B04B5B
:104C6000B04AD3F800C00793AF4B03931068DFF846
:104C700000B3DFF8009306920CF480530893DFF83A
:104C8000F8A21BB110F0010301F06F819AF80050F7
:104C900005F00405039B93F82330002B40F01A85A0
:104CA0001CF4004F40F01A871CF4807F09D09F4B02
:104CB000099A9F4E9A42B37800F28582002B40F009
:104CC00085829C4BB9F906209B4C04931CF48053BD
:104CD00000F01083810000F10D83984E0399F6884F
:104CE000C98C8F1BBA4240F3FC870E44B242B4BF5A
:104CF0000026012610F0805000F00683002D00F001
:104D000007838F4A05921146039AB1F90610528E15
:104D1000914280F2CA87002E40F002839BF8A820BF
:104D2000002A40F0FD828749874A096891F83610C9
:104D30000027176057609760002940F0F1828BF8D8
:104D4000A910002D40F0F2822578039AB9F900E00D
:104D5000118D528DB9F902007145B4BF802700272B
:104D600047F040037245D8BF3B469B0843F080079D
:104D70008142B8BF3B4643F040078242C8BF3B4632
:104D80009B08B9F90470B9F9060043F0800EB942E6
:104D9000B8BF734643F0400EBA42C8BF73469B0883
:104DA00043F080078842C8BF3B4643F040079BF86A
:104DB000B1E09042B8BF3B469E4500F02A860022F3
:104DC0008BF8B1308BF8B22075B92A46069B1B6868
:104DD000DF0740F1538600238BF8B330002E00F03C
:104DE0005187142A01F01581079BD3F800C00CF0FD
:104DF0000402002A40F02885544B002603F1500796
:104E000040F63308192440F283304FF0010E9A78AF
:104E1000D9788A4214FB020515D25A78043214FB61
:104E2000010139F912204245A8BF4246B2F5617F1F
:104E3000B8BF4FF46172954205DA914203DB1A78EC
:104E40000EFA02F2164304339F42E0D1069A404B19
:104E500016601A78002A00F066843E4B0893069B81
:104E60001A68910700F1F0821CF4807F40F0E7821D
:104E7000394B099319680498038823F001039BB206
:104E80005707038000F18A8623F002039BB2038058
:104E900011F00A0F14D0550640F119865C0641F155
:104EA0000C8010060CD52D4B2D48B3F90410049B33
:104EB00080FB0140C917C1EBA0011B88ABF8F410BF
:104EC000D10428490498097856BF23F4807343F429
:104ED00080739BB20829038000F01E840E2900F025
:104EE0001B841CF4806F79D01F4B1B7A002B40F081
:104EF00095829AF800305B0700F1938218F04CF825
:104F000001200EF021FF002863D0184F00244FF03D
:104F1000CC0836E0FC5100209C510020F8510020C4
:104F200060450020784E002030470020404B4C0068
:104F30001C240020982A0020B8160020842A002073
:104F4000B43C0020AC2300204C430020E04600206D
:104F5000A62A00204C1F0020342300208C23002090
:104F6000676666665C4500209C3C0020B4490020D2
:104F7000D0200020042300207C4E0020DCB2022C34
:104F800027D808FB04F6631CBD59002DF6D1C37861
:104F90009C4A90F9020052F82330019503220092B6
:104FA00001212A460EF060FC034604EB440000EBAE
:104FB00000100A934BB1294607EB8000CC221EF06B
:104FC000F3FD0A9BBB510134E4B214F07DFD0028CF
:104FD000D5D1049B079A1B88D2F800C0089AB9F96A
:104FE00006401268518901208C428BF8F60080F24D
:104FF0006B824FF07E52CBF8F8208348039AB9F9C0
:105000000070D18C027990F801E00578002AA7EBB6
:10501000010214BF01204FF0FF30002A80B240F39C
:105020004982B2F5FA7FC0F24A824FF4FA72521BFB
:1050300012B2059EB942328001DD52423280B9F986
:1050400002707A1A002A40F32B82B2F5FA7FC0F27E
:105050002C824FF4FA72521B12B2059DB9426A803B
:1050600001DD52426A80B9F904506A1A002AD8BF99
:105070004A1BB2F5FA7F80F20D827245D8BF00223A
:1050800000F30A82059E10FB02F08D42B080BCBF87
:105090004042B0801CF4805000F02F82B4F5FA6FCB
:1050A000A8BF4FF4FA64B4F57A7FB8BF4FF47A74AE
:1050B000A4F57A74554EE21786FB0475C2EB6512AF
:1050C0000BEB42052F46B5F9FC50B7F9FE706FF0B7
:1050D000630E0EFB02427C1B02FB04F286FB0246BF
:1050E000D217C2EB66122A44059C92B2E28020B12C
:1050F00006980068860000F165875D0600F112825F
:105100009AF800305C0700F1D182069A1268D00745
:1051100002D59BF88C201AB143F001038AF80030C5
:105120003B4A12781107BBF8BA205CBF03F0FE03BC
:105130008AF800301AB1099A1268920704D4BBF8B1
:10514000B420002A00F08C8123F0010302228AF8A7
:1051500000308BF8142115F02DFADBF81831C01A45
:1051600000281ADB9BF81431012B00F08D87C0F06A
:105170005387022B09D1274B1B6833B11A689B88D0
:10518000918A0B4218BF1B04936115F013FA00F5C6
:10519000F42000F59070CBF8180117B0BDE8F08F3F
:1051A0001D491E48D1F800C00791013B1C491370EE
:1051B0000CF480530690DFF874B000680391DFF8B8
:1051C000709008935BE50BB90123B37000F00063A6
:1051D000144A154C0593049296F8217096F82030E5
:1051E000DFF850805246A2462C461546052B00F2A9
:1051F0004481DFE813F05E000201C400290037009B
:105200004C0000BFF46202083C4D00201F85EB51AA
:10521000BC4300208047002060450020784E0020DD
:1052200030470020982A0020B8160020D020002007
:105230000423002084480020D8F8003047F2305280
:105240000323F26186F820302B7843F002032B70A1
:1052500011F07AFDD8F80020F36913440422B361F9
:1052600086F82020012F41F06281D8F80030B26921
:105270009A4280F002819AF8003023B9069B1868A0
:10528000C30700F1CD872B7823F002032B70C14BAD
:105290000499D8F80000DA880B884FF0640E0EFBF2
:1052A000020223F48063002032610B8086F8200024
:1052B000F070002C40F08B80059B5446AA46002BD2
:1052C00040F07F84049B1B8823F480639BB2049A84
:1052D0009AF80050138000233361069BB9F9062029
:1052E0001868079BD3F800C01CF4805305F0040530
:1052F0007FF4F0AC03990E8DB242B4BF00260126B4
:1053000010F080507FF4FAAC1CF4800F7FF4F6AC00
:1053100000228BF8A820A04A0592002E3FF403AD8E
:1053200001228BF8A920002D3FF40EAD1CF0100FC8
:105330003FF40AAD994A1278D2063FF505AD002B2D
:105340007FF402AD00287FF4FFAC1CF4800F7FF4E3
:10535000FBAC2578002D01F06182914B9B78002EEB
:1053600041F074823BB18F4ADBF8AC3012689B1A73
:10537000002BC1F2648201238BF8B030E5E4012FE9
:1053800004BF052386F82030002C3FF455AF039B63
:10539000D8F80010B3F926C07E4B00206CF30F0044
:1053A0006CF31F40B3F90220C9F8000000237069B4
:1053B0006CF30F0362F31F438142C9F804303FF6D8
:1053C0003DAF012F41F0938296F820300EE717F0A1
:1053D00025FB012801F06481059B23B16D4B1B79EE
:1053E000002B41F04781012F47D0D8F800303269B7
:1053F0009A420AD3012386F82030012F3FF447AFA9
:10540000644B1B7A012B40F0D68308F035FF032252
:1054100040F6B83386F82020F36115E7D7027FF510
:105420006DAD3C2016F05EFD00283FF4D2AD0EF0CD
:1054300003FA3C2016F012FD0028F8D1C9E55A4BBA
:10544000DB78002B3FF414AD584B099319688B0798
:105450007FF511AD049B04981B8843F0010313E50D
:105460005349098864293FF66FAEDB0756BF022314
:105470008BF814218BF814316DE6069BB9F90620E0
:105480001868079B5446AA462D78D3F800C005F04B
:1054900004051BE44FF4FA72A2EB0E0292B2F1E59E
:1054A000CA1BB2F5FA7FBFF6D4AD9542FFF6D3AD75
:1054B0000022D2E5CA1BB2F5FA7FBFF6B6AD95421F
:1054C000FFF6B5AD0022B4E5B4F5FA6F80F2F782CD
:1054D000107A621A02FB00F2C1F5FA6192FBF1F256
:1054E000C2F1640207EE902AF8EEE77A9FED317A76
:1054F00067EE877ACBED3E7A7FE5039A158DAC4255
:10550000C0F2E382B4F5FA6FD4BFC5EB0404C5F56D
:10551000FA644FF47A7202FB04F4C5F5FA65B4FB41
:10552000F5F4C7E5244B254AB3F90430BBF8F41071
:10553000DFED236A9FED287A82FB0302DB17C3EBC2
:10554000A2035B1A1BB207EE903AF8EEE77A67EE19
:10555000A67A77EE876ABDEEE66A16EE103A203339
:10556000402B40F2B084BDEEE77ADFED166A17EE0D
:10557000103A2033402B00F2F4849FED187AF4EEB9
:10558000C77AF1EE10FA41F38380DFED115A9FEDF7
:105590000E6A2DE09C2A0020B43C0020BC43002071
:1055A000484D0020844800201C2400203423002083
:1055B000542D00200AD7233C8C23002067666666A2
:1055C00035FA8E3C00000000E4CB1641DB0F49C0E9
:1055D000DB0FC940E4CB16C1DB0FC93FDB0F4940ED
:1055E00092E741B99730083C15A82ABEF0EE477AF9
:1055F000F4EEC67AF1EE10FA37EEE57AF6DC5FEDFE
:105600000D7AB4EEE77AF1EE10FA41F13D805FEDEC
:10561000105A1FED106A01E0B0EE677AB4EEC67A58
:10562000F1EE10FA77EE257AF6D41FED157AF4EE46
:10563000C77AF1EE10FA40F348831FED187A77EE3F
:10564000677A67EEA75A1FED1A5A1FED1A6A1FED07
:105650001A7AA5EE856A27EEA55AA5EE867AE5EEBA
:10566000077A0598B0F9023006EE103AB0F900302A
:1056700005EE903AB8EEC66AF8EEE55A27EEC67A1D
:1056800065EEA77AA5EEA67A0146E6EE267ABDEE8D
:10569000C77AFDEEE77A17EE102A17EE903A4380AC
:1056A0009AF8003002805C077FF52FAD7C4B7D4A75
:1056B0001B78126803F00103002A3FF46EAD002B43
:1056C000938812680CBF102100218B40936117B0A2
:1056D000BDE8F08F039A013B92F8252039F9133089
:1056E000002A40F06382A3F57A73B3F57A7FA8BFEE
:1056F0004FF47A7323EAE37307EE903A9FED6A7AE8
:10570000F8EEE77A67EE877A684AFCEEE77A17EEFA
:10571000903A1380FFF7C8BA23F0400304999BB274
:105720000B80FFF7DEBB624B9BF8BFC0614F089256
:1057300003F15A0640F6330E192540F28334CDF8B2
:1057400024A059789A78914215FB014030D293F801
:10575000008008F1040815FB024139F91820724550
:10576000A8BF7246B2F5617FB8BF4FF46172824242
:105770001EDD8A421CDC93F80580DA7893F804A0D9
:1057800008EB48010BEB8101013AD1F8C40002EBB0
:1057900042023A4482420BD0012000FA08F8C1F8D4
:1057A000C420089A81F8C0A02CEA080CC1F8C820CF
:1057B00006339E42C5D1404B089319463F4A404BA1
:1057C00009681B78D2F800803E4CDDF824A00A91CD
:1057D00009938BF8BFC000270125626852B3167881
:1057E00046B3A168A8EB010100290ADB9BF8BF10B2
:1057F00005FA07F021EA000108F5FA708BF8BF10EE
:10580000A060099BB3B1217850780431C9B2002857
:1058100040F05082039B39F911E0D88C00F1C801A7
:105820008E4540F3C0849BF8BF1092783941CB0776
:1058300040F1C5840137042F04F10C04CDD1079B3E
:10584000D3F800C0FFF70BBB9BF8B830A3B19AF8B0
:105850000030590710D5039BB9F906201B8D9A42D9
:105860000ADD069B1B6813F0010107D132228BF879
:10587000B810ABF8BC2001E0069B1B689A0340F10E
:10588000E8819BF8BE302BB99BF8B63013B93223B0
:10589000ABF8BC3001238BF8BE30FFF7ADBA00BFC8
:1058A0007C47002080470020AAF1823F6643002009
:1058B000403700202C4602084C1F0020844800205E
:1058C0004024002090210020DFF850B3C24B9BF809
:1058D00000500393C14E002D00F0AE81ADB1DFF852
:1058E0004083DFF840A3BD4FC1460024072C384653
:1058F000E1B2736840F36387984700B20134A54270
:105900002AF8020F09F10409F0D1B54B0793D3F837
:1059100000C0B44F099BA7FB033742F20103BA0949
:105920001CEA03030492069300F05281AE48AF4A8A
:10593000AF4B0078AF49059012781A70059B08703C
:105940002BB1AB4B93F800A08AF001030593AA4A50
:1059500003983478127890F830E010940B92C48E4B
:10596000878EC08C0B9A13909BF82900A34B0E9442
:1059700004461046A3FB00035B0803EB4303D31A62
:105980009BF800101296DBB20F220EF1040E0D935D
:105990009B4DDFF89492DFF89482109E8BF82820BC
:1059A0000CF48053CDF828B05FFA8EFE8A460F9231
:1059B00008930020CDF844C0A34629B9B64599BF45
:1059C000F2467146B2463146884280F20382059B18
:1059D000002B00F0AC818B4B33F910201FFA82FCB6
:1059E000BC454FEA400303D30E9CA44540F2EC8132
:1059F00058F82020049C944280F0A38139F90320B8
:105A0000069C002C40F0B98129F8032001300635AE
:105A1000D3E79BF8B220F92A00F22D810132D2B2ED
:105A20008BF8B2208BF8B130002D3FF4CFA9142AA7
:105A30007FF4DAA95F2B9AF8002000F0AB855007BD
:105A40003FF5D2A99BF8B130572B00F08F85079A0C
:105A5000D2F800C01CF0040200F046815A2B40F03E
:105A600043819BF8B630002B40F0CD869BF8B830D0
:105A700083F001038BF8B830FFF7BBB99AF8003018
:105A80005D077FF5AEA95B4B1B78002B3FF4A9A9FE
:105A90005D4BDB78002B7FF4A4A99BF8B330013376
:105AA000DBB2032B8BF8B3307FF69BA9574B5B78A7
:105AB00013B9002E7FF495A911F046F9E9E0127AA6
:105AC000C2F1640207EE902A0EE5044625E523F0B4
:105AD000400304999BB20B80FFF7E3B9DBF89030E9
